{
  "_format": "hh-sol-artifact-1",
  "contractName": "TavernKeeper",
  "sourceName": "contracts/TavernKeeper.sol",
  "abi": [
    {
      "inputs": [],
      "stateMutability": "nonpayable",
      "type": "constructor"
    },
    {
      "inputs": [
        {
          "internalType": "address",
          "name": "target",
          "type": "address"
        }
      ],
      "name": "AddressEmptyCode",
      "type": "error"
    },
    {
      "inputs": [],
      "name": "ECDSAInvalidSignature",
      "type": "error"
    },
    {
      "inputs": [
        {
          "internalType": "uint256",
          "name": "length",
          "type": "uint256"
        }
      ],
      "name": "ECDSAInvalidSignatureLength",
      "type": "error"
    },
    {
      "inputs": [
        {
          "internalType": "bytes32",
          "name": "s",
          "type": "bytes32"
        }
      ],
      "name": "ECDSAInvalidSignatureS",
      "type": "error"
    },
    {
      "inputs": [
        {
          "internalType": "address",
          "name": "implementation",
          "type": "address"
        }
      ],
      "name": "ERC1967InvalidImplementation",
      "type": "error"
    },
    {
      "inputs": [],
      "name": "ERC1967NonPayable",
      "type": "error"
    },
    {
      "inputs": [
        {
          "internalType": "address",
          "name": "sender",
          "type": "address"
        },
        {
          "internalType": "uint256",
          "name": "tokenId",
          "type": "uint256"
        },
        {
          "internalType": "address",
          "name": "owner",
          "type": "address"
        }
      ],
      "name": "ERC721IncorrectOwner",
      "type": "error"
    },
    {
      "inputs": [
        {
          "internalType": "address",
          "name": "operator",
          "type": "address"
        },
        {
          "internalType": "uint256",
          "name": "tokenId",
          "type": "uint256"
        }
      ],
      "name": "ERC721InsufficientApproval",
      "type": "error"
    },
    {
      "inputs": [
        {
          "internalType": "address",
          "name": "approver",
          "type": "address"
        }
      ],
      "name": "ERC721InvalidApprover",
      "type": "error"
    },
    {
      "inputs": [
        {
          "internalType": "address",
          "name": "operator",
          "type": "address"
        }
      ],
      "name": "ERC721InvalidOperator",
      "type": "error"
    },
    {
      "inputs": [
        {
          "internalType": "address",
          "name": "owner",
          "type": "address"
        }
      ],
      "name": "ERC721InvalidOwner",
      "type": "error"
    },
    {
      "inputs": [
        {
          "internalType": "address",
          "name": "receiver",
          "type": "address"
        }
      ],
      "name": "ERC721InvalidReceiver",
      "type": "error"
    },
    {
      "inputs": [
        {
          "internalType": "address",
          "name": "sender",
          "type": "address"
        }
      ],
      "name": "ERC721InvalidSender",
      "type": "error"
    },
    {
      "inputs": [
        {
          "internalType": "uint256",
          "name": "tokenId",
          "type": "uint256"
        }
      ],
      "name": "ERC721NonexistentToken",
      "type": "error"
    },
    {
      "inputs": [],
      "name": "EpochIdMismatch",
      "type": "error"
    },
    {
      "inputs": [],
      "name": "Expired",
      "type": "error"
    },
    {
      "inputs": [],
      "name": "FailedCall",
      "type": "error"
    },
    {
      "inputs": [],
      "name": "InvalidInitialization",
      "type": "error"
    },
    {
      "inputs": [],
      "name": "InvalidTreasury",
      "type": "error"
    },
    {
      "inputs": [],
      "name": "MaxPriceExceeded",
      "type": "error"
    },
    {
      "inputs": [],
      "name": "NotInitializing",
      "type": "error"
    },
    {
      "inputs": [
        {
          "internalType": "address",
          "name": "owner",
          "type": "address"
        }
      ],
      "name": "OwnableInvalidOwner",
      "type": "error"
    },
    {
      "inputs": [
        {
          "internalType": "address",
          "name": "account",
          "type": "address"
        }
      ],
      "name": "OwnableUnauthorizedAccount",
      "type": "error"
    },
    {
      "inputs": [],
      "name": "Reentrancy",
      "type": "error"
    },
    {
      "inputs": [],
      "name": "UUPSUnauthorizedCallContext",
      "type": "error"
    },
    {
      "inputs": [
        {
          "internalType": "bytes32",
          "name": "slot",
          "type": "bytes32"
        }
      ],
      "name": "UUPSUnsupportedProxiableUUID",
      "type": "error"
    },
    {
      "anonymous": false,
      "inputs": [
        {
          "indexed": true,
          "internalType": "address",
          "name": "owner",
          "type": "address"
        },
        {
          "indexed": true,
          "internalType": "address",
          "name": "approved",
          "type": "address"
        },
        {
          "indexed": true,
          "internalType": "uint256",
          "name": "tokenId",
          "type": "uint256"
        }
      ],
      "name": "Approval",
      "type": "event"
    },
    {
      "anonymous": false,
      "inputs": [
        {
          "indexed": true,
          "internalType": "address",
          "name": "owner",
          "type": "address"
        },
        {
          "indexed": true,
          "internalType": "address",
          "name": "operator",
          "type": "address"
        },
        {
          "indexed": false,
          "internalType": "bool",
          "name": "approved",
          "type": "bool"
        }
      ],
      "name": "ApprovalForAll",
      "type": "event"
    },
    {
      "anonymous": false,
      "inputs": [
        {
          "indexed": false,
          "internalType": "uint256",
          "name": "_fromTokenId",
          "type": "uint256"
        },
        {
          "indexed": false,
          "internalType": "uint256",
          "name": "_toTokenId",
          "type": "uint256"
        }
      ],
      "name": "BatchMetadataUpdate",
      "type": "event"
    },
    {
      "anonymous": false,
      "inputs": [
        {
          "indexed": false,
          "internalType": "uint64",
          "name": "version",
          "type": "uint64"
        }
      ],
      "name": "Initialized",
      "type": "event"
    },
    {
      "anonymous": false,
      "inputs": [
        {
          "indexed": true,
          "internalType": "address",
          "name": "oldToken",
          "type": "address"
        },
        {
          "indexed": true,
          "internalType": "address",
          "name": "newToken",
          "type": "address"
        }
      ],
      "name": "KeepTokenUpdated",
      "type": "event"
    },
    {
      "anonymous": false,
      "inputs": [
        {
          "indexed": false,
          "internalType": "uint256",
          "name": "_tokenId",
          "type": "uint256"
        }
      ],
      "name": "MetadataUpdate",
      "type": "event"
    },
    {
      "anonymous": false,
      "inputs": [
        {
          "indexed": true,
          "internalType": "uint256",
          "name": "tokenId",
          "type": "uint256"
        },
        {
          "indexed": false,
          "internalType": "string",
          "name": "newUri",
          "type": "string"
        }
      ],
      "name": "MetadataUpdated",
      "type": "event"
    },
    {
      "anonymous": false,
      "inputs": [
        {
          "indexed": true,
          "internalType": "address",
          "name": "king",
          "type": "address"
        },
        {
          "indexed": false,
          "internalType": "uint256",
          "name": "amount",
          "type": "uint256"
        }
      ],
      "name": "OfficeEarningsClaimed",
      "type": "event"
    },
    {
      "anonymous": false,
      "inputs": [
        {
          "indexed": true,
          "internalType": "address",
          "name": "newKing",
          "type": "address"
        },
        {
          "indexed": false,
          "internalType": "uint256",
          "name": "newPrice",
          "type": "uint256"
        },
        {
          "indexed": false,
          "internalType": "uint256",
          "name": "paidAmount",
          "type": "uint256"
        },
        {
          "indexed": false,
          "internalType": "string",
          "name": "uri",
          "type": "string"
        }
      ],
      "name": "OfficeTaken",
      "type": "event"
    },
    {
      "anonymous": false,
      "inputs": [
        {
          "indexed": true,
          "internalType": "address",
          "name": "previousOwner",
          "type": "address"
        },
        {
          "indexed": true,
          "internalType": "address",
          "name": "newOwner",
          "type": "address"
        }
      ],
      "name": "OwnershipTransferred",
      "type": "event"
    },
    {
      "anonymous": false,
      "inputs": [
        {
          "indexed": true,
          "internalType": "address",
          "name": "prevKing",
          "type": "address"
        },
        {
          "indexed": false,
          "internalType": "uint256",
          "name": "amount",
          "type": "uint256"
        }
      ],
      "name": "PreviousKingPaid",
      "type": "event"
    },
    {
      "anonymous": false,
      "inputs": [
        {
          "indexed": false,
          "internalType": "address",
          "name": "newSigner",
          "type": "address"
        }
      ],
      "name": "SignerUpdated",
      "type": "event"
    },
    {
      "anonymous": false,
      "inputs": [
        {
          "indexed": true,
          "internalType": "address",
          "name": "to",
          "type": "address"
        },
        {
          "indexed": true,
          "internalType": "uint256",
          "name": "tokenId",
          "type": "uint256"
        },
        {
          "indexed": false,
          "internalType": "uint256",
          "name": "price",
          "type": "uint256"
        }
      ],
      "name": "TavernKeeperMinted",
      "type": "event"
    },
    {
      "anonymous": false,
      "inputs": [
        {
          "indexed": true,
          "internalType": "address",
          "name": "to",
          "type": "address"
        },
        {
          "indexed": true,
          "internalType": "uint256",
          "name": "tokenId",
          "type": "uint256"
        },
        {
          "indexed": false,
          "internalType": "uint256",
          "name": "price",
          "type": "uint256"
        },
        {
          "indexed": false,
          "internalType": "uint256",
          "name": "nonce",
          "type": "uint256"
        }
      ],
      "name": "TavernKeeperMintedWithSignature",
      "type": "event"
    },
    {
      "anonymous": false,
      "inputs": [
        {
          "indexed": false,
          "internalType": "uint256",
          "name": "t1",
          "type": "uint256"
        },
        {
          "indexed": false,
          "internalType": "uint256",
          "name": "t2",
          "type": "uint256"
        },
        {
          "indexed": false,
          "internalType": "uint256",
          "name": "t3",
          "type": "uint256"
        }
      ],
      "name": "TierPricesUpdated",
      "type": "event"
    },
    {
      "anonymous": false,
      "inputs": [
        {
          "indexed": true,
          "internalType": "uint256",
          "name": "tokenId",
          "type": "uint256"
        },
        {
          "indexed": false,
          "internalType": "uint256",
          "name": "amount",
          "type": "uint256"
        }
      ],
      "name": "TokensClaimed",
      "type": "event"
    },
    {
      "anonymous": false,
      "inputs": [
        {
          "indexed": true,
          "internalType": "address",
          "name": "from",
          "type": "address"
        },
        {
          "indexed": true,
          "internalType": "address",
          "name": "to",
          "type": "address"
        },
        {
          "indexed": true,
          "internalType": "uint256",
          "name": "tokenId",
          "type": "uint256"
        }
      ],
      "name": "Transfer",
      "type": "event"
    },
    {
      "anonymous": false,
      "inputs": [
        {
          "indexed": true,
          "internalType": "address",
          "name": "treasury",
          "type": "address"
        },
        {
          "indexed": false,
          "internalType": "uint256",
          "name": "amount",
          "type": "uint256"
        }
      ],
      "name": "TreasuryFee",
      "type": "event"
    },
    {
      "anonymous": false,
      "inputs": [
        {
          "indexed": true,
          "internalType": "address",
          "name": "implementation",
          "type": "address"
        }
      ],
      "name": "Upgraded",
      "type": "event"
    },
    {
      "inputs": [],
      "name": "ABS_MAX_INIT_PRICE",
      "outputs": [
        {
          "internalType": "uint256",
          "name": "",
          "type": "uint256"
        }
      ],
      "stateMutability": "view",
      "type": "function"
    },
    {
      "inputs": [],
      "name": "DEFAULT_RATE",
      "outputs": [
        {
          "internalType": "uint256",
          "name": "",
          "type": "uint256"
        }
      ],
      "stateMutability": "view",
      "type": "function"
    },
    {
      "inputs": [],
      "name": "DIVISOR",
      "outputs": [
        {
          "internalType": "uint256",
          "name": "",
          "type": "uint256"
        }
      ],
      "stateMutability": "view",
      "type": "function"
    },
    {
      "inputs": [],
      "name": "EPOCH_PERIOD",
      "outputs": [
        {
          "internalType": "uint256",
          "name": "",
          "type": "uint256"
        }
      ],
      "stateMutability": "view",
      "type": "function"
    },
    {
      "inputs": [],
      "name": "FEE",
      "outputs": [
        {
          "internalType": "uint256",
          "name": "",
          "type": "uint256"
        }
      ],
      "stateMutability": "view",
      "type": "function"
    },
    {
      "inputs": [],
      "name": "HALVING_PERIOD",
      "outputs": [
        {
          "internalType": "uint256",
          "name": "",
          "type": "uint256"
        }
      ],
      "stateMutability": "view",
      "type": "function"
    },
    {
      "inputs": [],
      "name": "INITIAL_DPS",
      "outputs": [
        {
          "internalType": "uint256",
          "name": "",
          "type": "uint256"
        }
      ],
      "stateMutability": "view",
      "type": "function"
    },
    {
      "inputs": [],
      "name": "MIN_INIT_PRICE",
      "outputs": [
        {
          "internalType": "uint256",
          "name": "",
          "type": "uint256"
        }
      ],
      "stateMutability": "view",
      "type": "function"
    },
    {
      "inputs": [],
      "name": "NEW_PRICE_MULTIPLIER",
      "outputs": [
        {
          "internalType": "uint256",
          "name": "",
          "type": "uint256"
        }
      ],
      "stateMutability": "view",
      "type": "function"
    },
    {
      "inputs": [],
      "name": "PRECISION",
      "outputs": [
        {
          "internalType": "uint256",
          "name": "",
          "type": "uint256"
        }
      ],
      "stateMutability": "view",
      "type": "function"
    },
    {
      "inputs": [],
      "name": "PRICE_MULTIPLIER",
      "outputs": [
        {
          "internalType": "uint256",
          "name": "",
          "type": "uint256"
        }
      ],
      "stateMutability": "view",
      "type": "function"
    },
    {
      "inputs": [],
      "name": "TAIL_DPS",
      "outputs": [
        {
          "internalType": "uint256",
          "name": "",
          "type": "uint256"
        }
      ],
      "stateMutability": "view",
      "type": "function"
    },
    {
      "inputs": [],
      "name": "TIER1_MAX_ID",
      "outputs": [
        {
          "internalType": "uint256",
          "name": "",
          "type": "uint256"
        }
      ],
      "stateMutability": "view",
      "type": "function"
    },
    {
      "inputs": [],
      "name": "TIER2_MAX_ID",
      "outputs": [
        {
          "internalType": "uint256",
          "name": "",
          "type": "uint256"
        }
      ],
      "stateMutability": "view",
      "type": "function"
    },
    {
      "inputs": [],
      "name": "UPGRADE_INTERFACE_VERSION",
      "outputs": [
        {
          "internalType": "string",
          "name": "",
          "type": "string"
        }
      ],
      "stateMutability": "view",
      "type": "function"
    },
    {
      "inputs": [
        {
          "internalType": "address",
          "name": "to",
          "type": "address"
        },
        {
          "internalType": "uint256",
          "name": "tokenId",
          "type": "uint256"
        }
      ],
      "name": "approve",
      "outputs": [],
      "stateMutability": "nonpayable",
      "type": "function"
    },
    {
      "inputs": [
        {
          "internalType": "address",
          "name": "owner",
          "type": "address"
        }
      ],
      "name": "balanceOf",
      "outputs": [
        {
          "internalType": "uint256",
          "name": "",
          "type": "uint256"
        }
      ],
      "stateMutability": "view",
      "type": "function"
    },
    {
      "inputs": [
        {
          "internalType": "uint256",
          "name": "tokenId",
          "type": "uint256"
        }
      ],
      "name": "calculatePendingTokens",
      "outputs": [
        {
          "internalType": "uint256",
          "name": "",
          "type": "uint256"
        }
      ],
      "stateMutability": "view",
      "type": "function"
    },
    {
      "inputs": [],
      "name": "claimOfficeRewards",
      "outputs": [],
      "stateMutability": "nonpayable",
      "type": "function"
    },
    {
      "inputs": [
        {
          "internalType": "uint256",
          "name": "tokenId",
          "type": "uint256"
        }
      ],
      "name": "claimTokens",
      "outputs": [],
      "stateMutability": "nonpayable",
      "type": "function"
    },
    {
      "inputs": [
        {
          "internalType": "uint256",
          "name": "tokenId",
          "type": "uint256"
        }
      ],
      "name": "getApproved",
      "outputs": [
        {
          "internalType": "address",
          "name": "",
          "type": "address"
        }
      ],
      "stateMutability": "view",
      "type": "function"
    },
    {
      "inputs": [],
      "name": "getDps",
      "outputs": [
        {
          "internalType": "uint256",
          "name": "",
          "type": "uint256"
        }
      ],
      "stateMutability": "view",
      "type": "function"
    },
    {
      "inputs": [
        {
          "internalType": "uint256",
          "name": "tokenId",
          "type": "uint256"
        }
      ],
      "name": "getMintPrice",
      "outputs": [
        {
          "internalType": "uint256",
          "name": "",
          "type": "uint256"
        }
      ],
      "stateMutability": "view",
      "type": "function"
    },
    {
      "inputs": [],
      "name": "getPendingOfficeRewards",
      "outputs": [
        {
          "internalType": "uint256",
          "name": "",
          "type": "uint256"
        }
      ],
      "stateMutability": "view",
      "type": "function"
    },
    {
      "inputs": [],
      "name": "getPrice",
      "outputs": [
        {
          "internalType": "uint256",
          "name": "",
          "type": "uint256"
        }
      ],
      "stateMutability": "view",
      "type": "function"
    },
    {
      "inputs": [],
      "name": "getSlot0",
      "outputs": [
        {
          "components": [
            {
              "internalType": "uint8",
              "name": "locked",
              "type": "uint8"
            },
            {
              "internalType": "uint16",
              "name": "epochId",
              "type": "uint16"
            },
            {
              "internalType": "uint192",
              "name": "initPrice",
              "type": "uint192"
            },
            {
              "internalType": "uint40",
              "name": "startTime",
              "type": "uint40"
            },
            {
              "internalType": "uint256",
              "name": "dps",
              "type": "uint256"
            },
            {
              "internalType": "address",
              "name": "miner",
              "type": "address"
            },
            {
              "internalType": "string",
              "name": "uri",
              "type": "string"
            }
          ],
          "internalType": "struct TavernKeeper.Slot0",
          "name": "",
          "type": "tuple"
        }
      ],
      "stateMutability": "view",
      "type": "function"
    },
    {
      "inputs": [
        {
          "internalType": "address",
          "name": "owner",
          "type": "address"
        }
      ],
      "name": "getTokensOfOwner",
      "outputs": [
        {
          "internalType": "uint256[]",
          "name": "",
          "type": "uint256[]"
        }
      ],
      "stateMutability": "view",
      "type": "function"
    },
    {
      "inputs": [],
      "name": "initialize",
      "outputs": [],
      "stateMutability": "nonpayable",
      "type": "function"
    },
    {
      "inputs": [
        {
          "internalType": "address",
          "name": "_treasury",
          "type": "address"
        }
      ],
      "name": "initializeOfficeV2",
      "outputs": [],
      "stateMutability": "nonpayable",
      "type": "function"
    },
    {
      "inputs": [],
      "name": "initializeRPG",
      "outputs": [],
      "stateMutability": "nonpayable",
      "type": "function"
    },
    {
      "inputs": [
        {
          "internalType": "address",
          "name": "owner",
          "type": "address"
        },
        {
          "internalType": "address",
          "name": "operator",
          "type": "address"
        }
      ],
      "name": "isApprovedForAll",
      "outputs": [
        {
          "internalType": "bool",
          "name": "",
          "type": "bool"
        }
      ],
      "stateMutability": "view",
      "type": "function"
    },
    {
      "inputs": [],
      "name": "keepToken",
      "outputs": [
        {
          "internalType": "address",
          "name": "",
          "type": "address"
        }
      ],
      "stateMutability": "view",
      "type": "function"
    },
    {
      "inputs": [
        {
          "internalType": "uint256",
          "name": "",
          "type": "uint256"
        }
      ],
      "name": "lastClaimTime",
      "outputs": [
        {
          "internalType": "uint256",
          "name": "",
          "type": "uint256"
        }
      ],
      "stateMutability": "view",
      "type": "function"
    },
    {
      "inputs": [
        {
          "internalType": "string",
          "name": "uri",
          "type": "string"
        },
        {
          "internalType": "uint256",
          "name": "amount",
          "type": "uint256"
        },
        {
          "internalType": "uint256",
          "name": "deadline",
          "type": "uint256"
        },
        {
          "internalType": "bytes",
          "name": "signature",
          "type": "bytes"
        }
      ],
      "name": "mintTavernKeeper",
      "outputs": [
        {
          "internalType": "uint256",
          "name": "",
          "type": "uint256"
        }
      ],
      "stateMutability": "payable",
      "type": "function"
    },
    {
      "inputs": [
        {
          "internalType": "uint256",
          "name": "",
          "type": "uint256"
        }
      ],
      "name": "mintingRate",
      "outputs": [
        {
          "internalType": "uint256",
          "name": "",
          "type": "uint256"
        }
      ],
      "stateMutability": "view",
      "type": "function"
    },
    {
      "inputs": [],
      "name": "name",
      "outputs": [
        {
          "internalType": "string",
          "name": "",
          "type": "string"
        }
      ],
      "stateMutability": "view",
      "type": "function"
    },
    {
      "inputs": [
        {
          "internalType": "address",
          "name": "",
          "type": "address"
        }
      ],
      "name": "nonces",
      "outputs": [
        {
          "internalType": "uint256",
          "name": "",
          "type": "uint256"
        }
      ],
      "stateMutability": "view",
      "type": "function"
    },
    {
      "inputs": [],
      "name": "owner",
      "outputs": [
        {
          "internalType": "address",
          "name": "",
          "type": "address"
        }
      ],
      "stateMutability": "view",
      "type": "function"
    },
    {
      "inputs": [
        {
          "internalType": "uint256",
          "name": "tokenId",
          "type": "uint256"
        }
      ],
      "name": "ownerOf",
      "outputs": [
        {
          "internalType": "address",
          "name": "",
          "type": "address"
        }
      ],
      "stateMutability": "view",
      "type": "function"
    },
    {
      "inputs": [],
      "name": "proxiableUUID",
      "outputs": [
        {
          "internalType": "bytes32",
          "name": "",
          "type": "bytes32"
        }
      ],
      "stateMutability": "view",
      "type": "function"
    },
    {
      "inputs": [],
      "name": "renounceOwnership",
      "outputs": [],
      "stateMutability": "nonpayable",
      "type": "function"
    },
    {
      "inputs": [
        {
          "internalType": "address",
          "name": "to",
          "type": "address"
        },
        {
          "internalType": "string",
          "name": "uri",
          "type": "string"
        }
      ],
      "name": "safeMint",
      "outputs": [
        {
          "internalType": "uint256",
          "name": "",
          "type": "uint256"
        }
      ],
      "stateMutability": "nonpayable",
      "type": "function"
    },
    {
      "inputs": [
        {
          "internalType": "address",
          "name": "from",
          "type": "address"
        },
        {
          "internalType": "address",
          "name": "to",
          "type": "address"
        },
        {
          "internalType": "uint256",
          "name": "tokenId",
          "type": "uint256"
        }
      ],
      "name": "safeTransferFrom",
      "outputs": [],
      "stateMutability": "nonpayable",
      "type": "function"
    },
    {
      "inputs": [
        {
          "internalType": "address",
          "name": "from",
          "type": "address"
        },
        {
          "internalType": "address",
          "name": "to",
          "type": "address"
        },
        {
          "internalType": "uint256",
          "name": "tokenId",
          "type": "uint256"
        },
        {
          "internalType": "bytes",
          "name": "data",
          "type": "bytes"
        }
      ],
      "name": "safeTransferFrom",
      "outputs": [],
      "stateMutability": "nonpayable",
      "type": "function"
    },
    {
      "inputs": [
        {
          "internalType": "address",
          "name": "operator",
          "type": "address"
        },
        {
          "internalType": "bool",
          "name": "approved",
          "type": "bool"
        }
      ],
      "name": "setApprovalForAll",
      "outputs": [],
      "stateMutability": "nonpayable",
      "type": "function"
    },
    {
      "inputs": [
        {
          "internalType": "address",
          "name": "_keepToken",
          "type": "address"
        }
      ],
      "name": "setKeepTokenContract",
      "outputs": [],
      "stateMutability": "nonpayable",
      "type": "function"
    },
    {
      "inputs": [
        {
          "internalType": "address",
          "name": "_signer",
          "type": "address"
        }
      ],
      "name": "setSigner",
      "outputs": [],
      "stateMutability": "nonpayable",
      "type": "function"
    },
    {
      "inputs": [
        {
          "internalType": "uint256",
          "name": "_t1",
          "type": "uint256"
        },
        {
          "internalType": "uint256",
          "name": "_t2",
          "type": "uint256"
        },
        {
          "internalType": "uint256",
          "name": "_t3",
          "type": "uint256"
        }
      ],
      "name": "setTierPrices",
      "outputs": [],
      "stateMutability": "nonpayable",
      "type": "function"
    },
    {
      "inputs": [
        {
          "internalType": "address",
          "name": "_treasury",
          "type": "address"
        }
      ],
      "name": "setTreasury",
      "outputs": [],
      "stateMutability": "nonpayable",
      "type": "function"
    },
    {
      "inputs": [],
      "name": "signer",
      "outputs": [
        {
          "internalType": "address",
          "name": "",
          "type": "address"
        }
      ],
      "stateMutability": "view",
      "type": "function"
    },
    {
      "inputs": [],
      "name": "slot0",
      "outputs": [
        {
          "internalType": "uint8",
          "name": "locked",
          "type": "uint8"
        },
        {
          "internalType": "uint16",
          "name": "epochId",
          "type": "uint16"
        },
        {
          "internalType": "uint192",
          "name": "initPrice",
          "type": "uint192"
        },
        {
          "internalType": "uint40",
          "name": "startTime",
          "type": "uint40"
        },
        {
          "internalType": "uint256",
          "name": "dps",
          "type": "uint256"
        },
        {
          "internalType": "address",
          "name": "miner",
          "type": "address"
        },
        {
          "internalType": "string",
          "name": "uri",
          "type": "string"
        }
      ],
      "stateMutability": "view",
      "type": "function"
    },
    {
      "inputs": [
        {
          "internalType": "bytes4",
          "name": "interfaceId",
          "type": "bytes4"
        }
      ],
      "name": "supportsInterface",
      "outputs": [
        {
          "internalType": "bool",
          "name": "",
          "type": "bool"
        }
      ],
      "stateMutability": "view",
      "type": "function"
    },
    {
      "inputs": [],
      "name": "symbol",
      "outputs": [
        {
          "internalType": "string",
          "name": "",
          "type": "string"
        }
      ],
      "stateMutability": "view",
      "type": "function"
    },
    {
      "inputs": [
        {
          "internalType": "uint256",
          "name": "epochId",
          "type": "uint256"
        },
        {
          "internalType": "uint256",
          "name": "deadline",
          "type": "uint256"
        },
        {
          "internalType": "uint256",
          "name": "maxPrice",
          "type": "uint256"
        },
        {
          "internalType": "string",
          "name": "uri",
          "type": "string"
        }
      ],
      "name": "takeOffice",
      "outputs": [
        {
          "internalType": "uint256",
          "name": "price",
          "type": "uint256"
        }
      ],
      "stateMutability": "payable",
      "type": "function"
    },
    {
      "inputs": [],
      "name": "tier1Price",
      "outputs": [
        {
          "internalType": "uint256",
          "name": "",
          "type": "uint256"
        }
      ],
      "stateMutability": "view",
      "type": "function"
    },
    {
      "inputs": [],
      "name": "tier2Price",
      "outputs": [
        {
          "internalType": "uint256",
          "name": "",
          "type": "uint256"
        }
      ],
      "stateMutability": "view",
      "type": "function"
    },
    {
      "inputs": [],
      "name": "tier3Price",
      "outputs": [
        {
          "internalType": "uint256",
          "name": "",
          "type": "uint256"
        }
      ],
      "stateMutability": "view",
      "type": "function"
    },
    {
      "inputs": [
        {
          "internalType": "uint256",
          "name": "tokenId",
          "type": "uint256"
        }
      ],
      "name": "tokenURI",
      "outputs": [
        {
          "internalType": "string",
          "name": "",
          "type": "string"
        }
      ],
      "stateMutability": "view",
      "type": "function"
    },
    {
      "inputs": [
        {
          "internalType": "address",
          "name": "from",
          "type": "address"
        },
        {
          "internalType": "address",
          "name": "to",
          "type": "address"
        },
        {
          "internalType": "uint256",
          "name": "tokenId",
          "type": "uint256"
        }
      ],
      "name": "transferFrom",
      "outputs": [],
      "stateMutability": "nonpayable",
      "type": "function"
    },
    {
      "inputs": [
        {
          "internalType": "address",
          "name": "newOwner",
          "type": "address"
        }
      ],
      "name": "transferOwnership",
      "outputs": [],
      "stateMutability": "nonpayable",
      "type": "function"
    },
    {
      "inputs": [],
      "name": "treasury",
      "outputs": [
        {
          "internalType": "address",
          "name": "",
          "type": "address"
        }
      ],
      "stateMutability": "view",
      "type": "function"
    },
    {
      "inputs": [
        {
          "internalType": "uint256",
          "name": "tokenId",
          "type": "uint256"
        },
        {
          "internalType": "string",
          "name": "newUri",
          "type": "string"
        }
      ],
      "name": "updateTokenURI",
      "outputs": [],
      "stateMutability": "nonpayable",
      "type": "function"
    },
    {
      "inputs": [
        {
          "internalType": "address",
          "name": "newImplementation",
          "type": "address"
        },
        {
          "internalType": "bytes",
          "name": "data",
          "type": "bytes"
        }
      ],
      "name": "upgradeToAndCall",
      "outputs": [],
      "stateMutability": "payable",
      "type": "function"
    },
    {
      "inputs": [],
      "name": "v2StartTime",
      "outputs": [
        {
          "internalType": "uint256",
          "name": "",
          "type": "uint256"
        }
      ],
      "stateMutability": "view",
      "type": "function"
    }
  ],
  "bytecode": "0x60a060405230608052348015610013575f80fd5b5061001c610021565b6100d3565b7ff0c57e16840df040f15088dc2f81fe391c3923bec73e23a9662efc9c229c6a00805468010000000000000000900460ff16156100715760405163f92ee8a960e01b815260040160405180910390fd5b80546001600160401b03908116146100d05780546001600160401b0319166001600160401b0390811782556040519081527fc7f505b2f371ae2175ee4913f4499e1f2633a7b5936321eed1cdaeb6115181d29060200160405180910390a15b50565b60805161459c6100f95f395f8181612e5e01528181612e870152612fc6015261459c5ff3fe6080604052600436106103b3575f3560e01c80637ecebe00116101e9578063b0a13a5c11610108578063d204c45e1161009d578063ef2e0d251161006d578063ef2e0d25146108ba578063f0f4426014610a46578063f2fde38b14610a65578063fb8b51a014610a84575f80fd5b8063d204c45e146109ca578063e5eb39ec146109e9578063e69be3f314610a08578063e985e9c514610a27575f80fd5b8063c57981b5116100d8578063c57981b514610961578063c762f77314610976578063c87b56dd1461098a578063c9ae5e0c146109a9575f80fd5b8063b0a13a5c14610905578063b5d3b8ae14610919578063b88d4fde1461092e578063b891f48f1461094d575f80fd5b806398d5fdca1161017e578063a2e66a0f1161014e578063a2e66a0f1461089f578063a3e860fe146103b7578063aaf5eb68146108ba578063ad3cb1cc146108d5575f80fd5b806398d5fdca146108445780639c511ad4146108585780639e4217261461086d578063a22cb46514610880575f80fd5b8063889bb00f116101b9578063889bb00f146107ee57806388f4b49e146108025780638da5cb5b1461081c57806395d89b4114610830575f80fd5b80637ecebe00146107845780638129fc1c146107af578063877dab7e146107c357806387995660146104a1575f80fd5b80633e206634116102d5578063559e775b1161026a5780636352211e1161023a5780636352211e146107135780636c19e7831461073257806370a0823114610751578063715018a614610770575f80fd5b8063559e775b1461067e5780635de6dc551461069d5780635fea89f1146106c957806361d027b3146106f4575f80fd5b806346e04a2f116102a557806346e04a2f146106235780634a079215146106425780634f1ef2861461065757806352d1902d1461066a575f80fd5b80633e206634146105bd57806342842e0e146105d0578063439d8f4e146105ef578063467c5adf14610604575f80fd5b80631fa2a6ae1161034b5780633410fe6e1161031b5780633410fe6e1461054c5780633850c7bd146105615780633adde9c1146105885780633dbc71fa1461059e575f80fd5b80631fa2a6ae146104db578063238ac933146104fa57806323b872dd146105195780632d72c99f14610538575f80fd5b8063081812fc11610386578063081812fc14610449578063095ea7b314610480578063113990b8146104a157806318e97fd1146104bc575f80fd5b80630169916a146103b757806301ffc9a7146103e457806306fdde031461041357806307d2e1e214610434575b5f80fd5b3480156103c2575f80fd5b506103d1662386f26fc1000081565b6040519081526020015b60405180910390f35b3480156103ef575f80fd5b506104036103fe366004613d6f565b610a99565b60405190151581526020016103db565b34801561041e575f80fd5b50610427610aa9565b6040516103db9190613db8565b34801561043f575f80fd5b506103d160125481565b348015610454575f80fd5b50610468610463366004613dca565b610b4a565b6040516001600160a01b0390911681526020016103db565b34801561048b575f80fd5b5061049f61049a366004613dfc565b610b5e565b005b3480156104ac575f80fd5b506103d1671bc16d674ec8000081565b3480156104c7575f80fd5b5061049f6104d6366004613ec7565b610b6d565b3480156104e6575f80fd5b5061049f6104f5366004613f0a565b610c96565b348015610505575f80fd5b50600754610468906001600160a01b031681565b348015610524575f80fd5b5061049f610533366004613f33565b610cf4565b348015610543575f80fd5b506103d1606481565b348015610557575f80fd5b506103d161271081565b34801561056c575f80fd5b50610575610d7d565b6040516103db9796959493929190613f6d565b348015610593575f80fd5b506103d162278d0081565b3480156105a9575f80fd5b5061049f6105b8366004613fd3565b610e53565b6103d16105cb366004613fec565b610efd565b3480156105db575f80fd5b5061049f6105ea366004613f33565b6111de565b3480156105fa575f80fd5b506103d160065481565b34801561060f575f80fd5b50600154610468906001600160a01b031681565b34801561062e575f80fd5b5061049f61063d366004613dca565b6111fd565b34801561064d575f80fd5b506103d160055481565b61049f610665366004614091565b61138c565b348015610675575f80fd5b506103d16113a7565b348015610689575f80fd5b506103d1610698366004613dca565b505f90565b3480156106a8575f80fd5b506106bc6106b7366004613fd3565b6113c2565b6040516103db91906140c5565b3480156106d4575f80fd5b506103d16106e3366004613dca565b60036020525f908152604090205481565b3480156106ff575f80fd5b50601154610468906001600160a01b031681565b34801561071e575f80fd5b5061046861072d366004613dca565b611496565b34801561073d575f80fd5b5061049f61074c366004613fd3565b6114a0565b34801561075c575f80fd5b506103d161076b366004613fd3565b61154b565b34801561077b575f80fd5b5061049f6115a3565b34801561078f575f80fd5b506103d161079e366004613fd3565b60086020525f908152604090205481565b3480156107ba575f80fd5b5061049f6115b6565b3480156107ce575f80fd5b506103d16107dd366004613dca565b60026020525f908152604090205481565b3480156107f9575f80fd5b5061049f611712565b34801561080d575f80fd5b506103d16001600160c01b0381565b348015610827575f80fd5b506104686117c3565b34801561083b575f80fd5b506104276117f1565b34801561084f575f80fd5b506103d161182f565b348015610863575f80fd5b506103d1610e1081565b6103d161087b366004614107565b61195e565b34801561088b575f80fd5b5061049f61089a36600461415c565b612225565b3480156108aa575f80fd5b506103d1673782dace9d90000081565b3480156108c5575f80fd5b506103d1670de0b6b3a764000081565b3480156108e0575f80fd5b50610427604051806040016040528060058152602001640352e302e360dc1b81525081565b348015610910575f80fd5b506103d1612230565b348015610924575f80fd5b506103d16103e881565b348015610939575f80fd5b5061049f610948366004614195565b61225f565b348015610958575f80fd5b506103d1612277565b34801561096c575f80fd5b506103d16107d081565b348015610981575f80fd5b5061049f6123b8565b348015610995575f80fd5b506104276109a4366004613dca565b61278a565b3480156109b4575f80fd5b506109bd612795565b6040516103db91906141e0565b3480156109d5575f80fd5b506103d16109e4366004614091565b6128f6565b3480156109f4575f80fd5b506103d1610a03366004613dca565b612952565b348015610a13575f80fd5b5061049f610a22366004613fd3565b6129a7565b348015610a32575f80fd5b50610403610a41366004614266565b612a76565b348015610a51575f80fd5b5061049f610a60366004613fd3565b612ac2565b348015610a70575f80fd5b5061049f610a7f366004613fd3565b612b67565b348015610a8f575f80fd5b506103d160045481565b5f610aa382612ba4565b92915050565b5f805160206145278339815191528054606091908190610ac890614297565b80601f0160208091040260200160405190810160405280929190818152602001828054610af490614297565b8015610b3f5780601f10610b1657610100808354040283529160200191610b3f565b820191905f5260205f20905b815481529060010190602001808311610b2257829003601f168201915b505050505091505090565b5f610b5482612bc8565b50610aa382612bff565b610b69828233612c38565b5050565b33610b7783612c45565b6001600160a01b031614610bed5760405162461bcd60e51b815260206004820152603260248201527f54617665726e4b65657065723a204f6e6c7920746f6b656e206f776e65722063604482015271616e20757064617465206d6574616461746160701b60648201526084015b60405180910390fd5b5f815111610c505760405162461bcd60e51b815260206004820152602a60248201527f54617665726e4b65657065723a204d65746164617461205552492063616e6e6f6044820152697420626520656d70747960b01b6064820152608401610be4565b610c5a8282612c7e565b817f459157ba24c7ab9878b165ef465fa6ae2ab42bcd8445f576be378768b0c4730982604051610c8a9190613db8565b60405180910390a25050565b610c9e612ce8565b60048390556005829055600681905560408051848152602081018490529081018290527fd378a4164f7b51ea70e857344abe0c937069a658b6847bf045b6351d29bb6b3b906060015b60405180910390a1505050565b6001600160a01b038216610d1d57604051633250574960e11b81525f6004820152602401610be4565b5f610d29838333612d1a565b9050836001600160a01b0316816001600160a01b031614610d77576040516364283d7b60e01b81526001600160a01b0380861660048301526024820184905282166044820152606401610be4565b50505050565b600d8054600e54600f546010805460ff851695610100860461ffff1695630100000081046001600160c01b031695600160d81b90910464ffffffffff169490936001600160a01b0390911692610dd290614297565b80601f0160208091040260200160405190810160405280929190818152602001828054610dfe90614297565b8015610e495780601f10610e2057610100808354040283529160200191610e49565b820191905f5260205f20905b815481529060010190602001808311610e2c57829003601f168201915b5050505050905087565b610e5b612ce8565b6001600160a01b038116610ea35760405162461bcd60e51b815260206004820152600f60248201526e496e76616c6964206164647265737360881b6044820152606401610be4565b6001546040516001600160a01b038084169216907e66a248680b348de6844119bb393b395f8a5ed03b28a64049b28a4538ab3121905f90a3600180546001600160a01b0319166001600160a01b0392909216919091179055565b6007545f906001600160a01b0316610f485760405162461bcd60e51b815260206004820152600e60248201526d14da59db995c881b9bdd081cd95d60921b6044820152606401610be4565b83421115610f8c5760405162461bcd60e51b815260206004820152601160248201527014da59db985d1d5c9948195e1c1a5c9959607a1b6044820152606401610be4565b335f8181526008602090815260408083205481516bffffffffffffffffffffffff19606096871b811682860152603482018c90526054820192909252607481018a90524660948201523090951b1660b4850152805180850360a801815260c8909401905282519201919091207f19457468657265756d205369676e6564204d6573736167653a0a3332000000008252601c819052603c82209091505f61106986868080601f0160208091040260200160405190810160405280939291908181526020018383808284375f920191909152508693925050612e1c9050565b6007549091506001600160a01b038083169116146110bd5760405162461bcd60e51b8152602060048201526011602482015270496e76616c6964207369676e617475726560781b6044820152606401610be4565b335f9081526008602052604081208054916110d7836142dd565b919050555087341461112b5760405162461bcd60e51b815260206004820152601860248201527f496e636f7272656374207061796d656e7420616d6f756e7400000000000000006044820152606401610be4565b5f546111373382612e3a565b611141818b612c7e565b5f81815260026020908152604080832042905560039091528120662386f26fc10000905580549080611172836142dd565b9091555050335f818152600860205260409020548291907f559169fe4c72d6f1e53ecb3e9d1efe919b7a20073e25657125caa4f764456659908c906111b9906001906142f5565b6040805192835260208301919091520160405180910390a39998505050505050505050565b6111f883838360405180602001604052805f81525061225f565b505050565b3361120782611496565b6001600160a01b03161461124f5760405162461bcd60e51b815260206004820152600f60248201526e2737ba103a37b5b2b71037bbb732b960891b6044820152606401610be4565b6001546001600160a01b031661129b5760405162461bcd60e51b815260206004820152601160248201527012d9595c151bdad95b881b9bdd081cd95d607a1b6044820152606401610be4565b5f6112a582612952565b90505f81116112ea5760405162461bcd60e51b81526020600482015260116024820152704e6f20746f6b656e732070656e64696e6760781b6044820152606401610be4565b5f828152600260205260409081902042905560015490516340c10f1960e01b8152336004820152602481018390526001600160a01b03909116906340c10f19906044015f604051808303815f87803b158015611344575f80fd5b505af1158015611356573d5f803e3d5ffd5b50505050817fbde2d72390af9d0444bb1c4f938971ecb673ed26f5f57f8fa44c553fe01d0d3a82604051610c8a91815260200190565b611394612e53565b61139d82612ef7565b610b698282612eff565b5f6113b0612fbb565b505f8051602061454783398151915290565b60605f6113ce8361154b565b90505f816001600160401b038111156113e9576113e9613e24565b604051908082528060200260200182016040528015611412578160200160208202803683370190505b5090505f60015b838210801561142857505f5481105b1561148c57856001600160a01b031661144082612c45565b6001600160a01b03160361147a578083838151811061146157611461614308565b602090810291909101015281611476816142dd565b9250505b80611484816142dd565b915050611419565b5090949350505050565b5f610aa382612bc8565b6114a8612ce8565b6001600160a01b0381166114f75760405162461bcd60e51b8152602060048201526016602482015275496e76616c6964207369676e6572206164647265737360501b6044820152606401610be4565b600780546001600160a01b0319166001600160a01b0383169081179091556040519081527f5553331329228fbd4123164423717a4a7539f6dfa1c3279a923b98fd681a6c739060200160405180910390a150565b5f5f805160206145278339815191526001600160a01b038316611583576040516322718ad960e21b81525f6004820152602401610be4565b6001600160a01b039092165f908152600390920160205250604090205490565b6115ab612ce8565b6115b45f613004565b565b5f6115bf613074565b805490915060ff600160401b82041615906001600160401b03165f811580156115e55750825b90505f826001600160401b031660011480156116005750303b155b90508115801561160e575080155b1561162c5760405163f92ee8a960e01b815260040160405180910390fd5b845467ffffffffffffffff19166001178555831561165657845460ff60401b1916600160401b1785555b6116ac6040518060400160405280601681526020017524b73725b2b2b832b9102a30bb32b93725b2b2b832b960511b8152506040518060400160405280600681526020016525a2a2a822a960d11b81525061309c565b6116b46130ae565b6116bd336130b6565b6116c56130ae565b831561170b57845460ff60401b19168555604051600181527fc7f505b2f371ae2175ee4913f4499e1f2633a7b5936321eed1cdaeb6115181d29060200160405180910390a15b5050505050565b60035f61171d613074565b8054909150600160401b900460ff1680611744575080546001600160401b03808416911610155b156117625760405163f92ee8a960e01b815260040160405180910390fd5b805468ffffffffffffffffff19166001600160401b038316908117600160401b1760ff60401b191682556040519081527fc7f505b2f371ae2175ee4913f4499e1f2633a7b5936321eed1cdaeb6115181d29060200160405180910390a15050565b7f9016d09d72d40fdae2fd8ceac6b6234c7706214fd39c1cd1e609a0528c199300546001600160a01b031690565b7f80bb2b638cc20bc4d0a60d66940f3ab4a00c1d7b313497ca82fb0b4ab007930180546060915f8051602061452783398151915291610ac890614297565b600d545f9060ff166002036118575760405163558a1e0360e11b815260040160405180910390fd5b6040805160e081018252600d805460ff81168352610100810461ffff166020840152630100000081046001600160c01b031693830193909352600160d81b90920464ffffffffff166060820152600e546080820152600f546001600160a01b031660a082015260108054611959939160c08401916118d490614297565b80601f016020809104026020016040519081016040528092919081815260200182805461190090614297565b801561194b5780601f106119225761010080835404028352916020019161194b565b820191905f5260205f20905b81548152906001019060200180831161192e57829003601f168201915b5050505050815250506130c7565b905090565b600d545f9060ff166002036119865760405163558a1e0360e11b815260040160405180910390fd5b600d805460ff19166002179055428410156119b457604051630407b05b60e31b815260040160405180910390fd5b6040805160e081018252600d805460ff81168352610100810461ffff166020840152630100000081046001600160c01b031693830193909352600160d81b90920464ffffffffff166060820152600e546080820152600f546001600160a01b031660a0820152601080545f939160c0840191611a2f90614297565b80601f0160208091040260200160405190810160405280929190818152602001828054611a5b90614297565b8015611aa65780601f10611a7d57610100808354040283529160200191611aa6565b820191905f5260205f20905b815481529060010190602001808311611a8957829003601f168201915b5050505050815250509050855f14158015611acd5750806020015161ffff168661ffff1614155b15611aeb5760405163608fb7bf60e01b815260040160405180910390fd5b611af4816130c7565b915083821115611b1757604051631d5ece5360e01b815260040160405180910390fd5b81341015611b5e5760405162461bcd60e51b8152602060048201526014602482015273125b9cdd59999a58da595b9d081c185e5b595b9d60621b6044820152606401610be4565b5f611b6983346142f5565b90508015611bf8576040515f90339083908381818185875af1925050503d805f8114611bb0576040519150601f19603f3d011682016040523d82523d5f602084013e611bb5565b606091505b5050905080611bf65760405162461bcd60e51b815260206004820152600d60248201526c1499599d5b990819985a5b1959609a1b6044820152606401610be4565b505b8215611f74575f612710611c0e6107d08661431c565b611c189190614333565b90505f611c2582866142f5565b90505f611c33600484614333565b90505f611c4082856142f5565b90505f611c4b6117c3565b6001600160a01b0316836040515f6040518083038185875af1925050503d805f8114611c92576040519150601f19603f3d011682016040523d82523d5f602084013e611c97565b606091505b5050905080611cde5760405162461bcd60e51b815260206004820152601360248201527211195d881d1c985b9cd9995c8819985a5b1959606a1b6044820152606401610be4565b6011546001600160a01b031615611dd7576011546040515f916001600160a01b03169084908381818185875af1925050503d805f8114611d39576040519150601f19603f3d011682016040523d82523d5f602084013e611d3e565b606091505b5050905080611d8f5760405162461bcd60e51b815260206004820152601860248201527f5472656173757279207472616e73666572206661696c656400000000000000006044820152606401610be4565b6011546040518481526001600160a01b03909116907f44c4b50ac44926f55eefc40ddaf8d1a7848627c9fd4b811e4a36f9985d78aba29060200160405180910390a250611e77565b5f611de06117c3565b6001600160a01b0316836040515f6040518083038185875af1925050503d805f8114611e27576040519150601f19603f3d011682016040523d82523d5f602084013e611e2c565b606091505b5050905080611e755760405162461bcd60e51b815260206004820152601560248201527413dddb995c881d1c985b9cd9995c8819985a5b1959605a1b6044820152606401610be4565b505b60a08701516001600160a01b031615611f6e575f8760a001516001600160a01b0316856040515f6040518083038185875af1925050503d805f8114611ed7576040519150601f19603f3d011682016040523d82523d5f602084013e611edc565b606091505b5050905080611f255760405162461bcd60e51b8152602060048201526015602482015274135a5b995c881d1c985b9cd9995c8819985a5b1959605a1b6044820152606401610be4565b8760a001516001600160a01b03167f58616205e0a5e583fa41138b0b6ba26d640390a34951e96a8b313dc315da6acb86604051611f6491815260200190565b60405180910390a2505b50505050505b5f670de0b6b3a7640000611f90671bc16d674ec800008661431c565b611f9a9190614333565b90506001600160c01b03811115611fb957506001600160c01b03611fd4565b670de0b6b3a7640000811015611fd45750670de0b6b3a76400005b5f836060015164ffffffffff1642611fec91906142f5565b90505f846080015182611fff919061431c565b6001549091506001600160a01b031615801590612028575060a08501516001600160a01b031615155b156120da5760015460a08601516040516340c10f1960e01b81526001600160a01b039182166004820152602481018490529116906340c10f19906044015f604051808303815f87803b15801561207c575f80fd5b505af115801561208e573d5f803e3d5ffd5b505050508460a001516001600160a01b03167fab89eac8a47ec964c442bedde0fe9093248f72a543e70ff346e31b652827c663826040516120d191815260200190565b60405180910390a25b60208501805160010161ffff1690526001600160c01b03831660408601524264ffffffffff811660608701523360a087015261211590613164565b6080860181905260c086018890528551600d8054602089015160408a015160608b015164ffffffffff16600160d81b026001600160d81b036001600160c01b039092166301000000029190911662ffffff61ffff9093166101000262ffffff1990941660ff90961695909517929092171692909217919091178155600e9190915560a0860151600f80546001600160a01b039092166001600160a01b0319909216919091179055859060106121ca8a82614396565b50506040513391507f6bd27feda26da893d76f461d47d2c4f4c71df28c61d91a79c073d511716f7ab79061220390899081908c90614450565b60405180910390a25050505050600d805460ff19166001179055949350505050565b610b693383836131da565b600d545f9060ff166002036122585760405163558a1e0360e11b815260040160405180910390fd5b50600e5490565b61226a848484610cf4565b610d773385858585613289565b6040805160e081018252600d805460ff81168352610100810461ffff166020840152630100000081046001600160c01b031693830193909352600160d81b90920464ffffffffff166060820152600e546080820152600f546001600160a01b031660a0820152601080545f93849392909160c0840191906122f790614297565b80601f016020809104026020016040519081016040528092919081815260200182805461232390614297565b801561236e5780601f106123455761010080835404028352916020019161236e565b820191905f5260205f20905b81548152906001019060200180831161235157829003601f168201915b50505050508152505090505f816060015164ffffffffff164261239191906142f5565b90505f81116123a2575f9250505090565b60808201516123b1908261431c565b9250505090565b600d5460ff166002036123de5760405163558a1e0360e11b815260040160405180910390fd5b600d805460ff191660029081178083556040805160e08101825292835261ffff61010083041660208401526001600160c01b0363010000008304169083015264ffffffffff600160d81b909104166060820152600e546080820152600f546001600160a01b031660a0820152601080545f939160c084019161245f90614297565b80601f016020809104026020016040519081016040528092919081815260200182805461248b90614297565b80156124d65780601f106124ad576101008083540402835291602001916124d6565b820191905f5260205f20905b8154815290600101906020018083116124b957829003601f168201915b50505050508152505090508060a001516001600160a01b0316336001600160a01b0316146125395760405162461bcd60e51b815260206004820152601060248201526f4e6f742063757272656e74206b696e6760801b6044820152606401610be4565b6001546001600160a01b03166125855760405162461bcd60e51b815260206004820152601160248201527012d9595c151bdad95b881b9bdd081cd95d607a1b6044820152606401610be4565b5f816060015164ffffffffff164261259d91906142f5565b90505f81116125df5760405162461bcd60e51b815260206004820152600e60248201526d139bc81d1a5b59481c185cdcd95960921b6044820152606401610be4565b5f8260800151826125f0919061431c565b90505f811161262e5760405162461bcd60e51b815260206004820152600a6024820152694e6f207265776172647360b01b6044820152606401610be4565b4264ffffffffff16606084018190528351600d80546020870151604088015160ff90941662ffffff199092169190911761010061ffff909216919091021762ffffff1663010000006001600160c01b03909316929092026001600160d81b031691909117600160d81b9092029190911781556080840151600e5560a0840151600f80546001600160a01b0319166001600160a01b0390921691909117905560c08401518491906010906126e19082614396565b50506001546040516340c10f1960e01b8152336004820152602481018490526001600160a01b0390911691506340c10f19906044015f604051808303815f87803b15801561272d575f80fd5b505af115801561273f573d5f803e3d5ffd5b50506040518381523392507fab89eac8a47ec964c442bedde0fe9093248f72a543e70ff346e31b652827c663915060200160405180910390a25050600d805460ff1916600117905550565b6060610aa3826133b0565b6040805160e0810182525f8082526020820181905291810182905260608082018390526080820183905260a082019290925260c0810191909152600d5460ff166002036127f55760405163558a1e0360e11b815260040160405180910390fd5b6040805160e081018252600d805460ff81168352610100810461ffff166020840152630100000081046001600160c01b031693830193909352600160d81b90920464ffffffffff166060820152600e546080820152600f546001600160a01b031660a08201526010805491929160c08401919061287190614297565b80601f016020809104026020016040519081016040528092919081815260200182805461289d90614297565b80156128e85780601f106128bf576101008083540402835291602001916128e8565b820191905f5260205f20905b8154815290600101906020018083116128cb57829003601f168201915b505050505081525050905090565b5f6128ff612ce8565b5f8054818061290d836142dd565b91905055905061291d8482612e3a565b6129278184612c7e565b5f81815260026020908152604080832042905560039091529020662386f26fc1000090559392505050565b5f81815260026020526040812054810361296d57505f919050565b5f8281526002602052604081205461298590426142f5565b5f848152600360205260409020549091506129a0908261431c565b9392505050565b6129af612ce8565b6011546001600160a01b031615612a015760405162461bcd60e51b815260206004820152601660248201527520b63932b0b23c9034b734ba34b0b634bd32b2102b1960511b6044820152606401610be4565b601180546001600160a01b039092166001600160a01b0319928316179055426012819055600d8054600f80549094163317909355673782dace9d900000600e5562ffff001964ffffffffff909216600160d81b0262ffffff909316929092176a0de0b6b3a76400000000001716610100179055565b6001600160a01b039182165f9081527f80bb2b638cc20bc4d0a60d66940f3ab4a00c1d7b313497ca82fb0b4ab00793056020908152604080832093909416825291909152205460ff1690565b612aca612ce8565b6001600160a01b038116612b135760405162461bcd60e51b815260206004820152601060248201526f496e76616c696420747265617375727960801b6044820152606401610be4565b601180546001600160a01b0319166001600160a01b0383169081179091556040515f81527f44c4b50ac44926f55eefc40ddaf8d1a7848627c9fd4b811e4a36f9985d78aba29060200160405180910390a250565b612b6f612ce8565b6001600160a01b038116612b9857604051631e4fbdf760e01b81525f6004820152602401610be4565b612ba181613004565b50565b5f6001600160e01b03198216632483248360e11b1480610aa35750610aa3826134df565b5f80612bd383612c45565b90506001600160a01b038116610aa357604051637e27328960e01b815260048101849052602401610be4565b5f9081527f80bb2b638cc20bc4d0a60d66940f3ab4a00c1d7b313497ca82fb0b4ab007930460205260409020546001600160a01b031690565b6111f8838383600161352e565b5f9081527f80bb2b638cc20bc4d0a60d66940f3ab4a00c1d7b313497ca82fb0b4ab007930260205260409020546001600160a01b031690565b5f8281527f0542a41881ee128a365a727b282c86fa859579490b9bb45aab8503648c8e790060208190526040909120612cb78382614396565b506040518381527ff8e1a15aba9398e019f0b49df1a4fde98ee17ae345cb5f6b5e2c27f5033e8ce790602001610ce7565b33612cf16117c3565b6001600160a01b0316146115b45760405163118cdaa760e01b8152336004820152602401610be4565b5f5f8051602061452783398151915281612d3385612c45565b90506001600160a01b03841615612d4f57612d4f818587613641565b6001600160a01b03811615612d8b57612d6a5f865f8061352e565b6001600160a01b0381165f908152600383016020526040902080545f190190555b6001600160a01b03861615612dbb576001600160a01b0386165f9081526003830160205260409020805460010190555b5f85815260028301602052604080822080546001600160a01b0319166001600160a01b038a811691821790925591518893918516917fddf252ad1be2c89b69c2b068fc378daa952ba7f163c4a11628f55a4df523b3ef91a495945050505050565b5f805f80612e2a86866136a5565b92509250925061148c82826136ee565b610b69828260405180602001604052805f8152506137a6565b306001600160a01b037f0000000000000000000000000000000000000000000000000000000000000000161480612ed957507f00000000000000000000000000000000000000000000000000000000000000006001600160a01b0316612ecd5f80516020614547833981519152546001600160a01b031690565b6001600160a01b031614155b156115b45760405163703e46dd60e11b815260040160405180910390fd5b612ba1612ce8565b816001600160a01b03166352d1902d6040518163ffffffff1660e01b8152600401602060405180830381865afa925050508015612f59575060408051601f3d908101601f19168201909252612f569181019061446e565b60015b612f8157604051634c9c8ce360e01b81526001600160a01b0383166004820152602401610be4565b5f805160206145478339815191528114612fb157604051632a87526960e21b815260048101829052602401610be4565b6111f883836137bd565b306001600160a01b037f000000000000000000000000000000000000000000000000000000000000000016146115b45760405163703e46dd60e11b815260040160405180910390fd5b7f9016d09d72d40fdae2fd8ceac6b6234c7706214fd39c1cd1e609a0528c19930080546001600160a01b031981166001600160a01b03848116918217845560405192169182907f8be0079c531659141344cd1fd0a4f28419497f9722a3daafe3b4186f6b6457e0905f90a3505050565b5f807ff0c57e16840df040f15088dc2f81fe391c3923bec73e23a9662efc9c229c6a00610aa3565b6130a4613812565b610b698282613837565b6115b4613812565b6130be613812565b612ba181613867565b5f80826060015164ffffffffff16426130e091906142f5565b9050610e108111156130fc5750670de0b6b3a764000092915050565b5f610e108285604001516001600160c01b0316613119919061431c565b6131239190614333565b84604001516001600160c01b031661313b91906142f5565b9050670de0b6b3a76400008110613152578061315c565b670de0b6b3a76400005b949350505050565b5f6012545f0361317d5750673782dace9d900000919050565b5f6012548311156131a95762278d006012548461319a91906142f5565b6131a49190614333565b6131ab565b5f5b673782dace9d900000811c92509050662386f26fc100008210156131d457662386f26fc1000091505b50919050565b5f805160206145278339815191526001600160a01b03831661321a57604051630b61174360e31b81526001600160a01b0384166004820152602401610be4565b6001600160a01b038481165f818152600584016020908152604080832094881680845294825291829020805460ff191687151590811790915591519182527f17307eab39ab6107e8899845ad3d59bd9653f200f220920489ca2b5937696c31910160405180910390a350505050565b6001600160a01b0383163b1561170b57604051630a85bd0160e11b81526001600160a01b0384169063150b7a02906132cb908890889087908790600401614485565b6020604051808303815f875af1925050508015613305575060408051601f3d908101601f19168201909252613302918101906144c1565b60015b61336c573d808015613332576040519150601f19603f3d011682016040523d82523d5f602084013e613337565b606091505b5080515f0361336457604051633250574960e11b81526001600160a01b0385166004820152602401610be4565b805160208201fd5b6001600160e01b03198116630a85bd0160e11b146133a857604051633250574960e11b81526001600160a01b0385166004820152602401610be4565b505050505050565b60607f0542a41881ee128a365a727b282c86fa859579490b9bb45aab8503648c8e79006133dc83612bc8565b505f83815260208290526040812080546133f590614297565b80601f016020809104026020016040519081016040528092919081815260200182805461342190614297565b801561346c5780601f106134435761010080835404028352916020019161346c565b820191905f5260205f20905b81548152906001019060200180831161344f57829003601f168201915b505050505090505f61348860408051602081019091525f815290565b905080515f0361349a57509392505050565b8151156134cd5780826040516020016134b49291906144f3565b6040516020818303038152906040529350505050919050565b6134d68561386f565b95945050505050565b5f6001600160e01b031982166380ac58cd60e01b148061350f57506001600160e01b03198216635b5e139f60e01b145b80610aa357506301ffc9a760e01b6001600160e01b0319831614610aa3565b5f80516020614527833981519152818061355057506001600160a01b03831615155b15613611575f61355f85612bc8565b90506001600160a01b0384161580159061358b5750836001600160a01b0316816001600160a01b031614155b801561359e575061359c8185612a76565b155b156135c75760405163a9fbf51f60e01b81526001600160a01b0385166004820152602401610be4565b821561360f5784866001600160a01b0316826001600160a01b03167f8c5be1e5ebec7d5bd14f71427d1e84f3dd0314c0f7b2291e5b200ac8c7c3b92560405160405180910390a45b505b5f93845260040160205250506040902080546001600160a01b0319166001600160a01b0392909216919091179055565b61364c8383836138df565b6111f8576001600160a01b03831661367a57604051637e27328960e01b815260048101829052602401610be4565b60405163177e802f60e01b81526001600160a01b038316600482015260248101829052604401610be4565b5f805f83516041036136dc576020840151604085015160608601515f1a6136ce88828585613943565b9550955095505050506136e7565b505081515f91506002905b9250925092565b5f82600381111561370157613701614507565b0361370a575050565b600182600381111561371e5761371e614507565b0361373c5760405163f645eedf60e01b815260040160405180910390fd5b600282600381111561375057613750614507565b036137715760405163fce698f760e01b815260048101829052602401610be4565b600382600381111561378557613785614507565b03610b69576040516335e2f38360e21b815260048101829052602401610be4565b6137b08383613a0b565b6111f8335f858585613289565b6137c682613a6c565b6040516001600160a01b038316907fbc7cd75a20ee27fd9adebab32041f755214dbc6bffa90cc0225b39da2e5c2d3b905f90a280511561380a576111f88282613acf565b610b69613b38565b61381a613b57565b6115b457604051631afcd79f60e31b815260040160405180910390fd5b61383f613812565b5f80516020614527833981519152806138588482614396565b5060018101610d778382614396565b612b6f613812565b606061387a82612bc8565b505f61389060408051602081019091525f815290565b90505f8151116138ae5760405180602001604052805f8152506129a0565b806138b884613b70565b6040516020016138c99291906144f3565b6040516020818303038152906040529392505050565b5f6001600160a01b0383161580159061315c5750826001600160a01b0316846001600160a01b0316148061391857506139188484612a76565b8061315c5750826001600160a01b031661393183612bff565b6001600160a01b031614949350505050565b5f80807f7fffffffffffffffffffffffffffffff5d576e7357a4501ddfe92f46681b20a084111561397c57505f91506003905082613a01565b604080515f808252602082018084528a905260ff891692820192909252606081018790526080810186905260019060a0016020604051602081039080840390855afa1580156139cd573d5f803e3d5ffd5b5050604051601f1901519150506001600160a01b0381166139f857505f925060019150829050613a01565b92505f91508190505b9450945094915050565b6001600160a01b038216613a3457604051633250574960e11b81525f6004820152602401610be4565b5f613a4083835f612d1a565b90506001600160a01b038116156111f8576040516339e3563760e11b81525f6004820152602401610be4565b806001600160a01b03163b5f03613aa157604051634c9c8ce360e01b81526001600160a01b0382166004820152602401610be4565b5f8051602061454783398151915280546001600160a01b0319166001600160a01b0392909216919091179055565b60605f80846001600160a01b031684604051613aeb919061451b565b5f60405180830381855af49150503d805f8114613b23576040519150601f19603f3d011682016040523d82523d5f602084013e613b28565b606091505b50915091506134d6858383613bff565b34156115b45760405163b398979f60e01b815260040160405180910390fd5b5f613b60613074565b54600160401b900460ff16919050565b60605f613b7c83613c5b565b60010190505f816001600160401b03811115613b9a57613b9a613e24565b6040519080825280601f01601f191660200182016040528015613bc4576020820181803683370190505b5090508181016020015b5f19016f181899199a1a9b1b9c1cb0b131b232b360811b600a86061a8153600a8504945084613bce57509392505050565b606082613c1457613c0f82613d32565b6129a0565b8151158015613c2b57506001600160a01b0384163b155b15613c5457604051639996b31560e01b81526001600160a01b0385166004820152602401610be4565b50806129a0565b5f8072184f03e93ff9f4daa797ed6e38ed64bf6a1f0160401b8310613c995772184f03e93ff9f4daa797ed6e38ed64bf6a1f0160401b830492506040015b6d04ee2d6d415b85acef81000000008310613cc5576d04ee2d6d415b85acef8100000000830492506020015b662386f26fc100008310613ce357662386f26fc10000830492506010015b6305f5e1008310613cfb576305f5e100830492506008015b6127108310613d0f57612710830492506004015b60648310613d21576064830492506002015b600a8310610aa35760010192915050565b805115613d4157805160208201fd5b60405163d6bda27560e01b815260040160405180910390fd5b6001600160e01b031981168114612ba1575f80fd5b5f60208284031215613d7f575f80fd5b81356129a081613d5a565b5f81518084528060208401602086015e5f602082860101526020601f19601f83011685010191505092915050565b602081525f6129a06020830184613d8a565b5f60208284031215613dda575f80fd5b5035919050565b80356001600160a01b0381168114613df7575f80fd5b919050565b5f8060408385031215613e0d575f80fd5b613e1683613de1565b946020939093013593505050565b634e487b7160e01b5f52604160045260245ffd5b5f82601f830112613e47575f80fd5b8135602083015f806001600160401b03841115613e6657613e66613e24565b50604051601f19601f85018116603f011681018181106001600160401b0382111715613e9457613e94613e24565b604052838152905080828401871015613eab575f80fd5b838360208301375f602085830101528094505050505092915050565b5f8060408385031215613ed8575f80fd5b8235915060208301356001600160401b03811115613ef4575f80fd5b613f0085828601613e38565b9150509250929050565b5f805f60608486031215613f1c575f80fd5b505081359360208301359350604090920135919050565b5f805f60608486031215613f45575f80fd5b613f4e84613de1565b9250613f5c60208501613de1565b929592945050506040919091013590565b60ff8816815261ffff871660208201526001600160c01b038616604082015264ffffffffff85166060820152608081018490526001600160a01b03831660a082015260e060c082018190525f90613fc690830184613d8a565b9998505050505050505050565b5f60208284031215613fe3575f80fd5b6129a082613de1565b5f805f805f60808688031215614000575f80fd5b85356001600160401b03811115614015575f80fd5b61402188828901613e38565b955050602086013593506040860135925060608601356001600160401b0381111561404a575f80fd5b8601601f8101881361405a575f80fd5b80356001600160401b0381111561406f575f80fd5b886020828401011115614080575f80fd5b959894975092955050506020019190565b5f80604083850312156140a2575f80fd5b6140ab83613de1565b915060208301356001600160401b03811115613ef4575f80fd5b602080825282518282018190525f918401906040840190835b818110156140fc5783518352602093840193909201916001016140de565b509095945050505050565b5f805f806080858703121561411a575f80fd5b84359350602085013592506040850135915060608501356001600160401b03811115614144575f80fd5b61415087828801613e38565b91505092959194509250565b5f806040838503121561416d575f80fd5b61417683613de1565b91506020830135801515811461418a575f80fd5b809150509250929050565b5f805f80608085870312156141a8575f80fd5b6141b185613de1565b93506141bf60208601613de1565b92506040850135915060608501356001600160401b03811115614144575f80fd5b6020815260ff825116602082015261ffff602083015116604082015260018060c01b0360408301511660608201525f6060830151614227608084018264ffffffffff169052565b50608083015160a083015260a083015161424c60c08401826001600160a01b03169052565b5060c083015160e08084015261315c610100840182613d8a565b5f8060408385031215614277575f80fd5b61428083613de1565b915061428e60208401613de1565b90509250929050565b600181811c908216806142ab57607f821691505b6020821081036131d457634e487b7160e01b5f52602260045260245ffd5b634e487b7160e01b5f52601160045260245ffd5b5f600182016142ee576142ee6142c9565b5060010190565b81810381811115610aa357610aa36142c9565b634e487b7160e01b5f52603260045260245ffd5b8082028115828204841417610aa357610aa36142c9565b5f8261434d57634e487b7160e01b5f52601260045260245ffd5b500490565b601f8211156111f857805f5260205f20601f840160051c810160208510156143775750805b601f840160051c820191505b8181101561170b575f8155600101614383565b81516001600160401b038111156143af576143af613e24565b6143c3816143bd8454614297565b84614352565b6020601f8211600181146143f5575f83156143de5750848201515b5f19600385901b1c1916600184901b17845561170b565b5f84815260208120601f198516915b828110156144245787850151825560209485019460019092019101614404565b508482101561444157868401515f19600387901b60f8161c191681555b50505050600190811b01905550565b838152826020820152606060408201525f6134d66060830184613d8a565b5f6020828403121561447e575f80fd5b5051919050565b6001600160a01b03858116825284166020820152604081018390526080606082018190525f906144b790830184613d8a565b9695505050505050565b5f602082840312156144d1575f80fd5b81516129a081613d5a565b5f81518060208401855e5f93019283525090919050565b5f61315c61450183866144dc565b846144dc565b634e487b7160e01b5f52602160045260245ffd5b5f6129a082846144dc56fe80bb2b638cc20bc4d0a60d66940f3ab4a00c1d7b313497ca82fb0b4ab0079300360894a13ba1a3210667c828492db98dca3e2076cc3735a920a3ca505d382bbca26469706673582212202cf5a69d2add5b47e5d70b8954be3c4735bef873b333ec6f0b4d8ec8df34586264736f6c634300081a0033",
  "linkReferences": {},
  "deployedLinkReferences": {}
}