{
  "_format": "hh-sol-artifact-1",
  "contractName": "TavernKeeper",
  "sourceName": "contracts/TavernKeeper.sol",
  "abi": [
    {
      "inputs": [],
      "stateMutability": "nonpayable",
      "type": "constructor"
    },
    {
      "inputs": [
        {
          "internalType": "address",
          "name": "target",
          "type": "address"
        }
      ],
      "name": "AddressEmptyCode",
      "type": "error"
    },
    {
      "inputs": [
        {
          "internalType": "address",
          "name": "implementation",
          "type": "address"
        }
      ],
      "name": "ERC1967InvalidImplementation",
      "type": "error"
    },
    {
      "inputs": [],
      "name": "ERC1967NonPayable",
      "type": "error"
    },
    {
      "inputs": [
        {
          "internalType": "address",
          "name": "sender",
          "type": "address"
        },
        {
          "internalType": "uint256",
          "name": "tokenId",
          "type": "uint256"
        },
        {
          "internalType": "address",
          "name": "owner",
          "type": "address"
        }
      ],
      "name": "ERC721IncorrectOwner",
      "type": "error"
    },
    {
      "inputs": [
        {
          "internalType": "address",
          "name": "operator",
          "type": "address"
        },
        {
          "internalType": "uint256",
          "name": "tokenId",
          "type": "uint256"
        }
      ],
      "name": "ERC721InsufficientApproval",
      "type": "error"
    },
    {
      "inputs": [
        {
          "internalType": "address",
          "name": "approver",
          "type": "address"
        }
      ],
      "name": "ERC721InvalidApprover",
      "type": "error"
    },
    {
      "inputs": [
        {
          "internalType": "address",
          "name": "operator",
          "type": "address"
        }
      ],
      "name": "ERC721InvalidOperator",
      "type": "error"
    },
    {
      "inputs": [
        {
          "internalType": "address",
          "name": "owner",
          "type": "address"
        }
      ],
      "name": "ERC721InvalidOwner",
      "type": "error"
    },
    {
      "inputs": [
        {
          "internalType": "address",
          "name": "receiver",
          "type": "address"
        }
      ],
      "name": "ERC721InvalidReceiver",
      "type": "error"
    },
    {
      "inputs": [
        {
          "internalType": "address",
          "name": "sender",
          "type": "address"
        }
      ],
      "name": "ERC721InvalidSender",
      "type": "error"
    },
    {
      "inputs": [
        {
          "internalType": "uint256",
          "name": "tokenId",
          "type": "uint256"
        }
      ],
      "name": "ERC721NonexistentToken",
      "type": "error"
    },
    {
      "inputs": [],
      "name": "FailedCall",
      "type": "error"
    },
    {
      "inputs": [],
      "name": "InvalidInitialization",
      "type": "error"
    },
    {
      "inputs": [],
      "name": "NotInitializing",
      "type": "error"
    },
    {
      "inputs": [
        {
          "internalType": "address",
          "name": "owner",
          "type": "address"
        }
      ],
      "name": "OwnableInvalidOwner",
      "type": "error"
    },
    {
      "inputs": [
        {
          "internalType": "address",
          "name": "account",
          "type": "address"
        }
      ],
      "name": "OwnableUnauthorizedAccount",
      "type": "error"
    },
    {
      "inputs": [],
      "name": "UUPSUnauthorizedCallContext",
      "type": "error"
    },
    {
      "inputs": [
        {
          "internalType": "bytes32",
          "name": "slot",
          "type": "bytes32"
        }
      ],
      "name": "UUPSUnsupportedProxiableUUID",
      "type": "error"
    },
    {
      "anonymous": false,
      "inputs": [
        {
          "indexed": true,
          "internalType": "address",
          "name": "owner",
          "type": "address"
        },
        {
          "indexed": true,
          "internalType": "address",
          "name": "approved",
          "type": "address"
        },
        {
          "indexed": true,
          "internalType": "uint256",
          "name": "tokenId",
          "type": "uint256"
        }
      ],
      "name": "Approval",
      "type": "event"
    },
    {
      "anonymous": false,
      "inputs": [
        {
          "indexed": true,
          "internalType": "address",
          "name": "owner",
          "type": "address"
        },
        {
          "indexed": true,
          "internalType": "address",
          "name": "operator",
          "type": "address"
        },
        {
          "indexed": false,
          "internalType": "bool",
          "name": "approved",
          "type": "bool"
        }
      ],
      "name": "ApprovalForAll",
      "type": "event"
    },
    {
      "anonymous": false,
      "inputs": [
        {
          "indexed": false,
          "internalType": "uint256",
          "name": "_fromTokenId",
          "type": "uint256"
        },
        {
          "indexed": false,
          "internalType": "uint256",
          "name": "_toTokenId",
          "type": "uint256"
        }
      ],
      "name": "BatchMetadataUpdate",
      "type": "event"
    },
    {
      "anonymous": false,
      "inputs": [
        {
          "indexed": false,
          "internalType": "uint64",
          "name": "version",
          "type": "uint64"
        }
      ],
      "name": "Initialized",
      "type": "event"
    },
    {
      "anonymous": false,
      "inputs": [
        {
          "indexed": true,
          "internalType": "address",
          "name": "oldToken",
          "type": "address"
        },
        {
          "indexed": true,
          "internalType": "address",
          "name": "newToken",
          "type": "address"
        }
      ],
      "name": "KeepTokenUpdated",
      "type": "event"
    },
    {
      "anonymous": false,
      "inputs": [
        {
          "indexed": false,
          "internalType": "uint256",
          "name": "_tokenId",
          "type": "uint256"
        }
      ],
      "name": "MetadataUpdate",
      "type": "event"
    },
    {
      "anonymous": false,
      "inputs": [
        {
          "indexed": true,
          "internalType": "address",
          "name": "previousOwner",
          "type": "address"
        },
        {
          "indexed": true,
          "internalType": "address",
          "name": "newOwner",
          "type": "address"
        }
      ],
      "name": "OwnershipTransferred",
      "type": "event"
    },
    {
      "anonymous": false,
      "inputs": [
        {
          "indexed": true,
          "internalType": "uint256",
          "name": "tokenId",
          "type": "uint256"
        },
        {
          "indexed": false,
          "internalType": "uint256",
          "name": "amount",
          "type": "uint256"
        }
      ],
      "name": "TokensClaimed",
      "type": "event"
    },
    {
      "anonymous": false,
      "inputs": [
        {
          "indexed": true,
          "internalType": "address",
          "name": "from",
          "type": "address"
        },
        {
          "indexed": true,
          "internalType": "address",
          "name": "to",
          "type": "address"
        },
        {
          "indexed": true,
          "internalType": "uint256",
          "name": "tokenId",
          "type": "uint256"
        }
      ],
      "name": "Transfer",
      "type": "event"
    },
    {
      "anonymous": false,
      "inputs": [
        {
          "indexed": true,
          "internalType": "address",
          "name": "implementation",
          "type": "address"
        }
      ],
      "name": "Upgraded",
      "type": "event"
    },
    {
      "inputs": [],
      "name": "DEFAULT_RATE",
      "outputs": [
        {
          "internalType": "uint256",
          "name": "",
          "type": "uint256"
        }
      ],
      "stateMutability": "view",
      "type": "function"
    },
    {
      "inputs": [],
      "name": "UPGRADE_INTERFACE_VERSION",
      "outputs": [
        {
          "internalType": "string",
          "name": "",
          "type": "string"
        }
      ],
      "stateMutability": "view",
      "type": "function"
    },
    {
      "inputs": [
        {
          "internalType": "address",
          "name": "to",
          "type": "address"
        },
        {
          "internalType": "uint256",
          "name": "tokenId",
          "type": "uint256"
        }
      ],
      "name": "approve",
      "outputs": [],
      "stateMutability": "nonpayable",
      "type": "function"
    },
    {
      "inputs": [
        {
          "internalType": "address",
          "name": "owner",
          "type": "address"
        }
      ],
      "name": "balanceOf",
      "outputs": [
        {
          "internalType": "uint256",
          "name": "",
          "type": "uint256"
        }
      ],
      "stateMutability": "view",
      "type": "function"
    },
    {
      "inputs": [
        {
          "internalType": "uint256",
          "name": "tokenId",
          "type": "uint256"
        }
      ],
      "name": "calculatePendingTokens",
      "outputs": [
        {
          "internalType": "uint256",
          "name": "",
          "type": "uint256"
        }
      ],
      "stateMutability": "view",
      "type": "function"
    },
    {
      "inputs": [
        {
          "internalType": "uint256",
          "name": "tokenId",
          "type": "uint256"
        }
      ],
      "name": "claimTokens",
      "outputs": [],
      "stateMutability": "nonpayable",
      "type": "function"
    },
    {
      "inputs": [
        {
          "internalType": "uint256",
          "name": "tokenId",
          "type": "uint256"
        }
      ],
      "name": "getApproved",
      "outputs": [
        {
          "internalType": "address",
          "name": "",
          "type": "address"
        }
      ],
      "stateMutability": "view",
      "type": "function"
    },
    {
      "inputs": [],
      "name": "initialize",
      "outputs": [],
      "stateMutability": "nonpayable",
      "type": "function"
    },
    {
      "inputs": [
        {
          "internalType": "address",
          "name": "owner",
          "type": "address"
        },
        {
          "internalType": "address",
          "name": "operator",
          "type": "address"
        }
      ],
      "name": "isApprovedForAll",
      "outputs": [
        {
          "internalType": "bool",
          "name": "",
          "type": "bool"
        }
      ],
      "stateMutability": "view",
      "type": "function"
    },
    {
      "inputs": [],
      "name": "keepToken",
      "outputs": [
        {
          "internalType": "address",
          "name": "",
          "type": "address"
        }
      ],
      "stateMutability": "view",
      "type": "function"
    },
    {
      "inputs": [
        {
          "internalType": "uint256",
          "name": "",
          "type": "uint256"
        }
      ],
      "name": "lastClaimTime",
      "outputs": [
        {
          "internalType": "uint256",
          "name": "",
          "type": "uint256"
        }
      ],
      "stateMutability": "view",
      "type": "function"
    },
    {
      "inputs": [
        {
          "internalType": "uint256",
          "name": "",
          "type": "uint256"
        }
      ],
      "name": "mintingRate",
      "outputs": [
        {
          "internalType": "uint256",
          "name": "",
          "type": "uint256"
        }
      ],
      "stateMutability": "view",
      "type": "function"
    },
    {
      "inputs": [],
      "name": "name",
      "outputs": [
        {
          "internalType": "string",
          "name": "",
          "type": "string"
        }
      ],
      "stateMutability": "view",
      "type": "function"
    },
    {
      "inputs": [],
      "name": "owner",
      "outputs": [
        {
          "internalType": "address",
          "name": "",
          "type": "address"
        }
      ],
      "stateMutability": "view",
      "type": "function"
    },
    {
      "inputs": [
        {
          "internalType": "uint256",
          "name": "tokenId",
          "type": "uint256"
        }
      ],
      "name": "ownerOf",
      "outputs": [
        {
          "internalType": "address",
          "name": "",
          "type": "address"
        }
      ],
      "stateMutability": "view",
      "type": "function"
    },
    {
      "inputs": [],
      "name": "proxiableUUID",
      "outputs": [
        {
          "internalType": "bytes32",
          "name": "",
          "type": "bytes32"
        }
      ],
      "stateMutability": "view",
      "type": "function"
    },
    {
      "inputs": [],
      "name": "renounceOwnership",
      "outputs": [],
      "stateMutability": "nonpayable",
      "type": "function"
    },
    {
      "inputs": [
        {
          "internalType": "address",
          "name": "to",
          "type": "address"
        },
        {
          "internalType": "string",
          "name": "uri",
          "type": "string"
        }
      ],
      "name": "safeMint",
      "outputs": [
        {
          "internalType": "uint256",
          "name": "",
          "type": "uint256"
        }
      ],
      "stateMutability": "nonpayable",
      "type": "function"
    },
    {
      "inputs": [
        {
          "internalType": "address",
          "name": "from",
          "type": "address"
        },
        {
          "internalType": "address",
          "name": "to",
          "type": "address"
        },
        {
          "internalType": "uint256",
          "name": "tokenId",
          "type": "uint256"
        }
      ],
      "name": "safeTransferFrom",
      "outputs": [],
      "stateMutability": "nonpayable",
      "type": "function"
    },
    {
      "inputs": [
        {
          "internalType": "address",
          "name": "from",
          "type": "address"
        },
        {
          "internalType": "address",
          "name": "to",
          "type": "address"
        },
        {
          "internalType": "uint256",
          "name": "tokenId",
          "type": "uint256"
        },
        {
          "internalType": "bytes",
          "name": "data",
          "type": "bytes"
        }
      ],
      "name": "safeTransferFrom",
      "outputs": [],
      "stateMutability": "nonpayable",
      "type": "function"
    },
    {
      "inputs": [
        {
          "internalType": "address",
          "name": "operator",
          "type": "address"
        },
        {
          "internalType": "bool",
          "name": "approved",
          "type": "bool"
        }
      ],
      "name": "setApprovalForAll",
      "outputs": [],
      "stateMutability": "nonpayable",
      "type": "function"
    },
    {
      "inputs": [
        {
          "internalType": "address",
          "name": "_keepToken",
          "type": "address"
        }
      ],
      "name": "setKeepTokenContract",
      "outputs": [],
      "stateMutability": "nonpayable",
      "type": "function"
    },
    {
      "inputs": [
        {
          "internalType": "bytes4",
          "name": "interfaceId",
          "type": "bytes4"
        }
      ],
      "name": "supportsInterface",
      "outputs": [
        {
          "internalType": "bool",
          "name": "",
          "type": "bool"
        }
      ],
      "stateMutability": "view",
      "type": "function"
    },
    {
      "inputs": [],
      "name": "symbol",
      "outputs": [
        {
          "internalType": "string",
          "name": "",
          "type": "string"
        }
      ],
      "stateMutability": "view",
      "type": "function"
    },
    {
      "inputs": [
        {
          "internalType": "uint256",
          "name": "tokenId",
          "type": "uint256"
        }
      ],
      "name": "tokenURI",
      "outputs": [
        {
          "internalType": "string",
          "name": "",
          "type": "string"
        }
      ],
      "stateMutability": "view",
      "type": "function"
    },
    {
      "inputs": [
        {
          "internalType": "address",
          "name": "from",
          "type": "address"
        },
        {
          "internalType": "address",
          "name": "to",
          "type": "address"
        },
        {
          "internalType": "uint256",
          "name": "tokenId",
          "type": "uint256"
        }
      ],
      "name": "transferFrom",
      "outputs": [],
      "stateMutability": "nonpayable",
      "type": "function"
    },
    {
      "inputs": [
        {
          "internalType": "address",
          "name": "newOwner",
          "type": "address"
        }
      ],
      "name": "transferOwnership",
      "outputs": [],
      "stateMutability": "nonpayable",
      "type": "function"
    },
    {
      "inputs": [
        {
          "internalType": "address",
          "name": "newImplementation",
          "type": "address"
        },
        {
          "internalType": "bytes",
          "name": "data",
          "type": "bytes"
        }
      ],
      "name": "upgradeToAndCall",
      "outputs": [],
      "stateMutability": "payable",
      "type": "function"
    }
  ],
  "bytecode": "0x60a060405230608052348015610013575f80fd5b5061001c610021565b6100d3565b7ff0c57e16840df040f15088dc2f81fe391c3923bec73e23a9662efc9c229c6a00805468010000000000000000900460ff16156100715760405163f92ee8a960e01b815260040160405180910390fd5b80546001600160401b03908116146100d05780546001600160401b0319166001600160401b0390811782556040519081527fc7f505b2f371ae2175ee4913f4499e1f2633a7b5936321eed1cdaeb6115181d29060200160405180910390a15b50565b6080516121cb620000fa5f395f8181610edd01528181610f06015261104501526121cb5ff3fe6080604052600436106101af575f3560e01c8063715018a6116100e7578063ad3cb1cc11610087578063d204c45e11610062578063d204c45e146104e3578063e5eb39ec14610502578063e985e9c514610521578063f2fde38b14610540575f80fd5b8063ad3cb1cc14610475578063b88d4fde146104a5578063c87b56dd146104c4575f80fd5b80638da5cb5b116100c25780638da5cb5b146103ec57806395d89b4114610428578063a22cb4651461043c578063a3e860fe1461045b575f80fd5b8063715018a6146103995780638129fc1c146103ad578063877dab7e146103c1575f80fd5b8063467c5adf1161015257806352d1902d1161012d57806352d1902d1461030e5780635fea89f1146103305780636352211e1461035b57806370a082311461037a575f80fd5b8063467c5adf146102bd57806346e04a2f146102dc5780634f1ef286146102fb575f80fd5b8063095ea7b31161018d578063095ea7b31461023f57806323b872dd146102605780633dbc71fa1461027f57806342842e0e1461029e575f80fd5b806301ffc9a7146101b357806306fdde03146101e7578063081812fc14610208575b5f80fd5b3480156101be575f80fd5b506101d26101cd366004611bd8565b61055f565b60405190151581526020015b60405180910390f35b3480156101f2575f80fd5b506101fb61056f565b6040516101de9190611c40565b348015610213575f80fd5b50610227610222366004611c52565b610610565b6040516001600160a01b0390911681526020016101de565b34801561024a575f80fd5b5061025e610259366004611c84565b610624565b005b34801561026b575f80fd5b5061025e61027a366004611cac565b610633565b34801561028a575f80fd5b5061025e610299366004611ce5565b6106c1565b3480156102a9575f80fd5b5061025e6102b8366004611cac565b61076b565b3480156102c8575f80fd5b50600154610227906001600160a01b031681565b3480156102e7575f80fd5b5061025e6102f6366004611c52565b61078a565b61025e610309366004611da3565b610925565b348015610319575f80fd5b50610322610940565b6040519081526020016101de565b34801561033b575f80fd5b5061032261034a366004611c52565b60036020525f908152604090205481565b348015610366575f80fd5b50610227610375366004611c52565b61095b565b348015610385575f80fd5b50610322610394366004611ce5565b610965565b3480156103a4575f80fd5b5061025e6109bd565b3480156103b8575f80fd5b5061025e6109d0565b3480156103cc575f80fd5b506103226103db366004611c52565b60026020525f908152604090205481565b3480156103f7575f80fd5b507f9016d09d72d40fdae2fd8ceac6b6234c7706214fd39c1cd1e609a0528c199300546001600160a01b0316610227565b348015610433575f80fd5b506101fb610b2e565b348015610447575f80fd5b5061025e610456366004611dee565b610b6c565b348015610466575f80fd5b50610322662386f26fc1000081565b348015610480575f80fd5b506101fb604051806040016040528060058152602001640352e302e360dc1b81525081565b3480156104b0575f80fd5b5061025e6104bf366004611e27565b610b77565b3480156104cf575f80fd5b506101fb6104de366004611c52565b610b8f565b3480156104ee575f80fd5b506103226104fd366004611e8b565b610b9a565b34801561050d575f80fd5b5061032261051c366004611c52565b610bf6565b34801561052c575f80fd5b506101d261053b366004611edf565b610c4b565b34801561054b575f80fd5b5061025e61055a366004611ce5565b610c97565b5f61056982610cd4565b92915050565b5f80516020612156833981519152805460609190819061058e90611f10565b80601f01602080910402602001604051908101604052809291908181526020018280546105ba90611f10565b80156106055780601f106105dc57610100808354040283529160200191610605565b820191905f5260205f20905b8154815290600101906020018083116105e857829003601f168201915b505050505091505090565b5f61061a82610cf8565b5061056982610d2f565b61062f828233610d68565b5050565b6001600160a01b03821661066157604051633250574960e11b81525f60048201526024015b60405180910390fd5b5f61066d838333610d75565b9050836001600160a01b0316816001600160a01b0316146106bb576040516364283d7b60e01b81526001600160a01b0380861660048301526024820184905282166044820152606401610658565b50505050565b6106c9610e77565b6001600160a01b0381166107115760405162461bcd60e51b815260206004820152600f60248201526e496e76616c6964206164647265737360881b6044820152606401610658565b6001546040516001600160a01b038084169216907e66a248680b348de6844119bb393b395f8a5ed03b28a64049b28a4538ab3121905f90a3600180546001600160a01b0319166001600160a01b0392909216919091179055565b61078583838360405180602001604052805f815250610b77565b505050565b336107948261095b565b6001600160a01b0316146107dc5760405162461bcd60e51b815260206004820152600f60248201526e2737ba103a37b5b2b71037bbb732b960891b6044820152606401610658565b6001546001600160a01b03166108285760405162461bcd60e51b815260206004820152601160248201527012d9595c151bdad95b881b9bdd081cd95d607a1b6044820152606401610658565b5f61083282610bf6565b90505f81116108775760405162461bcd60e51b81526020600482015260116024820152704e6f20746f6b656e732070656e64696e6760781b6044820152606401610658565b5f828152600260205260409081902042905560015490516340c10f1960e01b8152336004820152602481018390526001600160a01b03909116906340c10f19906044015f604051808303815f87803b1580156108d1575f80fd5b505af11580156108e3573d5f803e3d5ffd5b50505050817fbde2d72390af9d0444bb1c4f938971ecb673ed26f5f57f8fa44c553fe01d0d3a8260405161091991815260200190565b60405180910390a25050565b61092d610ed2565b61093682610f76565b61062f8282610f7e565b5f61094961103a565b505f8051602061217683398151915290565b5f61056982610cf8565b5f5f805160206121568339815191526001600160a01b03831661099d576040516322718ad960e21b81525f6004820152602401610658565b6001600160a01b039092165f908152600390920160205250604090205490565b6109c5610e77565b6109ce5f611083565b565b5f6109d96110f3565b805490915060ff600160401b820416159067ffffffffffffffff165f81158015610a005750825b90505f8267ffffffffffffffff166001148015610a1c5750303b155b905081158015610a2a575080155b15610a485760405163f92ee8a960e01b815260040160405180910390fd5b845467ffffffffffffffff191660011785558315610a7257845460ff60401b1916600160401b1785555b610ac86040518060400160405280601681526020017524b73725b2b2b832b9102a30bb32b93725b2b2b832b960511b8152506040518060400160405280600681526020016525a2a2a822a960d11b81525061111b565b610ad061112d565b610ad933611135565b610ae161112d565b8315610b2757845460ff60401b19168555604051600181527fc7f505b2f371ae2175ee4913f4499e1f2633a7b5936321eed1cdaeb6115181d29060200160405180910390a15b5050505050565b7f80bb2b638cc20bc4d0a60d66940f3ab4a00c1d7b313497ca82fb0b4ab007930180546060915f805160206121568339815191529161058e90611f10565b61062f338383611146565b610b82848484610633565b6106bb33858585856111f5565b60606105698261131c565b5f610ba3610e77565b5f80548180610bb183611f5c565b919050559050610bc1848261144b565b610bcb8184611464565b5f81815260026020908152604080832042905560039091529020662386f26fc1000090559392505050565b5f818152600260205260408120548103610c1157505f919050565b5f82815260026020526040812054610c299042611f74565b5f84815260036020526040902054909150610c449082611f87565b9392505050565b6001600160a01b039182165f9081527f80bb2b638cc20bc4d0a60d66940f3ab4a00c1d7b313497ca82fb0b4ab00793056020908152604080832093909416825291909152205460ff1690565b610c9f610e77565b6001600160a01b038116610cc857604051631e4fbdf760e01b81525f6004820152602401610658565b610cd181611083565b50565b5f6001600160e01b03198216632483248360e11b14806105695750610569826114d6565b5f80610d0383611525565b90506001600160a01b03811661056957604051637e27328960e01b815260048101849052602401610658565b5f9081527f80bb2b638cc20bc4d0a60d66940f3ab4a00c1d7b313497ca82fb0b4ab007930460205260409020546001600160a01b031690565b610785838383600161155e565b5f5f8051602061215683398151915281610d8e85611525565b90506001600160a01b03841615610daa57610daa818587611671565b6001600160a01b03811615610de657610dc55f865f8061155e565b6001600160a01b0381165f908152600383016020526040902080545f190190555b6001600160a01b03861615610e16576001600160a01b0386165f9081526003830160205260409020805460010190555b5f85815260028301602052604080822080546001600160a01b0319166001600160a01b038a811691821790925591518893918516917fddf252ad1be2c89b69c2b068fc378daa952ba7f163c4a11628f55a4df523b3ef91a495945050505050565b33610ea97f9016d09d72d40fdae2fd8ceac6b6234c7706214fd39c1cd1e609a0528c199300546001600160a01b031690565b6001600160a01b0316146109ce5760405163118cdaa760e01b8152336004820152602401610658565b306001600160a01b037f0000000000000000000000000000000000000000000000000000000000000000161480610f5857507f00000000000000000000000000000000000000000000000000000000000000006001600160a01b0316610f4c5f80516020612176833981519152546001600160a01b031690565b6001600160a01b031614155b156109ce5760405163703e46dd60e11b815260040160405180910390fd5b610cd1610e77565b816001600160a01b03166352d1902d6040518163ffffffff1660e01b8152600401602060405180830381865afa925050508015610fd8575060408051601f3d908101601f19168201909252610fd591810190611f9e565b60015b61100057604051634c9c8ce360e01b81526001600160a01b0383166004820152602401610658565b5f80516020612176833981519152811461103057604051632a87526960e21b815260048101829052602401610658565b61078583836116d5565b306001600160a01b037f000000000000000000000000000000000000000000000000000000000000000016146109ce5760405163703e46dd60e11b815260040160405180910390fd5b7f9016d09d72d40fdae2fd8ceac6b6234c7706214fd39c1cd1e609a0528c19930080546001600160a01b031981166001600160a01b03848116918217845560405192169182907f8be0079c531659141344cd1fd0a4f28419497f9722a3daafe3b4186f6b6457e0905f90a3505050565b5f807ff0c57e16840df040f15088dc2f81fe391c3923bec73e23a9662efc9c229c6a00610569565b61112361172a565b61062f828261174f565b6109ce61172a565b61113d61172a565b610cd18161177f565b5f805160206121568339815191526001600160a01b03831661118657604051630b61174360e31b81526001600160a01b0384166004820152602401610658565b6001600160a01b038481165f818152600584016020908152604080832094881680845294825291829020805460ff191687151590811790915591519182527f17307eab39ab6107e8899845ad3d59bd9653f200f220920489ca2b5937696c31910160405180910390a350505050565b6001600160a01b0383163b15610b2757604051630a85bd0160e11b81526001600160a01b0384169063150b7a0290611237908890889087908790600401611fb5565b6020604051808303815f875af1925050508015611271575060408051601f3d908101601f1916820190925261126e91810190611ff1565b60015b6112d8573d80801561129e576040519150601f19603f3d011682016040523d82523d5f602084013e6112a3565b606091505b5080515f036112d057604051633250574960e11b81526001600160a01b0385166004820152602401610658565b805160208201fd5b6001600160e01b03198116630a85bd0160e11b1461131457604051633250574960e11b81526001600160a01b0385166004820152602401610658565b505050505050565b60607f0542a41881ee128a365a727b282c86fa859579490b9bb45aab8503648c8e790061134883610cf8565b505f838152602082905260408120805461136190611f10565b80601f016020809104026020016040519081016040528092919081815260200182805461138d90611f10565b80156113d85780601f106113af576101008083540402835291602001916113d8565b820191905f5260205f20905b8154815290600101906020018083116113bb57829003601f168201915b505050505090505f6113f460408051602081019091525f815290565b905080515f0361140657509392505050565b81511561143957808260405160200161142092919061200c565b6040516020818303038152906040529350505050919050565b61144285611787565b95945050505050565b61062f828260405180602001604052805f8152506117f7565b5f8281527f0542a41881ee128a365a727b282c86fa859579490b9bb45aab8503648c8e79006020819052604090912061149d838261207e565b506040518381527ff8e1a15aba9398e019f0b49df1a4fde98ee17ae345cb5f6b5e2c27f5033e8ce79060200160405180910390a1505050565b5f6001600160e01b031982166380ac58cd60e01b148061150657506001600160e01b03198216635b5e139f60e01b145b8061056957506301ffc9a760e01b6001600160e01b0319831614610569565b5f9081527f80bb2b638cc20bc4d0a60d66940f3ab4a00c1d7b313497ca82fb0b4ab007930260205260409020546001600160a01b031690565b5f80516020612156833981519152818061158057506001600160a01b03831615155b15611641575f61158f85610cf8565b90506001600160a01b038416158015906115bb5750836001600160a01b0316816001600160a01b031614155b80156115ce57506115cc8185610c4b565b155b156115f75760405163a9fbf51f60e01b81526001600160a01b0385166004820152602401610658565b821561163f5784866001600160a01b0316826001600160a01b03167f8c5be1e5ebec7d5bd14f71427d1e84f3dd0314c0f7b2291e5b200ac8c7c3b92560405160405180910390a45b505b5f93845260040160205250506040902080546001600160a01b0319166001600160a01b0392909216919091179055565b61167c83838361180e565b610785576001600160a01b0383166116aa57604051637e27328960e01b815260048101829052602401610658565b60405163177e802f60e01b81526001600160a01b038316600482015260248101829052604401610658565b6116de82611873565b6040516001600160a01b038316907fbc7cd75a20ee27fd9adebab32041f755214dbc6bffa90cc0225b39da2e5c2d3b905f90a28051156117225761078582826118d6565b61062f61193f565b61173261195e565b6109ce57604051631afcd79f60e31b815260040160405180910390fd5b61175761172a565b5f8051602061215683398151915280611770848261207e565b50600181016106bb838261207e565b610c9f61172a565b606061179282610cf8565b505f6117a860408051602081019091525f815290565b90505f8151116117c65760405180602001604052805f815250610c44565b806117d084611977565b6040516020016117e192919061200c565b6040516020818303038152906040529392505050565b6118018383611a07565b610785335f8585856111f5565b5f6001600160a01b0383161580159061186b5750826001600160a01b0316846001600160a01b0316148061184757506118478484610c4b565b8061186b5750826001600160a01b031661186083610d2f565b6001600160a01b0316145b949350505050565b806001600160a01b03163b5f036118a857604051634c9c8ce360e01b81526001600160a01b0382166004820152602401610658565b5f8051602061217683398151915280546001600160a01b0319166001600160a01b0392909216919091179055565b60605f80846001600160a01b0316846040516118f2919061213a565b5f60405180830381855af49150503d805f811461192a576040519150601f19603f3d011682016040523d82523d5f602084013e61192f565b606091505b5091509150611442858383611a68565b34156109ce5760405163b398979f60e01b815260040160405180910390fd5b5f6119676110f3565b54600160401b900460ff16919050565b60605f61198383611ac4565b60010190505f8167ffffffffffffffff8111156119a2576119a2611cfe565b6040519080825280601f01601f1916602001820160405280156119cc576020820181803683370190505b5090508181016020015b5f19016f181899199a1a9b1b9c1cb0b131b232b360811b600a86061a8153600a85049450846119d657509392505050565b6001600160a01b038216611a3057604051633250574960e11b81525f6004820152602401610658565b5f611a3c83835f610d75565b90506001600160a01b03811615610785576040516339e3563760e11b81525f6004820152602401610658565b606082611a7d57611a7882611b9b565b610c44565b8151158015611a9457506001600160a01b0384163b155b15611abd57604051639996b31560e01b81526001600160a01b0385166004820152602401610658565b5080610c44565b5f8072184f03e93ff9f4daa797ed6e38ed64bf6a1f0160401b8310611b025772184f03e93ff9f4daa797ed6e38ed64bf6a1f0160401b830492506040015b6d04ee2d6d415b85acef81000000008310611b2e576d04ee2d6d415b85acef8100000000830492506020015b662386f26fc100008310611b4c57662386f26fc10000830492506010015b6305f5e1008310611b64576305f5e100830492506008015b6127108310611b7857612710830492506004015b60648310611b8a576064830492506002015b600a83106105695760010192915050565b805115611baa57805160208201fd5b60405163d6bda27560e01b815260040160405180910390fd5b6001600160e01b031981168114610cd1575f80fd5b5f60208284031215611be8575f80fd5b8135610c4481611bc3565b5f5b83811015611c0d578181015183820152602001611bf5565b50505f910152565b5f8151808452611c2c816020860160208601611bf3565b601f01601f19169290920160200192915050565b602081525f610c446020830184611c15565b5f60208284031215611c62575f80fd5b5035919050565b80356001600160a01b0381168114611c7f575f80fd5b919050565b5f8060408385031215611c95575f80fd5b611c9e83611c69565b946020939093013593505050565b5f805f60608486031215611cbe575f80fd5b611cc784611c69565b9250611cd560208501611c69565b9150604084013590509250925092565b5f60208284031215611cf5575f80fd5b610c4482611c69565b634e487b7160e01b5f52604160045260245ffd5b5f67ffffffffffffffff80841115611d2c57611d2c611cfe565b604051601f8501601f19908116603f01168101908282118183101715611d5457611d54611cfe565b81604052809350858152868686011115611d6c575f80fd5b858560208301375f602087830101525050509392505050565b5f82601f830112611d94575f80fd5b610c4483833560208501611d12565b5f8060408385031215611db4575f80fd5b611dbd83611c69565b9150602083013567ffffffffffffffff811115611dd8575f80fd5b611de485828601611d85565b9150509250929050565b5f8060408385031215611dff575f80fd5b611e0883611c69565b915060208301358015158114611e1c575f80fd5b809150509250929050565b5f805f8060808587031215611e3a575f80fd5b611e4385611c69565b9350611e5160208601611c69565b925060408501359150606085013567ffffffffffffffff811115611e73575f80fd5b611e7f87828801611d85565b91505092959194509250565b5f8060408385031215611e9c575f80fd5b611ea583611c69565b9150602083013567ffffffffffffffff811115611ec0575f80fd5b8301601f81018513611ed0575f80fd5b611de485823560208401611d12565b5f8060408385031215611ef0575f80fd5b611ef983611c69565b9150611f0760208401611c69565b90509250929050565b600181811c90821680611f2457607f821691505b602082108103611f4257634e487b7160e01b5f52602260045260245ffd5b50919050565b634e487b7160e01b5f52601160045260245ffd5b5f60018201611f6d57611f6d611f48565b5060010190565b8181038181111561056957610569611f48565b808202811582820484141761056957610569611f48565b5f60208284031215611fae575f80fd5b5051919050565b6001600160a01b03858116825284166020820152604081018390526080606082018190525f90611fe790830184611c15565b9695505050505050565b5f60208284031215612001575f80fd5b8151610c4481611bc3565b5f835161201d818460208801611bf3565b835190830190612031818360208801611bf3565b01949350505050565b601f82111561078557805f5260205f20601f840160051c8101602085101561205f5750805b601f840160051c820191505b81811015610b27575f815560010161206b565b815167ffffffffffffffff81111561209857612098611cfe565b6120ac816120a68454611f10565b8461203a565b602080601f8311600181146120df575f84156120c85750858301515b5f19600386901b1c1916600185901b178555611314565b5f85815260208120601f198616915b8281101561210d578886015182559484019460019091019084016120ee565b508582101561212a57878501515f19600388901b60f8161c191681555b5050505050600190811b01905550565b5f825161214b818460208701611bf3565b919091019291505056fe80bb2b638cc20bc4d0a60d66940f3ab4a00c1d7b313497ca82fb0b4ab0079300360894a13ba1a3210667c828492db98dca3e2076cc3735a920a3ca505d382bbca26469706673582212200183d02829ab733a8d812b98363e44e784b73303ee3acd834cde03a6129bcf8b64736f6c63430008180033",
  "linkReferences": {},
  "deployedLinkReferences": {}
}