{
  "_format": "hh-sol-artifact-1",
  "contractName": "TavernKeeper",
  "sourceName": "contracts/TavernKeeper.sol",
  "abi": [
    {
      "inputs": [],
      "stateMutability": "nonpayable",
      "type": "constructor"
    },
    {
      "inputs": [
        {
          "internalType": "address",
          "name": "target",
          "type": "address"
        }
      ],
      "name": "AddressEmptyCode",
      "type": "error"
    },
    {
      "inputs": [],
      "name": "ECDSAInvalidSignature",
      "type": "error"
    },
    {
      "inputs": [
        {
          "internalType": "uint256",
          "name": "length",
          "type": "uint256"
        }
      ],
      "name": "ECDSAInvalidSignatureLength",
      "type": "error"
    },
    {
      "inputs": [
        {
          "internalType": "bytes32",
          "name": "s",
          "type": "bytes32"
        }
      ],
      "name": "ECDSAInvalidSignatureS",
      "type": "error"
    },
    {
      "inputs": [
        {
          "internalType": "address",
          "name": "implementation",
          "type": "address"
        }
      ],
      "name": "ERC1967InvalidImplementation",
      "type": "error"
    },
    {
      "inputs": [],
      "name": "ERC1967NonPayable",
      "type": "error"
    },
    {
      "inputs": [
        {
          "internalType": "address",
          "name": "sender",
          "type": "address"
        },
        {
          "internalType": "uint256",
          "name": "tokenId",
          "type": "uint256"
        },
        {
          "internalType": "address",
          "name": "owner",
          "type": "address"
        }
      ],
      "name": "ERC721IncorrectOwner",
      "type": "error"
    },
    {
      "inputs": [
        {
          "internalType": "address",
          "name": "operator",
          "type": "address"
        },
        {
          "internalType": "uint256",
          "name": "tokenId",
          "type": "uint256"
        }
      ],
      "name": "ERC721InsufficientApproval",
      "type": "error"
    },
    {
      "inputs": [
        {
          "internalType": "address",
          "name": "approver",
          "type": "address"
        }
      ],
      "name": "ERC721InvalidApprover",
      "type": "error"
    },
    {
      "inputs": [
        {
          "internalType": "address",
          "name": "operator",
          "type": "address"
        }
      ],
      "name": "ERC721InvalidOperator",
      "type": "error"
    },
    {
      "inputs": [
        {
          "internalType": "address",
          "name": "owner",
          "type": "address"
        }
      ],
      "name": "ERC721InvalidOwner",
      "type": "error"
    },
    {
      "inputs": [
        {
          "internalType": "address",
          "name": "receiver",
          "type": "address"
        }
      ],
      "name": "ERC721InvalidReceiver",
      "type": "error"
    },
    {
      "inputs": [
        {
          "internalType": "address",
          "name": "sender",
          "type": "address"
        }
      ],
      "name": "ERC721InvalidSender",
      "type": "error"
    },
    {
      "inputs": [
        {
          "internalType": "uint256",
          "name": "tokenId",
          "type": "uint256"
        }
      ],
      "name": "ERC721NonexistentToken",
      "type": "error"
    },
    {
      "inputs": [],
      "name": "EpochIdMismatch",
      "type": "error"
    },
    {
      "inputs": [],
      "name": "Expired",
      "type": "error"
    },
    {
      "inputs": [],
      "name": "FailedCall",
      "type": "error"
    },
    {
      "inputs": [],
      "name": "InvalidInitialization",
      "type": "error"
    },
    {
      "inputs": [],
      "name": "InvalidTreasury",
      "type": "error"
    },
    {
      "inputs": [],
      "name": "MaxPriceExceeded",
      "type": "error"
    },
    {
      "inputs": [],
      "name": "NotInitializing",
      "type": "error"
    },
    {
      "inputs": [
        {
          "internalType": "address",
          "name": "owner",
          "type": "address"
        }
      ],
      "name": "OwnableInvalidOwner",
      "type": "error"
    },
    {
      "inputs": [
        {
          "internalType": "address",
          "name": "account",
          "type": "address"
        }
      ],
      "name": "OwnableUnauthorizedAccount",
      "type": "error"
    },
    {
      "inputs": [],
      "name": "Reentrancy",
      "type": "error"
    },
    {
      "inputs": [],
      "name": "UUPSUnauthorizedCallContext",
      "type": "error"
    },
    {
      "inputs": [
        {
          "internalType": "bytes32",
          "name": "slot",
          "type": "bytes32"
        }
      ],
      "name": "UUPSUnsupportedProxiableUUID",
      "type": "error"
    },
    {
      "anonymous": false,
      "inputs": [
        {
          "indexed": true,
          "internalType": "address",
          "name": "owner",
          "type": "address"
        },
        {
          "indexed": true,
          "internalType": "address",
          "name": "approved",
          "type": "address"
        },
        {
          "indexed": true,
          "internalType": "uint256",
          "name": "tokenId",
          "type": "uint256"
        }
      ],
      "name": "Approval",
      "type": "event"
    },
    {
      "anonymous": false,
      "inputs": [
        {
          "indexed": true,
          "internalType": "address",
          "name": "owner",
          "type": "address"
        },
        {
          "indexed": true,
          "internalType": "address",
          "name": "operator",
          "type": "address"
        },
        {
          "indexed": false,
          "internalType": "bool",
          "name": "approved",
          "type": "bool"
        }
      ],
      "name": "ApprovalForAll",
      "type": "event"
    },
    {
      "anonymous": false,
      "inputs": [
        {
          "indexed": false,
          "internalType": "uint256",
          "name": "_fromTokenId",
          "type": "uint256"
        },
        {
          "indexed": false,
          "internalType": "uint256",
          "name": "_toTokenId",
          "type": "uint256"
        }
      ],
      "name": "BatchMetadataUpdate",
      "type": "event"
    },
    {
      "anonymous": false,
      "inputs": [
        {
          "indexed": true,
          "internalType": "address",
          "name": "to",
          "type": "address"
        },
        {
          "indexed": false,
          "internalType": "uint256",
          "name": "amount",
          "type": "uint256"
        }
      ],
      "name": "FundsWithdrawn",
      "type": "event"
    },
    {
      "anonymous": false,
      "inputs": [
        {
          "indexed": false,
          "internalType": "uint64",
          "name": "version",
          "type": "uint64"
        }
      ],
      "name": "Initialized",
      "type": "event"
    },
    {
      "anonymous": false,
      "inputs": [
        {
          "indexed": true,
          "internalType": "address",
          "name": "oldToken",
          "type": "address"
        },
        {
          "indexed": true,
          "internalType": "address",
          "name": "newToken",
          "type": "address"
        }
      ],
      "name": "KeepTokenUpdated",
      "type": "event"
    },
    {
      "anonymous": false,
      "inputs": [
        {
          "indexed": false,
          "internalType": "uint256",
          "name": "_tokenId",
          "type": "uint256"
        }
      ],
      "name": "MetadataUpdate",
      "type": "event"
    },
    {
      "anonymous": false,
      "inputs": [
        {
          "indexed": true,
          "internalType": "uint256",
          "name": "tokenId",
          "type": "uint256"
        },
        {
          "indexed": false,
          "internalType": "string",
          "name": "newUri",
          "type": "string"
        }
      ],
      "name": "MetadataUpdated",
      "type": "event"
    },
    {
      "anonymous": false,
      "inputs": [
        {
          "indexed": true,
          "internalType": "address",
          "name": "king",
          "type": "address"
        },
        {
          "indexed": false,
          "internalType": "uint256",
          "name": "amount",
          "type": "uint256"
        }
      ],
      "name": "OfficeEarningsClaimed",
      "type": "event"
    },
    {
      "anonymous": false,
      "inputs": [
        {
          "indexed": true,
          "internalType": "address",
          "name": "newKing",
          "type": "address"
        },
        {
          "indexed": false,
          "internalType": "uint256",
          "name": "newPrice",
          "type": "uint256"
        },
        {
          "indexed": false,
          "internalType": "uint256",
          "name": "paidAmount",
          "type": "uint256"
        },
        {
          "indexed": false,
          "internalType": "string",
          "name": "uri",
          "type": "string"
        }
      ],
      "name": "OfficeTaken",
      "type": "event"
    },
    {
      "anonymous": false,
      "inputs": [
        {
          "indexed": true,
          "internalType": "address",
          "name": "previousOwner",
          "type": "address"
        },
        {
          "indexed": true,
          "internalType": "address",
          "name": "newOwner",
          "type": "address"
        }
      ],
      "name": "OwnershipTransferred",
      "type": "event"
    },
    {
      "anonymous": false,
      "inputs": [
        {
          "indexed": true,
          "internalType": "address",
          "name": "prevKing",
          "type": "address"
        },
        {
          "indexed": false,
          "internalType": "uint256",
          "name": "amount",
          "type": "uint256"
        }
      ],
      "name": "PreviousKingPaid",
      "type": "event"
    },
    {
      "anonymous": false,
      "inputs": [
        {
          "indexed": false,
          "internalType": "address",
          "name": "newSigner",
          "type": "address"
        }
      ],
      "name": "SignerUpdated",
      "type": "event"
    },
    {
      "anonymous": false,
      "inputs": [
        {
          "indexed": true,
          "internalType": "address",
          "name": "to",
          "type": "address"
        },
        {
          "indexed": true,
          "internalType": "uint256",
          "name": "tokenId",
          "type": "uint256"
        },
        {
          "indexed": false,
          "internalType": "uint256",
          "name": "price",
          "type": "uint256"
        }
      ],
      "name": "TavernKeeperMinted",
      "type": "event"
    },
    {
      "anonymous": false,
      "inputs": [
        {
          "indexed": true,
          "internalType": "address",
          "name": "to",
          "type": "address"
        },
        {
          "indexed": true,
          "internalType": "uint256",
          "name": "tokenId",
          "type": "uint256"
        }
      ],
      "name": "TavernKeeperMintedWhitelist",
      "type": "event"
    },
    {
      "anonymous": false,
      "inputs": [
        {
          "indexed": true,
          "internalType": "address",
          "name": "to",
          "type": "address"
        },
        {
          "indexed": true,
          "internalType": "uint256",
          "name": "tokenId",
          "type": "uint256"
        },
        {
          "indexed": false,
          "internalType": "uint256",
          "name": "price",
          "type": "uint256"
        },
        {
          "indexed": false,
          "internalType": "uint256",
          "name": "nonce",
          "type": "uint256"
        }
      ],
      "name": "TavernKeeperMintedWithSignature",
      "type": "event"
    },
    {
      "anonymous": false,
      "inputs": [
        {
          "indexed": false,
          "internalType": "uint256",
          "name": "t1",
          "type": "uint256"
        },
        {
          "indexed": false,
          "internalType": "uint256",
          "name": "t2",
          "type": "uint256"
        },
        {
          "indexed": false,
          "internalType": "uint256",
          "name": "t3",
          "type": "uint256"
        }
      ],
      "name": "TierPricesUpdated",
      "type": "event"
    },
    {
      "anonymous": false,
      "inputs": [
        {
          "indexed": true,
          "internalType": "uint256",
          "name": "tokenId",
          "type": "uint256"
        },
        {
          "indexed": false,
          "internalType": "uint256",
          "name": "amount",
          "type": "uint256"
        }
      ],
      "name": "TokensClaimed",
      "type": "event"
    },
    {
      "anonymous": false,
      "inputs": [
        {
          "indexed": true,
          "internalType": "address",
          "name": "from",
          "type": "address"
        },
        {
          "indexed": true,
          "internalType": "address",
          "name": "to",
          "type": "address"
        },
        {
          "indexed": true,
          "internalType": "uint256",
          "name": "tokenId",
          "type": "uint256"
        }
      ],
      "name": "Transfer",
      "type": "event"
    },
    {
      "anonymous": false,
      "inputs": [
        {
          "indexed": true,
          "internalType": "address",
          "name": "treasury",
          "type": "address"
        },
        {
          "indexed": false,
          "internalType": "uint256",
          "name": "amount",
          "type": "uint256"
        }
      ],
      "name": "TreasuryFee",
      "type": "event"
    },
    {
      "anonymous": false,
      "inputs": [
        {
          "indexed": true,
          "internalType": "address",
          "name": "implementation",
          "type": "address"
        }
      ],
      "name": "Upgraded",
      "type": "event"
    },
    {
      "anonymous": false,
      "inputs": [
        {
          "indexed": true,
          "internalType": "address",
          "name": "account",
          "type": "address"
        },
        {
          "indexed": false,
          "internalType": "bool",
          "name": "isWhitelisted",
          "type": "bool"
        }
      ],
      "name": "WhitelistUpdated",
      "type": "event"
    },
    {
      "inputs": [],
      "name": "ABS_MAX_INIT_PRICE",
      "outputs": [
        {
          "internalType": "uint256",
          "name": "",
          "type": "uint256"
        }
      ],
      "stateMutability": "view",
      "type": "function"
    },
    {
      "inputs": [],
      "name": "DEFAULT_RATE",
      "outputs": [
        {
          "internalType": "uint256",
          "name": "",
          "type": "uint256"
        }
      ],
      "stateMutability": "view",
      "type": "function"
    },
    {
      "inputs": [],
      "name": "DIVISOR",
      "outputs": [
        {
          "internalType": "uint256",
          "name": "",
          "type": "uint256"
        }
      ],
      "stateMutability": "view",
      "type": "function"
    },
    {
      "inputs": [],
      "name": "EPOCH_PERIOD",
      "outputs": [
        {
          "internalType": "uint256",
          "name": "",
          "type": "uint256"
        }
      ],
      "stateMutability": "view",
      "type": "function"
    },
    {
      "inputs": [],
      "name": "FEE",
      "outputs": [
        {
          "internalType": "uint256",
          "name": "",
          "type": "uint256"
        }
      ],
      "stateMutability": "view",
      "type": "function"
    },
    {
      "inputs": [],
      "name": "HALVING_PERIOD",
      "outputs": [
        {
          "internalType": "uint256",
          "name": "",
          "type": "uint256"
        }
      ],
      "stateMutability": "view",
      "type": "function"
    },
    {
      "inputs": [],
      "name": "INITIAL_DPS",
      "outputs": [
        {
          "internalType": "uint256",
          "name": "",
          "type": "uint256"
        }
      ],
      "stateMutability": "view",
      "type": "function"
    },
    {
      "inputs": [],
      "name": "MIN_INIT_PRICE",
      "outputs": [
        {
          "internalType": "uint256",
          "name": "",
          "type": "uint256"
        }
      ],
      "stateMutability": "view",
      "type": "function"
    },
    {
      "inputs": [],
      "name": "NEW_PRICE_MULTIPLIER",
      "outputs": [
        {
          "internalType": "uint256",
          "name": "",
          "type": "uint256"
        }
      ],
      "stateMutability": "view",
      "type": "function"
    },
    {
      "inputs": [],
      "name": "PRECISION",
      "outputs": [
        {
          "internalType": "uint256",
          "name": "",
          "type": "uint256"
        }
      ],
      "stateMutability": "view",
      "type": "function"
    },
    {
      "inputs": [],
      "name": "PRICE_MULTIPLIER",
      "outputs": [
        {
          "internalType": "uint256",
          "name": "",
          "type": "uint256"
        }
      ],
      "stateMutability": "view",
      "type": "function"
    },
    {
      "inputs": [],
      "name": "TAIL_DPS",
      "outputs": [
        {
          "internalType": "uint256",
          "name": "",
          "type": "uint256"
        }
      ],
      "stateMutability": "view",
      "type": "function"
    },
    {
      "inputs": [],
      "name": "TIER1_MAX_ID",
      "outputs": [
        {
          "internalType": "uint256",
          "name": "",
          "type": "uint256"
        }
      ],
      "stateMutability": "view",
      "type": "function"
    },
    {
      "inputs": [],
      "name": "TIER2_MAX_ID",
      "outputs": [
        {
          "internalType": "uint256",
          "name": "",
          "type": "uint256"
        }
      ],
      "stateMutability": "view",
      "type": "function"
    },
    {
      "inputs": [],
      "name": "UPGRADE_INTERFACE_VERSION",
      "outputs": [
        {
          "internalType": "string",
          "name": "",
          "type": "string"
        }
      ],
      "stateMutability": "view",
      "type": "function"
    },
    {
      "inputs": [
        {
          "internalType": "address",
          "name": "account",
          "type": "address"
        }
      ],
      "name": "addToWhitelist",
      "outputs": [],
      "stateMutability": "nonpayable",
      "type": "function"
    },
    {
      "inputs": [
        {
          "internalType": "address[]",
          "name": "accounts",
          "type": "address[]"
        }
      ],
      "name": "addToWhitelistBatch",
      "outputs": [],
      "stateMutability": "nonpayable",
      "type": "function"
    },
    {
      "inputs": [
        {
          "internalType": "address",
          "name": "to",
          "type": "address"
        },
        {
          "internalType": "uint256",
          "name": "tokenId",
          "type": "uint256"
        }
      ],
      "name": "approve",
      "outputs": [],
      "stateMutability": "nonpayable",
      "type": "function"
    },
    {
      "inputs": [
        {
          "internalType": "address",
          "name": "owner",
          "type": "address"
        }
      ],
      "name": "balanceOf",
      "outputs": [
        {
          "internalType": "uint256",
          "name": "",
          "type": "uint256"
        }
      ],
      "stateMutability": "view",
      "type": "function"
    },
    {
      "inputs": [
        {
          "internalType": "uint256",
          "name": "tokenId",
          "type": "uint256"
        }
      ],
      "name": "calculatePendingTokens",
      "outputs": [
        {
          "internalType": "uint256",
          "name": "",
          "type": "uint256"
        }
      ],
      "stateMutability": "view",
      "type": "function"
    },
    {
      "inputs": [],
      "name": "claimOfficeRewards",
      "outputs": [],
      "stateMutability": "nonpayable",
      "type": "function"
    },
    {
      "inputs": [
        {
          "internalType": "uint256",
          "name": "tokenId",
          "type": "uint256"
        }
      ],
      "name": "claimTokens",
      "outputs": [],
      "stateMutability": "nonpayable",
      "type": "function"
    },
    {
      "inputs": [
        {
          "internalType": "uint256",
          "name": "tokenId",
          "type": "uint256"
        }
      ],
      "name": "getApproved",
      "outputs": [
        {
          "internalType": "address",
          "name": "",
          "type": "address"
        }
      ],
      "stateMutability": "view",
      "type": "function"
    },
    {
      "inputs": [],
      "name": "getDps",
      "outputs": [
        {
          "internalType": "uint256",
          "name": "",
          "type": "uint256"
        }
      ],
      "stateMutability": "view",
      "type": "function"
    },
    {
      "inputs": [
        {
          "internalType": "uint256",
          "name": "tokenId",
          "type": "uint256"
        }
      ],
      "name": "getMintPrice",
      "outputs": [
        {
          "internalType": "uint256",
          "name": "",
          "type": "uint256"
        }
      ],
      "stateMutability": "view",
      "type": "function"
    },
    {
      "inputs": [],
      "name": "getPendingOfficeRewards",
      "outputs": [
        {
          "internalType": "uint256",
          "name": "",
          "type": "uint256"
        }
      ],
      "stateMutability": "view",
      "type": "function"
    },
    {
      "inputs": [],
      "name": "getPrice",
      "outputs": [
        {
          "internalType": "uint256",
          "name": "",
          "type": "uint256"
        }
      ],
      "stateMutability": "view",
      "type": "function"
    },
    {
      "inputs": [],
      "name": "getSlot0",
      "outputs": [
        {
          "components": [
            {
              "internalType": "uint8",
              "name": "locked",
              "type": "uint8"
            },
            {
              "internalType": "uint16",
              "name": "epochId",
              "type": "uint16"
            },
            {
              "internalType": "uint192",
              "name": "initPrice",
              "type": "uint192"
            },
            {
              "internalType": "uint40",
              "name": "startTime",
              "type": "uint40"
            },
            {
              "internalType": "uint256",
              "name": "dps",
              "type": "uint256"
            },
            {
              "internalType": "address",
              "name": "miner",
              "type": "address"
            },
            {
              "internalType": "string",
              "name": "uri",
              "type": "string"
            }
          ],
          "internalType": "struct TavernKeeper.Slot0",
          "name": "",
          "type": "tuple"
        }
      ],
      "stateMutability": "view",
      "type": "function"
    },
    {
      "inputs": [
        {
          "internalType": "address",
          "name": "owner",
          "type": "address"
        }
      ],
      "name": "getTokensOfOwner",
      "outputs": [
        {
          "internalType": "uint256[]",
          "name": "",
          "type": "uint256[]"
        }
      ],
      "stateMutability": "view",
      "type": "function"
    },
    {
      "inputs": [],
      "name": "initialize",
      "outputs": [],
      "stateMutability": "nonpayable",
      "type": "function"
    },
    {
      "inputs": [
        {
          "internalType": "address",
          "name": "_treasury",
          "type": "address"
        }
      ],
      "name": "initializeOfficeV2",
      "outputs": [],
      "stateMutability": "nonpayable",
      "type": "function"
    },
    {
      "inputs": [],
      "name": "initializeRPG",
      "outputs": [],
      "stateMutability": "nonpayable",
      "type": "function"
    },
    {
      "inputs": [
        {
          "internalType": "address",
          "name": "owner",
          "type": "address"
        },
        {
          "internalType": "address",
          "name": "operator",
          "type": "address"
        }
      ],
      "name": "isApprovedForAll",
      "outputs": [
        {
          "internalType": "bool",
          "name": "",
          "type": "bool"
        }
      ],
      "stateMutability": "view",
      "type": "function"
    },
    {
      "inputs": [],
      "name": "keepToken",
      "outputs": [
        {
          "internalType": "address",
          "name": "",
          "type": "address"
        }
      ],
      "stateMutability": "view",
      "type": "function"
    },
    {
      "inputs": [
        {
          "internalType": "uint256",
          "name": "",
          "type": "uint256"
        }
      ],
      "name": "lastClaimTime",
      "outputs": [
        {
          "internalType": "uint256",
          "name": "",
          "type": "uint256"
        }
      ],
      "stateMutability": "view",
      "type": "function"
    },
    {
      "inputs": [
        {
          "internalType": "string",
          "name": "uri",
          "type": "string"
        },
        {
          "internalType": "uint256",
          "name": "amount",
          "type": "uint256"
        },
        {
          "internalType": "uint256",
          "name": "deadline",
          "type": "uint256"
        },
        {
          "internalType": "bytes",
          "name": "signature",
          "type": "bytes"
        }
      ],
      "name": "mintTavernKeeper",
      "outputs": [
        {
          "internalType": "uint256",
          "name": "",
          "type": "uint256"
        }
      ],
      "stateMutability": "payable",
      "type": "function"
    },
    {
      "inputs": [
        {
          "internalType": "string",
          "name": "uri",
          "type": "string"
        }
      ],
      "name": "mintTavernKeeperWhitelist",
      "outputs": [
        {
          "internalType": "uint256",
          "name": "",
          "type": "uint256"
        }
      ],
      "stateMutability": "nonpayable",
      "type": "function"
    },
    {
      "inputs": [
        {
          "internalType": "uint256",
          "name": "",
          "type": "uint256"
        }
      ],
      "name": "mintingRate",
      "outputs": [
        {
          "internalType": "uint256",
          "name": "",
          "type": "uint256"
        }
      ],
      "stateMutability": "view",
      "type": "function"
    },
    {
      "inputs": [],
      "name": "name",
      "outputs": [
        {
          "internalType": "string",
          "name": "",
          "type": "string"
        }
      ],
      "stateMutability": "view",
      "type": "function"
    },
    {
      "inputs": [
        {
          "internalType": "address",
          "name": "",
          "type": "address"
        }
      ],
      "name": "nonces",
      "outputs": [
        {
          "internalType": "uint256",
          "name": "",
          "type": "uint256"
        }
      ],
      "stateMutability": "view",
      "type": "function"
    },
    {
      "inputs": [],
      "name": "owner",
      "outputs": [
        {
          "internalType": "address",
          "name": "",
          "type": "address"
        }
      ],
      "stateMutability": "view",
      "type": "function"
    },
    {
      "inputs": [
        {
          "internalType": "uint256",
          "name": "tokenId",
          "type": "uint256"
        }
      ],
      "name": "ownerOf",
      "outputs": [
        {
          "internalType": "address",
          "name": "",
          "type": "address"
        }
      ],
      "stateMutability": "view",
      "type": "function"
    },
    {
      "inputs": [],
      "name": "proxiableUUID",
      "outputs": [
        {
          "internalType": "bytes32",
          "name": "",
          "type": "bytes32"
        }
      ],
      "stateMutability": "view",
      "type": "function"
    },
    {
      "inputs": [
        {
          "internalType": "address",
          "name": "account",
          "type": "address"
        }
      ],
      "name": "removeFromWhitelist",
      "outputs": [],
      "stateMutability": "nonpayable",
      "type": "function"
    },
    {
      "inputs": [],
      "name": "renounceOwnership",
      "outputs": [],
      "stateMutability": "nonpayable",
      "type": "function"
    },
    {
      "inputs": [
        {
          "internalType": "address",
          "name": "account",
          "type": "address"
        }
      ],
      "name": "resetWhitelistMinted",
      "outputs": [],
      "stateMutability": "nonpayable",
      "type": "function"
    },
    {
      "inputs": [
        {
          "internalType": "address",
          "name": "to",
          "type": "address"
        },
        {
          "internalType": "string",
          "name": "uri",
          "type": "string"
        }
      ],
      "name": "safeMint",
      "outputs": [
        {
          "internalType": "uint256",
          "name": "",
          "type": "uint256"
        }
      ],
      "stateMutability": "nonpayable",
      "type": "function"
    },
    {
      "inputs": [
        {
          "internalType": "address",
          "name": "from",
          "type": "address"
        },
        {
          "internalType": "address",
          "name": "to",
          "type": "address"
        },
        {
          "internalType": "uint256",
          "name": "tokenId",
          "type": "uint256"
        }
      ],
      "name": "safeTransferFrom",
      "outputs": [],
      "stateMutability": "nonpayable",
      "type": "function"
    },
    {
      "inputs": [
        {
          "internalType": "address",
          "name": "from",
          "type": "address"
        },
        {
          "internalType": "address",
          "name": "to",
          "type": "address"
        },
        {
          "internalType": "uint256",
          "name": "tokenId",
          "type": "uint256"
        },
        {
          "internalType": "bytes",
          "name": "data",
          "type": "bytes"
        }
      ],
      "name": "safeTransferFrom",
      "outputs": [],
      "stateMutability": "nonpayable",
      "type": "function"
    },
    {
      "inputs": [
        {
          "internalType": "address",
          "name": "operator",
          "type": "address"
        },
        {
          "internalType": "bool",
          "name": "approved",
          "type": "bool"
        }
      ],
      "name": "setApprovalForAll",
      "outputs": [],
      "stateMutability": "nonpayable",
      "type": "function"
    },
    {
      "inputs": [
        {
          "internalType": "address",
          "name": "_keepToken",
          "type": "address"
        }
      ],
      "name": "setKeepTokenContract",
      "outputs": [],
      "stateMutability": "nonpayable",
      "type": "function"
    },
    {
      "inputs": [
        {
          "internalType": "address",
          "name": "_signer",
          "type": "address"
        }
      ],
      "name": "setSigner",
      "outputs": [],
      "stateMutability": "nonpayable",
      "type": "function"
    },
    {
      "inputs": [
        {
          "internalType": "uint256",
          "name": "_t1",
          "type": "uint256"
        },
        {
          "internalType": "uint256",
          "name": "_t2",
          "type": "uint256"
        },
        {
          "internalType": "uint256",
          "name": "_t3",
          "type": "uint256"
        }
      ],
      "name": "setTierPrices",
      "outputs": [],
      "stateMutability": "nonpayable",
      "type": "function"
    },
    {
      "inputs": [
        {
          "internalType": "address",
          "name": "_treasury",
          "type": "address"
        }
      ],
      "name": "setTreasury",
      "outputs": [],
      "stateMutability": "nonpayable",
      "type": "function"
    },
    {
      "inputs": [],
      "name": "signer",
      "outputs": [
        {
          "internalType": "address",
          "name": "",
          "type": "address"
        }
      ],
      "stateMutability": "view",
      "type": "function"
    },
    {
      "inputs": [],
      "name": "slot0",
      "outputs": [
        {
          "internalType": "uint8",
          "name": "locked",
          "type": "uint8"
        },
        {
          "internalType": "uint16",
          "name": "epochId",
          "type": "uint16"
        },
        {
          "internalType": "uint192",
          "name": "initPrice",
          "type": "uint192"
        },
        {
          "internalType": "uint40",
          "name": "startTime",
          "type": "uint40"
        },
        {
          "internalType": "uint256",
          "name": "dps",
          "type": "uint256"
        },
        {
          "internalType": "address",
          "name": "miner",
          "type": "address"
        },
        {
          "internalType": "string",
          "name": "uri",
          "type": "string"
        }
      ],
      "stateMutability": "view",
      "type": "function"
    },
    {
      "inputs": [
        {
          "internalType": "bytes4",
          "name": "interfaceId",
          "type": "bytes4"
        }
      ],
      "name": "supportsInterface",
      "outputs": [
        {
          "internalType": "bool",
          "name": "",
          "type": "bool"
        }
      ],
      "stateMutability": "view",
      "type": "function"
    },
    {
      "inputs": [],
      "name": "symbol",
      "outputs": [
        {
          "internalType": "string",
          "name": "",
          "type": "string"
        }
      ],
      "stateMutability": "view",
      "type": "function"
    },
    {
      "inputs": [
        {
          "internalType": "uint256",
          "name": "epochId",
          "type": "uint256"
        },
        {
          "internalType": "uint256",
          "name": "deadline",
          "type": "uint256"
        },
        {
          "internalType": "uint256",
          "name": "maxPrice",
          "type": "uint256"
        },
        {
          "internalType": "string",
          "name": "uri",
          "type": "string"
        }
      ],
      "name": "takeOffice",
      "outputs": [
        {
          "internalType": "uint256",
          "name": "price",
          "type": "uint256"
        }
      ],
      "stateMutability": "payable",
      "type": "function"
    },
    {
      "inputs": [],
      "name": "tier1Price",
      "outputs": [
        {
          "internalType": "uint256",
          "name": "",
          "type": "uint256"
        }
      ],
      "stateMutability": "view",
      "type": "function"
    },
    {
      "inputs": [],
      "name": "tier2Price",
      "outputs": [
        {
          "internalType": "uint256",
          "name": "",
          "type": "uint256"
        }
      ],
      "stateMutability": "view",
      "type": "function"
    },
    {
      "inputs": [],
      "name": "tier3Price",
      "outputs": [
        {
          "internalType": "uint256",
          "name": "",
          "type": "uint256"
        }
      ],
      "stateMutability": "view",
      "type": "function"
    },
    {
      "inputs": [
        {
          "internalType": "uint256",
          "name": "tokenId",
          "type": "uint256"
        }
      ],
      "name": "tokenURI",
      "outputs": [
        {
          "internalType": "string",
          "name": "",
          "type": "string"
        }
      ],
      "stateMutability": "view",
      "type": "function"
    },
    {
      "inputs": [
        {
          "internalType": "address",
          "name": "from",
          "type": "address"
        },
        {
          "internalType": "address",
          "name": "to",
          "type": "address"
        },
        {
          "internalType": "uint256",
          "name": "tokenId",
          "type": "uint256"
        }
      ],
      "name": "transferFrom",
      "outputs": [],
      "stateMutability": "nonpayable",
      "type": "function"
    },
    {
      "inputs": [
        {
          "internalType": "address",
          "name": "newOwner",
          "type": "address"
        }
      ],
      "name": "transferOwnership",
      "outputs": [],
      "stateMutability": "nonpayable",
      "type": "function"
    },
    {
      "inputs": [],
      "name": "treasury",
      "outputs": [
        {
          "internalType": "address",
          "name": "",
          "type": "address"
        }
      ],
      "stateMutability": "view",
      "type": "function"
    },
    {
      "inputs": [
        {
          "internalType": "uint256",
          "name": "tokenId",
          "type": "uint256"
        },
        {
          "internalType": "string",
          "name": "newUri",
          "type": "string"
        }
      ],
      "name": "updateTokenURI",
      "outputs": [],
      "stateMutability": "nonpayable",
      "type": "function"
    },
    {
      "inputs": [
        {
          "internalType": "address",
          "name": "newImplementation",
          "type": "address"
        },
        {
          "internalType": "bytes",
          "name": "data",
          "type": "bytes"
        }
      ],
      "name": "upgradeToAndCall",
      "outputs": [],
      "stateMutability": "payable",
      "type": "function"
    },
    {
      "inputs": [],
      "name": "v2StartTime",
      "outputs": [
        {
          "internalType": "uint256",
          "name": "",
          "type": "uint256"
        }
      ],
      "stateMutability": "view",
      "type": "function"
    },
    {
      "inputs": [
        {
          "internalType": "address",
          "name": "",
          "type": "address"
        }
      ],
      "name": "whitelist",
      "outputs": [
        {
          "internalType": "bool",
          "name": "",
          "type": "bool"
        }
      ],
      "stateMutability": "view",
      "type": "function"
    },
    {
      "inputs": [
        {
          "internalType": "address",
          "name": "",
          "type": "address"
        }
      ],
      "name": "whitelistMinted",
      "outputs": [
        {
          "internalType": "bool",
          "name": "",
          "type": "bool"
        }
      ],
      "stateMutability": "view",
      "type": "function"
    },
    {
      "inputs": [],
      "name": "withdrawFunds",
      "outputs": [],
      "stateMutability": "nonpayable",
      "type": "function"
    }
  ],
  "bytecode": "0x60a080604052346100e857306080527ff0c57e16840df040f15088dc2f81fe391c3923bec73e23a9662efc9c229c6a005460ff8160401c166100d9576002600160401b03196001600160401b03821601610073575b60405161435590816100ed823960805181818161220b015261229e0152f35b6001600160401b0319166001600160401b039081177ff0c57e16840df040f15088dc2f81fe391c3923bec73e23a9662efc9c229c6a005581527fc7f505b2f371ae2175ee4913f4499e1f2633a7b5936321eed1cdaeb6115181d290602090a15f80610054565b63f92ee8a960e01b5f5260045ffd5b5f80fdfe60806040526004361015610011575f80fd5b5f803560e01c80630169916a1461325c57806301ffc9a7146131d457806306fdde031461310557806307d2e1e2146130e8578063081812fc1461309f578063095ea7b314612fb3578063113990b8146119ce57806318e97fd114612e735780631fa2a6ae14612e0f578063238ac93314612de757806323b872dd14612dd057806324600fc314612cb25780632d72c99f14612c975780633410fe6e14612c7b5780633850c7bd14612b4b5780633adde9c114612b2e5780633dbc71fa14612ab85780633e2066341461279d57806342842e0e1461276c578063439d8f4e1461274f578063467c5adf1461272757806346e04a2f146125b85780634a0792151461259a5780634b573550146124485780634f1ef2861461225f57806352d1902d146121f8578063559e775b146121db5780635de6dc55146120b55780635fea89f11461208b57806361d027b3146120625780636352211e146120315780636c19e78314611f8057806370a0823114611f5c578063715018a614611ef35780637ecebe0014611eba5780638129fc1c146119fd578063877dab7e146119d357806387995660146119ce578063889bb00f1461192357806388f4b49e146119005780638ab1d681146118a65780638da5cb5b1461187157806395d89b411461178a57806398a8cffe1461174b57806398d5fdca1461171b5780639b19251a146116dc5780639c511ad4146116bf5780639e42172614610ebc578063a22cb46514610e21578063a2e66a0f14610dfe578063a3e860fe14610df9578063a617713914610d09578063aaf5eb6814610429578063ad3cb1cc14610cc0578063b0a13a5c14610c95578063b5d3b8ae14610c78578063b88d4fde14610c19578063b891f48f14610bfe578063c57981b514610be1578063c762f773146107e5578063c87b56dd146107b1578063c940f4c814610757578063c9ae5e0c14610675578063d204c45e146105e6578063e43252d71461057e578063e5eb39ec14610557578063e69be3f31461047c578063e985e9c51461042e578063ef2e0d2514610429578063f0f442601461037f578063f2fde38b146103525763fb8b51a014610332575f80fd5b3461034f578060031936011261034f576020600454604051908152f35b80fd5b503461034f57602036600319011261034f5761037c61036f6132a1565b610377613c0c565b6139ae565b80f35b503461034f57602036600319011261034f576103996132a1565b6103a1613c0c565b6001600160a01b031680156103f157806001600160601b0360a01b60115416176011557f44c4b50ac44926f55eefc40ddaf8d1a7848627c9fd4b811e4a36f9985d78aba26020604051848152a280f35b60405162461bcd60e51b815260206004820152601060248201526f496e76616c696420747265617375727960801b6044820152606490fd5b613530565b503461034f57604036600319011261034f5761045a61044b6132a1565b6104536132b7565b92506134c0565b9060018060a01b03165f52602052602060ff60405f2054166040519015158152f35b503461034f57602036600319011261034f576104966132a1565b61049e613c0c565b601154906001600160a01b0382166105195760018060a01b0316906001600160601b0360a01b1617601155426012556101006a0de0b6b3a764000000000060ff600d54336001600160601b0360a01b600f541617600f55673782dace9d900000600e55161764ffffffffff60d81b4260d81b161717600d5580f35b60405162461bcd60e51b815260206004820152601660248201527520b63932b0b23c9034b734ba34b0b634bd32b2102b1960511b6044820152606490fd5b503461034f57602036600319011261034f57602061057660043561396a565b604051908152f35b503461034f57602036600319011261034f576105986132a1565b6105a0613c0c565b6001600160a01b03166105b481151561375b565b808252601360205260408220600160ff198254161790555f80516020614300833981519152602060405160018152a280f35b503461034f57604036600319011261034f576106006132a1565b6024356001600160401b03811161067157604060209361065461062f662386f26fc10000943690600401613390565b610637613c0c565b61064e8354809761064782613799565b8655613c3f565b85613a87565b838152600285524282822055838152600385522055604051908152f35b8280fd5b503461034f578060031936011261034f57606060c0604051610696816132ef565b83815283602082015283604082015283838201528360808201528360a08201520152600260ff600d5416146107485760c06106cf61387e565b6107446040519283926020845260ff815116602085015261ffff6020820151166040850152600180831b03604082015116606085015264ffffffffff6060820151166080850152608081015160a085015260018060a01b0360a08201511682850152015160e08084015261010083019061327d565b0390f35b63558a1e0360e11b8152600490fd5b503461034f57602036600319011261034f576107716132a1565b610779613c0c565b6001600160a01b0316808252601460209081526040808420805460ff19169055518381525f805160206143008339815191529190a280f35b503461034f57602036600319011261034f576107446107d1600435614017565b60405191829160208352602083019061327d565b503461034f578060031936011261034f57600d54600260ff821614610bd25760ff1916600217600d5561081661387e565b60a081018051909291906001600160a01b03163303610b9a57600154610846906001600160a01b031615156137f8565b606081019061085d64ffffffffff835116426137eb565b918215610b645761087460808301938451906138e8565b948515610b325760c09361092861094f9364ffffffffff42168091526108a860ff87511660ff1660ff19600d541617600d55565b6108cd61ffff60208801511662ffff00600d549160081b169062ffff00191617600d55565b6040860151600d80546301000000600160d81b0319165f1960018b1b019290921660181b6301000000600160d81b0316919091179055600d80546001600160d81b031660d89290921b6001600160d81b031916919091179055565b51600e5551600f80546001600160a01b0319166001600160a01b0392909216919091179055565b01519182516001600160401b038111610b1e5761096d6010546133e8565b601f8111610abb575b506020601f8211600114610a5957839482939492610a4e575b50508160011b915f199060031b1c1916176010555b60015482906001600160a01b0316803b15610a3f576040516340c10f1960e01b8152336004820152602481018490529082908290604490829084905af18015610a4357610a2a575b50506040519081527fab89eac8a47ec964c442bedde0fe9093248f72a543e70ff346e31b652827c66360203392a2600160ff19600d541617600d5580f35b81610a349161331e565b610a3f57815f6109ec565b5080fd5b6040513d84823e3d90fd5b015190505f8061098f565b6010845280842090601f198316855b818110610aa357509583600195969710610a8b575b505050811b016010556109a4565b01515f1960f88460031b161c191690555f8080610a7d565b9192602060018192868b015181550194019201610a68565b601084527f1b6847dc741a1b0cd08d278845f9d819d87b734759afb55fe2de5cb82a9ae672601f830160051c81019160208410610b14575b601f0160051c01905b818110610b095750610976565b848155600101610afc565b9091508190610af3565b634e487b7160e01b83526041600452602483fd5b60405162461bcd60e51b815260206004820152600a6024820152694e6f207265776172647360b01b6044820152606490fd5b60405162461bcd60e51b815260206004820152600e60248201526d139bc81d1a5b59481c185cdcd95960921b6044820152606490fd5b60405162461bcd60e51b815260206004820152601060248201526f4e6f742063757272656e74206b696e6760801b6044820152606490fd5b63558a1e0360e11b8252600482fd5b503461034f578060031936011261034f5760206040516107d08152f35b503461034f578060031936011261034f576020610576613933565b503461034f57608036600319011261034f57610c336132a1565b610c3b6132b7565b90604435606435926001600160401b038411610c7457610c6261037c943690600401613390565b92610c6e838383613552565b33613f1a565b8480fd5b503461034f578060031936011261034f5760206040516103e88152f35b503461034f578060031936011261034f57600260ff600d541614610748576020600e54604051908152f35b503461034f578060031936011261034f5750610744604051610ce360408261331e565b60058152640352e302e360dc1b602082015260405191829160208352602083019061327d565b503461034f57602036600319011261034f576004356001600160401b038111610a3f5736602382011215610a3f578060040135906001600160401b038211610671576024810190602436918460051b01011161067157610d67613c0c565b825b828110610d74578380f35b600190610d9d6001600160a01b03610d95610d908488886138fb565b61391f565b16151561375b565b818060a01b03610db1610d908387876138fb565b1685526013602052604085208260ff19825416179055818060a01b03610ddb610d908387876138fb565b165f805160206143008339815191526020604051858152a201610d69565b61325c565b503461034f578060031936011261034f576020604051673782dace9d9000008152f35b503461034f57604036600319011261034f57610e3b6132a1565b60243590811515809203610671576001600160a01b0316908115610ea857610e62336134c0565b825f5260205260405f2060ff1981541660ff83161790556040519081527f17307eab39ab6107e8899845ad3d59bd9653f200f220920489ca2b5937696c3160203392a380f35b630b61174360e31b83526004829052602483fd5b50608036600319011261034f57600435906064356001600160401b038111610a3f57610eec903690600401613390565b90600d54600260ff821614610bd25760ff1916600217600d5560243542116116b057610f1661387e565b92801515908161169a575b5061168b57610f2f83613e46565b604435811161167c578034106116405781610f4a82346137eb565b806115ef575b5050801580156113a6575b671bc16d674ec80000820290828204671bc16d674ec8000014171561139257670de0b6b3a764000090046001600160c01b0381111561137357506001600160c01b035b60608501610fb464ffffffffff825116426137eb565b91610fc560808801938451906138e8565b6001546001600160a01b031697908815158061135d575b611268575b508697506110ea949596939261109d6110c49361107161ffff8561105660ff602064ffffffffff9901928460018186511601168452604081019660018060c01b03168752894216895260a081019c8d33905261103c42613eb4565b809d5260c0820152511660ff1660ff19600d541617600d55565b511662ffff00600d549160081b169062ffff00191617600d55565b51600d80546301000000600160d81b03191660189290921b6301000000600160d81b0316919091179055565b51600d80546001600160d81b03169290911660d81b6001600160d81b031916919091179055565b600e5551600f80546001600160a01b0319166001600160a01b0392909216919091179055565b8251926001600160401b038411610b1e576111066010546133e8565b93601f8511611205575b602094508493601f82116001146111a65793819293949161119b575b508160011b915f199060031b1c1916176010555b7f6bd27feda26da893d76f461d47d2c4f4c71df28c61d91a79c073d511716f7ab7604051838152838582015260606040820152806111833394606083019061327d565b0390a2600160ff19600d541617600d55604051908152f35b90508201515f61112c565b601f1982169460108252808220915b8681106111ee5750826001949596106111d6575b5050811b01601055611140565b8401515f1960f88460031b161c191690555f806111c9565b9091876001819285880151815501930191016111b5565b601084527f1b6847dc741a1b0cd08d278845f9d819d87b734759afb55fe2de5cb82a9ae672601f820160051c8101956020831061125e575b601f0160051c01945b8581106112535750611110565b848155600101611246565b909550859061123d565b60a0820180516001600160a01b031699803b15611359576040516340c10f1960e01b81526001600160a01b039b909b1660048c015260248b0183905288908b90604490829084905af1801561134e5797899a819a979899611327575b50506110c49361107161ffff64ffffffffff956110ea9a98957fab89eac8a47ec964c442bedde0fe9093248f72a543e70ff346e31b652827c663602061109d9760018060a01b0390511692604051908152a2955050509350509293969594610fe1565b8192939495969750906113399161331e565b61134a57908894939291885f6112c4565b8780fd5b6040513d8a823e3d90fd5b8880fd5b5060a08201516001600160a01b03161515610fdc565b670de0b6b3a7640000811015610f9e5750670de0b6b3a7640000610f9e565b634e487b7160e01b83526011600452602483fd5b6107d082028281046107d0148217156115db5761271090046113c881846137eb565b90848080806113db8560021c80966137eb565b5f80516020614240833981519152549095906001600160a01b03165af161140061372c565b50156115a05760115485906001600160a01b031615611569578080808460018060a01b03601154165af161143261372c565b5015611524576011546040519182526001600160a01b0316907f44c4b50ac44926f55eefc40ddaf8d1a7848627c9fd4b811e4a36f9985d78aba290602090a25b60a08601805185906001600160a01b031680611492575b50505050610f5b565b81808581935af16114a161372c565b50156114e757516040519182526001600160a01b0316907f58616205e0a5e583fa41138b0b6ba26d640390a34951e96a8b313dc315da6acb90602090a25f808481611489565b60405162461bcd60e51b8152602060048201526015602482015274135a5b995c881d1c985b9cd9995c8819985a5b1959605a1b6044820152606490fd5b60405162461bcd60e51b815260206004820152601860248201527f5472656173757279207472616e73666572206661696c656400000000000000006044820152606490fd5b5f805160206142408339815191525461159b928291829182916001600160a01b03165af161159561372c565b506137a7565b611472565b60405162461bcd60e51b815260206004820152601360248201527211195d881d1c985b9cd9995c8819985a5b1959606a1b6044820152606490fd5b634e487b7160e01b84526011600452602484fd5b81808092335af16115fe61372c565b501561160b57815f610f50565b60405162461bcd60e51b815260206004820152600d60248201526c1499599d5b990819985a5b1959609a1b6044820152606490fd5b60405162461bcd60e51b8152602060048201526014602482015273125b9cdd59999a58da595b9d081c185e5b595b9d60621b6044820152606490fd5b631d5ece5360e01b8252600482fd5b63608fb7bf60e01b8152600490fd5b905061ffff80602086015116911614155f610f21565b630407b05b60e31b8152600490fd5b503461034f578060031936011261034f576020604051610e108152f35b503461034f57602036600319011261034f5760209060ff906040906001600160a01b036117076132a1565b168152601384522054166040519015158152f35b503461034f578060031936011261034f57600260ff600d54161461074857602061057661174661387e565b613e46565b503461034f57602036600319011261034f5760209060ff906040906001600160a01b036117766132a1565b168152601484522054166040519015158152f35b503461034f578060031936011261034f5760405190805f805160206142c083398151915254906117b9826133e8565b808552916001811690811561184a57506001146117e1575b610744846107d18186038261331e565b5f805160206142c083398151915281527ff4bad0a69248f59680a4f2b3000328cec71a413447c96781cfe5996daa8c456e939250905b808210611830575090915081016020016107d1826117d1565b919260018160209254838588010152019101909291611817565b60ff191660208087019190915292151560051b850190920192506107d191508390506117d1565b503461034f578060031936011261034f575f80516020614240833981519152546040516001600160a01b039091168152602090f35b503461034f57602036600319011261034f576118c06132a1565b6118c8613c0c565b6001600160a01b0316808252601360209081526040808420805460ff19169055518381525f805160206143008339815191529190a280f35b503461034f578060031936011261034f576040516001600160c01b038152602090f35b503461034f578060031936011261034f575f805160206142a08339815191525460ff8160401c169081156119b9575b506119aa575f805160206142a0833981519152805468ffffffffffffffffff191660039081179091556040519081527fc7f505b2f371ae2175ee4913f4499e1f2633a7b5936321eed1cdaeb6115181d290602090a180f35b63f92ee8a960e01b8152600490fd5b600391506001600160401b031610155f611952565b6132cd565b503461034f57602036600319011261034f5760406020916004358152600283522054604051908152f35b503461034f578060031936011261034f575f805160206142a083398151915254906001600160401b0360ff8360401c1615921680159081611eb2575b6001149081611ea8575b159081611e9f575b506119aa578160016001600160401b03195f805160206142a08339815191525416175f805160206142a083398151915255611e6a575b6040805192611a90828561331e565b601684527524b73725b2b2b832b9102a30bb32b93725b2b2b832b960511b6020850152815193611ac0838661331e565b600685526525a2a2a822a960d11b6020860152611adb614114565b611ae3614114565b8051906001600160401b038211611e56578190611b0d5f80516020614220833981519152546133e8565b601f8111611dd8575b50602090601f8311600114611d51578692611d46575b50508160011b915f199060031b1c1916175f80516020614220833981519152555b83516001600160401b038111611d3257611b745f805160206142c0833981519152546133e8565b601f8111611cc3575b50602094601f8211600114611c48579484958293949592611c3d575b50508160011b915f199060031b1c1916175f805160206142c0833981519152555b611bc2614114565b611bca614114565b611bd2614114565b611bdb336139ae565b611be3614114565b611beb575080f35b60207fc7f505b2f371ae2175ee4913f4499e1f2633a7b5936321eed1cdaeb6115181d29160ff60401b195f805160206142a083398151915254165f805160206142a0833981519152555160018152a180f35b015190505f80611b99565b601f198216955f805160206142c0833981519152865280862091865b888110611cab57508360019596979810611c93575b505050811b015f805160206142c083398151915255611bba565b01515f1960f88460031b161c191690555f8080611c79565b91926020600181928685015181550194019201611c64565b5f805160206142c083398151915285527ff4bad0a69248f59680a4f2b3000328cec71a413447c96781cfe5996daa8c456e601f830160051c81019160208410611d28575b601f0160051c01905b818110611d1d5750611b7d565b858155600101611d10565b9091508190611d07565b634e487b7160e01b84526041600452602484fd5b015190505f80611b2c565b5f8051602061422083398151915287525f805160206142e08339815191529250601f198416875b818110611dc05750908460019594939210611da8575b505050811b015f8051602061422083398151915255611b4d565b01515f1960f88460031b161c191690555f8080611d8e565b92936020600181928786015181550195019301611d78565b9091505f805160206142208339815191528652601f830160051c5f805160206142e0833981519152019060208410611e41575b90601f8493920160051c5f805160206142e083398151915201905b818110611e335750611b16565b878155849350600101611e26565b5f805160206142e08339815191529150611e0b565b634e487b7160e01b85526041600452602485fd5b6801000000000000000060ff60401b195f805160206142a08339815191525416175f805160206142a083398151915255611a81565b9050155f611a4b565b303b159150611a43565b839150611a39565b503461034f57602036600319011261034f576020906040906001600160a01b03611ee26132a1565b168152600883522054604051908152f35b503461034f578060031936011261034f57611f0c613c0c565b5f8051602061424083398151915280546001600160a01b0319811690915581906001600160a01b03167f8be0079c531659141344cd1fd0a4f28419497f9722a3daafe3b4186f6b6457e08280a380f35b503461034f57602036600319011261034f576020610576611f7b6132a1565b61384f565b503461034f57602036600319011261034f57611f9a6132a1565b611fa2613c0c565b6001600160a01b03168015611ff3576020817f5553331329228fbd4123164423717a4a7539f6dfa1c3279a923b98fd681a6c73926001600160601b0360a01b6007541617600755604051908152a180f35b60405162461bcd60e51b8152602060048201526016602482015275496e76616c6964207369676e6572206164647265737360501b6044820152606490fd5b503461034f57602036600319011261034f576020612050600435613a1f565b6040516001600160a01b039091168152f35b503461034f578060031936011261034f576011546040516001600160a01b039091168152602090f35b503461034f57602036600319011261034f5760406020916004358152600383522054604051908152f35b503461034f57602036600319011261034f576120cf6132a1565b906120d98261384f565b906120e382613838565b906120f1604051928361331e565b8282526120fd83613838565b602083019490601f1901368637909384916001600160a01b03169060015b858710806121d1575b1561218d57826001600160a01b0361213b83613a4e565b1614612150575b61214b90613799565b61211b565b958451811015612179576121718188602061214b9460051b89010152613799565b969050612142565b634e487b7160e01b84526032600452602484fd5b838583604051928392602084019060208552518091526040840192915b8181106121b8575050500390f35b82518452859450602093840193909201916001016121aa565b5083548110612124565b503461034f57602036600319011261034f57602090604051908152f35b503461034f578060031936011261034f577f00000000000000000000000000000000000000000000000000000000000000006001600160a01b031630036122505760206040515f805160206142608339815191528152f35b63703e46dd60e11b8152600490fd5b50604036600319011261034f576122746132a1565b906024356001600160401b038111610a3f57612294903690600401613390565b6001600160a01b037f000000000000000000000000000000000000000000000000000000000000000016308114908115612426575b50612417576122d6613c0c565b6040516352d1902d60e01b8152926001600160a01b0381169190602085600481865afa809585966123e3575b5061231b57634c9c8ce360e01b84526004839052602484fd5b9091845f8051602061426083398151915281036123d15750813b156123bf575f8051602061426083398151915280546001600160a01b031916821790557fbc7cd75a20ee27fd9adebab32041f755214dbc6bffa90cc0225b39da2e5c2d3b8480a281518390156123a557808360206123a195519101845af461239b61372c565b916141c1565b5080f35b505050346123b05780f35b63b398979f60e01b8152600490fd5b634c9c8ce360e01b8452600452602483fd5b632a87526960e21b8552600452602484fd5b9095506020813d60201161240f575b816123ff6020938361331e565b81010312610c745751945f612302565b3d91506123f2565b63703e46dd60e11b8252600482fd5b5f80516020614260833981519152546001600160a01b0316141590505f6122c9565b503461034f57602036600319011261034f576004356001600160401b038111610a3f57612479903690600401613390565b90338152601360205260ff6040822054161561256357338152601460205260ff60408220541661252d576020913382526014835260408220600160ff198254161790556124d28254916124cc8333613c3f565b82613a87565b8082526002835242604083205580825260038352662386f26fc1000060408320556124fd8254613799565b825580604051927f0dc6e3e09b33609005a22dc2ba89c627d1bc6cdacc7f4ac114e3f327a434aeee339180a38152f35b60405162461bcd60e51b815260206004820152600e60248201526d105b1c9958591e481b5a5b9d195960921b6044820152606490fd5b60405162461bcd60e51b815260206004820152600f60248201526e139bdd081dda1a5d195b1a5cdd1959608a1b6044820152606490fd5b503461034f578060031936011261034f576020600554604051908152f35b50346126b35760203660031901126126b3576004356125d681613a1f565b336001600160a01b03909116036126f0576001546125fe906001600160a01b031615156137f8565b6126078161396a565b80156126b7575f8281526002602052604090204290556001546001600160a01b0316803b156126b3576040516340c10f1960e01b815233600482015260248101839052905f908290604490829084905af180156126a857612692575b5060207fbde2d72390af9d0444bb1c4f938971ecb673ed26f5f57f8fa44c553fe01d0d3a91604051908152a280f35b61269f9193505f9061331e565b5f916020612663565b6040513d5f823e3d90fd5b5f80fd5b60405162461bcd60e51b81526020600482015260116024820152704e6f20746f6b656e732070656e64696e6760781b6044820152606490fd5b60405162461bcd60e51b815260206004820152600f60248201526e2737ba103a37b5b2b71037bbb732b960891b6044820152606490fd5b346126b3575f3660031901126126b3576001546040516001600160a01b039091168152602090f35b346126b3575f3660031901126126b3576020600654604051908152f35b346126b35761279b61277d366133ae565b906040519261278d60208561331e565b5f8452610c6e838383613552565b005b60803660031901126126b3576004356001600160401b0381116126b3576127c8903690600401613390565b602435906064356044356001600160401b0382116126b357366023830112156126b3578160040135916001600160401b0383116126b35736602484830101116126b3576007546001600160a01b0316928315612a8257824211612a49576128b36128b9926128c294335f52600860205260405f2054906040519060208201923360601b84528b6034840152605483015260748201524660948201523060601b60b482015260a8815261287b60c88261331e565b5190207f19457468657265756d205369676e6564204d6573736167653a0a3332000000005f52601c52603c5f2092602436920161335a565b90614066565b909291926140a0565b6001600160a01b031603612a1057335f52600860205260405f206128e68154613799565b90558134036129cb578161299d575b6129055f54916124cc8333613c3f565b805f5260026020524260405f2055805f526003602052662386f26fc1000060405f20556129325f54613799565b5f55335f52600860205260405f20545f198101908111612989576020928291604051918252848201527f559169fe4c72d6f1e53ecb3e9d1efe919b7a20073e25657125caa4f76445665960403392a3604051908152f35b634e487b7160e01b5f52601160045260245ffd5b6129c65f8080808660018060a01b035f8051602061424083398151915254165af161159561372c565b6128f5565b60405162461bcd60e51b815260206004820152601860248201527f496e636f7272656374207061796d656e7420616d6f756e7400000000000000006044820152606490fd5b60405162461bcd60e51b8152602060048201526011602482015270496e76616c6964207369676e617475726560781b6044820152606490fd5b60405162461bcd60e51b815260206004820152601160248201527014da59db985d1d5c9948195e1c1a5c9959607a1b6044820152606490fd5b60405162461bcd60e51b815260206004820152600e60248201526d14da59db995c881b9bdd081cd95d60921b6044820152606490fd5b346126b35760203660031901126126b357612ad16132a1565b612ad9613c0c565b6001600160a01b0316612aed81151561375b565b600154816001600160a01b0382167e66a248680b348de6844119bb393b395f8a5ed03b28a64049b28a4538ab31215f80a36001600160a01b03191617600155005b346126b3575f3660031901126126b357602060405162278d008152f35b346126b3575f3660031901126126b357600d54600e549060018060a01b03600f5416604051905f601054612b7e816133e8565b8085529060018116908115612c575750600114612bf5575b5090612ba8836107449493038361331e565b604051948460ff879616865261ffff8160081c16602087015260018060c01b038160181c16604087015260d81c6060860152608085015260a084015260e060c084015260e083019061327d565b60105f9081527f1b6847dc741a1b0cd08d278845f9d819d87b734759afb55fe2de5cb82a9ae67294939250905b808210612c3b5750919250908201602001612ba8612b96565b9192936001816020925483858901015201910190939291612c22565b60ff191660208087019190915291151560051b85019091019150612ba89050612b96565b346126b3575f3660031901126126b35760206040516127108152f35b346126b3575f3660031901126126b357602060405160648152f35b346126b3575f3660031901126126b357612cca613c0c565b478015612d94576011546001600160a01b03168015612d76575b6001600160a01b0316905f80808084865af1612cfe61372c565b5015612d315760207feaff4b37086828766ad3268786972c0cd24259d4c87a80f9d3963a3c3d999b0d91604051908152a2005b60405162461bcd60e51b815260206004820152601a60248201527f5769746864726177616c207472616e73666572206661696c65640000000000006044820152606490fd5b505f80516020614240833981519152546001600160a01b0316612ce4565b60405162461bcd60e51b81526020600482015260146024820152734e6f2066756e647320746f20776974686472617760601b6044820152606490fd5b346126b35761279b612de1366133ae565b91613552565b346126b3575f3660031901126126b3576007546040516001600160a01b039091168152602090f35b346126b35760603660031901126126b3577fd378a4164f7b51ea70e857344abe0c937069a658b6847bf045b6351d29bb6b3b6060600435604435602435612e54613c0c565b82600455806005558160065560405192835260208301526040820152a1005b346126b35760403660031901126126b3576004356024356001600160401b0381116126b357612ea6903690600401613390565b612eaf82613a4e565b336001600160a01b0390911603612f5357805115612efb57612ef6816107d17f459157ba24c7ab9878b165ef465fa6ae2ab42bcd8445f576be378768b0c473099385613a87565b0390a2005b60405162461bcd60e51b815260206004820152602a60248201527f54617665726e4b65657065723a204d65746164617461205552492063616e6e6f6044820152697420626520656d70747960b01b6064820152608490fd5b60405162461bcd60e51b815260206004820152603260248201527f54617665726e4b65657065723a204f6e6c7920746f6b656e206f776e65722063604482015271616e20757064617465206d6574616461746160701b6064820152608490fd5b346126b35760403660031901126126b357612fcc6132a1565b602435612fd881613a1f565b3315158061308c575b80613069575b6130565781906001600160a01b0384811691167f8c5be1e5ebec7d5bd14f71427d1e84f3dd0314c0f7b2291e5b200ac8c7c3b9255f80a45f9081525f805160206142808339815191526020526040902080546001600160a01b0319166001600160a01b03909216919091179055005b63a9fbf51f60e01b5f523360045260245ffd5b50613073816134c0565b335f908152602091909152604090205460ff1615612fe7565b506001600160a01b038116331415612fe1565b346126b35760203660031901126126b35760206120506004356130c181613a1f565b505f9081525f8051602061428083398151915260205260409020546001600160a01b031690565b346126b3575f3660031901126126b3576020601254604051908152f35b346126b3575f3660031901126126b3576040515f5f8051602061422083398151915254613131816133e8565b80845290600181169081156131b05750600114613159575b610744836107d18185038261331e565b5f805160206142208339815191525f9081525f805160206142e0833981519152939250905b808210613196575090915081016020016107d1613149565b91926001816020925483858801015201910190929161317e565b60ff191660208086019190915291151560051b840190910191506107d19050613149565b346126b35760203660031901126126b35760043563ffffffff60e01b81168091036126b357602090632483248360e11b8114908115613219575b506040519015158152f35b6380ac58cd60e01b81149150811561324b575b811561323a575b508261320e565b6301ffc9a760e01b14905082613233565b635b5e139f60e01b8114915061322c565b346126b3575f3660031901126126b3576020604051662386f26fc100008152f35b805180835260209291819084018484015e5f828201840152601f01601f1916010190565b600435906001600160a01b03821682036126b357565b602435906001600160a01b03821682036126b357565b346126b3575f3660031901126126b3576020604051671bc16d674ec800008152f35b60e081019081106001600160401b0382111761330a57604052565b634e487b7160e01b5f52604160045260245ffd5b90601f801991011681019081106001600160401b0382111761330a57604052565b6001600160401b03811161330a57601f01601f191660200190565b9291926133668261333f565b91613374604051938461331e565b8294818452818301116126b3578281602093845f960137010152565b9080601f830112156126b3578160206133ab9335910161335a565b90565b60609060031901126126b3576004356001600160a01b03811681036126b357906024356001600160a01b03811681036126b3579060443590565b90600182811c92168015613416575b602083101461340257565b634e487b7160e01b5f52602260045260245ffd5b91607f16916133f7565b9060405191825f825492613433846133e8565b808452936001811690811561349e575060011461345a575b506134589250038361331e565b565b90505f9291925260205f20905f915b818310613482575050906020613458928201015f61344b565b6020919350806001915483858901015201910190918492613469565b90506020925061345894915060ff191682840152151560051b8201015f61344b565b6001600160a01b03165f9081527f80bb2b638cc20bc4d0a60d66940f3ab4a00c1d7b313497ca82fb0b4ab00793056020526040902090565b6001600160a01b03165f9081527f80bb2b638cc20bc4d0a60d66940f3ab4a00c1d7b313497ca82fb0b4ab00793036020526040902090565b346126b3575f3660031901126126b3576020604051670de0b6b3a76400008152f35b9091906001600160a01b0383168015613719578261356f81613a4e565b9133151580613666575b506001600160a01b03831695613593908761362a576134f8565b60018154019055815f527f80bb2b638cc20bc4d0a60d66940f3ab4a00c1d7b313497ca82fb0b4ab007930260205260405f20816001600160601b0360a01b825416179055857fddf252ad1be2c89b69c2b068fc378daa952ba7f163c4a11628f55a4df523b3ef5f80a4506001600160a01b031680830361361257505050565b6364283d7b60e01b5f5260045260245260445260645ffd5b5f8481525f805160206142808339815191526020526040902080546001600160a01b031916905561365a856134f8565b80545f190190556134f8565b909150806136b3575b1561367c5783905f613579565b836001600160a01b03831661369d57637e27328960e01b5f5260045260245ffd5b63177e802f60e01b5f523360045260245260445ffd5b506001600160a01b038216331480156136f7575b8061366f57505f8481525f8051602061428083398151915260205260409020546001600160a01b0316331461366f565b50613701826134c0565b335f908152602091909152604090205460ff166136c7565b633250574960e11b5f525f60045260245ffd5b3d15613756573d9061373d8261333f565b9161374b604051938461331e565b82523d5f602084013e565b606090565b1561376257565b60405162461bcd60e51b815260206004820152600f60248201526e496e76616c6964206164647265737360881b6044820152606490fd5b5f1981146129895760010190565b156137ae57565b60405162461bcd60e51b815260206004820152601560248201527413dddb995c881d1c985b9cd9995c8819985a5b1959605a1b6044820152606490fd5b9190820391821161298957565b156137ff57565b60405162461bcd60e51b815260206004820152601160248201527012d9595c151bdad95b881b9bdd081cd95d607a1b6044820152606490fd5b6001600160401b03811161330a5760051b60200190565b6001600160a01b0381161561386b57613867906134f8565b5490565b6322718ad960e21b5f525f60045260245ffd5b6040519061388b826132ef565b600d5460ff81168352600881901c61ffff166020840152601881901c6001600160c01b0316604084015260d81c6060830152600e546080830152600f546001600160a01b031660a08301528160c06138e36010613420565b910152565b8181029291811591840414171561298957565b919081101561390b5760051b0190565b634e487b7160e01b5f52603260045260245ffd5b356001600160a01b03811681036126b35790565b61393b61387e565b61395064ffffffffff606083015116426137eb565b80156139645760806133ab920151906138e8565b50505f90565b805f52600260205260405f2054156139a957806133ab915f52600260205261399660405f2054426137eb565b905f52600360205260405f2054906138e8565b505f90565b6001600160a01b03168015613a0c575f8051602061424083398151915280546001600160a01b0319811683179091556001600160a01b03167f8be0079c531659141344cd1fd0a4f28419497f9722a3daafe3b4186f6b6457e05f80a3565b631e4fbdf760e01b5f525f60045260245ffd5b613a2881613a4e565b906001600160a01b03821615613a3c575090565b637e27328960e01b5f5260045260245ffd5b5f9081527f80bb2b638cc20bc4d0a60d66940f3ab4a00c1d7b313497ca82fb0b4ab007930260205260409020546001600160a01b031690565b919091805f527f0542a41881ee128a365a727b282c86fa859579490b9bb45aab8503648c8e790060205260405f2083516001600160401b03811161330a57613acf82546133e8565b601f8111613bc7575b506020601f8211600114613b3f57908060209493927ff8e1a15aba9398e019f0b49df1a4fde98ee17ae345cb5f6b5e2c27f5033e8ce796975f92613b34575b50508160011b915f199060031b1c19161790555b604051908152a1565b015190505f80613b17565b601f19821695835f52815f20965f5b818110613baf575096600192849260209796957ff8e1a15aba9398e019f0b49df1a4fde98ee17ae345cb5f6b5e2c27f5033e8ce7999a10613b97575b505050811b019055613b2b565b01515f1960f88460031b161c191690555f8080613b8a565b83830151895560019098019760209384019301613b4e565b825f5260205f20601f830160051c81019160208410613c02575b601f0160051c01905b818110613bf75750613ad8565b5f8155600101613bea565b9091508190613be1565b5f80516020614240833981519152546001600160a01b03163303613c2c57565b63118cdaa760e01b5f523360045260245ffd5b9060209060405190613c51838361331e565b5f82526001600160a01b03841693841561371957613c6e82613a4e565b6001600160a01b03811680151591908490889084613e0a575b613c90866134f8565b805460010190555f8381527f80bb2b638cc20bc4d0a60d66940f3ab4a00c1d7b313497ca82fb0b4ab00793028a526040812080546001600160a01b031916841790557fddf252ad1be2c89b69c2b068fc378daa952ba7f163c4a11628f55a4df523b3ef9080a450613df7573b613d07575b50505050565b91613d4491819495936040519384928392630a85bd0160e11b84523360048501525f6024850152604484015260806064840152608483019061327d565b03815f885af15f9181613db7575b50613d80575050613d6161372c565b8051919082613d7d5783633250574960e11b5f5260045260245ffd5b01fd5b909291506001600160e01b03191663757a42ff60e11b01613da557505f808080613d01565b633250574960e11b5f5260045260245ffd5b9091508381813d8311613df0575b613dcf818361331e565b810103126126b357516001600160e01b0319811681036126b357905f613d52565b503d613dc5565b6339e3563760e11b5f525f60045260245ffd5b5f8381525f805160206142808339815191526020526040902080546001600160a01b0319169055613e3a846134f8565b80545f19019055613c87565b613e5b64ffffffffff606083015116426137eb565b610e108111613ea657610e10613e82613e8993604060018060c01b039101511692836138e8565b04906137eb565b670de0b6b3a76400008110156133ab5750670de0b6b3a764000090565b5050670de0b6b3a764000090565b6012548015613f0c57808211613eef575050673782dace9d9000005f5b1c662386f26fc100008110613ee35790565b50662386f26fc1000090565b613f0662278d0091673782dace9d900000936137eb565b04613ed1565b5050673782dace9d90000090565b823b613f28575b5050505050565b604051630a85bd0160e11b81526001600160a01b039182166004820152918116602483015260448201939093526080606482015291169160209082908190613f7490608483019061327d565b03815f865af15f9181613fd2575b50613fb05750613f9061372c565b80519081613fab5782633250574960e11b5f5260045260245ffd5b602001fd5b6001600160e01b03191663757a42ff60e11b01613da557505f80808080613f21565b9091506020813d60201161400f575b81613fee6020938361331e565b810103126126b357516001600160e01b0319811681036126b357905f613f82565b3d9150613fe1565b61402081613a1f565b505f527f0542a41881ee128a365a727b282c86fa859579490b9bb45aab8503648c8e790060205261405360405f20613420565b5f60405161406260208261331e565b5290565b81519190604183036140965761408f9250602082015190606060408401519301515f1a9061413f565b9192909190565b50505f9160029190565b600481101561410057806140b2575050565b600181036140c95763f645eedf60e01b5f5260045ffd5b600281036140e4575063fce698f760e01b5f5260045260245ffd5b6003146140ee5750565b6335e2f38360e21b5f5260045260245ffd5b634e487b7160e01b5f52602160045260245ffd5b60ff5f805160206142a08339815191525460401c161561413057565b631afcd79f60e31b5f5260045ffd5b91907f7fffffffffffffffffffffffffffffff5d576e7357a4501ddfe92f46681b20a084116141b6579160209360809260ff5f9560405194855216868401526040830152606082015282805260015afa156126a8575f516001600160a01b038116156141ac57905f905f90565b505f906001905f90565b5050505f9160039190565b906141e557508051156141d657602081519101fd5b63d6bda27560e01b5f5260045ffd5b81511580614216575b6141f6575090565b639996b31560e01b5f9081526001600160a01b0391909116600452602490fd5b50803b156141ee56fe80bb2b638cc20bc4d0a60d66940f3ab4a00c1d7b313497ca82fb0b4ab00793009016d09d72d40fdae2fd8ceac6b6234c7706214fd39c1cd1e609a0528c199300360894a13ba1a3210667c828492db98dca3e2076cc3735a920a3ca505d382bbc80bb2b638cc20bc4d0a60d66940f3ab4a00c1d7b313497ca82fb0b4ab0079304f0c57e16840df040f15088dc2f81fe391c3923bec73e23a9662efc9c229c6a0080bb2b638cc20bc4d0a60d66940f3ab4a00c1d7b313497ca82fb0b4ab007930137c58c799b6609234b945e882912ee9ad34948a1dfaa20a97485e1a7752bbf81f93f9a76c1bf3444d22400a00cb9fe990e6abe9dbb333fda48859cfee864543da2646970667358221220c0b9af34f103bad33297cd94f6b921389c0d7b220f1ac31bcd19a231a814792564736f6c634300081a0033",
  "linkReferences": {},
  "deployedLinkReferences": {}
}