{"contracts/TheCellar.sol":{"TheCellar":{"abi":[{"inputs":[{"internalType":"uint256","name":"initPrice","type":"uint256"},{"internalType":"address","name":"paymentToken_","type":"address"},{"internalType":"address","name":"paymentReceiver_","type":"address"},{"internalType":"uint256","name":"epochPeriod_","type":"uint256"},{"internalType":"uint256","name":"priceMultiplier_","type":"uint256"},{"internalType":"uint256","name":"minInitPrice_","type":"uint256"}],"stateMutability":"nonpayable","type":"constructor"},{"inputs":[],"name":"Cellar__DeadlinePassed","type":"error"},{"inputs":[],"name":"Cellar__EmptyAssets","type":"error"},{"inputs":[],"name":"Cellar__EpochIdMismatch","type":"error"},{"inputs":[],"name":"Cellar__EpochPeriodBelowMin","type":"error"},{"inputs":[],"name":"Cellar__EpochPeriodExceedsMax","type":"error"},{"inputs":[],"name":"Cellar__InitPriceBelowMin","type":"error"},{"inputs":[],"name":"Cellar__InitPriceExceedsMax","type":"error"},{"inputs":[],"name":"Cellar__MaxPaymentAmountExceeded","type":"error"},{"inputs":[],"name":"Cellar__MinInitPriceBelowMin","type":"error"},{"inputs":[],"name":"Cellar__MinInitPriceExceedsAbsMaxInitPrice","type":"error"},{"inputs":[],"name":"Cellar__PriceMultiplierBelowMin","type":"error"},{"inputs":[],"name":"Cellar__PriceMultiplierExceedsMax","type":"error"},{"inputs":[],"name":"Cellar__Reentrancy","type":"error"},{"inputs":[{"internalType":"address","name":"owner","type":"address"}],"name":"OwnableInvalidOwner","type":"error"},{"inputs":[{"internalType":"address","name":"account","type":"address"}],"name":"OwnableUnauthorizedAccount","type":"error"},{"inputs":[{"internalType":"address","name":"token","type":"address"}],"name":"SafeERC20FailedOperation","type":"error"},{"anonymous":false,"inputs":[{"indexed":true,"internalType":"address","name":"buyer","type":"address"},{"indexed":true,"internalType":"address","name":"assetsReceiver","type":"address"},{"indexed":false,"internalType":"uint256","name":"paymentAmount","type":"uint256"}],"name":"Cellar__Buy","type":"event"},{"anonymous":false,"inputs":[{"indexed":true,"internalType":"address","name":"previousOwner","type":"address"},{"indexed":true,"internalType":"address","name":"newOwner","type":"address"}],"name":"OwnershipTransferred","type":"event"},{"inputs":[],"name":"ABS_MAX_INIT_PRICE","outputs":[{"internalType":"uint256","name":"","type":"uint256"}],"stateMutability":"view","type":"function"},{"inputs":[],"name":"ABS_MIN_INIT_PRICE","outputs":[{"internalType":"uint256","name":"","type":"uint256"}],"stateMutability":"view","type":"function"},{"inputs":[],"name":"MAX_EPOCH_PERIOD","outputs":[{"internalType":"uint256","name":"","type":"uint256"}],"stateMutability":"view","type":"function"},{"inputs":[],"name":"MAX_PRICE_MULTIPLIER","outputs":[{"internalType":"uint256","name":"","type":"uint256"}],"stateMutability":"view","type":"function"},{"inputs":[],"name":"MIN_EPOCH_PERIOD","outputs":[{"internalType":"uint256","name":"","type":"uint256"}],"stateMutability":"view","type":"function"},{"inputs":[],"name":"MIN_PRICE_MULTIPLIER","outputs":[{"internalType":"uint256","name":"","type":"uint256"}],"stateMutability":"view","type":"function"},{"inputs":[],"name":"PRICE_MULTIPLIER_SCALE","outputs":[{"internalType":"uint256","name":"","type":"uint256"}],"stateMutability":"view","type":"function"},{"inputs":[{"internalType":"address","name":"assetsReceiver","type":"address"},{"internalType":"uint256","name":"epochId","type":"uint256"},{"internalType":"uint256","name":"deadline","type":"uint256"},{"internalType":"uint256","name":"maxPaymentTokenAmount","type":"uint256"}],"name":"buy","outputs":[{"internalType":"uint256","name":"paymentAmount","type":"uint256"}],"stateMutability":"nonpayable","type":"function"},{"inputs":[],"name":"epochPeriod","outputs":[{"internalType":"uint256","name":"","type":"uint256"}],"stateMutability":"view","type":"function"},{"inputs":[],"name":"getPrice","outputs":[{"internalType":"uint256","name":"","type":"uint256"}],"stateMutability":"view","type":"function"},{"inputs":[],"name":"getSlot0","outputs":[{"components":[{"internalType":"uint8","name":"locked","type":"uint8"},{"internalType":"uint16","name":"epochId","type":"uint16"},{"internalType":"uint192","name":"initPrice","type":"uint192"},{"internalType":"uint40","name":"startTime","type":"uint40"}],"internalType":"struct TheCellar.Slot0","name":"","type":"tuple"}],"stateMutability":"view","type":"function"},{"inputs":[],"name":"minInitPrice","outputs":[{"internalType":"uint256","name":"","type":"uint256"}],"stateMutability":"view","type":"function"},{"inputs":[],"name":"owner","outputs":[{"internalType":"address","name":"","type":"address"}],"stateMutability":"view","type":"function"},{"inputs":[],"name":"paymentReceiver","outputs":[{"internalType":"address","name":"","type":"address"}],"stateMutability":"view","type":"function"},{"inputs":[],"name":"paymentToken","outputs":[{"internalType":"address","name":"","type":"address"}],"stateMutability":"view","type":"function"},{"inputs":[],"name":"priceMultiplier","outputs":[{"internalType":"uint256","name":"","type":"uint256"}],"stateMutability":"view","type":"function"},{"inputs":[],"name":"renounceOwnership","outputs":[],"stateMutability":"nonpayable","type":"function"},{"inputs":[{"internalType":"address","name":"newOwner","type":"address"}],"name":"transferOwnership","outputs":[],"stateMutability":"nonpayable","type":"function"},{"stateMutability":"payable","type":"receive"}],"evm":{"bytecode":{"linkReferences":{},"object":"610120604052348015610010575f80fd5b5060405162000e6e38038062000e6e8339810160408190526100319161025d565b338061005657604051631e4fbdf760e01b81525f600482015260240160405180910390fd5b61005f816101f3565b508086101561008157604051630660388960e21b815260040160405180910390fd5b6001600160c01b038611156100a95760405163296a646560e11b815260040160405180910390fd5b610e108310156100cc57604051632b1ee4c760e11b815260040160405180910390fd5b6301e133808311156100f157604051634b65983d60e01b815260040160405180910390fd5b670f43fc2c04ee000082101561011a57604051636ca95fa360e11b815260040160405180910390fd5b6729a2241af62c000082111561014357604051637d726ef960e01b815260040160405180910390fd5b620f42408110156101675760405163d171d2f560e01b815260040160405180910390fd5b6001600160c01b0381111561018f5760405163023c2c7560e41b815260040160405180910390fd5b6001805462ffffff1663010000006001600160c01b0398909816979097026001600160d81b031696909617600160d81b4264ffffffffff1602179095556001600160a01b039384166080529190921660a05260c09190915260e052610100526102b1565b5f80546001600160a01b038381166001600160a01b0319831681178455604051919092169283917f8be0079c531659141344cd1fd0a4f28419497f9722a3daafe3b4186f6b6457e09190a35050565b80516001600160a01b0381168114610258575f80fd5b919050565b5f805f805f8060c08789031215610272575f80fd5b8651955061028260208801610242565b945061029060408801610242565b9350606087015192506080870151915060a087015190509295509295509295565b60805160a05160c05160e05161010051610b4e620003205f395f81816101a1015281816105d101526105fa01525f8181610360015261058101525f818161029c0152818161087301526108a301525f818161032d015261051901525f818161015601526104f60152610b4e5ff3fe608060405260043610610108575f3560e01c80638fc59c5211610092578063cb37f3b211610062578063cb37f3b21461031c578063d50cb88b1461034f578063efd3315614610382578063f2fde38b14610398578063f6cb1a49146103b7575f80fd5b80638fc59c521461026057806398d5fdca14610277578063b5b7a1841461028b578063c9ae5e0c146102be575f80fd5b80636e5b5b7d116100d85780636e5b5b7d146101de578063715018a6146101f9578063750d48b81461020f57806388f4b49e1461022a5780638da5cb5b14610244575f80fd5b80631622dbe4146101135780633013ce29146101455780633c92276e146101905780635889486e146101c3575f80fd5b3661010f57005b5f80fd5b34801561011e575f80fd5b5061013261012d366004610a66565b6103cc565b6040519081526020015b60405180910390f35b348015610150575f80fd5b506101787f000000000000000000000000000000000000000000000000000000000000000081565b6040516001600160a01b03909116815260200161013c565b34801561019b575f80fd5b506101327f000000000000000000000000000000000000000000000000000000000000000081565b3480156101ce575f80fd5b506101326729a2241af62c000081565b3480156101e9575f80fd5b50610132670de0b6b3a764000081565b348015610204575f80fd5b5061020d6106e6565b005b34801561021a575f80fd5b50610132670f43fc2c04ee000081565b348015610235575f80fd5b506101326001600160c01b0381565b34801561024f575f80fd5b505f546001600160a01b0316610178565b34801561026b575f80fd5b506101326301e1338081565b348015610282575f80fd5b506101326106f9565b348015610296575f80fd5b506101327f000000000000000000000000000000000000000000000000000000000000000081565b3480156102c9575f80fd5b506102d261077b565b60405161013c9190815160ff16815260208083015161ffff16908201526040808301516001600160c01b03169082015260609182015164ffffffffff169181019190915260800190565b348015610327575f80fd5b506101787f000000000000000000000000000000000000000000000000000000000000000081565b34801561035a575f80fd5b506101327f000000000000000000000000000000000000000000000000000000000000000081565b34801561038d575f80fd5b50610132620f424081565b3480156103a3575f80fd5b5061020d6103b2366004610a9c565b610814565b3480156103c2575f80fd5b50610132610e1081565b6001545f9060ff166002036103f457604051639462eb7160e01b815260040160405180910390fd5b6001805460ff19166002179055428310156104225760405163062a2fff60e01b815260040160405180910390fd5b475f819003610444576040516309ec4f4160e31b815260040160405180910390fd5b6040805160808101825260015460ff81168252610100810461ffff90811660208401819052630100000083046001600160c01b031694840194909452600160d81b90910464ffffffffff1660608301529091908716146104b757604051634228d63b60e11b815260040160405180910390fd5b6104c081610856565b9250838311156104e35760405163490ad8bb60e11b815260040160405180910390fd5b821561053e5761053e6001600160a01b037f000000000000000000000000000000000000000000000000000000000000000016337f000000000000000000000000000000000000000000000000000000000000000086610904565b6040516001600160a01b0388169083156108fc029084905f818181858888f19350505050158015610571573d5f803e3d5ffd5b505f670de0b6b3a76400006105a67f000000000000000000000000000000000000000000000000000000000000000086610ac9565b6105b09190610ae6565b90506001600160c01b038111156105cf57506001600160c01b0361061a565b7f000000000000000000000000000000000000000000000000000000000000000081101561061a57507f00000000000000000000000000000000000000000000000000000000000000005b60208281018051600190810161ffff16918290526001600160c01b03841660408087018290524264ffffffffff16606088018190528751845460ff90911662ffffff19909116176101009095029490941762ffffff1663010000009092026001600160d81b031691909117600160d81b909302929092179055518581526001600160a01b038a169133917f9995888c83cd01084797e1975830175b29d85dee4dcc8c3a2a7be5367750394c910160405180910390a35050506001805460ff191681179055949350505050565b6106ee610964565b6106f75f610990565b565b6001545f9060ff1660020361072157604051639462eb7160e01b815260040160405180910390fd5b6040805160808101825260015460ff81168252610100810461ffff166020830152630100000081046001600160c01b031692820192909252600160d81b90910464ffffffffff16606082015261077690610856565b905090565b604080516080810182525f80825260208201819052918101829052606081019190915260015460ff166002036107c457604051639462eb7160e01b815260040160405180910390fd5b506040805160808101825260015460ff81168252610100810461ffff166020830152630100000081046001600160c01b031692820192909252600160d81b90910464ffffffffff16606082015290565b61081c610964565b6001600160a01b03811661084a57604051631e4fbdf760e01b81525f60048201526024015b60405180910390fd5b61085381610990565b50565b5f80826060015164ffffffffff164261086f9190610b05565b90507f00000000000000000000000000000000000000000000000000000000000000008111156108a157505f92915050565b7f00000000000000000000000000000000000000000000000000000000000000008184604001516001600160c01b03166108db9190610ac9565b6108e59190610ae6565b83604001516001600160c01b03166108fd9190610b05565b9392505050565b604080516001600160a01b0385811660248301528416604482015260648082018490528251808303909101815260849091019091526020810180516001600160e01b03166323b872dd60e01b17905261095e9085906109df565b50505050565b5f546001600160a01b031633146106f75760405163118cdaa760e01b8152336004820152602401610841565b5f80546001600160a01b038381166001600160a01b0319831681178455604051919092169283917f8be0079c531659141344cd1fd0a4f28419497f9722a3daafe3b4186f6b6457e09190a35050565b5f8060205f8451602086015f885af1806109fe576040513d5f823e3d81fd5b50505f513d91508115610a15578060011415610a22565b6001600160a01b0384163b155b1561095e57604051635274afe760e01b81526001600160a01b0385166004820152602401610841565b80356001600160a01b0381168114610a61575f80fd5b919050565b5f805f8060808587031215610a79575f80fd5b610a8285610a4b565b966020860135965060408601359560600135945092505050565b5f60208284031215610aac575f80fd5b6108fd82610a4b565b634e487b7160e01b5f52601160045260245ffd5b8082028115828204841417610ae057610ae0610ab5565b92915050565b5f82610b0057634e487b7160e01b5f52601260045260245ffd5b500490565b81810381811115610ae057610ae0610ab556fea2646970667358221220890f4fb998d817bee40cf5e443a18c856b2502047eb94d786896d9fb379356f464736f6c63430008180033","opcodes":"PUSH2 0x120 PUSH1 0x40 MSTORE CALLVALUE DUP1 ISZERO PUSH2 0x10 JUMPI PUSH0 DUP1 REVERT JUMPDEST POP PUSH1 0x40 MLOAD PUSH3 0xE6E CODESIZE SUB DUP1 PUSH3 0xE6E DUP4 CODECOPY DUP2 ADD PUSH1 0x40 DUP2 SWAP1 MSTORE PUSH2 0x31 SWAP2 PUSH2 0x25D JUMP JUMPDEST CALLER DUP1 PUSH2 0x56 JUMPI PUSH1 0x40 MLOAD PUSH4 0x1E4FBDF7 PUSH1 0xE0 SHL DUP2 MSTORE PUSH0 PUSH1 0x4 DUP3 ADD MSTORE PUSH1 0x24 ADD PUSH1 0x40 MLOAD DUP1 SWAP2 SUB SWAP1 REVERT JUMPDEST PUSH2 0x5F DUP2 PUSH2 0x1F3 JUMP JUMPDEST POP DUP1 DUP7 LT ISZERO PUSH2 0x81 JUMPI PUSH1 0x40 MLOAD PUSH4 0x6603889 PUSH1 0xE2 SHL DUP2 MSTORE PUSH1 0x4 ADD PUSH1 0x40 MLOAD DUP1 SWAP2 SUB SWAP1 REVERT JUMPDEST PUSH1 0x1 PUSH1 0x1 PUSH1 0xC0 SHL SUB DUP7 GT ISZERO PUSH2 0xA9 JUMPI PUSH1 0x40 MLOAD PUSH4 0x296A6465 PUSH1 0xE1 SHL DUP2 MSTORE PUSH1 0x4 ADD PUSH1 0x40 MLOAD DUP1 SWAP2 SUB SWAP1 REVERT JUMPDEST PUSH2 0xE10 DUP4 LT ISZERO PUSH2 0xCC JUMPI PUSH1 0x40 MLOAD PUSH4 0x2B1EE4C7 PUSH1 0xE1 SHL DUP2 MSTORE PUSH1 0x4 ADD PUSH1 0x40 MLOAD DUP1 SWAP2 SUB SWAP1 REVERT JUMPDEST PUSH4 0x1E13380 DUP4 GT ISZERO PUSH2 0xF1 JUMPI PUSH1 0x40 MLOAD PUSH4 0x4B65983D PUSH1 0xE0 SHL DUP2 MSTORE PUSH1 0x4 ADD PUSH1 0x40 MLOAD DUP1 SWAP2 SUB SWAP1 REVERT JUMPDEST PUSH8 0xF43FC2C04EE0000 DUP3 LT ISZERO PUSH2 0x11A JUMPI PUSH1 0x40 MLOAD PUSH4 0x6CA95FA3 PUSH1 0xE1 SHL DUP2 MSTORE PUSH1 0x4 ADD PUSH1 0x40 MLOAD DUP1 SWAP2 SUB SWAP1 REVERT JUMPDEST PUSH8 0x29A2241AF62C0000 DUP3 GT ISZERO PUSH2 0x143 JUMPI PUSH1 0x40 MLOAD PUSH4 0x7D726EF9 PUSH1 0xE0 SHL DUP2 MSTORE PUSH1 0x4 ADD PUSH1 0x40 MLOAD DUP1 SWAP2 SUB SWAP1 REVERT JUMPDEST PUSH3 0xF4240 DUP2 LT ISZERO PUSH2 0x167 JUMPI PUSH1 0x40 MLOAD PUSH4 0xD171D2F5 PUSH1 0xE0 SHL DUP2 MSTORE PUSH1 0x4 ADD PUSH1 0x40 MLOAD DUP1 SWAP2 SUB SWAP1 REVERT JUMPDEST PUSH1 0x1 PUSH1 0x1 PUSH1 0xC0 SHL SUB DUP2 GT ISZERO PUSH2 0x18F JUMPI PUSH1 0x40 MLOAD PUSH4 0x23C2C75 PUSH1 0xE4 SHL DUP2 MSTORE PUSH1 0x4 ADD PUSH1 0x40 MLOAD DUP1 SWAP2 SUB SWAP1 REVERT JUMPDEST PUSH1 0x1 DUP1 SLOAD PUSH3 0xFFFFFF AND PUSH4 0x1000000 PUSH1 0x1 PUSH1 0x1 PUSH1 0xC0 SHL SUB SWAP9 SWAP1 SWAP9 AND SWAP8 SWAP1 SWAP8 MUL PUSH1 0x1 PUSH1 0x1 PUSH1 0xD8 SHL SUB AND SWAP7 SWAP1 SWAP7 OR PUSH1 0x1 PUSH1 0xD8 SHL TIMESTAMP PUSH5 0xFFFFFFFFFF AND MUL OR SWAP1 SWAP6 SSTORE PUSH1 0x1 PUSH1 0x1 PUSH1 0xA0 SHL SUB SWAP4 DUP5 AND PUSH1 0x80 MSTORE SWAP2 SWAP1 SWAP3 AND PUSH1 0xA0 MSTORE PUSH1 0xC0 SWAP2 SWAP1 SWAP2 MSTORE PUSH1 0xE0 MSTORE PUSH2 0x100 MSTORE PUSH2 0x2B1 JUMP JUMPDEST PUSH0 DUP1 SLOAD PUSH1 0x1 PUSH1 0x1 PUSH1 0xA0 SHL SUB DUP4 DUP2 AND PUSH1 0x1 PUSH1 0x1 PUSH1 0xA0 SHL SUB NOT DUP4 AND DUP2 OR DUP5 SSTORE PUSH1 0x40 MLOAD SWAP2 SWAP1 SWAP3 AND SWAP3 DUP4 SWAP2 PUSH32 0x8BE0079C531659141344CD1FD0A4F28419497F9722A3DAAFE3B4186F6B6457E0 SWAP2 SWAP1 LOG3 POP POP JUMP JUMPDEST DUP1 MLOAD PUSH1 0x1 PUSH1 0x1 PUSH1 0xA0 SHL SUB DUP2 AND DUP2 EQ PUSH2 0x258 JUMPI PUSH0 DUP1 REVERT JUMPDEST SWAP2 SWAP1 POP JUMP JUMPDEST PUSH0 DUP1 PUSH0 DUP1 PUSH0 DUP1 PUSH1 0xC0 DUP8 DUP10 SUB SLT ISZERO PUSH2 0x272 JUMPI PUSH0 DUP1 REVERT JUMPDEST DUP7 MLOAD SWAP6 POP PUSH2 0x282 PUSH1 0x20 DUP9 ADD PUSH2 0x242 JUMP JUMPDEST SWAP5 POP PUSH2 0x290 PUSH1 0x40 DUP9 ADD PUSH2 0x242 JUMP JUMPDEST SWAP4 POP PUSH1 0x60 DUP8 ADD MLOAD SWAP3 POP PUSH1 0x80 DUP8 ADD MLOAD SWAP2 POP PUSH1 0xA0 DUP8 ADD MLOAD SWAP1 POP SWAP3 SWAP6 POP SWAP3 SWAP6 POP SWAP3 SWAP6 JUMP JUMPDEST PUSH1 0x80 MLOAD PUSH1 0xA0 MLOAD PUSH1 0xC0 MLOAD PUSH1 0xE0 MLOAD PUSH2 0x100 MLOAD PUSH2 0xB4E PUSH3 0x320 PUSH0 CODECOPY PUSH0 DUP2 DUP2 PUSH2 0x1A1 ADD MSTORE DUP2 DUP2 PUSH2 0x5D1 ADD MSTORE PUSH2 0x5FA ADD MSTORE PUSH0 DUP2 DUP2 PUSH2 0x360 ADD MSTORE PUSH2 0x581 ADD MSTORE PUSH0 DUP2 DUP2 PUSH2 0x29C ADD MSTORE DUP2 DUP2 PUSH2 0x873 ADD MSTORE PUSH2 0x8A3 ADD MSTORE PUSH0 DUP2 DUP2 PUSH2 0x32D ADD MSTORE PUSH2 0x519 ADD MSTORE PUSH0 DUP2 DUP2 PUSH2 0x156 ADD MSTORE PUSH2 0x4F6 ADD MSTORE PUSH2 0xB4E PUSH0 RETURN INVALID PUSH1 0x80 PUSH1 0x40 MSTORE PUSH1 0x4 CALLDATASIZE LT PUSH2 0x108 JUMPI PUSH0 CALLDATALOAD PUSH1 0xE0 SHR DUP1 PUSH4 0x8FC59C52 GT PUSH2 0x92 JUMPI DUP1 PUSH4 0xCB37F3B2 GT PUSH2 0x62 JUMPI DUP1 PUSH4 0xCB37F3B2 EQ PUSH2 0x31C JUMPI DUP1 PUSH4 0xD50CB88B EQ PUSH2 0x34F JUMPI DUP1 PUSH4 0xEFD33156 EQ PUSH2 0x382 JUMPI DUP1 PUSH4 0xF2FDE38B EQ PUSH2 0x398 JUMPI DUP1 PUSH4 0xF6CB1A49 EQ PUSH2 0x3B7 JUMPI PUSH0 DUP1 REVERT JUMPDEST DUP1 PUSH4 0x8FC59C52 EQ PUSH2 0x260 JUMPI DUP1 PUSH4 0x98D5FDCA EQ PUSH2 0x277 JUMPI DUP1 PUSH4 0xB5B7A184 EQ PUSH2 0x28B JUMPI DUP1 PUSH4 0xC9AE5E0C EQ PUSH2 0x2BE JUMPI PUSH0 DUP1 REVERT JUMPDEST DUP1 PUSH4 0x6E5B5B7D GT PUSH2 0xD8 JUMPI DUP1 PUSH4 0x6E5B5B7D EQ PUSH2 0x1DE JUMPI DUP1 PUSH4 0x715018A6 EQ PUSH2 0x1F9 JUMPI DUP1 PUSH4 0x750D48B8 EQ PUSH2 0x20F JUMPI DUP1 PUSH4 0x88F4B49E EQ PUSH2 0x22A JUMPI DUP1 PUSH4 0x8DA5CB5B EQ PUSH2 0x244 JUMPI PUSH0 DUP1 REVERT JUMPDEST DUP1 PUSH4 0x1622DBE4 EQ PUSH2 0x113 JUMPI DUP1 PUSH4 0x3013CE29 EQ PUSH2 0x145 JUMPI DUP1 PUSH4 0x3C92276E EQ PUSH2 0x190 JUMPI DUP1 PUSH4 0x5889486E EQ PUSH2 0x1C3 JUMPI PUSH0 DUP1 REVERT JUMPDEST CALLDATASIZE PUSH2 0x10F JUMPI STOP JUMPDEST PUSH0 DUP1 REVERT JUMPDEST CALLVALUE DUP1 ISZERO PUSH2 0x11E JUMPI PUSH0 DUP1 REVERT JUMPDEST POP PUSH2 0x132 PUSH2 0x12D CALLDATASIZE PUSH1 0x4 PUSH2 0xA66 JUMP JUMPDEST PUSH2 0x3CC JUMP JUMPDEST PUSH1 0x40 MLOAD SWAP1 DUP2 MSTORE PUSH1 0x20 ADD JUMPDEST PUSH1 0x40 MLOAD DUP1 SWAP2 SUB SWAP1 RETURN JUMPDEST CALLVALUE DUP1 ISZERO PUSH2 0x150 JUMPI PUSH0 DUP1 REVERT JUMPDEST POP PUSH2 0x178 PUSH32 0x0 DUP2 JUMP JUMPDEST PUSH1 0x40 MLOAD PUSH1 0x1 PUSH1 0x1 PUSH1 0xA0 SHL SUB SWAP1 SWAP2 AND DUP2 MSTORE PUSH1 0x20 ADD PUSH2 0x13C JUMP JUMPDEST CALLVALUE DUP1 ISZERO PUSH2 0x19B JUMPI PUSH0 DUP1 REVERT JUMPDEST POP PUSH2 0x132 PUSH32 0x0 DUP2 JUMP JUMPDEST CALLVALUE DUP1 ISZERO PUSH2 0x1CE JUMPI PUSH0 DUP1 REVERT JUMPDEST POP PUSH2 0x132 PUSH8 0x29A2241AF62C0000 DUP2 JUMP JUMPDEST CALLVALUE DUP1 ISZERO PUSH2 0x1E9 JUMPI PUSH0 DUP1 REVERT JUMPDEST POP PUSH2 0x132 PUSH8 0xDE0B6B3A7640000 DUP2 JUMP JUMPDEST CALLVALUE DUP1 ISZERO PUSH2 0x204 JUMPI PUSH0 DUP1 REVERT JUMPDEST POP PUSH2 0x20D PUSH2 0x6E6 JUMP JUMPDEST STOP JUMPDEST CALLVALUE DUP1 ISZERO PUSH2 0x21A JUMPI PUSH0 DUP1 REVERT JUMPDEST POP PUSH2 0x132 PUSH8 0xF43FC2C04EE0000 DUP2 JUMP JUMPDEST CALLVALUE DUP1 ISZERO PUSH2 0x235 JUMPI PUSH0 DUP1 REVERT JUMPDEST POP PUSH2 0x132 PUSH1 0x1 PUSH1 0x1 PUSH1 0xC0 SHL SUB DUP2 JUMP JUMPDEST CALLVALUE DUP1 ISZERO PUSH2 0x24F JUMPI PUSH0 DUP1 REVERT JUMPDEST POP PUSH0 SLOAD PUSH1 0x1 PUSH1 0x1 PUSH1 0xA0 SHL SUB AND PUSH2 0x178 JUMP JUMPDEST CALLVALUE DUP1 ISZERO PUSH2 0x26B JUMPI PUSH0 DUP1 REVERT JUMPDEST POP PUSH2 0x132 PUSH4 0x1E13380 DUP2 JUMP JUMPDEST CALLVALUE DUP1 ISZERO PUSH2 0x282 JUMPI PUSH0 DUP1 REVERT JUMPDEST POP PUSH2 0x132 PUSH2 0x6F9 JUMP JUMPDEST CALLVALUE DUP1 ISZERO PUSH2 0x296 JUMPI PUSH0 DUP1 REVERT JUMPDEST POP PUSH2 0x132 PUSH32 0x0 DUP2 JUMP JUMPDEST CALLVALUE DUP1 ISZERO PUSH2 0x2C9 JUMPI PUSH0 DUP1 REVERT JUMPDEST POP PUSH2 0x2D2 PUSH2 0x77B JUMP JUMPDEST PUSH1 0x40 MLOAD PUSH2 0x13C SWAP2 SWAP1 DUP2 MLOAD PUSH1 0xFF AND DUP2 MSTORE PUSH1 0x20 DUP1 DUP4 ADD MLOAD PUSH2 0xFFFF AND SWAP1 DUP3 ADD MSTORE PUSH1 0x40 DUP1 DUP4 ADD MLOAD PUSH1 0x1 PUSH1 0x1 PUSH1 0xC0 SHL SUB AND SWAP1 DUP3 ADD MSTORE PUSH1 0x60 SWAP2 DUP3 ADD MLOAD PUSH5 0xFFFFFFFFFF AND SWAP2 DUP2 ADD SWAP2 SWAP1 SWAP2 MSTORE PUSH1 0x80 ADD SWAP1 JUMP JUMPDEST CALLVALUE DUP1 ISZERO PUSH2 0x327 JUMPI PUSH0 DUP1 REVERT JUMPDEST POP PUSH2 0x178 PUSH32 0x0 DUP2 JUMP JUMPDEST CALLVALUE DUP1 ISZERO PUSH2 0x35A JUMPI PUSH0 DUP1 REVERT JUMPDEST POP PUSH2 0x132 PUSH32 0x0 DUP2 JUMP JUMPDEST CALLVALUE DUP1 ISZERO PUSH2 0x38D JUMPI PUSH0 DUP1 REVERT JUMPDEST POP PUSH2 0x132 PUSH3 0xF4240 DUP2 JUMP JUMPDEST CALLVALUE DUP1 ISZERO PUSH2 0x3A3 JUMPI PUSH0 DUP1 REVERT JUMPDEST POP PUSH2 0x20D PUSH2 0x3B2 CALLDATASIZE PUSH1 0x4 PUSH2 0xA9C JUMP JUMPDEST PUSH2 0x814 JUMP JUMPDEST CALLVALUE DUP1 ISZERO PUSH2 0x3C2 JUMPI PUSH0 DUP1 REVERT JUMPDEST POP PUSH2 0x132 PUSH2 0xE10 DUP2 JUMP JUMPDEST PUSH1 0x1 SLOAD PUSH0 SWAP1 PUSH1 0xFF AND PUSH1 0x2 SUB PUSH2 0x3F4 JUMPI PUSH1 0x40 MLOAD PUSH4 0x9462EB71 PUSH1 0xE0 SHL DUP2 MSTORE PUSH1 0x4 ADD PUSH1 0x40 MLOAD DUP1 SWAP2 SUB SWAP1 REVERT JUMPDEST PUSH1 0x1 DUP1 SLOAD PUSH1 0xFF NOT AND PUSH1 0x2 OR SWAP1 SSTORE TIMESTAMP DUP4 LT ISZERO PUSH2 0x422 JUMPI PUSH1 0x40 MLOAD PUSH4 0x62A2FFF PUSH1 0xE0 SHL DUP2 MSTORE PUSH1 0x4 ADD PUSH1 0x40 MLOAD DUP1 SWAP2 SUB SWAP1 REVERT JUMPDEST SELFBALANCE PUSH0 DUP2 SWAP1 SUB PUSH2 0x444 JUMPI PUSH1 0x40 MLOAD PUSH4 0x9EC4F41 PUSH1 0xE3 SHL DUP2 MSTORE PUSH1 0x4 ADD PUSH1 0x40 MLOAD DUP1 SWAP2 SUB SWAP1 REVERT JUMPDEST PUSH1 0x40 DUP1 MLOAD PUSH1 0x80 DUP2 ADD DUP3 MSTORE PUSH1 0x1 SLOAD PUSH1 0xFF DUP2 AND DUP3 MSTORE PUSH2 0x100 DUP2 DIV PUSH2 0xFFFF SWAP1 DUP2 AND PUSH1 0x20 DUP5 ADD DUP2 SWAP1 MSTORE PUSH4 0x1000000 DUP4 DIV PUSH1 0x1 PUSH1 0x1 PUSH1 0xC0 SHL SUB AND SWAP5 DUP5 ADD SWAP5 SWAP1 SWAP5 MSTORE PUSH1 0x1 PUSH1 0xD8 SHL SWAP1 SWAP2 DIV PUSH5 0xFFFFFFFFFF AND PUSH1 0x60 DUP4 ADD MSTORE SWAP1 SWAP2 SWAP1 DUP8 AND EQ PUSH2 0x4B7 JUMPI PUSH1 0x40 MLOAD PUSH4 0x4228D63B PUSH1 0xE1 SHL DUP2 MSTORE PUSH1 0x4 ADD PUSH1 0x40 MLOAD DUP1 SWAP2 SUB SWAP1 REVERT JUMPDEST PUSH2 0x4C0 DUP2 PUSH2 0x856 JUMP JUMPDEST SWAP3 POP DUP4 DUP4 GT ISZERO PUSH2 0x4E3 JUMPI PUSH1 0x40 MLOAD PUSH4 0x490AD8BB PUSH1 0xE1 SHL DUP2 MSTORE PUSH1 0x4 ADD PUSH1 0x40 MLOAD DUP1 SWAP2 SUB SWAP1 REVERT JUMPDEST DUP3 ISZERO PUSH2 0x53E JUMPI PUSH2 0x53E PUSH1 0x1 PUSH1 0x1 PUSH1 0xA0 SHL SUB PUSH32 0x0 AND CALLER PUSH32 0x0 DUP7 PUSH2 0x904 JUMP JUMPDEST PUSH1 0x40 MLOAD PUSH1 0x1 PUSH1 0x1 PUSH1 0xA0 SHL SUB DUP9 AND SWAP1 DUP4 ISZERO PUSH2 0x8FC MUL SWAP1 DUP5 SWAP1 PUSH0 DUP2 DUP2 DUP2 DUP6 DUP9 DUP9 CALL SWAP4 POP POP POP POP ISZERO DUP1 ISZERO PUSH2 0x571 JUMPI RETURNDATASIZE PUSH0 DUP1 RETURNDATACOPY RETURNDATASIZE PUSH0 REVERT JUMPDEST POP PUSH0 PUSH8 0xDE0B6B3A7640000 PUSH2 0x5A6 PUSH32 0x0 DUP7 PUSH2 0xAC9 JUMP JUMPDEST PUSH2 0x5B0 SWAP2 SWAP1 PUSH2 0xAE6 JUMP JUMPDEST SWAP1 POP PUSH1 0x1 PUSH1 0x1 PUSH1 0xC0 SHL SUB DUP2 GT ISZERO PUSH2 0x5CF JUMPI POP PUSH1 0x1 PUSH1 0x1 PUSH1 0xC0 SHL SUB PUSH2 0x61A JUMP JUMPDEST PUSH32 0x0 DUP2 LT ISZERO PUSH2 0x61A JUMPI POP PUSH32 0x0 JUMPDEST PUSH1 0x20 DUP3 DUP2 ADD DUP1 MLOAD PUSH1 0x1 SWAP1 DUP2 ADD PUSH2 0xFFFF AND SWAP2 DUP3 SWAP1 MSTORE PUSH1 0x1 PUSH1 0x1 PUSH1 0xC0 SHL SUB DUP5 AND PUSH1 0x40 DUP1 DUP8 ADD DUP3 SWAP1 MSTORE TIMESTAMP PUSH5 0xFFFFFFFFFF AND PUSH1 0x60 DUP9 ADD DUP2 SWAP1 MSTORE DUP8 MLOAD DUP5 SLOAD PUSH1 0xFF SWAP1 SWAP2 AND PUSH3 0xFFFFFF NOT SWAP1 SWAP2 AND OR PUSH2 0x100 SWAP1 SWAP6 MUL SWAP5 SWAP1 SWAP5 OR PUSH3 0xFFFFFF AND PUSH4 0x1000000 SWAP1 SWAP3 MUL PUSH1 0x1 PUSH1 0x1 PUSH1 0xD8 SHL SUB AND SWAP2 SWAP1 SWAP2 OR PUSH1 0x1 PUSH1 0xD8 SHL SWAP1 SWAP4 MUL SWAP3 SWAP1 SWAP3 OR SWAP1 SSTORE MLOAD DUP6 DUP2 MSTORE PUSH1 0x1 PUSH1 0x1 PUSH1 0xA0 SHL SUB DUP11 AND SWAP2 CALLER SWAP2 PUSH32 0x9995888C83CD01084797E1975830175B29D85DEE4DCC8C3A2A7BE5367750394C SWAP2 ADD PUSH1 0x40 MLOAD DUP1 SWAP2 SUB SWAP1 LOG3 POP POP POP PUSH1 0x1 DUP1 SLOAD PUSH1 0xFF NOT AND DUP2 OR SWAP1 SSTORE SWAP5 SWAP4 POP POP POP POP JUMP JUMPDEST PUSH2 0x6EE PUSH2 0x964 JUMP JUMPDEST PUSH2 0x6F7 PUSH0 PUSH2 0x990 JUMP JUMPDEST JUMP JUMPDEST PUSH1 0x1 SLOAD PUSH0 SWAP1 PUSH1 0xFF AND PUSH1 0x2 SUB PUSH2 0x721 JUMPI PUSH1 0x40 MLOAD PUSH4 0x9462EB71 PUSH1 0xE0 SHL DUP2 MSTORE PUSH1 0x4 ADD PUSH1 0x40 MLOAD DUP1 SWAP2 SUB SWAP1 REVERT JUMPDEST PUSH1 0x40 DUP1 MLOAD PUSH1 0x80 DUP2 ADD DUP3 MSTORE PUSH1 0x1 SLOAD PUSH1 0xFF DUP2 AND DUP3 MSTORE PUSH2 0x100 DUP2 DIV PUSH2 0xFFFF AND PUSH1 0x20 DUP4 ADD MSTORE PUSH4 0x1000000 DUP2 DIV PUSH1 0x1 PUSH1 0x1 PUSH1 0xC0 SHL SUB AND SWAP3 DUP3 ADD SWAP3 SWAP1 SWAP3 MSTORE PUSH1 0x1 PUSH1 0xD8 SHL SWAP1 SWAP2 DIV PUSH5 0xFFFFFFFFFF AND PUSH1 0x60 DUP3 ADD MSTORE PUSH2 0x776 SWAP1 PUSH2 0x856 JUMP JUMPDEST SWAP1 POP SWAP1 JUMP JUMPDEST PUSH1 0x40 DUP1 MLOAD PUSH1 0x80 DUP2 ADD DUP3 MSTORE PUSH0 DUP1 DUP3 MSTORE PUSH1 0x20 DUP3 ADD DUP2 SWAP1 MSTORE SWAP2 DUP2 ADD DUP3 SWAP1 MSTORE PUSH1 0x60 DUP2 ADD SWAP2 SWAP1 SWAP2 MSTORE PUSH1 0x1 SLOAD PUSH1 0xFF AND PUSH1 0x2 SUB PUSH2 0x7C4 JUMPI PUSH1 0x40 MLOAD PUSH4 0x9462EB71 PUSH1 0xE0 SHL DUP2 MSTORE PUSH1 0x4 ADD PUSH1 0x40 MLOAD DUP1 SWAP2 SUB SWAP1 REVERT JUMPDEST POP PUSH1 0x40 DUP1 MLOAD PUSH1 0x80 DUP2 ADD DUP3 MSTORE PUSH1 0x1 SLOAD PUSH1 0xFF DUP2 AND DUP3 MSTORE PUSH2 0x100 DUP2 DIV PUSH2 0xFFFF AND PUSH1 0x20 DUP4 ADD MSTORE PUSH4 0x1000000 DUP2 DIV PUSH1 0x1 PUSH1 0x1 PUSH1 0xC0 SHL SUB AND SWAP3 DUP3 ADD SWAP3 SWAP1 SWAP3 MSTORE PUSH1 0x1 PUSH1 0xD8 SHL SWAP1 SWAP2 DIV PUSH5 0xFFFFFFFFFF AND PUSH1 0x60 DUP3 ADD MSTORE SWAP1 JUMP JUMPDEST PUSH2 0x81C PUSH2 0x964 JUMP JUMPDEST PUSH1 0x1 PUSH1 0x1 PUSH1 0xA0 SHL SUB DUP2 AND PUSH2 0x84A JUMPI PUSH1 0x40 MLOAD PUSH4 0x1E4FBDF7 PUSH1 0xE0 SHL DUP2 MSTORE PUSH0 PUSH1 0x4 DUP3 ADD MSTORE PUSH1 0x24 ADD JUMPDEST PUSH1 0x40 MLOAD DUP1 SWAP2 SUB SWAP1 REVERT JUMPDEST PUSH2 0x853 DUP2 PUSH2 0x990 JUMP JUMPDEST POP JUMP JUMPDEST PUSH0 DUP1 DUP3 PUSH1 0x60 ADD MLOAD PUSH5 0xFFFFFFFFFF AND TIMESTAMP PUSH2 0x86F SWAP2 SWAP1 PUSH2 0xB05 JUMP JUMPDEST SWAP1 POP PUSH32 0x0 DUP2 GT ISZERO PUSH2 0x8A1 JUMPI POP PUSH0 SWAP3 SWAP2 POP POP JUMP JUMPDEST PUSH32 0x0 DUP2 DUP5 PUSH1 0x40 ADD MLOAD PUSH1 0x1 PUSH1 0x1 PUSH1 0xC0 SHL SUB AND PUSH2 0x8DB SWAP2 SWAP1 PUSH2 0xAC9 JUMP JUMPDEST PUSH2 0x8E5 SWAP2 SWAP1 PUSH2 0xAE6 JUMP JUMPDEST DUP4 PUSH1 0x40 ADD MLOAD PUSH1 0x1 PUSH1 0x1 PUSH1 0xC0 SHL SUB AND PUSH2 0x8FD SWAP2 SWAP1 PUSH2 0xB05 JUMP JUMPDEST SWAP4 SWAP3 POP POP POP JUMP JUMPDEST PUSH1 0x40 DUP1 MLOAD PUSH1 0x1 PUSH1 0x1 PUSH1 0xA0 SHL SUB DUP6 DUP2 AND PUSH1 0x24 DUP4 ADD MSTORE DUP5 AND PUSH1 0x44 DUP3 ADD MSTORE PUSH1 0x64 DUP1 DUP3 ADD DUP5 SWAP1 MSTORE DUP3 MLOAD DUP1 DUP4 SUB SWAP1 SWAP2 ADD DUP2 MSTORE PUSH1 0x84 SWAP1 SWAP2 ADD SWAP1 SWAP2 MSTORE PUSH1 0x20 DUP2 ADD DUP1 MLOAD PUSH1 0x1 PUSH1 0x1 PUSH1 0xE0 SHL SUB AND PUSH4 0x23B872DD PUSH1 0xE0 SHL OR SWAP1 MSTORE PUSH2 0x95E SWAP1 DUP6 SWAP1 PUSH2 0x9DF JUMP JUMPDEST POP POP POP POP JUMP JUMPDEST PUSH0 SLOAD PUSH1 0x1 PUSH1 0x1 PUSH1 0xA0 SHL SUB AND CALLER EQ PUSH2 0x6F7 JUMPI PUSH1 0x40 MLOAD PUSH4 0x118CDAA7 PUSH1 0xE0 SHL DUP2 MSTORE CALLER PUSH1 0x4 DUP3 ADD MSTORE PUSH1 0x24 ADD PUSH2 0x841 JUMP JUMPDEST PUSH0 DUP1 SLOAD PUSH1 0x1 PUSH1 0x1 PUSH1 0xA0 SHL SUB DUP4 DUP2 AND PUSH1 0x1 PUSH1 0x1 PUSH1 0xA0 SHL SUB NOT DUP4 AND DUP2 OR DUP5 SSTORE PUSH1 0x40 MLOAD SWAP2 SWAP1 SWAP3 AND SWAP3 DUP4 SWAP2 PUSH32 0x8BE0079C531659141344CD1FD0A4F28419497F9722A3DAAFE3B4186F6B6457E0 SWAP2 SWAP1 LOG3 POP POP JUMP JUMPDEST PUSH0 DUP1 PUSH1 0x20 PUSH0 DUP5 MLOAD PUSH1 0x20 DUP7 ADD PUSH0 DUP9 GAS CALL DUP1 PUSH2 0x9FE JUMPI PUSH1 0x40 MLOAD RETURNDATASIZE PUSH0 DUP3 RETURNDATACOPY RETURNDATASIZE DUP2 REVERT JUMPDEST POP POP PUSH0 MLOAD RETURNDATASIZE SWAP2 POP DUP2 ISZERO PUSH2 0xA15 JUMPI DUP1 PUSH1 0x1 EQ ISZERO PUSH2 0xA22 JUMP JUMPDEST PUSH1 0x1 PUSH1 0x1 PUSH1 0xA0 SHL SUB DUP5 AND EXTCODESIZE ISZERO JUMPDEST ISZERO PUSH2 0x95E JUMPI PUSH1 0x40 MLOAD PUSH4 0x5274AFE7 PUSH1 0xE0 SHL DUP2 MSTORE PUSH1 0x1 PUSH1 0x1 PUSH1 0xA0 SHL SUB DUP6 AND PUSH1 0x4 DUP3 ADD MSTORE PUSH1 0x24 ADD PUSH2 0x841 JUMP JUMPDEST DUP1 CALLDATALOAD PUSH1 0x1 PUSH1 0x1 PUSH1 0xA0 SHL SUB DUP2 AND DUP2 EQ PUSH2 0xA61 JUMPI PUSH0 DUP1 REVERT JUMPDEST SWAP2 SWAP1 POP JUMP JUMPDEST PUSH0 DUP1 PUSH0 DUP1 PUSH1 0x80 DUP6 DUP8 SUB SLT ISZERO PUSH2 0xA79 JUMPI PUSH0 DUP1 REVERT JUMPDEST PUSH2 0xA82 DUP6 PUSH2 0xA4B JUMP JUMPDEST SWAP7 PUSH1 0x20 DUP7 ADD CALLDATALOAD SWAP7 POP PUSH1 0x40 DUP7 ADD CALLDATALOAD SWAP6 PUSH1 0x60 ADD CALLDATALOAD SWAP5 POP SWAP3 POP POP POP JUMP JUMPDEST PUSH0 PUSH1 0x20 DUP3 DUP5 SUB SLT ISZERO PUSH2 0xAAC JUMPI PUSH0 DUP1 REVERT JUMPDEST PUSH2 0x8FD DUP3 PUSH2 0xA4B JUMP JUMPDEST PUSH4 0x4E487B71 PUSH1 0xE0 SHL PUSH0 MSTORE PUSH1 0x11 PUSH1 0x4 MSTORE PUSH1 0x24 PUSH0 REVERT JUMPDEST DUP1 DUP3 MUL DUP2 ISZERO DUP3 DUP3 DIV DUP5 EQ OR PUSH2 0xAE0 JUMPI PUSH2 0xAE0 PUSH2 0xAB5 JUMP JUMPDEST SWAP3 SWAP2 POP POP JUMP JUMPDEST PUSH0 DUP3 PUSH2 0xB00 JUMPI PUSH4 0x4E487B71 PUSH1 0xE0 SHL PUSH0 MSTORE PUSH1 0x12 PUSH1 0x4 MSTORE PUSH1 0x24 PUSH0 REVERT JUMPDEST POP DIV SWAP1 JUMP JUMPDEST DUP2 DUP2 SUB DUP2 DUP2 GT ISZERO PUSH2 0xAE0 JUMPI PUSH2 0xAE0 PUSH2 0xAB5 JUMP INVALID LOG2 PUSH5 0x6970667358 0x22 SLT KECCAK256 DUP10 0xF 0x4F 0xB9 SWAP9 0xD8 OR 0xBE 0xE4 0xC CREATE2 0xE4 NUMBER LOG1 DUP13 DUP6 PUSH12 0x2502047EB94D786896D9FB37 SWAP4 JUMP DELEGATECALL PUSH5 0x736F6C6343 STOP ADDMOD XOR STOP CALLER "},"methodIdentifiers":{"ABS_MAX_INIT_PRICE()":"88f4b49e","ABS_MIN_INIT_PRICE()":"efd33156","MAX_EPOCH_PERIOD()":"8fc59c52","MAX_PRICE_MULTIPLIER()":"5889486e","MIN_EPOCH_PERIOD()":"f6cb1a49","MIN_PRICE_MULTIPLIER()":"750d48b8","PRICE_MULTIPLIER_SCALE()":"6e5b5b7d","buy(address,uint256,uint256,uint256)":"1622dbe4","epochPeriod()":"b5b7a184","getPrice()":"98d5fdca","getSlot0()":"c9ae5e0c","minInitPrice()":"3c92276e","owner()":"8da5cb5b","paymentReceiver()":"cb37f3b2","paymentToken()":"3013ce29","priceMultiplier()":"d50cb88b","renounceOwnership()":"715018a6","transferOwnership(address)":"f2fde38b"}},"storageLayout":{"storage":[{"astId":1991,"contract":"contracts/TheCellar.sol:TheCellar","label":"_owner","offset":0,"slot":"0","type":"t_address"},{"astId":9908,"contract":"contracts/TheCellar.sol:TheCellar","label":"slot0","offset":0,"slot":"1","type":"t_struct(Slot0)9905_storage"}],"types":{"t_address":{"encoding":"inplace","label":"address","numberOfBytes":"20"},"t_struct(Slot0)9905_storage":{"encoding":"inplace","label":"struct TheCellar.Slot0","members":[{"astId":9898,"contract":"contracts/TheCellar.sol:TheCellar","label":"locked","offset":0,"slot":"0","type":"t_uint8"},{"astId":9900,"contract":"contracts/TheCellar.sol:TheCellar","label":"epochId","offset":1,"slot":"0","type":"t_uint16"},{"astId":9902,"contract":"contracts/TheCellar.sol:TheCellar","label":"initPrice","offset":3,"slot":"0","type":"t_uint192"},{"astId":9904,"contract":"contracts/TheCellar.sol:TheCellar","label":"startTime","offset":27,"slot":"0","type":"t_uint40"}],"numberOfBytes":"32"},"t_uint16":{"encoding":"inplace","label":"uint16","numberOfBytes":"2"},"t_uint192":{"encoding":"inplace","label":"uint192","numberOfBytes":"24"},"t_uint40":{"encoding":"inplace","label":"uint40","numberOfBytes":"5"},"t_uint8":{"encoding":"inplace","label":"uint8","numberOfBytes":"1"}}}}}}