{"contracts/TavernKeeper.sol":{"TavernKeeper":{"abi":[{"inputs":[],"stateMutability":"nonpayable","type":"constructor"},{"inputs":[{"internalType":"address","name":"target","type":"address"}],"name":"AddressEmptyCode","type":"error"},{"inputs":[{"internalType":"address","name":"implementation","type":"address"}],"name":"ERC1967InvalidImplementation","type":"error"},{"inputs":[],"name":"ERC1967NonPayable","type":"error"},{"inputs":[{"internalType":"address","name":"sender","type":"address"},{"internalType":"uint256","name":"tokenId","type":"uint256"},{"internalType":"address","name":"owner","type":"address"}],"name":"ERC721IncorrectOwner","type":"error"},{"inputs":[{"internalType":"address","name":"operator","type":"address"},{"internalType":"uint256","name":"tokenId","type":"uint256"}],"name":"ERC721InsufficientApproval","type":"error"},{"inputs":[{"internalType":"address","name":"approver","type":"address"}],"name":"ERC721InvalidApprover","type":"error"},{"inputs":[{"internalType":"address","name":"operator","type":"address"}],"name":"ERC721InvalidOperator","type":"error"},{"inputs":[{"internalType":"address","name":"owner","type":"address"}],"name":"ERC721InvalidOwner","type":"error"},{"inputs":[{"internalType":"address","name":"receiver","type":"address"}],"name":"ERC721InvalidReceiver","type":"error"},{"inputs":[{"internalType":"address","name":"sender","type":"address"}],"name":"ERC721InvalidSender","type":"error"},{"inputs":[{"internalType":"uint256","name":"tokenId","type":"uint256"}],"name":"ERC721NonexistentToken","type":"error"},{"inputs":[],"name":"EpochIdMismatch","type":"error"},{"inputs":[],"name":"Expired","type":"error"},{"inputs":[],"name":"FailedCall","type":"error"},{"inputs":[],"name":"InvalidInitialization","type":"error"},{"inputs":[],"name":"InvalidTreasury","type":"error"},{"inputs":[],"name":"MaxPriceExceeded","type":"error"},{"inputs":[],"name":"NotInitializing","type":"error"},{"inputs":[{"internalType":"address","name":"owner","type":"address"}],"name":"OwnableInvalidOwner","type":"error"},{"inputs":[{"internalType":"address","name":"account","type":"address"}],"name":"OwnableUnauthorizedAccount","type":"error"},{"inputs":[],"name":"Reentrancy","type":"error"},{"inputs":[],"name":"UUPSUnauthorizedCallContext","type":"error"},{"inputs":[{"internalType":"bytes32","name":"slot","type":"bytes32"}],"name":"UUPSUnsupportedProxiableUUID","type":"error"},{"anonymous":false,"inputs":[{"indexed":true,"internalType":"address","name":"owner","type":"address"},{"indexed":true,"internalType":"address","name":"approved","type":"address"},{"indexed":true,"internalType":"uint256","name":"tokenId","type":"uint256"}],"name":"Approval","type":"event"},{"anonymous":false,"inputs":[{"indexed":true,"internalType":"address","name":"owner","type":"address"},{"indexed":true,"internalType":"address","name":"operator","type":"address"},{"indexed":false,"internalType":"bool","name":"approved","type":"bool"}],"name":"ApprovalForAll","type":"event"},{"anonymous":false,"inputs":[{"indexed":false,"internalType":"uint256","name":"_fromTokenId","type":"uint256"},{"indexed":false,"internalType":"uint256","name":"_toTokenId","type":"uint256"}],"name":"BatchMetadataUpdate","type":"event"},{"anonymous":false,"inputs":[{"indexed":false,"internalType":"uint64","name":"version","type":"uint64"}],"name":"Initialized","type":"event"},{"anonymous":false,"inputs":[{"indexed":true,"internalType":"address","name":"oldToken","type":"address"},{"indexed":true,"internalType":"address","name":"newToken","type":"address"}],"name":"KeepTokenUpdated","type":"event"},{"anonymous":false,"inputs":[{"indexed":false,"internalType":"uint256","name":"_tokenId","type":"uint256"}],"name":"MetadataUpdate","type":"event"},{"anonymous":false,"inputs":[{"indexed":true,"internalType":"address","name":"king","type":"address"},{"indexed":false,"internalType":"uint256","name":"amount","type":"uint256"}],"name":"OfficeEarningsClaimed","type":"event"},{"anonymous":false,"inputs":[{"indexed":true,"internalType":"address","name":"newKing","type":"address"},{"indexed":false,"internalType":"uint256","name":"newPrice","type":"uint256"},{"indexed":false,"internalType":"uint256","name":"paidAmount","type":"uint256"},{"indexed":false,"internalType":"string","name":"uri","type":"string"}],"name":"OfficeTaken","type":"event"},{"anonymous":false,"inputs":[{"indexed":true,"internalType":"address","name":"previousOwner","type":"address"},{"indexed":true,"internalType":"address","name":"newOwner","type":"address"}],"name":"OwnershipTransferred","type":"event"},{"anonymous":false,"inputs":[{"indexed":true,"internalType":"address","name":"prevKing","type":"address"},{"indexed":false,"internalType":"uint256","name":"amount","type":"uint256"}],"name":"PreviousKingPaid","type":"event"},{"anonymous":false,"inputs":[{"indexed":true,"internalType":"uint256","name":"tokenId","type":"uint256"},{"indexed":false,"internalType":"uint256","name":"amount","type":"uint256"}],"name":"TokensClaimed","type":"event"},{"anonymous":false,"inputs":[{"indexed":true,"internalType":"address","name":"from","type":"address"},{"indexed":true,"internalType":"address","name":"to","type":"address"},{"indexed":true,"internalType":"uint256","name":"tokenId","type":"uint256"}],"name":"Transfer","type":"event"},{"anonymous":false,"inputs":[{"indexed":true,"internalType":"address","name":"treasury","type":"address"},{"indexed":false,"internalType":"uint256","name":"amount","type":"uint256"}],"name":"TreasuryFee","type":"event"},{"anonymous":false,"inputs":[{"indexed":true,"internalType":"address","name":"implementation","type":"address"}],"name":"Upgraded","type":"event"},{"inputs":[],"name":"ABS_MAX_INIT_PRICE","outputs":[{"internalType":"uint256","name":"","type":"uint256"}],"stateMutability":"view","type":"function"},{"inputs":[],"name":"DEFAULT_RATE","outputs":[{"internalType":"uint256","name":"","type":"uint256"}],"stateMutability":"view","type":"function"},{"inputs":[],"name":"DIVISOR","outputs":[{"internalType":"uint256","name":"","type":"uint256"}],"stateMutability":"view","type":"function"},{"inputs":[],"name":"EPOCH_PERIOD","outputs":[{"internalType":"uint256","name":"","type":"uint256"}],"stateMutability":"view","type":"function"},{"inputs":[],"name":"FEE","outputs":[{"internalType":"uint256","name":"","type":"uint256"}],"stateMutability":"view","type":"function"},{"inputs":[],"name":"HALVING_PERIOD","outputs":[{"internalType":"uint256","name":"","type":"uint256"}],"stateMutability":"view","type":"function"},{"inputs":[],"name":"INITIAL_DPS","outputs":[{"internalType":"uint256","name":"","type":"uint256"}],"stateMutability":"view","type":"function"},{"inputs":[],"name":"MIN_INIT_PRICE","outputs":[{"internalType":"uint256","name":"","type":"uint256"}],"stateMutability":"view","type":"function"},{"inputs":[],"name":"NEW_PRICE_MULTIPLIER","outputs":[{"internalType":"uint256","name":"","type":"uint256"}],"stateMutability":"view","type":"function"},{"inputs":[],"name":"PRECISION","outputs":[{"internalType":"uint256","name":"","type":"uint256"}],"stateMutability":"view","type":"function"},{"inputs":[],"name":"PRICE_MULTIPLIER","outputs":[{"internalType":"uint256","name":"","type":"uint256"}],"stateMutability":"view","type":"function"},{"inputs":[],"name":"TAIL_DPS","outputs":[{"internalType":"uint256","name":"","type":"uint256"}],"stateMutability":"view","type":"function"},{"inputs":[],"name":"UPGRADE_INTERFACE_VERSION","outputs":[{"internalType":"string","name":"","type":"string"}],"stateMutability":"view","type":"function"},{"inputs":[{"internalType":"address","name":"to","type":"address"},{"internalType":"uint256","name":"tokenId","type":"uint256"}],"name":"approve","outputs":[],"stateMutability":"nonpayable","type":"function"},{"inputs":[{"internalType":"address","name":"owner","type":"address"}],"name":"balanceOf","outputs":[{"internalType":"uint256","name":"","type":"uint256"}],"stateMutability":"view","type":"function"},{"inputs":[{"internalType":"uint256","name":"tokenId","type":"uint256"}],"name":"calculatePendingTokens","outputs":[{"internalType":"uint256","name":"","type":"uint256"}],"stateMutability":"view","type":"function"},{"inputs":[{"internalType":"uint256","name":"tokenId","type":"uint256"}],"name":"claimTokens","outputs":[],"stateMutability":"nonpayable","type":"function"},{"inputs":[{"internalType":"uint256","name":"tokenId","type":"uint256"}],"name":"getApproved","outputs":[{"internalType":"address","name":"","type":"address"}],"stateMutability":"view","type":"function"},{"inputs":[],"name":"getDps","outputs":[{"internalType":"uint256","name":"","type":"uint256"}],"stateMutability":"view","type":"function"},{"inputs":[],"name":"getPrice","outputs":[{"internalType":"uint256","name":"","type":"uint256"}],"stateMutability":"view","type":"function"},{"inputs":[],"name":"getSlot0","outputs":[{"components":[{"internalType":"uint8","name":"locked","type":"uint8"},{"internalType":"uint16","name":"epochId","type":"uint16"},{"internalType":"uint192","name":"initPrice","type":"uint192"},{"internalType":"uint40","name":"startTime","type":"uint40"},{"internalType":"uint256","name":"dps","type":"uint256"},{"internalType":"address","name":"miner","type":"address"},{"internalType":"string","name":"uri","type":"string"}],"internalType":"struct TavernKeeper.Slot0","name":"","type":"tuple"}],"stateMutability":"view","type":"function"},{"inputs":[],"name":"initialize","outputs":[],"stateMutability":"nonpayable","type":"function"},{"inputs":[{"internalType":"address","name":"_treasury","type":"address"}],"name":"initializeOfficeV2","outputs":[],"stateMutability":"nonpayable","type":"function"},{"inputs":[{"internalType":"address","name":"owner","type":"address"},{"internalType":"address","name":"operator","type":"address"}],"name":"isApprovedForAll","outputs":[{"internalType":"bool","name":"","type":"bool"}],"stateMutability":"view","type":"function"},{"inputs":[],"name":"keepToken","outputs":[{"internalType":"address","name":"","type":"address"}],"stateMutability":"view","type":"function"},{"inputs":[{"internalType":"uint256","name":"","type":"uint256"}],"name":"lastClaimTime","outputs":[{"internalType":"uint256","name":"","type":"uint256"}],"stateMutability":"view","type":"function"},{"inputs":[{"internalType":"uint256","name":"","type":"uint256"}],"name":"mintingRate","outputs":[{"internalType":"uint256","name":"","type":"uint256"}],"stateMutability":"view","type":"function"},{"inputs":[],"name":"name","outputs":[{"internalType":"string","name":"","type":"string"}],"stateMutability":"view","type":"function"},{"inputs":[],"name":"owner","outputs":[{"internalType":"address","name":"","type":"address"}],"stateMutability":"view","type":"function"},{"inputs":[{"internalType":"uint256","name":"tokenId","type":"uint256"}],"name":"ownerOf","outputs":[{"internalType":"address","name":"","type":"address"}],"stateMutability":"view","type":"function"},{"inputs":[],"name":"proxiableUUID","outputs":[{"internalType":"bytes32","name":"","type":"bytes32"}],"stateMutability":"view","type":"function"},{"inputs":[],"name":"renounceOwnership","outputs":[],"stateMutability":"nonpayable","type":"function"},{"inputs":[{"internalType":"address","name":"to","type":"address"},{"internalType":"string","name":"uri","type":"string"}],"name":"safeMint","outputs":[{"internalType":"uint256","name":"","type":"uint256"}],"stateMutability":"nonpayable","type":"function"},{"inputs":[{"internalType":"address","name":"from","type":"address"},{"internalType":"address","name":"to","type":"address"},{"internalType":"uint256","name":"tokenId","type":"uint256"}],"name":"safeTransferFrom","outputs":[],"stateMutability":"nonpayable","type":"function"},{"inputs":[{"internalType":"address","name":"from","type":"address"},{"internalType":"address","name":"to","type":"address"},{"internalType":"uint256","name":"tokenId","type":"uint256"},{"internalType":"bytes","name":"data","type":"bytes"}],"name":"safeTransferFrom","outputs":[],"stateMutability":"nonpayable","type":"function"},{"inputs":[{"internalType":"address","name":"operator","type":"address"},{"internalType":"bool","name":"approved","type":"bool"}],"name":"setApprovalForAll","outputs":[],"stateMutability":"nonpayable","type":"function"},{"inputs":[{"internalType":"address","name":"_keepToken","type":"address"}],"name":"setKeepTokenContract","outputs":[],"stateMutability":"nonpayable","type":"function"},{"inputs":[],"name":"slot0","outputs":[{"internalType":"uint8","name":"locked","type":"uint8"},{"internalType":"uint16","name":"epochId","type":"uint16"},{"internalType":"uint192","name":"initPrice","type":"uint192"},{"internalType":"uint40","name":"startTime","type":"uint40"},{"internalType":"uint256","name":"dps","type":"uint256"},{"internalType":"address","name":"miner","type":"address"},{"internalType":"string","name":"uri","type":"string"}],"stateMutability":"view","type":"function"},{"inputs":[{"internalType":"bytes4","name":"interfaceId","type":"bytes4"}],"name":"supportsInterface","outputs":[{"internalType":"bool","name":"","type":"bool"}],"stateMutability":"view","type":"function"},{"inputs":[],"name":"symbol","outputs":[{"internalType":"string","name":"","type":"string"}],"stateMutability":"view","type":"function"},{"inputs":[{"internalType":"uint256","name":"epochId","type":"uint256"},{"internalType":"uint256","name":"deadline","type":"uint256"},{"internalType":"uint256","name":"maxPrice","type":"uint256"},{"internalType":"string","name":"uri","type":"string"}],"name":"takeOffice","outputs":[{"internalType":"uint256","name":"price","type":"uint256"}],"stateMutability":"payable","type":"function"},{"inputs":[{"internalType":"uint256","name":"tokenId","type":"uint256"}],"name":"tokenURI","outputs":[{"internalType":"string","name":"","type":"string"}],"stateMutability":"view","type":"function"},{"inputs":[{"internalType":"address","name":"from","type":"address"},{"internalType":"address","name":"to","type":"address"},{"internalType":"uint256","name":"tokenId","type":"uint256"}],"name":"transferFrom","outputs":[],"stateMutability":"nonpayable","type":"function"},{"inputs":[{"internalType":"address","name":"newOwner","type":"address"}],"name":"transferOwnership","outputs":[],"stateMutability":"nonpayable","type":"function"},{"inputs":[],"name":"treasury","outputs":[{"internalType":"address","name":"","type":"address"}],"stateMutability":"view","type":"function"},{"inputs":[{"internalType":"address","name":"newImplementation","type":"address"},{"internalType":"bytes","name":"data","type":"bytes"}],"name":"upgradeToAndCall","outputs":[],"stateMutability":"payable","type":"function"},{"inputs":[],"name":"v2StartTime","outputs":[{"internalType":"uint256","name":"","type":"uint256"}],"stateMutability":"view","type":"function"}],"evm":{"bytecode":{"linkReferences":{},"object":"60a06040523060805234801562000014575f80fd5b506200001f62000025565b620000d9565b7ff0c57e16840df040f15088dc2f81fe391c3923bec73e23a9662efc9c229c6a00805468010000000000000000900460ff1615620000765760405163f92ee8a960e01b815260040160405180910390fd5b80546001600160401b0390811614620000d65780546001600160401b0319166001600160401b0390811782556040519081527fc7f505b2f371ae2175ee4913f4499e1f2633a7b5936321eed1cdaeb6115181d29060200160405180910390a15b50565b608051613146620001005f395f8181611c7a01528181611ca30152611de201526131465ff3fe608060405260043610610280575f3560e01c8063877dab7e11610155578063ad3cb1cc116100be578063d204c45e11610078578063d204c45e14610703578063e5eb39ec14610722578063e69be3f314610741578063e985e9c514610760578063ef2e0d251461077f578063f2fde38b14610798575f80fd5b8063ad3cb1cc1461064b578063b0a13a5c1461067b578063b88d4fde1461068f578063c57981b5146106ae578063c87b56dd146106c3578063c9ae5e0c146106e2575f80fd5b80639c511ad41161010f5780639c511ad4146105ce5780639e421726146105e3578063a22cb465146105f6578063a2e66a0f14610615578063a3e860fe14610284578063aaf5eb6814610630575f80fd5b8063877dab7e1461054d578063879956601461036e57806388f4b49e146105785780638da5cb5b1461059257806395d89b41146105a657806398d5fdca146105ba575f80fd5b80633dbc71fa116101f75780635fea89f1116101b15780635fea89f11461049d57806361d027b3146104c85780636352211e146104e757806370a0823114610506578063715018a6146105255780638129fc1c14610539575f80fd5b80633dbc71fa146103fa57806342842e0e14610419578063467c5adf1461043857806346e04a2f146104575780634f1ef2861461047657806352d1902d14610489575f80fd5b8063095ea7b311610248578063095ea7b31461034d578063113990b81461036e57806323b872dd146103895780633410fe6e146103a85780633850c7bd146103bd5780633adde9c1146103e4575f80fd5b80630169916a1461028457806301ffc9a7146102b157806306fdde03146102e057806307d2e1e214610301578063081812fc14610316575b5f80fd5b34801561028f575f80fd5b5061029e662386f26fc1000081565b6040519081526020015b60405180910390f35b3480156102bc575f80fd5b506102d06102cb366004612a56565b6107b7565b60405190151581526020016102a8565b3480156102eb575f80fd5b506102f46107c7565b6040516102a89190612abe565b34801561030c575f80fd5b5061029e600d5481565b348015610321575f80fd5b50610335610330366004612ad0565b610868565b6040516001600160a01b0390911681526020016102a8565b348015610358575f80fd5b5061036c610367366004612b02565b61087c565b005b348015610379575f80fd5b5061029e671bc16d674ec8000081565b348015610394575f80fd5b5061036c6103a3366004612b2a565b61088b565b3480156103b3575f80fd5b5061029e61271081565b3480156103c8575f80fd5b506103d1610919565b6040516102a89796959493929190612b63565b3480156103ef575f80fd5b5061029e62278d0081565b348015610405575f80fd5b5061036c610414366004612bc9565b6109ef565b348015610424575f80fd5b5061036c610433366004612b2a565b610a99565b348015610443575f80fd5b50600154610335906001600160a01b031681565b348015610462575f80fd5b5061036c610471366004612ad0565b610ab8565b61036c610484366004612c7f565b610c53565b348015610494575f80fd5b5061029e610c6e565b3480156104a8575f80fd5b5061029e6104b7366004612ad0565b60036020525f908152604090205481565b3480156104d3575f80fd5b50600c54610335906001600160a01b031681565b3480156104f2575f80fd5b50610335610501366004612ad0565b610c89565b348015610511575f80fd5b5061029e610520366004612bc9565b610c93565b348015610530575f80fd5b5061036c610ceb565b348015610544575f80fd5b5061036c610cfe565b348015610558575f80fd5b5061029e610567366004612ad0565b60026020525f908152604090205481565b348015610583575f80fd5b5061029e6001600160c01b0381565b34801561059d575f80fd5b50610335610e5c565b3480156105b1575f80fd5b506102f4610e8a565b3480156105c5575f80fd5b5061029e610ec8565b3480156105d9575f80fd5b5061029e610e1081565b61029e6105f1366004612cca565b610ff7565b348015610601575f80fd5b5061036c610610366004612d20565b6116d5565b348015610620575f80fd5b5061029e673782dace9d90000081565b34801561063b575f80fd5b5061029e670de0b6b3a764000081565b348015610656575f80fd5b506102f4604051806040016040528060058152602001640352e302e360dc1b81525081565b348015610686575f80fd5b5061029e6116e0565b34801561069a575f80fd5b5061036c6106a9366004612d59565b61170f565b3480156106b9575f80fd5b5061029e6107d081565b3480156106ce575f80fd5b506102f46106dd366004612ad0565b611727565b3480156106ed575f80fd5b506106f6611732565b6040516102a89190612da5565b34801561070e575f80fd5b5061029e61071d366004612c7f565b611893565b34801561072d575f80fd5b5061029e61073c366004612ad0565b6118ef565b34801561074c575f80fd5b5061036c61075b366004612bc9565b611944565b34801561076b575f80fd5b506102d061077a366004612e23565b611a11565b34801561078a575f80fd5b5061029e655af3107a400081565b3480156107a3575f80fd5b5061036c6107b2366004612bc9565b611a5d565b5f6107c182611a9a565b92915050565b5f805160206130d183398151915280546060919081906107e690612e54565b80601f016020809104026020016040519081016040528092919081815260200182805461081290612e54565b801561085d5780601f106108345761010080835404028352916020019161085d565b820191905f5260205f20905b81548152906001019060200180831161084057829003601f168201915b505050505091505090565b5f61087282611abe565b506107c182611af5565b610887828233611b2e565b5050565b6001600160a01b0382166108b957604051633250574960e11b81525f60048201526024015b60405180910390fd5b5f6108c5838333611b3b565b9050836001600160a01b0316816001600160a01b031614610913576040516364283d7b60e01b81526001600160a01b03808616600483015260248201849052821660448201526064016108b0565b50505050565b60088054600954600a54600b805460ff851695610100860461ffff1695630100000081046001600160c01b031695600160d81b90910464ffffffffff169490936001600160a01b039091169261096e90612e54565b80601f016020809104026020016040519081016040528092919081815260200182805461099a90612e54565b80156109e55780601f106109bc576101008083540402835291602001916109e5565b820191905f5260205f20905b8154815290600101906020018083116109c857829003601f168201915b5050505050905087565b6109f7611c3d565b6001600160a01b038116610a3f5760405162461bcd60e51b815260206004820152600f60248201526e496e76616c6964206164647265737360881b60448201526064016108b0565b6001546040516001600160a01b038084169216907e66a248680b348de6844119bb393b395f8a5ed03b28a64049b28a4538ab3121905f90a3600180546001600160a01b0319166001600160a01b0392909216919091179055565b610ab383838360405180602001604052805f81525061170f565b505050565b33610ac282610c89565b6001600160a01b031614610b0a5760405162461bcd60e51b815260206004820152600f60248201526e2737ba103a37b5b2b71037bbb732b960891b60448201526064016108b0565b6001546001600160a01b0316610b565760405162461bcd60e51b815260206004820152601160248201527012d9595c151bdad95b881b9bdd081cd95d607a1b60448201526064016108b0565b5f610b60826118ef565b90505f8111610ba55760405162461bcd60e51b81526020600482015260116024820152704e6f20746f6b656e732070656e64696e6760781b60448201526064016108b0565b5f828152600260205260409081902042905560015490516340c10f1960e01b8152336004820152602481018390526001600160a01b03909116906340c10f19906044015f604051808303815f87803b158015610bff575f80fd5b505af1158015610c11573d5f803e3d5ffd5b50505050817fbde2d72390af9d0444bb1c4f938971ecb673ed26f5f57f8fa44c553fe01d0d3a82604051610c4791815260200190565b60405180910390a25050565b610c5b611c6f565b610c6482611d13565b6108878282611d1b565b5f610c77611dd7565b505f805160206130f183398151915290565b5f6107c182611abe565b5f5f805160206130d18339815191526001600160a01b038316610ccb576040516322718ad960e21b81525f60048201526024016108b0565b6001600160a01b039092165f908152600390920160205250604090205490565b610cf3611c3d565b610cfc5f611e20565b565b5f610d07611e90565b805490915060ff600160401b820416159067ffffffffffffffff165f81158015610d2e5750825b90505f8267ffffffffffffffff166001148015610d4a5750303b155b905081158015610d58575080155b15610d765760405163f92ee8a960e01b815260040160405180910390fd5b845467ffffffffffffffff191660011785558315610da057845460ff60401b1916600160401b1785555b610df66040518060400160405280601681526020017524b73725b2b2b832b9102a30bb32b93725b2b2b832b960511b8152506040518060400160405280600681526020016525a2a2a822a960d11b815250611eb8565b610dfe611eca565b610e0733611ed2565b610e0f611eca565b8315610e5557845460ff60401b19168555604051600181527fc7f505b2f371ae2175ee4913f4499e1f2633a7b5936321eed1cdaeb6115181d29060200160405180910390a15b5050505050565b7f9016d09d72d40fdae2fd8ceac6b6234c7706214fd39c1cd1e609a0528c199300546001600160a01b031690565b7f80bb2b638cc20bc4d0a60d66940f3ab4a00c1d7b313497ca82fb0b4ab007930180546060915f805160206130d1833981519152916107e690612e54565b6008545f9060ff16600203610ef05760405163558a1e0360e11b815260040160405180910390fd5b6040805160e0810182526008805460ff81168352610100810461ffff166020840152630100000081046001600160c01b031693830193909352600160d81b90920464ffffffffff1660608201526009546080820152600a546001600160a01b031660a0820152600b8054610ff2939160c0840191610f6d90612e54565b80601f0160208091040260200160405190810160405280929190818152602001828054610f9990612e54565b8015610fe45780601f10610fbb57610100808354040283529160200191610fe4565b820191905f5260205f20905b815481529060010190602001808311610fc757829003601f168201915b505050505081525050611ee3565b905090565b6008545f9060ff1660020361101f5760405163558a1e0360e11b815260040160405180910390fd5b6008805460ff191660021790554284101561104d57604051630407b05b60e31b815260040160405180910390fd5b6040805160e0810182526008805460ff81168352610100810461ffff166020840152630100000081046001600160c01b031693830193909352600160d81b90920464ffffffffff1660608201526009546080820152600a546001600160a01b031660a0820152600b80545f939160c08401916110c890612e54565b80601f01602080910402602001604051908101604052809291908181526020018280546110f490612e54565b801561113f5780601f106111165761010080835404028352916020019161113f565b820191905f5260205f20905b81548152906001019060200180831161112257829003601f168201915b5050505050815250509050855f141580156111665750806020015161ffff168661ffff1614155b156111845760405163608fb7bf60e01b815260040160405180910390fd5b61118d81611ee3565b9150838211156111b057604051631d5ece5360e01b815260040160405180910390fd5b813410156111f75760405162461bcd60e51b8152602060048201526014602482015273125b9cdd59999a58da595b9d081c185e5b595b9d60621b60448201526064016108b0565b5f6112028334612e9a565b9050801561123657604051339082156108fc029083905f818181858888f19350505050158015611234573d5f803e3d5ffd5b505b8215611428575f61271061124c6107d086612ead565b6112569190612ec4565b90505f6112638286612e9a565b90505f611271600284612ec4565b90505f61127e8285612e9a565b9050611288610e5c565b6001600160a01b03166108fc8390811502906040515f60405180830381858888f193505050501580156112bd573d5f803e3d5ffd5b50600c546001600160a01b03161561134e57600c546040516001600160a01b039091169082156108fc029083905f818181858888f19350505050158015611306573d5f803e3d5ffd5b50600c546040518281526001600160a01b03909116907f44c4b50ac44926f55eefc40ddaf8d1a7848627c9fd4b811e4a36f9985d78aba29060200160405180910390a261138d565b611356610e5c565b6001600160a01b03166108fc8290811502906040515f60405180830381858888f1935050505015801561138b573d5f803e3d5ffd5b505b60a08601516001600160a01b031615611423578560a001516001600160a01b03166108fc8490811502906040515f60405180830381858888f193505050501580156113da573d5f803e3d5ffd5b508560a001516001600160a01b03167f58616205e0a5e583fa41138b0b6ba26d640390a34951e96a8b313dc315da6acb8460405161141a91815260200190565b60405180910390a25b505050505b5f670de0b6b3a7640000611444671bc16d674ec8000086612ead565b61144e9190612ec4565b90506001600160c01b0381111561146d57506001600160c01b03611484565b655af3107a40008110156114845750655af3107a40005b5f836060015164ffffffffff164261149c9190612e9a565b90505f8460800151826114af9190612ead565b6001549091506001600160a01b0316158015906114d8575060a08501516001600160a01b031615155b1561158a5760015460a08601516040516340c10f1960e01b81526001600160a01b039182166004820152602481018490529116906340c10f19906044015f604051808303815f87803b15801561152c575f80fd5b505af115801561153e573d5f803e3d5ffd5b505050508460a001516001600160a01b03167fab89eac8a47ec964c442bedde0fe9093248f72a543e70ff346e31b652827c6638260405161158191815260200190565b60405180910390a25b60208501805160010161ffff1690526001600160c01b03831660408601524264ffffffffff811660608701523360a08701526115c590611f4e565b6080860181905260c08601889052855160088054602089015160408a015160608b015164ffffffffff16600160d81b026001600160d81b036001600160c01b039092166301000000029190911662ffffff61ffff9093166101000262ffffff1990941660ff9096169590951792909217169290921791909117815560099190915560a0860151600a80546001600160a01b039092166001600160a01b03199092169190911790558590600b61167a8a82612f27565b50506040513391507f6bd27feda26da893d76f461d47d2c4f4c71df28c61d91a79c073d511716f7ab7906116b390899081908c90612fe3565b60405180910390a250505050506008805460ff19166001179055949350505050565b610887338383611fc4565b6008545f9060ff166002036117085760405163558a1e0360e11b815260040160405180910390fd5b5060095490565b61171a84848461088b565b6109133385858585612073565b60606107c18261219a565b6040805160e0810182525f8082526020820181905291810182905260608082018390526080820183905260a082019290925260c081019190915260085460ff166002036117925760405163558a1e0360e11b815260040160405180910390fd5b6040805160e0810182526008805460ff81168352610100810461ffff166020840152630100000081046001600160c01b031693830193909352600160d81b90920464ffffffffff1660608201526009546080820152600a546001600160a01b031660a0820152600b805491929160c08401919061180e90612e54565b80601f016020809104026020016040519081016040528092919081815260200182805461183a90612e54565b80156118855780601f1061185c57610100808354040283529160200191611885565b820191905f5260205f20905b81548152906001019060200180831161186857829003601f168201915b505050505081525050905090565b5f61189c611c3d565b5f805481806118aa83613001565b9190505590506118ba84826122c9565b6118c481846122e2565b5f81815260026020908152604080832042905560039091529020662386f26fc1000090559392505050565b5f81815260026020526040812054810361190a57505f919050565b5f828152600260205260408120546119229042612e9a565b5f8481526003602052604090205490915061193d9082612ead565b9392505050565b61194c611c3d565b600c546001600160a01b03161561199e5760405162461bcd60e51b815260206004820152601660248201527520b63932b0b23c9034b734ba34b0b634bd32b2102b1960511b60448201526064016108b0565b600c80546001600160a01b039092166001600160a01b031992831617905542600d81905560088054600a80549094163317909355673782dace9d90000060095562ffff001964ffffffffff909216600160d81b0262ffffff90931692909217685af3107a40000000001716610100179055565b6001600160a01b039182165f9081527f80bb2b638cc20bc4d0a60d66940f3ab4a00c1d7b313497ca82fb0b4ab00793056020908152604080832093909416825291909152205460ff1690565b611a65611c3d565b6001600160a01b038116611a8e57604051631e4fbdf760e01b81525f60048201526024016108b0565b611a9781611e20565b50565b5f6001600160e01b03198216632483248360e11b14806107c157506107c182612354565b5f80611ac9836123a3565b90506001600160a01b0381166107c157604051637e27328960e01b8152600481018490526024016108b0565b5f9081527f80bb2b638cc20bc4d0a60d66940f3ab4a00c1d7b313497ca82fb0b4ab007930460205260409020546001600160a01b031690565b610ab383838360016123dc565b5f5f805160206130d183398151915281611b54856123a3565b90506001600160a01b03841615611b7057611b708185876124ef565b6001600160a01b03811615611bac57611b8b5f865f806123dc565b6001600160a01b0381165f908152600383016020526040902080545f190190555b6001600160a01b03861615611bdc576001600160a01b0386165f9081526003830160205260409020805460010190555b5f85815260028301602052604080822080546001600160a01b0319166001600160a01b038a811691821790925591518893918516917fddf252ad1be2c89b69c2b068fc378daa952ba7f163c4a11628f55a4df523b3ef91a495945050505050565b33611c46610e5c565b6001600160a01b031614610cfc5760405163118cdaa760e01b81523360048201526024016108b0565b306001600160a01b037f0000000000000000000000000000000000000000000000000000000000000000161480611cf557507f00000000000000000000000000000000000000000000000000000000000000006001600160a01b0316611ce95f805160206130f1833981519152546001600160a01b031690565b6001600160a01b031614155b15610cfc5760405163703e46dd60e11b815260040160405180910390fd5b611a97611c3d565b816001600160a01b03166352d1902d6040518163ffffffff1660e01b8152600401602060405180830381865afa925050508015611d75575060408051601f3d908101601f19168201909252611d7291810190613019565b60015b611d9d57604051634c9c8ce360e01b81526001600160a01b03831660048201526024016108b0565b5f805160206130f18339815191528114611dcd57604051632a87526960e21b8152600481018290526024016108b0565b610ab38383612553565b306001600160a01b037f00000000000000000000000000000000000000000000000000000000000000001614610cfc5760405163703e46dd60e11b815260040160405180910390fd5b7f9016d09d72d40fdae2fd8ceac6b6234c7706214fd39c1cd1e609a0528c19930080546001600160a01b031981166001600160a01b03848116918217845560405192169182907f8be0079c531659141344cd1fd0a4f28419497f9722a3daafe3b4186f6b6457e0905f90a3505050565b5f807ff0c57e16840df040f15088dc2f81fe391c3923bec73e23a9662efc9c229c6a006107c1565b611ec06125a8565b61088782826125cd565b610cfc6125a8565b611eda6125a8565b611a97816125fd565b5f80826060015164ffffffffff1642611efc9190612e9a565b9050610e10811115611f1057505f92915050565b610e108184604001516001600160c01b0316611f2c9190612ead565b611f369190612ec4565b83604001516001600160c01b031661193d9190612e9a565b5f600d545f03611f675750673782dace9d900000919050565b5f600d54831115611f935762278d00600d5484611f849190612e9a565b611f8e9190612ec4565b611f95565b5f5b673782dace9d900000811c92509050662386f26fc10000821015611fbe57662386f26fc1000091505b50919050565b5f805160206130d18339815191526001600160a01b03831661200457604051630b61174360e31b81526001600160a01b03841660048201526024016108b0565b6001600160a01b038481165f818152600584016020908152604080832094881680845294825291829020805460ff191687151590811790915591519182527f17307eab39ab6107e8899845ad3d59bd9653f200f220920489ca2b5937696c31910160405180910390a350505050565b6001600160a01b0383163b15610e5557604051630a85bd0160e11b81526001600160a01b0384169063150b7a02906120b5908890889087908790600401613030565b6020604051808303815f875af19250505080156120ef575060408051601f3d908101601f191682019092526120ec9181019061306c565b60015b612156573d80801561211c576040519150601f19603f3d011682016040523d82523d5f602084013e612121565b606091505b5080515f0361214e57604051633250574960e11b81526001600160a01b03851660048201526024016108b0565b805160208201fd5b6001600160e01b03198116630a85bd0160e11b1461219257604051633250574960e11b81526001600160a01b03851660048201526024016108b0565b505050505050565b60607f0542a41881ee128a365a727b282c86fa859579490b9bb45aab8503648c8e79006121c683611abe565b505f83815260208290526040812080546121df90612e54565b80601f016020809104026020016040519081016040528092919081815260200182805461220b90612e54565b80156122565780601f1061222d57610100808354040283529160200191612256565b820191905f5260205f20905b81548152906001019060200180831161223957829003601f168201915b505050505090505f61227260408051602081019091525f815290565b905080515f0361228457509392505050565b8151156122b757808260405160200161229e929190613087565b6040516020818303038152906040529350505050919050565b6122c085612605565b95945050505050565b610887828260405180602001604052805f815250612675565b5f8281527f0542a41881ee128a365a727b282c86fa859579490b9bb45aab8503648c8e79006020819052604090912061231b8382612f27565b506040518381527ff8e1a15aba9398e019f0b49df1a4fde98ee17ae345cb5f6b5e2c27f5033e8ce79060200160405180910390a1505050565b5f6001600160e01b031982166380ac58cd60e01b148061238457506001600160e01b03198216635b5e139f60e01b145b806107c157506301ffc9a760e01b6001600160e01b03198316146107c1565b5f9081527f80bb2b638cc20bc4d0a60d66940f3ab4a00c1d7b313497ca82fb0b4ab007930260205260409020546001600160a01b031690565b5f805160206130d183398151915281806123fe57506001600160a01b03831615155b156124bf575f61240d85611abe565b90506001600160a01b038416158015906124395750836001600160a01b0316816001600160a01b031614155b801561244c575061244a8185611a11565b155b156124755760405163a9fbf51f60e01b81526001600160a01b03851660048201526024016108b0565b82156124bd5784866001600160a01b0316826001600160a01b03167f8c5be1e5ebec7d5bd14f71427d1e84f3dd0314c0f7b2291e5b200ac8c7c3b92560405160405180910390a45b505b5f93845260040160205250506040902080546001600160a01b0319166001600160a01b0392909216919091179055565b6124fa83838361268c565b610ab3576001600160a01b03831661252857604051637e27328960e01b8152600481018290526024016108b0565b60405163177e802f60e01b81526001600160a01b0383166004820152602481018290526044016108b0565b61255c826126f1565b6040516001600160a01b038316907fbc7cd75a20ee27fd9adebab32041f755214dbc6bffa90cc0225b39da2e5c2d3b905f90a28051156125a057610ab38282612754565b6108876127bd565b6125b06127dc565b610cfc57604051631afcd79f60e31b815260040160405180910390fd5b6125d56125a8565b5f805160206130d1833981519152806125ee8482612f27565b50600181016109138382612f27565b611a656125a8565b606061261082611abe565b505f61262660408051602081019091525f815290565b90505f8151116126445760405180602001604052805f81525061193d565b8061264e846127f5565b60405160200161265f929190613087565b6040516020818303038152906040529392505050565b61267f8383612885565b610ab3335f858585612073565b5f6001600160a01b038316158015906126e95750826001600160a01b0316846001600160a01b031614806126c557506126c58484611a11565b806126e95750826001600160a01b03166126de83611af5565b6001600160a01b0316145b949350505050565b806001600160a01b03163b5f0361272657604051634c9c8ce360e01b81526001600160a01b03821660048201526024016108b0565b5f805160206130f183398151915280546001600160a01b0319166001600160a01b0392909216919091179055565b60605f80846001600160a01b03168460405161277091906130b5565b5f60405180830381855af49150503d805f81146127a8576040519150601f19603f3d011682016040523d82523d5f602084013e6127ad565b606091505b50915091506122c08583836128e6565b3415610cfc5760405163b398979f60e01b815260040160405180910390fd5b5f6127e5611e90565b54600160401b900460ff16919050565b60605f61280183612942565b60010190505f8167ffffffffffffffff81111561282057612820612be2565b6040519080825280601f01601f19166020018201604052801561284a576020820181803683370190505b5090508181016020015b5f19016f181899199a1a9b1b9c1cb0b131b232b360811b600a86061a8153600a850494508461285457509392505050565b6001600160a01b0382166128ae57604051633250574960e11b81525f60048201526024016108b0565b5f6128ba83835f611b3b565b90506001600160a01b03811615610ab3576040516339e3563760e11b81525f60048201526024016108b0565b6060826128fb576128f682612a19565b61193d565b815115801561291257506001600160a01b0384163b155b1561293b57604051639996b31560e01b81526001600160a01b03851660048201526024016108b0565b508061193d565b5f8072184f03e93ff9f4daa797ed6e38ed64bf6a1f0160401b83106129805772184f03e93ff9f4daa797ed6e38ed64bf6a1f0160401b830492506040015b6d04ee2d6d415b85acef810000000083106129ac576d04ee2d6d415b85acef8100000000830492506020015b662386f26fc1000083106129ca57662386f26fc10000830492506010015b6305f5e10083106129e2576305f5e100830492506008015b61271083106129f657612710830492506004015b60648310612a08576064830492506002015b600a83106107c15760010192915050565b805115612a2857805160208201fd5b60405163d6bda27560e01b815260040160405180910390fd5b6001600160e01b031981168114611a97575f80fd5b5f60208284031215612a66575f80fd5b813561193d81612a41565b5f5b83811015612a8b578181015183820152602001612a73565b50505f910152565b5f8151808452612aaa816020860160208601612a71565b601f01601f19169290920160200192915050565b602081525f61193d6020830184612a93565b5f60208284031215612ae0575f80fd5b5035919050565b80356001600160a01b0381168114612afd575f80fd5b919050565b5f8060408385031215612b13575f80fd5b612b1c83612ae7565b946020939093013593505050565b5f805f60608486031215612b3c575f80fd5b612b4584612ae7565b9250612b5360208501612ae7565b9150604084013590509250925092565b60ff8816815261ffff871660208201526001600160c01b038616604082015264ffffffffff85166060820152608081018490526001600160a01b03831660a082015260e060c082018190525f90612bbc90830184612a93565b9998505050505050505050565b5f60208284031215612bd9575f80fd5b61193d82612ae7565b634e487b7160e01b5f52604160045260245ffd5b5f82601f830112612c05575f80fd5b813567ffffffffffffffff80821115612c2057612c20612be2565b604051601f8301601f19908116603f01168101908282118183101715612c4857612c48612be2565b81604052838152866020858801011115612c60575f80fd5b836020870160208301375f602085830101528094505050505092915050565b5f8060408385031215612c90575f80fd5b612c9983612ae7565b9150602083013567ffffffffffffffff811115612cb4575f80fd5b612cc085828601612bf6565b9150509250929050565b5f805f8060808587031215612cdd575f80fd5b843593506020850135925060408501359150606085013567ffffffffffffffff811115612d08575f80fd5b612d1487828801612bf6565b91505092959194509250565b5f8060408385031215612d31575f80fd5b612d3a83612ae7565b915060208301358015158114612d4e575f80fd5b809150509250929050565b5f805f8060808587031215612d6c575f80fd5b612d7585612ae7565b9350612d8360208601612ae7565b925060408501359150606085013567ffffffffffffffff811115612d08575f80fd5b6020815260ff825116602082015261ffff602083015116604082015260018060c01b03604083015116606082015264ffffffffff6060830151166080820152608082015160a08201525f60a0830151612e0960c08401826001600160a01b03169052565b5060c083015160e0808401526126e9610100840182612a93565b5f8060408385031215612e34575f80fd5b612e3d83612ae7565b9150612e4b60208401612ae7565b90509250929050565b600181811c90821680612e6857607f821691505b602082108103611fbe57634e487b7160e01b5f52602260045260245ffd5b634e487b7160e01b5f52601160045260245ffd5b818103818111156107c1576107c1612e86565b80820281158282048414176107c1576107c1612e86565b5f82612ede57634e487b7160e01b5f52601260045260245ffd5b500490565b601f821115610ab357805f5260205f20601f840160051c81016020851015612f085750805b601f840160051c820191505b81811015610e55575f8155600101612f14565b815167ffffffffffffffff811115612f4157612f41612be2565b612f5581612f4f8454612e54565b84612ee3565b602080601f831160018114612f88575f8415612f715750858301515b5f19600386901b1c1916600185901b178555612192565b5f85815260208120601f198616915b82811015612fb657888601518255948401946001909101908401612f97565b5085821015612fd357878501515f19600388901b60f8161c191681555b5050505050600190811b01905550565b838152826020820152606060408201525f6122c06060830184612a93565b5f6001820161301257613012612e86565b5060010190565b5f60208284031215613029575f80fd5b5051919050565b6001600160a01b03858116825284166020820152604081018390526080606082018190525f9061306290830184612a93565b9695505050505050565b5f6020828403121561307c575f80fd5b815161193d81612a41565b5f8351613098818460208801612a71565b8351908301906130ac818360208801612a71565b01949350505050565b5f82516130c6818460208701612a71565b919091019291505056fe80bb2b638cc20bc4d0a60d66940f3ab4a00c1d7b313497ca82fb0b4ab0079300360894a13ba1a3210667c828492db98dca3e2076cc3735a920a3ca505d382bbca2646970667358221220e254b430ddca3a25966e60776d79cccefe87351de979506480716eec8bfade9864736f6c63430008180033","opcodes":"PUSH1 0xA0 PUSH1 0x40 MSTORE ADDRESS PUSH1 0x80 MSTORE CALLVALUE DUP1 ISZERO PUSH3 0x14 JUMPI PUSH0 DUP1 REVERT JUMPDEST POP PUSH3 0x1F PUSH3 0x25 JUMP JUMPDEST PUSH3 0xD9 JUMP JUMPDEST PUSH32 0xF0C57E16840DF040F15088DC2F81FE391C3923BEC73E23A9662EFC9C229C6A00 DUP1 SLOAD PUSH9 0x10000000000000000 SWAP1 DIV PUSH1 0xFF AND ISZERO PUSH3 0x76 JUMPI PUSH1 0x40 MLOAD PUSH4 0xF92EE8A9 PUSH1 0xE0 SHL DUP2 MSTORE PUSH1 0x4 ADD PUSH1 0x40 MLOAD DUP1 SWAP2 SUB SWAP1 REVERT JUMPDEST DUP1 SLOAD PUSH1 0x1 PUSH1 0x1 PUSH1 0x40 SHL SUB SWAP1 DUP2 AND EQ PUSH3 0xD6 JUMPI DUP1 SLOAD PUSH1 0x1 PUSH1 0x1 PUSH1 0x40 SHL SUB NOT AND PUSH1 0x1 PUSH1 0x1 PUSH1 0x40 SHL SUB SWAP1 DUP2 OR DUP3 SSTORE PUSH1 0x40 MLOAD SWAP1 DUP2 MSTORE PUSH32 0xC7F505B2F371AE2175EE4913F4499E1F2633A7B5936321EED1CDAEB6115181D2 SWAP1 PUSH1 0x20 ADD PUSH1 0x40 MLOAD DUP1 SWAP2 SUB SWAP1 LOG1 JUMPDEST POP JUMP JUMPDEST PUSH1 0x80 MLOAD PUSH2 0x3146 PUSH3 0x100 PUSH0 CODECOPY PUSH0 DUP2 DUP2 PUSH2 0x1C7A ADD MSTORE DUP2 DUP2 PUSH2 0x1CA3 ADD MSTORE PUSH2 0x1DE2 ADD MSTORE PUSH2 0x3146 PUSH0 RETURN INVALID PUSH1 0x80 PUSH1 0x40 MSTORE PUSH1 0x4 CALLDATASIZE LT PUSH2 0x280 JUMPI PUSH0 CALLDATALOAD PUSH1 0xE0 SHR DUP1 PUSH4 0x877DAB7E GT PUSH2 0x155 JUMPI DUP1 PUSH4 0xAD3CB1CC GT PUSH2 0xBE JUMPI DUP1 PUSH4 0xD204C45E GT PUSH2 0x78 JUMPI DUP1 PUSH4 0xD204C45E EQ PUSH2 0x703 JUMPI DUP1 PUSH4 0xE5EB39EC EQ PUSH2 0x722 JUMPI DUP1 PUSH4 0xE69BE3F3 EQ PUSH2 0x741 JUMPI DUP1 PUSH4 0xE985E9C5 EQ PUSH2 0x760 JUMPI DUP1 PUSH4 0xEF2E0D25 EQ PUSH2 0x77F JUMPI DUP1 PUSH4 0xF2FDE38B EQ PUSH2 0x798 JUMPI PUSH0 DUP1 REVERT JUMPDEST DUP1 PUSH4 0xAD3CB1CC EQ PUSH2 0x64B JUMPI DUP1 PUSH4 0xB0A13A5C EQ PUSH2 0x67B JUMPI DUP1 PUSH4 0xB88D4FDE EQ PUSH2 0x68F JUMPI DUP1 PUSH4 0xC57981B5 EQ PUSH2 0x6AE JUMPI DUP1 PUSH4 0xC87B56DD EQ PUSH2 0x6C3 JUMPI DUP1 PUSH4 0xC9AE5E0C EQ PUSH2 0x6E2 JUMPI PUSH0 DUP1 REVERT JUMPDEST DUP1 PUSH4 0x9C511AD4 GT PUSH2 0x10F JUMPI DUP1 PUSH4 0x9C511AD4 EQ PUSH2 0x5CE JUMPI DUP1 PUSH4 0x9E421726 EQ PUSH2 0x5E3 JUMPI DUP1 PUSH4 0xA22CB465 EQ PUSH2 0x5F6 JUMPI DUP1 PUSH4 0xA2E66A0F EQ PUSH2 0x615 JUMPI DUP1 PUSH4 0xA3E860FE EQ PUSH2 0x284 JUMPI DUP1 PUSH4 0xAAF5EB68 EQ PUSH2 0x630 JUMPI PUSH0 DUP1 REVERT JUMPDEST DUP1 PUSH4 0x877DAB7E EQ PUSH2 0x54D JUMPI DUP1 PUSH4 0x87995660 EQ PUSH2 0x36E JUMPI DUP1 PUSH4 0x88F4B49E EQ PUSH2 0x578 JUMPI DUP1 PUSH4 0x8DA5CB5B EQ PUSH2 0x592 JUMPI DUP1 PUSH4 0x95D89B41 EQ PUSH2 0x5A6 JUMPI DUP1 PUSH4 0x98D5FDCA EQ PUSH2 0x5BA JUMPI PUSH0 DUP1 REVERT JUMPDEST DUP1 PUSH4 0x3DBC71FA GT PUSH2 0x1F7 JUMPI DUP1 PUSH4 0x5FEA89F1 GT PUSH2 0x1B1 JUMPI DUP1 PUSH4 0x5FEA89F1 EQ PUSH2 0x49D JUMPI DUP1 PUSH4 0x61D027B3 EQ PUSH2 0x4C8 JUMPI DUP1 PUSH4 0x6352211E EQ PUSH2 0x4E7 JUMPI DUP1 PUSH4 0x70A08231 EQ PUSH2 0x506 JUMPI DUP1 PUSH4 0x715018A6 EQ PUSH2 0x525 JUMPI DUP1 PUSH4 0x8129FC1C EQ PUSH2 0x539 JUMPI PUSH0 DUP1 REVERT JUMPDEST DUP1 PUSH4 0x3DBC71FA EQ PUSH2 0x3FA JUMPI DUP1 PUSH4 0x42842E0E EQ PUSH2 0x419 JUMPI DUP1 PUSH4 0x467C5ADF EQ PUSH2 0x438 JUMPI DUP1 PUSH4 0x46E04A2F EQ PUSH2 0x457 JUMPI DUP1 PUSH4 0x4F1EF286 EQ PUSH2 0x476 JUMPI DUP1 PUSH4 0x52D1902D EQ PUSH2 0x489 JUMPI PUSH0 DUP1 REVERT JUMPDEST DUP1 PUSH4 0x95EA7B3 GT PUSH2 0x248 JUMPI DUP1 PUSH4 0x95EA7B3 EQ PUSH2 0x34D JUMPI DUP1 PUSH4 0x113990B8 EQ PUSH2 0x36E JUMPI DUP1 PUSH4 0x23B872DD EQ PUSH2 0x389 JUMPI DUP1 PUSH4 0x3410FE6E EQ PUSH2 0x3A8 JUMPI DUP1 PUSH4 0x3850C7BD EQ PUSH2 0x3BD JUMPI DUP1 PUSH4 0x3ADDE9C1 EQ PUSH2 0x3E4 JUMPI PUSH0 DUP1 REVERT JUMPDEST DUP1 PUSH4 0x169916A EQ PUSH2 0x284 JUMPI DUP1 PUSH4 0x1FFC9A7 EQ PUSH2 0x2B1 JUMPI DUP1 PUSH4 0x6FDDE03 EQ PUSH2 0x2E0 JUMPI DUP1 PUSH4 0x7D2E1E2 EQ PUSH2 0x301 JUMPI DUP1 PUSH4 0x81812FC EQ PUSH2 0x316 JUMPI JUMPDEST PUSH0 DUP1 REVERT JUMPDEST CALLVALUE DUP1 ISZERO PUSH2 0x28F JUMPI PUSH0 DUP1 REVERT JUMPDEST POP PUSH2 0x29E PUSH7 0x2386F26FC10000 DUP2 JUMP JUMPDEST PUSH1 0x40 MLOAD SWAP1 DUP2 MSTORE PUSH1 0x20 ADD JUMPDEST PUSH1 0x40 MLOAD DUP1 SWAP2 SUB SWAP1 RETURN JUMPDEST CALLVALUE DUP1 ISZERO PUSH2 0x2BC JUMPI PUSH0 DUP1 REVERT JUMPDEST POP PUSH2 0x2D0 PUSH2 0x2CB CALLDATASIZE PUSH1 0x4 PUSH2 0x2A56 JUMP JUMPDEST PUSH2 0x7B7 JUMP JUMPDEST PUSH1 0x40 MLOAD SWAP1 ISZERO ISZERO DUP2 MSTORE PUSH1 0x20 ADD PUSH2 0x2A8 JUMP JUMPDEST CALLVALUE DUP1 ISZERO PUSH2 0x2EB JUMPI PUSH0 DUP1 REVERT JUMPDEST POP PUSH2 0x2F4 PUSH2 0x7C7 JUMP JUMPDEST PUSH1 0x40 MLOAD PUSH2 0x2A8 SWAP2 SWAP1 PUSH2 0x2ABE JUMP JUMPDEST CALLVALUE DUP1 ISZERO PUSH2 0x30C JUMPI PUSH0 DUP1 REVERT JUMPDEST POP PUSH2 0x29E PUSH1 0xD SLOAD DUP2 JUMP JUMPDEST CALLVALUE DUP1 ISZERO PUSH2 0x321 JUMPI PUSH0 DUP1 REVERT JUMPDEST POP PUSH2 0x335 PUSH2 0x330 CALLDATASIZE PUSH1 0x4 PUSH2 0x2AD0 JUMP JUMPDEST PUSH2 0x868 JUMP JUMPDEST PUSH1 0x40 MLOAD PUSH1 0x1 PUSH1 0x1 PUSH1 0xA0 SHL SUB SWAP1 SWAP2 AND DUP2 MSTORE PUSH1 0x20 ADD PUSH2 0x2A8 JUMP JUMPDEST CALLVALUE DUP1 ISZERO PUSH2 0x358 JUMPI PUSH0 DUP1 REVERT JUMPDEST POP PUSH2 0x36C PUSH2 0x367 CALLDATASIZE PUSH1 0x4 PUSH2 0x2B02 JUMP JUMPDEST PUSH2 0x87C JUMP JUMPDEST STOP JUMPDEST CALLVALUE DUP1 ISZERO PUSH2 0x379 JUMPI PUSH0 DUP1 REVERT JUMPDEST POP PUSH2 0x29E PUSH8 0x1BC16D674EC80000 DUP2 JUMP JUMPDEST CALLVALUE DUP1 ISZERO PUSH2 0x394 JUMPI PUSH0 DUP1 REVERT JUMPDEST POP PUSH2 0x36C PUSH2 0x3A3 CALLDATASIZE PUSH1 0x4 PUSH2 0x2B2A JUMP JUMPDEST PUSH2 0x88B JUMP JUMPDEST CALLVALUE DUP1 ISZERO PUSH2 0x3B3 JUMPI PUSH0 DUP1 REVERT JUMPDEST POP PUSH2 0x29E PUSH2 0x2710 DUP2 JUMP JUMPDEST CALLVALUE DUP1 ISZERO PUSH2 0x3C8 JUMPI PUSH0 DUP1 REVERT JUMPDEST POP PUSH2 0x3D1 PUSH2 0x919 JUMP JUMPDEST PUSH1 0x40 MLOAD PUSH2 0x2A8 SWAP8 SWAP7 SWAP6 SWAP5 SWAP4 SWAP3 SWAP2 SWAP1 PUSH2 0x2B63 JUMP JUMPDEST CALLVALUE DUP1 ISZERO PUSH2 0x3EF JUMPI PUSH0 DUP1 REVERT JUMPDEST POP PUSH2 0x29E PUSH3 0x278D00 DUP2 JUMP JUMPDEST CALLVALUE DUP1 ISZERO PUSH2 0x405 JUMPI PUSH0 DUP1 REVERT JUMPDEST POP PUSH2 0x36C PUSH2 0x414 CALLDATASIZE PUSH1 0x4 PUSH2 0x2BC9 JUMP JUMPDEST PUSH2 0x9EF JUMP JUMPDEST CALLVALUE DUP1 ISZERO PUSH2 0x424 JUMPI PUSH0 DUP1 REVERT JUMPDEST POP PUSH2 0x36C PUSH2 0x433 CALLDATASIZE PUSH1 0x4 PUSH2 0x2B2A JUMP JUMPDEST PUSH2 0xA99 JUMP JUMPDEST CALLVALUE DUP1 ISZERO PUSH2 0x443 JUMPI PUSH0 DUP1 REVERT JUMPDEST POP PUSH1 0x1 SLOAD PUSH2 0x335 SWAP1 PUSH1 0x1 PUSH1 0x1 PUSH1 0xA0 SHL SUB AND DUP2 JUMP JUMPDEST CALLVALUE DUP1 ISZERO PUSH2 0x462 JUMPI PUSH0 DUP1 REVERT JUMPDEST POP PUSH2 0x36C PUSH2 0x471 CALLDATASIZE PUSH1 0x4 PUSH2 0x2AD0 JUMP JUMPDEST PUSH2 0xAB8 JUMP JUMPDEST PUSH2 0x36C PUSH2 0x484 CALLDATASIZE PUSH1 0x4 PUSH2 0x2C7F JUMP JUMPDEST PUSH2 0xC53 JUMP JUMPDEST CALLVALUE DUP1 ISZERO PUSH2 0x494 JUMPI PUSH0 DUP1 REVERT JUMPDEST POP PUSH2 0x29E PUSH2 0xC6E JUMP JUMPDEST CALLVALUE DUP1 ISZERO PUSH2 0x4A8 JUMPI PUSH0 DUP1 REVERT JUMPDEST POP PUSH2 0x29E PUSH2 0x4B7 CALLDATASIZE PUSH1 0x4 PUSH2 0x2AD0 JUMP JUMPDEST PUSH1 0x3 PUSH1 0x20 MSTORE PUSH0 SWAP1 DUP2 MSTORE PUSH1 0x40 SWAP1 KECCAK256 SLOAD DUP2 JUMP JUMPDEST CALLVALUE DUP1 ISZERO PUSH2 0x4D3 JUMPI PUSH0 DUP1 REVERT JUMPDEST POP PUSH1 0xC SLOAD PUSH2 0x335 SWAP1 PUSH1 0x1 PUSH1 0x1 PUSH1 0xA0 SHL SUB AND DUP2 JUMP JUMPDEST CALLVALUE DUP1 ISZERO PUSH2 0x4F2 JUMPI PUSH0 DUP1 REVERT JUMPDEST POP PUSH2 0x335 PUSH2 0x501 CALLDATASIZE PUSH1 0x4 PUSH2 0x2AD0 JUMP JUMPDEST PUSH2 0xC89 JUMP JUMPDEST CALLVALUE DUP1 ISZERO PUSH2 0x511 JUMPI PUSH0 DUP1 REVERT JUMPDEST POP PUSH2 0x29E PUSH2 0x520 CALLDATASIZE PUSH1 0x4 PUSH2 0x2BC9 JUMP JUMPDEST PUSH2 0xC93 JUMP JUMPDEST CALLVALUE DUP1 ISZERO PUSH2 0x530 JUMPI PUSH0 DUP1 REVERT JUMPDEST POP PUSH2 0x36C PUSH2 0xCEB JUMP JUMPDEST CALLVALUE DUP1 ISZERO PUSH2 0x544 JUMPI PUSH0 DUP1 REVERT JUMPDEST POP PUSH2 0x36C PUSH2 0xCFE JUMP JUMPDEST CALLVALUE DUP1 ISZERO PUSH2 0x558 JUMPI PUSH0 DUP1 REVERT JUMPDEST POP PUSH2 0x29E PUSH2 0x567 CALLDATASIZE PUSH1 0x4 PUSH2 0x2AD0 JUMP JUMPDEST PUSH1 0x2 PUSH1 0x20 MSTORE PUSH0 SWAP1 DUP2 MSTORE PUSH1 0x40 SWAP1 KECCAK256 SLOAD DUP2 JUMP JUMPDEST CALLVALUE DUP1 ISZERO PUSH2 0x583 JUMPI PUSH0 DUP1 REVERT JUMPDEST POP PUSH2 0x29E PUSH1 0x1 PUSH1 0x1 PUSH1 0xC0 SHL SUB DUP2 JUMP JUMPDEST CALLVALUE DUP1 ISZERO PUSH2 0x59D JUMPI PUSH0 DUP1 REVERT JUMPDEST POP PUSH2 0x335 PUSH2 0xE5C JUMP JUMPDEST CALLVALUE DUP1 ISZERO PUSH2 0x5B1 JUMPI PUSH0 DUP1 REVERT JUMPDEST POP PUSH2 0x2F4 PUSH2 0xE8A JUMP JUMPDEST CALLVALUE DUP1 ISZERO PUSH2 0x5C5 JUMPI PUSH0 DUP1 REVERT JUMPDEST POP PUSH2 0x29E PUSH2 0xEC8 JUMP JUMPDEST CALLVALUE DUP1 ISZERO PUSH2 0x5D9 JUMPI PUSH0 DUP1 REVERT JUMPDEST POP PUSH2 0x29E PUSH2 0xE10 DUP2 JUMP JUMPDEST PUSH2 0x29E PUSH2 0x5F1 CALLDATASIZE PUSH1 0x4 PUSH2 0x2CCA JUMP JUMPDEST PUSH2 0xFF7 JUMP JUMPDEST CALLVALUE DUP1 ISZERO PUSH2 0x601 JUMPI PUSH0 DUP1 REVERT JUMPDEST POP PUSH2 0x36C PUSH2 0x610 CALLDATASIZE PUSH1 0x4 PUSH2 0x2D20 JUMP JUMPDEST PUSH2 0x16D5 JUMP JUMPDEST CALLVALUE DUP1 ISZERO PUSH2 0x620 JUMPI PUSH0 DUP1 REVERT JUMPDEST POP PUSH2 0x29E PUSH8 0x3782DACE9D900000 DUP2 JUMP JUMPDEST CALLVALUE DUP1 ISZERO PUSH2 0x63B JUMPI PUSH0 DUP1 REVERT JUMPDEST POP PUSH2 0x29E PUSH8 0xDE0B6B3A7640000 DUP2 JUMP JUMPDEST CALLVALUE DUP1 ISZERO PUSH2 0x656 JUMPI PUSH0 DUP1 REVERT JUMPDEST POP PUSH2 0x2F4 PUSH1 0x40 MLOAD DUP1 PUSH1 0x40 ADD PUSH1 0x40 MSTORE DUP1 PUSH1 0x5 DUP2 MSTORE PUSH1 0x20 ADD PUSH5 0x352E302E3 PUSH1 0xDC SHL DUP2 MSTORE POP DUP2 JUMP JUMPDEST CALLVALUE DUP1 ISZERO PUSH2 0x686 JUMPI PUSH0 DUP1 REVERT JUMPDEST POP PUSH2 0x29E PUSH2 0x16E0 JUMP JUMPDEST CALLVALUE DUP1 ISZERO PUSH2 0x69A JUMPI PUSH0 DUP1 REVERT JUMPDEST POP PUSH2 0x36C PUSH2 0x6A9 CALLDATASIZE PUSH1 0x4 PUSH2 0x2D59 JUMP JUMPDEST PUSH2 0x170F JUMP JUMPDEST CALLVALUE DUP1 ISZERO PUSH2 0x6B9 JUMPI PUSH0 DUP1 REVERT JUMPDEST POP PUSH2 0x29E PUSH2 0x7D0 DUP2 JUMP JUMPDEST CALLVALUE DUP1 ISZERO PUSH2 0x6CE JUMPI PUSH0 DUP1 REVERT JUMPDEST POP PUSH2 0x2F4 PUSH2 0x6DD CALLDATASIZE PUSH1 0x4 PUSH2 0x2AD0 JUMP JUMPDEST PUSH2 0x1727 JUMP JUMPDEST CALLVALUE DUP1 ISZERO PUSH2 0x6ED JUMPI PUSH0 DUP1 REVERT JUMPDEST POP PUSH2 0x6F6 PUSH2 0x1732 JUMP JUMPDEST PUSH1 0x40 MLOAD PUSH2 0x2A8 SWAP2 SWAP1 PUSH2 0x2DA5 JUMP JUMPDEST CALLVALUE DUP1 ISZERO PUSH2 0x70E JUMPI PUSH0 DUP1 REVERT JUMPDEST POP PUSH2 0x29E PUSH2 0x71D CALLDATASIZE PUSH1 0x4 PUSH2 0x2C7F JUMP JUMPDEST PUSH2 0x1893 JUMP JUMPDEST CALLVALUE DUP1 ISZERO PUSH2 0x72D JUMPI PUSH0 DUP1 REVERT JUMPDEST POP PUSH2 0x29E PUSH2 0x73C CALLDATASIZE PUSH1 0x4 PUSH2 0x2AD0 JUMP JUMPDEST PUSH2 0x18EF JUMP JUMPDEST CALLVALUE DUP1 ISZERO PUSH2 0x74C JUMPI PUSH0 DUP1 REVERT JUMPDEST POP PUSH2 0x36C PUSH2 0x75B CALLDATASIZE PUSH1 0x4 PUSH2 0x2BC9 JUMP JUMPDEST PUSH2 0x1944 JUMP JUMPDEST CALLVALUE DUP1 ISZERO PUSH2 0x76B JUMPI PUSH0 DUP1 REVERT JUMPDEST POP PUSH2 0x2D0 PUSH2 0x77A CALLDATASIZE PUSH1 0x4 PUSH2 0x2E23 JUMP JUMPDEST PUSH2 0x1A11 JUMP JUMPDEST CALLVALUE DUP1 ISZERO PUSH2 0x78A JUMPI PUSH0 DUP1 REVERT JUMPDEST POP PUSH2 0x29E PUSH6 0x5AF3107A4000 DUP2 JUMP JUMPDEST CALLVALUE DUP1 ISZERO PUSH2 0x7A3 JUMPI PUSH0 DUP1 REVERT JUMPDEST POP PUSH2 0x36C PUSH2 0x7B2 CALLDATASIZE PUSH1 0x4 PUSH2 0x2BC9 JUMP JUMPDEST PUSH2 0x1A5D JUMP JUMPDEST PUSH0 PUSH2 0x7C1 DUP3 PUSH2 0x1A9A JUMP JUMPDEST SWAP3 SWAP2 POP POP JUMP JUMPDEST PUSH0 DUP1 MLOAD PUSH1 0x20 PUSH2 0x30D1 DUP4 CODECOPY DUP2 MLOAD SWAP2 MSTORE DUP1 SLOAD PUSH1 0x60 SWAP2 SWAP1 DUP2 SWAP1 PUSH2 0x7E6 SWAP1 PUSH2 0x2E54 JUMP JUMPDEST DUP1 PUSH1 0x1F ADD PUSH1 0x20 DUP1 SWAP2 DIV MUL PUSH1 0x20 ADD PUSH1 0x40 MLOAD SWAP1 DUP2 ADD PUSH1 0x40 MSTORE DUP1 SWAP3 SWAP2 SWAP1 DUP2 DUP2 MSTORE PUSH1 0x20 ADD DUP3 DUP1 SLOAD PUSH2 0x812 SWAP1 PUSH2 0x2E54 JUMP JUMPDEST DUP1 ISZERO PUSH2 0x85D JUMPI DUP1 PUSH1 0x1F LT PUSH2 0x834 JUMPI PUSH2 0x100 DUP1 DUP4 SLOAD DIV MUL DUP4 MSTORE SWAP2 PUSH1 0x20 ADD SWAP2 PUSH2 0x85D JUMP JUMPDEST DUP3 ADD SWAP2 SWAP1 PUSH0 MSTORE PUSH1 0x20 PUSH0 KECCAK256 SWAP1 JUMPDEST DUP2 SLOAD DUP2 MSTORE SWAP1 PUSH1 0x1 ADD SWAP1 PUSH1 0x20 ADD DUP1 DUP4 GT PUSH2 0x840 JUMPI DUP3 SWAP1 SUB PUSH1 0x1F AND DUP3 ADD SWAP2 JUMPDEST POP POP POP POP POP SWAP2 POP POP SWAP1 JUMP JUMPDEST PUSH0 PUSH2 0x872 DUP3 PUSH2 0x1ABE JUMP JUMPDEST POP PUSH2 0x7C1 DUP3 PUSH2 0x1AF5 JUMP JUMPDEST PUSH2 0x887 DUP3 DUP3 CALLER PUSH2 0x1B2E JUMP JUMPDEST POP POP JUMP JUMPDEST PUSH1 0x1 PUSH1 0x1 PUSH1 0xA0 SHL SUB DUP3 AND PUSH2 0x8B9 JUMPI PUSH1 0x40 MLOAD PUSH4 0x32505749 PUSH1 0xE1 SHL DUP2 MSTORE PUSH0 PUSH1 0x4 DUP3 ADD MSTORE PUSH1 0x24 ADD JUMPDEST PUSH1 0x40 MLOAD DUP1 SWAP2 SUB SWAP1 REVERT JUMPDEST PUSH0 PUSH2 0x8C5 DUP4 DUP4 CALLER PUSH2 0x1B3B JUMP JUMPDEST SWAP1 POP DUP4 PUSH1 0x1 PUSH1 0x1 PUSH1 0xA0 SHL SUB AND DUP2 PUSH1 0x1 PUSH1 0x1 PUSH1 0xA0 SHL SUB AND EQ PUSH2 0x913 JUMPI PUSH1 0x40 MLOAD PUSH4 0x64283D7B PUSH1 0xE0 SHL DUP2 MSTORE PUSH1 0x1 PUSH1 0x1 PUSH1 0xA0 SHL SUB DUP1 DUP7 AND PUSH1 0x4 DUP4 ADD MSTORE PUSH1 0x24 DUP3 ADD DUP5 SWAP1 MSTORE DUP3 AND PUSH1 0x44 DUP3 ADD MSTORE PUSH1 0x64 ADD PUSH2 0x8B0 JUMP JUMPDEST POP POP POP POP JUMP JUMPDEST PUSH1 0x8 DUP1 SLOAD PUSH1 0x9 SLOAD PUSH1 0xA SLOAD PUSH1 0xB DUP1 SLOAD PUSH1 0xFF DUP6 AND SWAP6 PUSH2 0x100 DUP7 DIV PUSH2 0xFFFF AND SWAP6 PUSH4 0x1000000 DUP2 DIV PUSH1 0x1 PUSH1 0x1 PUSH1 0xC0 SHL SUB AND SWAP6 PUSH1 0x1 PUSH1 0xD8 SHL SWAP1 SWAP2 DIV PUSH5 0xFFFFFFFFFF AND SWAP5 SWAP1 SWAP4 PUSH1 0x1 PUSH1 0x1 PUSH1 0xA0 SHL SUB SWAP1 SWAP2 AND SWAP3 PUSH2 0x96E SWAP1 PUSH2 0x2E54 JUMP JUMPDEST DUP1 PUSH1 0x1F ADD PUSH1 0x20 DUP1 SWAP2 DIV MUL PUSH1 0x20 ADD PUSH1 0x40 MLOAD SWAP1 DUP2 ADD PUSH1 0x40 MSTORE DUP1 SWAP3 SWAP2 SWAP1 DUP2 DUP2 MSTORE PUSH1 0x20 ADD DUP3 DUP1 SLOAD PUSH2 0x99A SWAP1 PUSH2 0x2E54 JUMP JUMPDEST DUP1 ISZERO PUSH2 0x9E5 JUMPI DUP1 PUSH1 0x1F LT PUSH2 0x9BC JUMPI PUSH2 0x100 DUP1 DUP4 SLOAD DIV MUL DUP4 MSTORE SWAP2 PUSH1 0x20 ADD SWAP2 PUSH2 0x9E5 JUMP JUMPDEST DUP3 ADD SWAP2 SWAP1 PUSH0 MSTORE PUSH1 0x20 PUSH0 KECCAK256 SWAP1 JUMPDEST DUP2 SLOAD DUP2 MSTORE SWAP1 PUSH1 0x1 ADD SWAP1 PUSH1 0x20 ADD DUP1 DUP4 GT PUSH2 0x9C8 JUMPI DUP3 SWAP1 SUB PUSH1 0x1F AND DUP3 ADD SWAP2 JUMPDEST POP POP POP POP POP SWAP1 POP DUP8 JUMP JUMPDEST PUSH2 0x9F7 PUSH2 0x1C3D JUMP JUMPDEST PUSH1 0x1 PUSH1 0x1 PUSH1 0xA0 SHL SUB DUP2 AND PUSH2 0xA3F JUMPI PUSH1 0x40 MLOAD PUSH3 0x461BCD PUSH1 0xE5 SHL DUP2 MSTORE PUSH1 0x20 PUSH1 0x4 DUP3 ADD MSTORE PUSH1 0xF PUSH1 0x24 DUP3 ADD MSTORE PUSH15 0x496E76616C69642061646472657373 PUSH1 0x88 SHL PUSH1 0x44 DUP3 ADD MSTORE PUSH1 0x64 ADD PUSH2 0x8B0 JUMP JUMPDEST PUSH1 0x1 SLOAD PUSH1 0x40 MLOAD PUSH1 0x1 PUSH1 0x1 PUSH1 0xA0 SHL SUB DUP1 DUP5 AND SWAP3 AND SWAP1 PUSH31 0x66A248680B348DE6844119BB393B395F8A5ED03B28A64049B28A4538AB3121 SWAP1 PUSH0 SWAP1 LOG3 PUSH1 0x1 DUP1 SLOAD PUSH1 0x1 PUSH1 0x1 PUSH1 0xA0 SHL SUB NOT AND PUSH1 0x1 PUSH1 0x1 PUSH1 0xA0 SHL SUB SWAP3 SWAP1 SWAP3 AND SWAP2 SWAP1 SWAP2 OR SWAP1 SSTORE JUMP JUMPDEST PUSH2 0xAB3 DUP4 DUP4 DUP4 PUSH1 0x40 MLOAD DUP1 PUSH1 0x20 ADD PUSH1 0x40 MSTORE DUP1 PUSH0 DUP2 MSTORE POP PUSH2 0x170F JUMP JUMPDEST POP POP POP JUMP JUMPDEST CALLER PUSH2 0xAC2 DUP3 PUSH2 0xC89 JUMP JUMPDEST PUSH1 0x1 PUSH1 0x1 PUSH1 0xA0 SHL SUB AND EQ PUSH2 0xB0A JUMPI PUSH1 0x40 MLOAD PUSH3 0x461BCD PUSH1 0xE5 SHL DUP2 MSTORE PUSH1 0x20 PUSH1 0x4 DUP3 ADD MSTORE PUSH1 0xF PUSH1 0x24 DUP3 ADD MSTORE PUSH15 0x2737BA103A37B5B2B71037BBB732B9 PUSH1 0x89 SHL PUSH1 0x44 DUP3 ADD MSTORE PUSH1 0x64 ADD PUSH2 0x8B0 JUMP JUMPDEST PUSH1 0x1 SLOAD PUSH1 0x1 PUSH1 0x1 PUSH1 0xA0 SHL SUB AND PUSH2 0xB56 JUMPI PUSH1 0x40 MLOAD PUSH3 0x461BCD PUSH1 0xE5 SHL DUP2 MSTORE PUSH1 0x20 PUSH1 0x4 DUP3 ADD MSTORE PUSH1 0x11 PUSH1 0x24 DUP3 ADD MSTORE PUSH17 0x12D9595C151BDAD95B881B9BDD081CD95D PUSH1 0x7A SHL PUSH1 0x44 DUP3 ADD MSTORE PUSH1 0x64 ADD PUSH2 0x8B0 JUMP JUMPDEST PUSH0 PUSH2 0xB60 DUP3 PUSH2 0x18EF JUMP JUMPDEST SWAP1 POP PUSH0 DUP2 GT PUSH2 0xBA5 JUMPI PUSH1 0x40 MLOAD PUSH3 0x461BCD PUSH1 0xE5 SHL DUP2 MSTORE PUSH1 0x20 PUSH1 0x4 DUP3 ADD MSTORE PUSH1 0x11 PUSH1 0x24 DUP3 ADD MSTORE PUSH17 0x4E6F20746F6B656E732070656E64696E67 PUSH1 0x78 SHL PUSH1 0x44 DUP3 ADD MSTORE PUSH1 0x64 ADD PUSH2 0x8B0 JUMP JUMPDEST PUSH0 DUP3 DUP2 MSTORE PUSH1 0x2 PUSH1 0x20 MSTORE PUSH1 0x40 SWAP1 DUP2 SWAP1 KECCAK256 TIMESTAMP SWAP1 SSTORE PUSH1 0x1 SLOAD SWAP1 MLOAD PUSH4 0x40C10F19 PUSH1 0xE0 SHL DUP2 MSTORE CALLER PUSH1 0x4 DUP3 ADD MSTORE PUSH1 0x24 DUP2 ADD DUP4 SWAP1 MSTORE PUSH1 0x1 PUSH1 0x1 PUSH1 0xA0 SHL SUB SWAP1 SWAP2 AND SWAP1 PUSH4 0x40C10F19 SWAP1 PUSH1 0x44 ADD PUSH0 PUSH1 0x40 MLOAD DUP1 DUP4 SUB DUP2 PUSH0 DUP8 DUP1 EXTCODESIZE ISZERO DUP1 ISZERO PUSH2 0xBFF JUMPI PUSH0 DUP1 REVERT JUMPDEST POP GAS CALL ISZERO DUP1 ISZERO PUSH2 0xC11 JUMPI RETURNDATASIZE PUSH0 DUP1 RETURNDATACOPY RETURNDATASIZE PUSH0 REVERT JUMPDEST POP POP POP POP DUP2 PUSH32 0xBDE2D72390AF9D0444BB1C4F938971ECB673ED26F5F57F8FA44C553FE01D0D3A DUP3 PUSH1 0x40 MLOAD PUSH2 0xC47 SWAP2 DUP2 MSTORE PUSH1 0x20 ADD SWAP1 JUMP JUMPDEST PUSH1 0x40 MLOAD DUP1 SWAP2 SUB SWAP1 LOG2 POP POP JUMP JUMPDEST PUSH2 0xC5B PUSH2 0x1C6F JUMP JUMPDEST PUSH2 0xC64 DUP3 PUSH2 0x1D13 JUMP JUMPDEST PUSH2 0x887 DUP3 DUP3 PUSH2 0x1D1B JUMP JUMPDEST PUSH0 PUSH2 0xC77 PUSH2 0x1DD7 JUMP JUMPDEST POP PUSH0 DUP1 MLOAD PUSH1 0x20 PUSH2 0x30F1 DUP4 CODECOPY DUP2 MLOAD SWAP2 MSTORE SWAP1 JUMP JUMPDEST PUSH0 PUSH2 0x7C1 DUP3 PUSH2 0x1ABE JUMP JUMPDEST PUSH0 PUSH0 DUP1 MLOAD PUSH1 0x20 PUSH2 0x30D1 DUP4 CODECOPY DUP2 MLOAD SWAP2 MSTORE PUSH1 0x1 PUSH1 0x1 PUSH1 0xA0 SHL SUB DUP4 AND PUSH2 0xCCB JUMPI PUSH1 0x40 MLOAD PUSH4 0x22718AD9 PUSH1 0xE2 SHL DUP2 MSTORE PUSH0 PUSH1 0x4 DUP3 ADD MSTORE PUSH1 0x24 ADD PUSH2 0x8B0 JUMP JUMPDEST PUSH1 0x1 PUSH1 0x1 PUSH1 0xA0 SHL SUB SWAP1 SWAP3 AND PUSH0 SWAP1 DUP2 MSTORE PUSH1 0x3 SWAP1 SWAP3 ADD PUSH1 0x20 MSTORE POP PUSH1 0x40 SWAP1 KECCAK256 SLOAD SWAP1 JUMP JUMPDEST PUSH2 0xCF3 PUSH2 0x1C3D JUMP JUMPDEST PUSH2 0xCFC PUSH0 PUSH2 0x1E20 JUMP JUMPDEST JUMP JUMPDEST PUSH0 PUSH2 0xD07 PUSH2 0x1E90 JUMP JUMPDEST DUP1 SLOAD SWAP1 SWAP2 POP PUSH1 0xFF PUSH1 0x1 PUSH1 0x40 SHL DUP3 DIV AND ISZERO SWAP1 PUSH8 0xFFFFFFFFFFFFFFFF AND PUSH0 DUP2 ISZERO DUP1 ISZERO PUSH2 0xD2E JUMPI POP DUP3 JUMPDEST SWAP1 POP PUSH0 DUP3 PUSH8 0xFFFFFFFFFFFFFFFF AND PUSH1 0x1 EQ DUP1 ISZERO PUSH2 0xD4A JUMPI POP ADDRESS EXTCODESIZE ISZERO JUMPDEST SWAP1 POP DUP2 ISZERO DUP1 ISZERO PUSH2 0xD58 JUMPI POP DUP1 ISZERO JUMPDEST ISZERO PUSH2 0xD76 JUMPI PUSH1 0x40 MLOAD PUSH4 0xF92EE8A9 PUSH1 0xE0 SHL DUP2 MSTORE PUSH1 0x4 ADD PUSH1 0x40 MLOAD DUP1 SWAP2 SUB SWAP1 REVERT JUMPDEST DUP5 SLOAD PUSH8 0xFFFFFFFFFFFFFFFF NOT AND PUSH1 0x1 OR DUP6 SSTORE DUP4 ISZERO PUSH2 0xDA0 JUMPI DUP5 SLOAD PUSH1 0xFF PUSH1 0x40 SHL NOT AND PUSH1 0x1 PUSH1 0x40 SHL OR DUP6 SSTORE JUMPDEST PUSH2 0xDF6 PUSH1 0x40 MLOAD DUP1 PUSH1 0x40 ADD PUSH1 0x40 MSTORE DUP1 PUSH1 0x16 DUP2 MSTORE PUSH1 0x20 ADD PUSH22 0x24B73725B2B2B832B9102A30BB32B93725B2B2B832B9 PUSH1 0x51 SHL DUP2 MSTORE POP PUSH1 0x40 MLOAD DUP1 PUSH1 0x40 ADD PUSH1 0x40 MSTORE DUP1 PUSH1 0x6 DUP2 MSTORE PUSH1 0x20 ADD PUSH6 0x25A2A2A822A9 PUSH1 0xD1 SHL DUP2 MSTORE POP PUSH2 0x1EB8 JUMP JUMPDEST PUSH2 0xDFE PUSH2 0x1ECA JUMP JUMPDEST PUSH2 0xE07 CALLER PUSH2 0x1ED2 JUMP JUMPDEST PUSH2 0xE0F PUSH2 0x1ECA JUMP JUMPDEST DUP4 ISZERO PUSH2 0xE55 JUMPI DUP5 SLOAD PUSH1 0xFF PUSH1 0x40 SHL NOT AND DUP6 SSTORE PUSH1 0x40 MLOAD PUSH1 0x1 DUP2 MSTORE PUSH32 0xC7F505B2F371AE2175EE4913F4499E1F2633A7B5936321EED1CDAEB6115181D2 SWAP1 PUSH1 0x20 ADD PUSH1 0x40 MLOAD DUP1 SWAP2 SUB SWAP1 LOG1 JUMPDEST POP POP POP POP POP JUMP JUMPDEST PUSH32 0x9016D09D72D40FDAE2FD8CEAC6B6234C7706214FD39C1CD1E609A0528C199300 SLOAD PUSH1 0x1 PUSH1 0x1 PUSH1 0xA0 SHL SUB AND SWAP1 JUMP JUMPDEST PUSH32 0x80BB2B638CC20BC4D0A60D66940F3AB4A00C1D7B313497CA82FB0B4AB0079301 DUP1 SLOAD PUSH1 0x60 SWAP2 PUSH0 DUP1 MLOAD PUSH1 0x20 PUSH2 0x30D1 DUP4 CODECOPY DUP2 MLOAD SWAP2 MSTORE SWAP2 PUSH2 0x7E6 SWAP1 PUSH2 0x2E54 JUMP JUMPDEST PUSH1 0x8 SLOAD PUSH0 SWAP1 PUSH1 0xFF AND PUSH1 0x2 SUB PUSH2 0xEF0 JUMPI PUSH1 0x40 MLOAD PUSH4 0x558A1E03 PUSH1 0xE1 SHL DUP2 MSTORE PUSH1 0x4 ADD PUSH1 0x40 MLOAD DUP1 SWAP2 SUB SWAP1 REVERT JUMPDEST PUSH1 0x40 DUP1 MLOAD PUSH1 0xE0 DUP2 ADD DUP3 MSTORE PUSH1 0x8 DUP1 SLOAD PUSH1 0xFF DUP2 AND DUP4 MSTORE PUSH2 0x100 DUP2 DIV PUSH2 0xFFFF AND PUSH1 0x20 DUP5 ADD MSTORE PUSH4 0x1000000 DUP2 DIV PUSH1 0x1 PUSH1 0x1 PUSH1 0xC0 SHL SUB AND SWAP4 DUP4 ADD SWAP4 SWAP1 SWAP4 MSTORE PUSH1 0x1 PUSH1 0xD8 SHL SWAP1 SWAP3 DIV PUSH5 0xFFFFFFFFFF AND PUSH1 0x60 DUP3 ADD MSTORE PUSH1 0x9 SLOAD PUSH1 0x80 DUP3 ADD MSTORE PUSH1 0xA SLOAD PUSH1 0x1 PUSH1 0x1 PUSH1 0xA0 SHL SUB AND PUSH1 0xA0 DUP3 ADD MSTORE PUSH1 0xB DUP1 SLOAD PUSH2 0xFF2 SWAP4 SWAP2 PUSH1 0xC0 DUP5 ADD SWAP2 PUSH2 0xF6D SWAP1 PUSH2 0x2E54 JUMP JUMPDEST DUP1 PUSH1 0x1F ADD PUSH1 0x20 DUP1 SWAP2 DIV MUL PUSH1 0x20 ADD PUSH1 0x40 MLOAD SWAP1 DUP2 ADD PUSH1 0x40 MSTORE DUP1 SWAP3 SWAP2 SWAP1 DUP2 DUP2 MSTORE PUSH1 0x20 ADD DUP3 DUP1 SLOAD PUSH2 0xF99 SWAP1 PUSH2 0x2E54 JUMP JUMPDEST DUP1 ISZERO PUSH2 0xFE4 JUMPI DUP1 PUSH1 0x1F LT PUSH2 0xFBB JUMPI PUSH2 0x100 DUP1 DUP4 SLOAD DIV MUL DUP4 MSTORE SWAP2 PUSH1 0x20 ADD SWAP2 PUSH2 0xFE4 JUMP JUMPDEST DUP3 ADD SWAP2 SWAP1 PUSH0 MSTORE PUSH1 0x20 PUSH0 KECCAK256 SWAP1 JUMPDEST DUP2 SLOAD DUP2 MSTORE SWAP1 PUSH1 0x1 ADD SWAP1 PUSH1 0x20 ADD DUP1 DUP4 GT PUSH2 0xFC7 JUMPI DUP3 SWAP1 SUB PUSH1 0x1F AND DUP3 ADD SWAP2 JUMPDEST POP POP POP POP POP DUP2 MSTORE POP POP PUSH2 0x1EE3 JUMP JUMPDEST SWAP1 POP SWAP1 JUMP JUMPDEST PUSH1 0x8 SLOAD PUSH0 SWAP1 PUSH1 0xFF AND PUSH1 0x2 SUB PUSH2 0x101F JUMPI PUSH1 0x40 MLOAD PUSH4 0x558A1E03 PUSH1 0xE1 SHL DUP2 MSTORE PUSH1 0x4 ADD PUSH1 0x40 MLOAD DUP1 SWAP2 SUB SWAP1 REVERT JUMPDEST PUSH1 0x8 DUP1 SLOAD PUSH1 0xFF NOT AND PUSH1 0x2 OR SWAP1 SSTORE TIMESTAMP DUP5 LT ISZERO PUSH2 0x104D JUMPI PUSH1 0x40 MLOAD PUSH4 0x407B05B PUSH1 0xE3 SHL DUP2 MSTORE PUSH1 0x4 ADD PUSH1 0x40 MLOAD DUP1 SWAP2 SUB SWAP1 REVERT JUMPDEST PUSH1 0x40 DUP1 MLOAD PUSH1 0xE0 DUP2 ADD DUP3 MSTORE PUSH1 0x8 DUP1 SLOAD PUSH1 0xFF DUP2 AND DUP4 MSTORE PUSH2 0x100 DUP2 DIV PUSH2 0xFFFF AND PUSH1 0x20 DUP5 ADD MSTORE PUSH4 0x1000000 DUP2 DIV PUSH1 0x1 PUSH1 0x1 PUSH1 0xC0 SHL SUB AND SWAP4 DUP4 ADD SWAP4 SWAP1 SWAP4 MSTORE PUSH1 0x1 PUSH1 0xD8 SHL SWAP1 SWAP3 DIV PUSH5 0xFFFFFFFFFF AND PUSH1 0x60 DUP3 ADD MSTORE PUSH1 0x9 SLOAD PUSH1 0x80 DUP3 ADD MSTORE PUSH1 0xA SLOAD PUSH1 0x1 PUSH1 0x1 PUSH1 0xA0 SHL SUB AND PUSH1 0xA0 DUP3 ADD MSTORE PUSH1 0xB DUP1 SLOAD PUSH0 SWAP4 SWAP2 PUSH1 0xC0 DUP5 ADD SWAP2 PUSH2 0x10C8 SWAP1 PUSH2 0x2E54 JUMP JUMPDEST DUP1 PUSH1 0x1F ADD PUSH1 0x20 DUP1 SWAP2 DIV MUL PUSH1 0x20 ADD PUSH1 0x40 MLOAD SWAP1 DUP2 ADD PUSH1 0x40 MSTORE DUP1 SWAP3 SWAP2 SWAP1 DUP2 DUP2 MSTORE PUSH1 0x20 ADD DUP3 DUP1 SLOAD PUSH2 0x10F4 SWAP1 PUSH2 0x2E54 JUMP JUMPDEST DUP1 ISZERO PUSH2 0x113F JUMPI DUP1 PUSH1 0x1F LT PUSH2 0x1116 JUMPI PUSH2 0x100 DUP1 DUP4 SLOAD DIV MUL DUP4 MSTORE SWAP2 PUSH1 0x20 ADD SWAP2 PUSH2 0x113F JUMP JUMPDEST DUP3 ADD SWAP2 SWAP1 PUSH0 MSTORE PUSH1 0x20 PUSH0 KECCAK256 SWAP1 JUMPDEST DUP2 SLOAD DUP2 MSTORE SWAP1 PUSH1 0x1 ADD SWAP1 PUSH1 0x20 ADD DUP1 DUP4 GT PUSH2 0x1122 JUMPI DUP3 SWAP1 SUB PUSH1 0x1F AND DUP3 ADD SWAP2 JUMPDEST POP POP POP POP POP DUP2 MSTORE POP POP SWAP1 POP DUP6 PUSH0 EQ ISZERO DUP1 ISZERO PUSH2 0x1166 JUMPI POP DUP1 PUSH1 0x20 ADD MLOAD PUSH2 0xFFFF AND DUP7 PUSH2 0xFFFF AND EQ ISZERO JUMPDEST ISZERO PUSH2 0x1184 JUMPI PUSH1 0x40 MLOAD PUSH4 0x608FB7BF PUSH1 0xE0 SHL DUP2 MSTORE PUSH1 0x4 ADD PUSH1 0x40 MLOAD DUP1 SWAP2 SUB SWAP1 REVERT JUMPDEST PUSH2 0x118D DUP2 PUSH2 0x1EE3 JUMP JUMPDEST SWAP2 POP DUP4 DUP3 GT ISZERO PUSH2 0x11B0 JUMPI PUSH1 0x40 MLOAD PUSH4 0x1D5ECE53 PUSH1 0xE0 SHL DUP2 MSTORE PUSH1 0x4 ADD PUSH1 0x40 MLOAD DUP1 SWAP2 SUB SWAP1 REVERT JUMPDEST DUP2 CALLVALUE LT ISZERO PUSH2 0x11F7 JUMPI PUSH1 0x40 MLOAD PUSH3 0x461BCD PUSH1 0xE5 SHL DUP2 MSTORE PUSH1 0x20 PUSH1 0x4 DUP3 ADD MSTORE PUSH1 0x14 PUSH1 0x24 DUP3 ADD MSTORE PUSH20 0x125B9CDD59999A58DA595B9D081C185E5B595B9D PUSH1 0x62 SHL PUSH1 0x44 DUP3 ADD MSTORE PUSH1 0x64 ADD PUSH2 0x8B0 JUMP JUMPDEST PUSH0 PUSH2 0x1202 DUP4 CALLVALUE PUSH2 0x2E9A JUMP JUMPDEST SWAP1 POP DUP1 ISZERO PUSH2 0x1236 JUMPI PUSH1 0x40 MLOAD CALLER SWAP1 DUP3 ISZERO PUSH2 0x8FC MUL SWAP1 DUP4 SWAP1 PUSH0 DUP2 DUP2 DUP2 DUP6 DUP9 DUP9 CALL SWAP4 POP POP POP POP ISZERO DUP1 ISZERO PUSH2 0x1234 JUMPI RETURNDATASIZE PUSH0 DUP1 RETURNDATACOPY RETURNDATASIZE PUSH0 REVERT JUMPDEST POP JUMPDEST DUP3 ISZERO PUSH2 0x1428 JUMPI PUSH0 PUSH2 0x2710 PUSH2 0x124C PUSH2 0x7D0 DUP7 PUSH2 0x2EAD JUMP JUMPDEST PUSH2 0x1256 SWAP2 SWAP1 PUSH2 0x2EC4 JUMP JUMPDEST SWAP1 POP PUSH0 PUSH2 0x1263 DUP3 DUP7 PUSH2 0x2E9A JUMP JUMPDEST SWAP1 POP PUSH0 PUSH2 0x1271 PUSH1 0x2 DUP5 PUSH2 0x2EC4 JUMP JUMPDEST SWAP1 POP PUSH0 PUSH2 0x127E DUP3 DUP6 PUSH2 0x2E9A JUMP JUMPDEST SWAP1 POP PUSH2 0x1288 PUSH2 0xE5C JUMP JUMPDEST PUSH1 0x1 PUSH1 0x1 PUSH1 0xA0 SHL SUB AND PUSH2 0x8FC DUP4 SWAP1 DUP2 ISZERO MUL SWAP1 PUSH1 0x40 MLOAD PUSH0 PUSH1 0x40 MLOAD DUP1 DUP4 SUB DUP2 DUP6 DUP9 DUP9 CALL SWAP4 POP POP POP POP ISZERO DUP1 ISZERO PUSH2 0x12BD JUMPI RETURNDATASIZE PUSH0 DUP1 RETURNDATACOPY RETURNDATASIZE PUSH0 REVERT JUMPDEST POP PUSH1 0xC SLOAD PUSH1 0x1 PUSH1 0x1 PUSH1 0xA0 SHL SUB AND ISZERO PUSH2 0x134E JUMPI PUSH1 0xC SLOAD PUSH1 0x40 MLOAD PUSH1 0x1 PUSH1 0x1 PUSH1 0xA0 SHL SUB SWAP1 SWAP2 AND SWAP1 DUP3 ISZERO PUSH2 0x8FC MUL SWAP1 DUP4 SWAP1 PUSH0 DUP2 DUP2 DUP2 DUP6 DUP9 DUP9 CALL SWAP4 POP POP POP POP ISZERO DUP1 ISZERO PUSH2 0x1306 JUMPI RETURNDATASIZE PUSH0 DUP1 RETURNDATACOPY RETURNDATASIZE PUSH0 REVERT JUMPDEST POP PUSH1 0xC SLOAD PUSH1 0x40 MLOAD DUP3 DUP2 MSTORE PUSH1 0x1 PUSH1 0x1 PUSH1 0xA0 SHL SUB SWAP1 SWAP2 AND SWAP1 PUSH32 0x44C4B50AC44926F55EEFC40DDAF8D1A7848627C9FD4B811E4A36F9985D78ABA2 SWAP1 PUSH1 0x20 ADD PUSH1 0x40 MLOAD DUP1 SWAP2 SUB SWAP1 LOG2 PUSH2 0x138D JUMP JUMPDEST PUSH2 0x1356 PUSH2 0xE5C JUMP JUMPDEST PUSH1 0x1 PUSH1 0x1 PUSH1 0xA0 SHL SUB AND PUSH2 0x8FC DUP3 SWAP1 DUP2 ISZERO MUL SWAP1 PUSH1 0x40 MLOAD PUSH0 PUSH1 0x40 MLOAD DUP1 DUP4 SUB DUP2 DUP6 DUP9 DUP9 CALL SWAP4 POP POP POP POP ISZERO DUP1 ISZERO PUSH2 0x138B JUMPI RETURNDATASIZE PUSH0 DUP1 RETURNDATACOPY RETURNDATASIZE PUSH0 REVERT JUMPDEST POP JUMPDEST PUSH1 0xA0 DUP7 ADD MLOAD PUSH1 0x1 PUSH1 0x1 PUSH1 0xA0 SHL SUB AND ISZERO PUSH2 0x1423 JUMPI DUP6 PUSH1 0xA0 ADD MLOAD PUSH1 0x1 PUSH1 0x1 PUSH1 0xA0 SHL SUB AND PUSH2 0x8FC DUP5 SWAP1 DUP2 ISZERO MUL SWAP1 PUSH1 0x40 MLOAD PUSH0 PUSH1 0x40 MLOAD DUP1 DUP4 SUB DUP2 DUP6 DUP9 DUP9 CALL SWAP4 POP POP POP POP ISZERO DUP1 ISZERO PUSH2 0x13DA JUMPI RETURNDATASIZE PUSH0 DUP1 RETURNDATACOPY RETURNDATASIZE PUSH0 REVERT JUMPDEST POP DUP6 PUSH1 0xA0 ADD MLOAD PUSH1 0x1 PUSH1 0x1 PUSH1 0xA0 SHL SUB AND PUSH32 0x58616205E0A5E583FA41138B0B6BA26D640390A34951E96A8B313DC315DA6ACB DUP5 PUSH1 0x40 MLOAD PUSH2 0x141A SWAP2 DUP2 MSTORE PUSH1 0x20 ADD SWAP1 JUMP JUMPDEST PUSH1 0x40 MLOAD DUP1 SWAP2 SUB SWAP1 LOG2 JUMPDEST POP POP POP POP JUMPDEST PUSH0 PUSH8 0xDE0B6B3A7640000 PUSH2 0x1444 PUSH8 0x1BC16D674EC80000 DUP7 PUSH2 0x2EAD JUMP JUMPDEST PUSH2 0x144E SWAP2 SWAP1 PUSH2 0x2EC4 JUMP JUMPDEST SWAP1 POP PUSH1 0x1 PUSH1 0x1 PUSH1 0xC0 SHL SUB DUP2 GT ISZERO PUSH2 0x146D JUMPI POP PUSH1 0x1 PUSH1 0x1 PUSH1 0xC0 SHL SUB PUSH2 0x1484 JUMP JUMPDEST PUSH6 0x5AF3107A4000 DUP2 LT ISZERO PUSH2 0x1484 JUMPI POP PUSH6 0x5AF3107A4000 JUMPDEST PUSH0 DUP4 PUSH1 0x60 ADD MLOAD PUSH5 0xFFFFFFFFFF AND TIMESTAMP PUSH2 0x149C SWAP2 SWAP1 PUSH2 0x2E9A JUMP JUMPDEST SWAP1 POP PUSH0 DUP5 PUSH1 0x80 ADD MLOAD DUP3 PUSH2 0x14AF SWAP2 SWAP1 PUSH2 0x2EAD JUMP JUMPDEST PUSH1 0x1 SLOAD SWAP1 SWAP2 POP PUSH1 0x1 PUSH1 0x1 PUSH1 0xA0 SHL SUB AND ISZERO DUP1 ISZERO SWAP1 PUSH2 0x14D8 JUMPI POP PUSH1 0xA0 DUP6 ADD MLOAD PUSH1 0x1 PUSH1 0x1 PUSH1 0xA0 SHL SUB AND ISZERO ISZERO JUMPDEST ISZERO PUSH2 0x158A JUMPI PUSH1 0x1 SLOAD PUSH1 0xA0 DUP7 ADD MLOAD PUSH1 0x40 MLOAD PUSH4 0x40C10F19 PUSH1 0xE0 SHL DUP2 MSTORE PUSH1 0x1 PUSH1 0x1 PUSH1 0xA0 SHL SUB SWAP2 DUP3 AND PUSH1 0x4 DUP3 ADD MSTORE PUSH1 0x24 DUP2 ADD DUP5 SWAP1 MSTORE SWAP2 AND SWAP1 PUSH4 0x40C10F19 SWAP1 PUSH1 0x44 ADD PUSH0 PUSH1 0x40 MLOAD DUP1 DUP4 SUB DUP2 PUSH0 DUP8 DUP1 EXTCODESIZE ISZERO DUP1 ISZERO PUSH2 0x152C JUMPI PUSH0 DUP1 REVERT JUMPDEST POP GAS CALL ISZERO DUP1 ISZERO PUSH2 0x153E JUMPI RETURNDATASIZE PUSH0 DUP1 RETURNDATACOPY RETURNDATASIZE PUSH0 REVERT JUMPDEST POP POP POP POP DUP5 PUSH1 0xA0 ADD MLOAD PUSH1 0x1 PUSH1 0x1 PUSH1 0xA0 SHL SUB AND PUSH32 0xAB89EAC8A47EC964C442BEDDE0FE9093248F72A543E70FF346E31B652827C663 DUP3 PUSH1 0x40 MLOAD PUSH2 0x1581 SWAP2 DUP2 MSTORE PUSH1 0x20 ADD SWAP1 JUMP JUMPDEST PUSH1 0x40 MLOAD DUP1 SWAP2 SUB SWAP1 LOG2 JUMPDEST PUSH1 0x20 DUP6 ADD DUP1 MLOAD PUSH1 0x1 ADD PUSH2 0xFFFF AND SWAP1 MSTORE PUSH1 0x1 PUSH1 0x1 PUSH1 0xC0 SHL SUB DUP4 AND PUSH1 0x40 DUP7 ADD MSTORE TIMESTAMP PUSH5 0xFFFFFFFFFF DUP2 AND PUSH1 0x60 DUP8 ADD MSTORE CALLER PUSH1 0xA0 DUP8 ADD MSTORE PUSH2 0x15C5 SWAP1 PUSH2 0x1F4E JUMP JUMPDEST PUSH1 0x80 DUP7 ADD DUP2 SWAP1 MSTORE PUSH1 0xC0 DUP7 ADD DUP9 SWAP1 MSTORE DUP6 MLOAD PUSH1 0x8 DUP1 SLOAD PUSH1 0x20 DUP10 ADD MLOAD PUSH1 0x40 DUP11 ADD MLOAD PUSH1 0x60 DUP12 ADD MLOAD PUSH5 0xFFFFFFFFFF AND PUSH1 0x1 PUSH1 0xD8 SHL MUL PUSH1 0x1 PUSH1 0x1 PUSH1 0xD8 SHL SUB PUSH1 0x1 PUSH1 0x1 PUSH1 0xC0 SHL SUB SWAP1 SWAP3 AND PUSH4 0x1000000 MUL SWAP2 SWAP1 SWAP2 AND PUSH3 0xFFFFFF PUSH2 0xFFFF SWAP1 SWAP4 AND PUSH2 0x100 MUL PUSH3 0xFFFFFF NOT SWAP1 SWAP5 AND PUSH1 0xFF SWAP1 SWAP7 AND SWAP6 SWAP1 SWAP6 OR SWAP3 SWAP1 SWAP3 OR AND SWAP3 SWAP1 SWAP3 OR SWAP2 SWAP1 SWAP2 OR DUP2 SSTORE PUSH1 0x9 SWAP2 SWAP1 SWAP2 SSTORE PUSH1 0xA0 DUP7 ADD MLOAD PUSH1 0xA DUP1 SLOAD PUSH1 0x1 PUSH1 0x1 PUSH1 0xA0 SHL SUB SWAP1 SWAP3 AND PUSH1 0x1 PUSH1 0x1 PUSH1 0xA0 SHL SUB NOT SWAP1 SWAP3 AND SWAP2 SWAP1 SWAP2 OR SWAP1 SSTORE DUP6 SWAP1 PUSH1 0xB PUSH2 0x167A DUP11 DUP3 PUSH2 0x2F27 JUMP JUMPDEST POP POP PUSH1 0x40 MLOAD CALLER SWAP2 POP PUSH32 0x6BD27FEDA26DA893D76F461D47D2C4F4C71DF28C61D91A79C073D511716F7AB7 SWAP1 PUSH2 0x16B3 SWAP1 DUP10 SWAP1 DUP2 SWAP1 DUP13 SWAP1 PUSH2 0x2FE3 JUMP JUMPDEST PUSH1 0x40 MLOAD DUP1 SWAP2 SUB SWAP1 LOG2 POP POP POP POP POP PUSH1 0x8 DUP1 SLOAD PUSH1 0xFF NOT AND PUSH1 0x1 OR SWAP1 SSTORE SWAP5 SWAP4 POP POP POP POP JUMP JUMPDEST PUSH2 0x887 CALLER DUP4 DUP4 PUSH2 0x1FC4 JUMP JUMPDEST PUSH1 0x8 SLOAD PUSH0 SWAP1 PUSH1 0xFF AND PUSH1 0x2 SUB PUSH2 0x1708 JUMPI PUSH1 0x40 MLOAD PUSH4 0x558A1E03 PUSH1 0xE1 SHL DUP2 MSTORE PUSH1 0x4 ADD PUSH1 0x40 MLOAD DUP1 SWAP2 SUB SWAP1 REVERT JUMPDEST POP PUSH1 0x9 SLOAD SWAP1 JUMP JUMPDEST PUSH2 0x171A DUP5 DUP5 DUP5 PUSH2 0x88B JUMP JUMPDEST PUSH2 0x913 CALLER DUP6 DUP6 DUP6 DUP6 PUSH2 0x2073 JUMP JUMPDEST PUSH1 0x60 PUSH2 0x7C1 DUP3 PUSH2 0x219A JUMP JUMPDEST PUSH1 0x40 DUP1 MLOAD PUSH1 0xE0 DUP2 ADD DUP3 MSTORE PUSH0 DUP1 DUP3 MSTORE PUSH1 0x20 DUP3 ADD DUP2 SWAP1 MSTORE SWAP2 DUP2 ADD DUP3 SWAP1 MSTORE PUSH1 0x60 DUP1 DUP3 ADD DUP4 SWAP1 MSTORE PUSH1 0x80 DUP3 ADD DUP4 SWAP1 MSTORE PUSH1 0xA0 DUP3 ADD SWAP3 SWAP1 SWAP3 MSTORE PUSH1 0xC0 DUP2 ADD SWAP2 SWAP1 SWAP2 MSTORE PUSH1 0x8 SLOAD PUSH1 0xFF AND PUSH1 0x2 SUB PUSH2 0x1792 JUMPI PUSH1 0x40 MLOAD PUSH4 0x558A1E03 PUSH1 0xE1 SHL DUP2 MSTORE PUSH1 0x4 ADD PUSH1 0x40 MLOAD DUP1 SWAP2 SUB SWAP1 REVERT JUMPDEST PUSH1 0x40 DUP1 MLOAD PUSH1 0xE0 DUP2 ADD DUP3 MSTORE PUSH1 0x8 DUP1 SLOAD PUSH1 0xFF DUP2 AND DUP4 MSTORE PUSH2 0x100 DUP2 DIV PUSH2 0xFFFF AND PUSH1 0x20 DUP5 ADD MSTORE PUSH4 0x1000000 DUP2 DIV PUSH1 0x1 PUSH1 0x1 PUSH1 0xC0 SHL SUB AND SWAP4 DUP4 ADD SWAP4 SWAP1 SWAP4 MSTORE PUSH1 0x1 PUSH1 0xD8 SHL SWAP1 SWAP3 DIV PUSH5 0xFFFFFFFFFF AND PUSH1 0x60 DUP3 ADD MSTORE PUSH1 0x9 SLOAD PUSH1 0x80 DUP3 ADD MSTORE PUSH1 0xA SLOAD PUSH1 0x1 PUSH1 0x1 PUSH1 0xA0 SHL SUB AND PUSH1 0xA0 DUP3 ADD MSTORE PUSH1 0xB DUP1 SLOAD SWAP2 SWAP3 SWAP2 PUSH1 0xC0 DUP5 ADD SWAP2 SWAP1 PUSH2 0x180E SWAP1 PUSH2 0x2E54 JUMP JUMPDEST DUP1 PUSH1 0x1F ADD PUSH1 0x20 DUP1 SWAP2 DIV MUL PUSH1 0x20 ADD PUSH1 0x40 MLOAD SWAP1 DUP2 ADD PUSH1 0x40 MSTORE DUP1 SWAP3 SWAP2 SWAP1 DUP2 DUP2 MSTORE PUSH1 0x20 ADD DUP3 DUP1 SLOAD PUSH2 0x183A SWAP1 PUSH2 0x2E54 JUMP JUMPDEST DUP1 ISZERO PUSH2 0x1885 JUMPI DUP1 PUSH1 0x1F LT PUSH2 0x185C JUMPI PUSH2 0x100 DUP1 DUP4 SLOAD DIV MUL DUP4 MSTORE SWAP2 PUSH1 0x20 ADD SWAP2 PUSH2 0x1885 JUMP JUMPDEST DUP3 ADD SWAP2 SWAP1 PUSH0 MSTORE PUSH1 0x20 PUSH0 KECCAK256 SWAP1 JUMPDEST DUP2 SLOAD DUP2 MSTORE SWAP1 PUSH1 0x1 ADD SWAP1 PUSH1 0x20 ADD DUP1 DUP4 GT PUSH2 0x1868 JUMPI DUP3 SWAP1 SUB PUSH1 0x1F AND DUP3 ADD SWAP2 JUMPDEST POP POP POP POP POP DUP2 MSTORE POP POP SWAP1 POP SWAP1 JUMP JUMPDEST PUSH0 PUSH2 0x189C PUSH2 0x1C3D JUMP JUMPDEST PUSH0 DUP1 SLOAD DUP2 DUP1 PUSH2 0x18AA DUP4 PUSH2 0x3001 JUMP JUMPDEST SWAP2 SWAP1 POP SSTORE SWAP1 POP PUSH2 0x18BA DUP5 DUP3 PUSH2 0x22C9 JUMP JUMPDEST PUSH2 0x18C4 DUP2 DUP5 PUSH2 0x22E2 JUMP JUMPDEST PUSH0 DUP2 DUP2 MSTORE PUSH1 0x2 PUSH1 0x20 SWAP1 DUP2 MSTORE PUSH1 0x40 DUP1 DUP4 KECCAK256 TIMESTAMP SWAP1 SSTORE PUSH1 0x3 SWAP1 SWAP2 MSTORE SWAP1 KECCAK256 PUSH7 0x2386F26FC10000 SWAP1 SSTORE SWAP4 SWAP3 POP POP POP JUMP JUMPDEST PUSH0 DUP2 DUP2 MSTORE PUSH1 0x2 PUSH1 0x20 MSTORE PUSH1 0x40 DUP2 KECCAK256 SLOAD DUP2 SUB PUSH2 0x190A JUMPI POP PUSH0 SWAP2 SWAP1 POP JUMP JUMPDEST PUSH0 DUP3 DUP2 MSTORE PUSH1 0x2 PUSH1 0x20 MSTORE PUSH1 0x40 DUP2 KECCAK256 SLOAD PUSH2 0x1922 SWAP1 TIMESTAMP PUSH2 0x2E9A JUMP JUMPDEST PUSH0 DUP5 DUP2 MSTORE PUSH1 0x3 PUSH1 0x20 MSTORE PUSH1 0x40 SWAP1 KECCAK256 SLOAD SWAP1 SWAP2 POP PUSH2 0x193D SWAP1 DUP3 PUSH2 0x2EAD JUMP JUMPDEST SWAP4 SWAP3 POP POP POP JUMP JUMPDEST PUSH2 0x194C PUSH2 0x1C3D JUMP JUMPDEST PUSH1 0xC SLOAD PUSH1 0x1 PUSH1 0x1 PUSH1 0xA0 SHL SUB AND ISZERO PUSH2 0x199E JUMPI PUSH1 0x40 MLOAD PUSH3 0x461BCD PUSH1 0xE5 SHL DUP2 MSTORE PUSH1 0x20 PUSH1 0x4 DUP3 ADD MSTORE PUSH1 0x16 PUSH1 0x24 DUP3 ADD MSTORE PUSH22 0x20B63932B0B23C9034B734BA34B0B634BD32B2102B19 PUSH1 0x51 SHL PUSH1 0x44 DUP3 ADD MSTORE PUSH1 0x64 ADD PUSH2 0x8B0 JUMP JUMPDEST PUSH1 0xC DUP1 SLOAD PUSH1 0x1 PUSH1 0x1 PUSH1 0xA0 SHL SUB SWAP1 SWAP3 AND PUSH1 0x1 PUSH1 0x1 PUSH1 0xA0 SHL SUB NOT SWAP3 DUP4 AND OR SWAP1 SSTORE TIMESTAMP PUSH1 0xD DUP2 SWAP1 SSTORE PUSH1 0x8 DUP1 SLOAD PUSH1 0xA DUP1 SLOAD SWAP1 SWAP5 AND CALLER OR SWAP1 SWAP4 SSTORE PUSH8 0x3782DACE9D900000 PUSH1 0x9 SSTORE PUSH3 0xFFFF00 NOT PUSH5 0xFFFFFFFFFF SWAP1 SWAP3 AND PUSH1 0x1 PUSH1 0xD8 SHL MUL PUSH3 0xFFFFFF SWAP1 SWAP4 AND SWAP3 SWAP1 SWAP3 OR PUSH9 0x5AF3107A4000000000 OR AND PUSH2 0x100 OR SWAP1 SSTORE JUMP JUMPDEST PUSH1 0x1 PUSH1 0x1 PUSH1 0xA0 SHL SUB SWAP2 DUP3 AND PUSH0 SWAP1 DUP2 MSTORE PUSH32 0x80BB2B638CC20BC4D0A60D66940F3AB4A00C1D7B313497CA82FB0B4AB0079305 PUSH1 0x20 SWAP1 DUP2 MSTORE PUSH1 0x40 DUP1 DUP4 KECCAK256 SWAP4 SWAP1 SWAP5 AND DUP3 MSTORE SWAP2 SWAP1 SWAP2 MSTORE KECCAK256 SLOAD PUSH1 0xFF AND SWAP1 JUMP JUMPDEST PUSH2 0x1A65 PUSH2 0x1C3D JUMP JUMPDEST PUSH1 0x1 PUSH1 0x1 PUSH1 0xA0 SHL SUB DUP2 AND PUSH2 0x1A8E JUMPI PUSH1 0x40 MLOAD PUSH4 0x1E4FBDF7 PUSH1 0xE0 SHL DUP2 MSTORE PUSH0 PUSH1 0x4 DUP3 ADD MSTORE PUSH1 0x24 ADD PUSH2 0x8B0 JUMP JUMPDEST PUSH2 0x1A97 DUP2 PUSH2 0x1E20 JUMP JUMPDEST POP JUMP JUMPDEST PUSH0 PUSH1 0x1 PUSH1 0x1 PUSH1 0xE0 SHL SUB NOT DUP3 AND PUSH4 0x24832483 PUSH1 0xE1 SHL EQ DUP1 PUSH2 0x7C1 JUMPI POP PUSH2 0x7C1 DUP3 PUSH2 0x2354 JUMP JUMPDEST PUSH0 DUP1 PUSH2 0x1AC9 DUP4 PUSH2 0x23A3 JUMP JUMPDEST SWAP1 POP PUSH1 0x1 PUSH1 0x1 PUSH1 0xA0 SHL SUB DUP2 AND PUSH2 0x7C1 JUMPI PUSH1 0x40 MLOAD PUSH4 0x7E273289 PUSH1 0xE0 SHL DUP2 MSTORE PUSH1 0x4 DUP2 ADD DUP5 SWAP1 MSTORE PUSH1 0x24 ADD PUSH2 0x8B0 JUMP JUMPDEST PUSH0 SWAP1 DUP2 MSTORE PUSH32 0x80BB2B638CC20BC4D0A60D66940F3AB4A00C1D7B313497CA82FB0B4AB0079304 PUSH1 0x20 MSTORE PUSH1 0x40 SWAP1 KECCAK256 SLOAD PUSH1 0x1 PUSH1 0x1 PUSH1 0xA0 SHL SUB AND SWAP1 JUMP JUMPDEST PUSH2 0xAB3 DUP4 DUP4 DUP4 PUSH1 0x1 PUSH2 0x23DC JUMP JUMPDEST PUSH0 PUSH0 DUP1 MLOAD PUSH1 0x20 PUSH2 0x30D1 DUP4 CODECOPY DUP2 MLOAD SWAP2 MSTORE DUP2 PUSH2 0x1B54 DUP6 PUSH2 0x23A3 JUMP JUMPDEST SWAP1 POP PUSH1 0x1 PUSH1 0x1 PUSH1 0xA0 SHL SUB DUP5 AND ISZERO PUSH2 0x1B70 JUMPI PUSH2 0x1B70 DUP2 DUP6 DUP8 PUSH2 0x24EF JUMP JUMPDEST PUSH1 0x1 PUSH1 0x1 PUSH1 0xA0 SHL SUB DUP2 AND ISZERO PUSH2 0x1BAC JUMPI PUSH2 0x1B8B PUSH0 DUP7 PUSH0 DUP1 PUSH2 0x23DC JUMP JUMPDEST PUSH1 0x1 PUSH1 0x1 PUSH1 0xA0 SHL SUB DUP2 AND PUSH0 SWAP1 DUP2 MSTORE PUSH1 0x3 DUP4 ADD PUSH1 0x20 MSTORE PUSH1 0x40 SWAP1 KECCAK256 DUP1 SLOAD PUSH0 NOT ADD SWAP1 SSTORE JUMPDEST PUSH1 0x1 PUSH1 0x1 PUSH1 0xA0 SHL SUB DUP7 AND ISZERO PUSH2 0x1BDC JUMPI PUSH1 0x1 PUSH1 0x1 PUSH1 0xA0 SHL SUB DUP7 AND PUSH0 SWAP1 DUP2 MSTORE PUSH1 0x3 DUP4 ADD PUSH1 0x20 MSTORE PUSH1 0x40 SWAP1 KECCAK256 DUP1 SLOAD PUSH1 0x1 ADD SWAP1 SSTORE JUMPDEST PUSH0 DUP6 DUP2 MSTORE PUSH1 0x2 DUP4 ADD PUSH1 0x20 MSTORE PUSH1 0x40 DUP1 DUP3 KECCAK256 DUP1 SLOAD PUSH1 0x1 PUSH1 0x1 PUSH1 0xA0 SHL SUB NOT AND PUSH1 0x1 PUSH1 0x1 PUSH1 0xA0 SHL SUB DUP11 DUP2 AND SWAP2 DUP3 OR SWAP1 SWAP3 SSTORE SWAP2 MLOAD DUP9 SWAP4 SWAP2 DUP6 AND SWAP2 PUSH32 0xDDF252AD1BE2C89B69C2B068FC378DAA952BA7F163C4A11628F55A4DF523B3EF SWAP2 LOG4 SWAP6 SWAP5 POP POP POP POP POP JUMP JUMPDEST CALLER PUSH2 0x1C46 PUSH2 0xE5C JUMP JUMPDEST PUSH1 0x1 PUSH1 0x1 PUSH1 0xA0 SHL SUB AND EQ PUSH2 0xCFC JUMPI PUSH1 0x40 MLOAD PUSH4 0x118CDAA7 PUSH1 0xE0 SHL DUP2 MSTORE CALLER PUSH1 0x4 DUP3 ADD MSTORE PUSH1 0x24 ADD PUSH2 0x8B0 JUMP JUMPDEST ADDRESS PUSH1 0x1 PUSH1 0x1 PUSH1 0xA0 SHL SUB PUSH32 0x0 AND EQ DUP1 PUSH2 0x1CF5 JUMPI POP PUSH32 0x0 PUSH1 0x1 PUSH1 0x1 PUSH1 0xA0 SHL SUB AND PUSH2 0x1CE9 PUSH0 DUP1 MLOAD PUSH1 0x20 PUSH2 0x30F1 DUP4 CODECOPY DUP2 MLOAD SWAP2 MSTORE SLOAD PUSH1 0x1 PUSH1 0x1 PUSH1 0xA0 SHL SUB AND SWAP1 JUMP JUMPDEST PUSH1 0x1 PUSH1 0x1 PUSH1 0xA0 SHL SUB AND EQ ISZERO JUMPDEST ISZERO PUSH2 0xCFC JUMPI PUSH1 0x40 MLOAD PUSH4 0x703E46DD PUSH1 0xE1 SHL DUP2 MSTORE PUSH1 0x4 ADD PUSH1 0x40 MLOAD DUP1 SWAP2 SUB SWAP1 REVERT JUMPDEST PUSH2 0x1A97 PUSH2 0x1C3D JUMP JUMPDEST DUP2 PUSH1 0x1 PUSH1 0x1 PUSH1 0xA0 SHL SUB AND PUSH4 0x52D1902D PUSH1 0x40 MLOAD DUP2 PUSH4 0xFFFFFFFF AND PUSH1 0xE0 SHL DUP2 MSTORE PUSH1 0x4 ADD PUSH1 0x20 PUSH1 0x40 MLOAD DUP1 DUP4 SUB DUP2 DUP7 GAS STATICCALL SWAP3 POP POP POP DUP1 ISZERO PUSH2 0x1D75 JUMPI POP PUSH1 0x40 DUP1 MLOAD PUSH1 0x1F RETURNDATASIZE SWAP1 DUP2 ADD PUSH1 0x1F NOT AND DUP3 ADD SWAP1 SWAP3 MSTORE PUSH2 0x1D72 SWAP2 DUP2 ADD SWAP1 PUSH2 0x3019 JUMP JUMPDEST PUSH1 0x1 JUMPDEST PUSH2 0x1D9D JUMPI PUSH1 0x40 MLOAD PUSH4 0x4C9C8CE3 PUSH1 0xE0 SHL DUP2 MSTORE PUSH1 0x1 PUSH1 0x1 PUSH1 0xA0 SHL SUB DUP4 AND PUSH1 0x4 DUP3 ADD MSTORE PUSH1 0x24 ADD PUSH2 0x8B0 JUMP JUMPDEST PUSH0 DUP1 MLOAD PUSH1 0x20 PUSH2 0x30F1 DUP4 CODECOPY DUP2 MLOAD SWAP2 MSTORE DUP2 EQ PUSH2 0x1DCD JUMPI PUSH1 0x40 MLOAD PUSH4 0x2A875269 PUSH1 0xE2 SHL DUP2 MSTORE PUSH1 0x4 DUP2 ADD DUP3 SWAP1 MSTORE PUSH1 0x24 ADD PUSH2 0x8B0 JUMP JUMPDEST PUSH2 0xAB3 DUP4 DUP4 PUSH2 0x2553 JUMP JUMPDEST ADDRESS PUSH1 0x1 PUSH1 0x1 PUSH1 0xA0 SHL SUB PUSH32 0x0 AND EQ PUSH2 0xCFC JUMPI PUSH1 0x40 MLOAD PUSH4 0x703E46DD PUSH1 0xE1 SHL DUP2 MSTORE PUSH1 0x4 ADD PUSH1 0x40 MLOAD DUP1 SWAP2 SUB SWAP1 REVERT JUMPDEST PUSH32 0x9016D09D72D40FDAE2FD8CEAC6B6234C7706214FD39C1CD1E609A0528C199300 DUP1 SLOAD PUSH1 0x1 PUSH1 0x1 PUSH1 0xA0 SHL SUB NOT DUP2 AND PUSH1 0x1 PUSH1 0x1 PUSH1 0xA0 SHL SUB DUP5 DUP2 AND SWAP2 DUP3 OR DUP5 SSTORE PUSH1 0x40 MLOAD SWAP3 AND SWAP2 DUP3 SWAP1 PUSH32 0x8BE0079C531659141344CD1FD0A4F28419497F9722A3DAAFE3B4186F6B6457E0 SWAP1 PUSH0 SWAP1 LOG3 POP POP POP JUMP JUMPDEST PUSH0 DUP1 PUSH32 0xF0C57E16840DF040F15088DC2F81FE391C3923BEC73E23A9662EFC9C229C6A00 PUSH2 0x7C1 JUMP JUMPDEST PUSH2 0x1EC0 PUSH2 0x25A8 JUMP JUMPDEST PUSH2 0x887 DUP3 DUP3 PUSH2 0x25CD JUMP JUMPDEST PUSH2 0xCFC PUSH2 0x25A8 JUMP JUMPDEST PUSH2 0x1EDA PUSH2 0x25A8 JUMP JUMPDEST PUSH2 0x1A97 DUP2 PUSH2 0x25FD JUMP JUMPDEST PUSH0 DUP1 DUP3 PUSH1 0x60 ADD MLOAD PUSH5 0xFFFFFFFFFF AND TIMESTAMP PUSH2 0x1EFC SWAP2 SWAP1 PUSH2 0x2E9A JUMP JUMPDEST SWAP1 POP PUSH2 0xE10 DUP2 GT ISZERO PUSH2 0x1F10 JUMPI POP PUSH0 SWAP3 SWAP2 POP POP JUMP JUMPDEST PUSH2 0xE10 DUP2 DUP5 PUSH1 0x40 ADD MLOAD PUSH1 0x1 PUSH1 0x1 PUSH1 0xC0 SHL SUB AND PUSH2 0x1F2C SWAP2 SWAP1 PUSH2 0x2EAD JUMP JUMPDEST PUSH2 0x1F36 SWAP2 SWAP1 PUSH2 0x2EC4 JUMP JUMPDEST DUP4 PUSH1 0x40 ADD MLOAD PUSH1 0x1 PUSH1 0x1 PUSH1 0xC0 SHL SUB AND PUSH2 0x193D SWAP2 SWAP1 PUSH2 0x2E9A JUMP JUMPDEST PUSH0 PUSH1 0xD SLOAD PUSH0 SUB PUSH2 0x1F67 JUMPI POP PUSH8 0x3782DACE9D900000 SWAP2 SWAP1 POP JUMP JUMPDEST PUSH0 PUSH1 0xD SLOAD DUP4 GT ISZERO PUSH2 0x1F93 JUMPI PUSH3 0x278D00 PUSH1 0xD SLOAD DUP5 PUSH2 0x1F84 SWAP2 SWAP1 PUSH2 0x2E9A JUMP JUMPDEST PUSH2 0x1F8E SWAP2 SWAP1 PUSH2 0x2EC4 JUMP JUMPDEST PUSH2 0x1F95 JUMP JUMPDEST PUSH0 JUMPDEST PUSH8 0x3782DACE9D900000 DUP2 SHR SWAP3 POP SWAP1 POP PUSH7 0x2386F26FC10000 DUP3 LT ISZERO PUSH2 0x1FBE JUMPI PUSH7 0x2386F26FC10000 SWAP2 POP JUMPDEST POP SWAP2 SWAP1 POP JUMP JUMPDEST PUSH0 DUP1 MLOAD PUSH1 0x20 PUSH2 0x30D1 DUP4 CODECOPY DUP2 MLOAD SWAP2 MSTORE PUSH1 0x1 PUSH1 0x1 PUSH1 0xA0 SHL SUB DUP4 AND PUSH2 0x2004 JUMPI PUSH1 0x40 MLOAD PUSH4 0xB611743 PUSH1 0xE3 SHL DUP2 MSTORE PUSH1 0x1 PUSH1 0x1 PUSH1 0xA0 SHL SUB DUP5 AND PUSH1 0x4 DUP3 ADD MSTORE PUSH1 0x24 ADD PUSH2 0x8B0 JUMP JUMPDEST PUSH1 0x1 PUSH1 0x1 PUSH1 0xA0 SHL SUB DUP5 DUP2 AND PUSH0 DUP2 DUP2 MSTORE PUSH1 0x5 DUP5 ADD PUSH1 0x20 SWAP1 DUP2 MSTORE PUSH1 0x40 DUP1 DUP4 KECCAK256 SWAP5 DUP9 AND DUP1 DUP5 MSTORE SWAP5 DUP3 MSTORE SWAP2 DUP3 SWAP1 KECCAK256 DUP1 SLOAD PUSH1 0xFF NOT AND DUP8 ISZERO ISZERO SWAP1 DUP2 OR SWAP1 SWAP2 SSTORE SWAP2 MLOAD SWAP2 DUP3 MSTORE PUSH32 0x17307EAB39AB6107E8899845AD3D59BD9653F200F220920489CA2B5937696C31 SWAP2 ADD PUSH1 0x40 MLOAD DUP1 SWAP2 SUB SWAP1 LOG3 POP POP POP POP JUMP JUMPDEST PUSH1 0x1 PUSH1 0x1 PUSH1 0xA0 SHL SUB DUP4 AND EXTCODESIZE ISZERO PUSH2 0xE55 JUMPI PUSH1 0x40 MLOAD PUSH4 0xA85BD01 PUSH1 0xE1 SHL DUP2 MSTORE PUSH1 0x1 PUSH1 0x1 PUSH1 0xA0 SHL SUB DUP5 AND SWAP1 PUSH4 0x150B7A02 SWAP1 PUSH2 0x20B5 SWAP1 DUP9 SWAP1 DUP9 SWAP1 DUP8 SWAP1 DUP8 SWAP1 PUSH1 0x4 ADD PUSH2 0x3030 JUMP JUMPDEST PUSH1 0x20 PUSH1 0x40 MLOAD DUP1 DUP4 SUB DUP2 PUSH0 DUP8 GAS CALL SWAP3 POP POP POP DUP1 ISZERO PUSH2 0x20EF JUMPI POP PUSH1 0x40 DUP1 MLOAD PUSH1 0x1F RETURNDATASIZE SWAP1 DUP2 ADD PUSH1 0x1F NOT AND DUP3 ADD SWAP1 SWAP3 MSTORE PUSH2 0x20EC SWAP2 DUP2 ADD SWAP1 PUSH2 0x306C JUMP JUMPDEST PUSH1 0x1 JUMPDEST PUSH2 0x2156 JUMPI RETURNDATASIZE DUP1 DUP1 ISZERO PUSH2 0x211C JUMPI PUSH1 0x40 MLOAD SWAP2 POP PUSH1 0x1F NOT PUSH1 0x3F RETURNDATASIZE ADD AND DUP3 ADD PUSH1 0x40 MSTORE RETURNDATASIZE DUP3 MSTORE RETURNDATASIZE PUSH0 PUSH1 0x20 DUP5 ADD RETURNDATACOPY PUSH2 0x2121 JUMP JUMPDEST PUSH1 0x60 SWAP2 POP JUMPDEST POP DUP1 MLOAD PUSH0 SUB PUSH2 0x214E JUMPI PUSH1 0x40 MLOAD PUSH4 0x32505749 PUSH1 0xE1 SHL DUP2 MSTORE PUSH1 0x1 PUSH1 0x1 PUSH1 0xA0 SHL SUB DUP6 AND PUSH1 0x4 DUP3 ADD MSTORE PUSH1 0x24 ADD PUSH2 0x8B0 JUMP JUMPDEST DUP1 MLOAD PUSH1 0x20 DUP3 ADD REVERT JUMPDEST PUSH1 0x1 PUSH1 0x1 PUSH1 0xE0 SHL SUB NOT DUP2 AND PUSH4 0xA85BD01 PUSH1 0xE1 SHL EQ PUSH2 0x2192 JUMPI PUSH1 0x40 MLOAD PUSH4 0x32505749 PUSH1 0xE1 SHL DUP2 MSTORE PUSH1 0x1 PUSH1 0x1 PUSH1 0xA0 SHL SUB DUP6 AND PUSH1 0x4 DUP3 ADD MSTORE PUSH1 0x24 ADD PUSH2 0x8B0 JUMP JUMPDEST POP POP POP POP POP POP JUMP JUMPDEST PUSH1 0x60 PUSH32 0x542A41881EE128A365A727B282C86FA859579490B9BB45AAB8503648C8E7900 PUSH2 0x21C6 DUP4 PUSH2 0x1ABE JUMP JUMPDEST POP PUSH0 DUP4 DUP2 MSTORE PUSH1 0x20 DUP3 SWAP1 MSTORE PUSH1 0x40 DUP2 KECCAK256 DUP1 SLOAD PUSH2 0x21DF SWAP1 PUSH2 0x2E54 JUMP JUMPDEST DUP1 PUSH1 0x1F ADD PUSH1 0x20 DUP1 SWAP2 DIV MUL PUSH1 0x20 ADD PUSH1 0x40 MLOAD SWAP1 DUP2 ADD PUSH1 0x40 MSTORE DUP1 SWAP3 SWAP2 SWAP1 DUP2 DUP2 MSTORE PUSH1 0x20 ADD DUP3 DUP1 SLOAD PUSH2 0x220B SWAP1 PUSH2 0x2E54 JUMP JUMPDEST DUP1 ISZERO PUSH2 0x2256 JUMPI DUP1 PUSH1 0x1F LT PUSH2 0x222D JUMPI PUSH2 0x100 DUP1 DUP4 SLOAD DIV MUL DUP4 MSTORE SWAP2 PUSH1 0x20 ADD SWAP2 PUSH2 0x2256 JUMP JUMPDEST DUP3 ADD SWAP2 SWAP1 PUSH0 MSTORE PUSH1 0x20 PUSH0 KECCAK256 SWAP1 JUMPDEST DUP2 SLOAD DUP2 MSTORE SWAP1 PUSH1 0x1 ADD SWAP1 PUSH1 0x20 ADD DUP1 DUP4 GT PUSH2 0x2239 JUMPI DUP3 SWAP1 SUB PUSH1 0x1F AND DUP3 ADD SWAP2 JUMPDEST POP POP POP POP POP SWAP1 POP PUSH0 PUSH2 0x2272 PUSH1 0x40 DUP1 MLOAD PUSH1 0x20 DUP2 ADD SWAP1 SWAP2 MSTORE PUSH0 DUP2 MSTORE SWAP1 JUMP JUMPDEST SWAP1 POP DUP1 MLOAD PUSH0 SUB PUSH2 0x2284 JUMPI POP SWAP4 SWAP3 POP POP POP JUMP JUMPDEST DUP2 MLOAD ISZERO PUSH2 0x22B7 JUMPI DUP1 DUP3 PUSH1 0x40 MLOAD PUSH1 0x20 ADD PUSH2 0x229E SWAP3 SWAP2 SWAP1 PUSH2 0x3087 JUMP JUMPDEST PUSH1 0x40 MLOAD PUSH1 0x20 DUP2 DUP4 SUB SUB DUP2 MSTORE SWAP1 PUSH1 0x40 MSTORE SWAP4 POP POP POP POP SWAP2 SWAP1 POP JUMP JUMPDEST PUSH2 0x22C0 DUP6 PUSH2 0x2605 JUMP JUMPDEST SWAP6 SWAP5 POP POP POP POP POP JUMP JUMPDEST PUSH2 0x887 DUP3 DUP3 PUSH1 0x40 MLOAD DUP1 PUSH1 0x20 ADD PUSH1 0x40 MSTORE DUP1 PUSH0 DUP2 MSTORE POP PUSH2 0x2675 JUMP JUMPDEST PUSH0 DUP3 DUP2 MSTORE PUSH32 0x542A41881EE128A365A727B282C86FA859579490B9BB45AAB8503648C8E7900 PUSH1 0x20 DUP2 SWAP1 MSTORE PUSH1 0x40 SWAP1 SWAP2 KECCAK256 PUSH2 0x231B DUP4 DUP3 PUSH2 0x2F27 JUMP JUMPDEST POP PUSH1 0x40 MLOAD DUP4 DUP2 MSTORE PUSH32 0xF8E1A15ABA9398E019F0B49DF1A4FDE98EE17AE345CB5F6B5E2C27F5033E8CE7 SWAP1 PUSH1 0x20 ADD PUSH1 0x40 MLOAD DUP1 SWAP2 SUB SWAP1 LOG1 POP POP POP JUMP JUMPDEST PUSH0 PUSH1 0x1 PUSH1 0x1 PUSH1 0xE0 SHL SUB NOT DUP3 AND PUSH4 0x80AC58CD PUSH1 0xE0 SHL EQ DUP1 PUSH2 0x2384 JUMPI POP PUSH1 0x1 PUSH1 0x1 PUSH1 0xE0 SHL SUB NOT DUP3 AND PUSH4 0x5B5E139F PUSH1 0xE0 SHL EQ JUMPDEST DUP1 PUSH2 0x7C1 JUMPI POP PUSH4 0x1FFC9A7 PUSH1 0xE0 SHL PUSH1 0x1 PUSH1 0x1 PUSH1 0xE0 SHL SUB NOT DUP4 AND EQ PUSH2 0x7C1 JUMP JUMPDEST PUSH0 SWAP1 DUP2 MSTORE PUSH32 0x80BB2B638CC20BC4D0A60D66940F3AB4A00C1D7B313497CA82FB0B4AB0079302 PUSH1 0x20 MSTORE PUSH1 0x40 SWAP1 KECCAK256 SLOAD PUSH1 0x1 PUSH1 0x1 PUSH1 0xA0 SHL SUB AND SWAP1 JUMP JUMPDEST PUSH0 DUP1 MLOAD PUSH1 0x20 PUSH2 0x30D1 DUP4 CODECOPY DUP2 MLOAD SWAP2 MSTORE DUP2 DUP1 PUSH2 0x23FE JUMPI POP PUSH1 0x1 PUSH1 0x1 PUSH1 0xA0 SHL SUB DUP4 AND ISZERO ISZERO JUMPDEST ISZERO PUSH2 0x24BF JUMPI PUSH0 PUSH2 0x240D DUP6 PUSH2 0x1ABE JUMP JUMPDEST SWAP1 POP PUSH1 0x1 PUSH1 0x1 PUSH1 0xA0 SHL SUB DUP5 AND ISZERO DUP1 ISZERO SWAP1 PUSH2 0x2439 JUMPI POP DUP4 PUSH1 0x1 PUSH1 0x1 PUSH1 0xA0 SHL SUB AND DUP2 PUSH1 0x1 PUSH1 0x1 PUSH1 0xA0 SHL SUB AND EQ ISZERO JUMPDEST DUP1 ISZERO PUSH2 0x244C JUMPI POP PUSH2 0x244A DUP2 DUP6 PUSH2 0x1A11 JUMP JUMPDEST ISZERO JUMPDEST ISZERO PUSH2 0x2475 JUMPI PUSH1 0x40 MLOAD PUSH4 0xA9FBF51F PUSH1 0xE0 SHL DUP2 MSTORE PUSH1 0x1 PUSH1 0x1 PUSH1 0xA0 SHL SUB DUP6 AND PUSH1 0x4 DUP3 ADD MSTORE PUSH1 0x24 ADD PUSH2 0x8B0 JUMP JUMPDEST DUP3 ISZERO PUSH2 0x24BD JUMPI DUP5 DUP7 PUSH1 0x1 PUSH1 0x1 PUSH1 0xA0 SHL SUB AND DUP3 PUSH1 0x1 PUSH1 0x1 PUSH1 0xA0 SHL SUB AND PUSH32 0x8C5BE1E5EBEC7D5BD14F71427D1E84F3DD0314C0F7B2291E5B200AC8C7C3B925 PUSH1 0x40 MLOAD PUSH1 0x40 MLOAD DUP1 SWAP2 SUB SWAP1 LOG4 JUMPDEST POP JUMPDEST PUSH0 SWAP4 DUP5 MSTORE PUSH1 0x4 ADD PUSH1 0x20 MSTORE POP POP PUSH1 0x40 SWAP1 KECCAK256 DUP1 SLOAD PUSH1 0x1 PUSH1 0x1 PUSH1 0xA0 SHL SUB NOT AND PUSH1 0x1 PUSH1 0x1 PUSH1 0xA0 SHL SUB SWAP3 SWAP1 SWAP3 AND SWAP2 SWAP1 SWAP2 OR SWAP1 SSTORE JUMP JUMPDEST PUSH2 0x24FA DUP4 DUP4 DUP4 PUSH2 0x268C JUMP JUMPDEST PUSH2 0xAB3 JUMPI PUSH1 0x1 PUSH1 0x1 PUSH1 0xA0 SHL SUB DUP4 AND PUSH2 0x2528 JUMPI PUSH1 0x40 MLOAD PUSH4 0x7E273289 PUSH1 0xE0 SHL DUP2 MSTORE PUSH1 0x4 DUP2 ADD DUP3 SWAP1 MSTORE PUSH1 0x24 ADD PUSH2 0x8B0 JUMP JUMPDEST PUSH1 0x40 MLOAD PUSH4 0x177E802F PUSH1 0xE0 SHL DUP2 MSTORE PUSH1 0x1 PUSH1 0x1 PUSH1 0xA0 SHL SUB DUP4 AND PUSH1 0x4 DUP3 ADD MSTORE PUSH1 0x24 DUP2 ADD DUP3 SWAP1 MSTORE PUSH1 0x44 ADD PUSH2 0x8B0 JUMP JUMPDEST PUSH2 0x255C DUP3 PUSH2 0x26F1 JUMP JUMPDEST PUSH1 0x40 MLOAD PUSH1 0x1 PUSH1 0x1 PUSH1 0xA0 SHL SUB DUP4 AND SWAP1 PUSH32 0xBC7CD75A20EE27FD9ADEBAB32041F755214DBC6BFFA90CC0225B39DA2E5C2D3B SWAP1 PUSH0 SWAP1 LOG2 DUP1 MLOAD ISZERO PUSH2 0x25A0 JUMPI PUSH2 0xAB3 DUP3 DUP3 PUSH2 0x2754 JUMP JUMPDEST PUSH2 0x887 PUSH2 0x27BD JUMP JUMPDEST PUSH2 0x25B0 PUSH2 0x27DC JUMP JUMPDEST PUSH2 0xCFC JUMPI PUSH1 0x40 MLOAD PUSH4 0x1AFCD79F PUSH1 0xE3 SHL DUP2 MSTORE PUSH1 0x4 ADD PUSH1 0x40 MLOAD DUP1 SWAP2 SUB SWAP1 REVERT JUMPDEST PUSH2 0x25D5 PUSH2 0x25A8 JUMP JUMPDEST PUSH0 DUP1 MLOAD PUSH1 0x20 PUSH2 0x30D1 DUP4 CODECOPY DUP2 MLOAD SWAP2 MSTORE DUP1 PUSH2 0x25EE DUP5 DUP3 PUSH2 0x2F27 JUMP JUMPDEST POP PUSH1 0x1 DUP2 ADD PUSH2 0x913 DUP4 DUP3 PUSH2 0x2F27 JUMP JUMPDEST PUSH2 0x1A65 PUSH2 0x25A8 JUMP JUMPDEST PUSH1 0x60 PUSH2 0x2610 DUP3 PUSH2 0x1ABE JUMP JUMPDEST POP PUSH0 PUSH2 0x2626 PUSH1 0x40 DUP1 MLOAD PUSH1 0x20 DUP2 ADD SWAP1 SWAP2 MSTORE PUSH0 DUP2 MSTORE SWAP1 JUMP JUMPDEST SWAP1 POP PUSH0 DUP2 MLOAD GT PUSH2 0x2644 JUMPI PUSH1 0x40 MLOAD DUP1 PUSH1 0x20 ADD PUSH1 0x40 MSTORE DUP1 PUSH0 DUP2 MSTORE POP PUSH2 0x193D JUMP JUMPDEST DUP1 PUSH2 0x264E DUP5 PUSH2 0x27F5 JUMP JUMPDEST PUSH1 0x40 MLOAD PUSH1 0x20 ADD PUSH2 0x265F SWAP3 SWAP2 SWAP1 PUSH2 0x3087 JUMP JUMPDEST PUSH1 0x40 MLOAD PUSH1 0x20 DUP2 DUP4 SUB SUB DUP2 MSTORE SWAP1 PUSH1 0x40 MSTORE SWAP4 SWAP3 POP POP POP JUMP JUMPDEST PUSH2 0x267F DUP4 DUP4 PUSH2 0x2885 JUMP JUMPDEST PUSH2 0xAB3 CALLER PUSH0 DUP6 DUP6 DUP6 PUSH2 0x2073 JUMP JUMPDEST PUSH0 PUSH1 0x1 PUSH1 0x1 PUSH1 0xA0 SHL SUB DUP4 AND ISZERO DUP1 ISZERO SWAP1 PUSH2 0x26E9 JUMPI POP DUP3 PUSH1 0x1 PUSH1 0x1 PUSH1 0xA0 SHL SUB AND DUP5 PUSH1 0x1 PUSH1 0x1 PUSH1 0xA0 SHL SUB AND EQ DUP1 PUSH2 0x26C5 JUMPI POP PUSH2 0x26C5 DUP5 DUP5 PUSH2 0x1A11 JUMP JUMPDEST DUP1 PUSH2 0x26E9 JUMPI POP DUP3 PUSH1 0x1 PUSH1 0x1 PUSH1 0xA0 SHL SUB AND PUSH2 0x26DE DUP4 PUSH2 0x1AF5 JUMP JUMPDEST PUSH1 0x1 PUSH1 0x1 PUSH1 0xA0 SHL SUB AND EQ JUMPDEST SWAP5 SWAP4 POP POP POP POP JUMP JUMPDEST DUP1 PUSH1 0x1 PUSH1 0x1 PUSH1 0xA0 SHL SUB AND EXTCODESIZE PUSH0 SUB PUSH2 0x2726 JUMPI PUSH1 0x40 MLOAD PUSH4 0x4C9C8CE3 PUSH1 0xE0 SHL DUP2 MSTORE PUSH1 0x1 PUSH1 0x1 PUSH1 0xA0 SHL SUB DUP3 AND PUSH1 0x4 DUP3 ADD MSTORE PUSH1 0x24 ADD PUSH2 0x8B0 JUMP JUMPDEST PUSH0 DUP1 MLOAD PUSH1 0x20 PUSH2 0x30F1 DUP4 CODECOPY DUP2 MLOAD SWAP2 MSTORE DUP1 SLOAD PUSH1 0x1 PUSH1 0x1 PUSH1 0xA0 SHL SUB NOT AND PUSH1 0x1 PUSH1 0x1 PUSH1 0xA0 SHL SUB SWAP3 SWAP1 SWAP3 AND SWAP2 SWAP1 SWAP2 OR SWAP1 SSTORE JUMP JUMPDEST PUSH1 0x60 PUSH0 DUP1 DUP5 PUSH1 0x1 PUSH1 0x1 PUSH1 0xA0 SHL SUB AND DUP5 PUSH1 0x40 MLOAD PUSH2 0x2770 SWAP2 SWAP1 PUSH2 0x30B5 JUMP JUMPDEST PUSH0 PUSH1 0x40 MLOAD DUP1 DUP4 SUB DUP2 DUP6 GAS DELEGATECALL SWAP2 POP POP RETURNDATASIZE DUP1 PUSH0 DUP2 EQ PUSH2 0x27A8 JUMPI PUSH1 0x40 MLOAD SWAP2 POP PUSH1 0x1F NOT PUSH1 0x3F RETURNDATASIZE ADD AND DUP3 ADD PUSH1 0x40 MSTORE RETURNDATASIZE DUP3 MSTORE RETURNDATASIZE PUSH0 PUSH1 0x20 DUP5 ADD RETURNDATACOPY PUSH2 0x27AD JUMP JUMPDEST PUSH1 0x60 SWAP2 POP JUMPDEST POP SWAP2 POP SWAP2 POP PUSH2 0x22C0 DUP6 DUP4 DUP4 PUSH2 0x28E6 JUMP JUMPDEST CALLVALUE ISZERO PUSH2 0xCFC JUMPI PUSH1 0x40 MLOAD PUSH4 0xB398979F PUSH1 0xE0 SHL DUP2 MSTORE PUSH1 0x4 ADD PUSH1 0x40 MLOAD DUP1 SWAP2 SUB SWAP1 REVERT JUMPDEST PUSH0 PUSH2 0x27E5 PUSH2 0x1E90 JUMP JUMPDEST SLOAD PUSH1 0x1 PUSH1 0x40 SHL SWAP1 DIV PUSH1 0xFF AND SWAP2 SWAP1 POP JUMP JUMPDEST PUSH1 0x60 PUSH0 PUSH2 0x2801 DUP4 PUSH2 0x2942 JUMP JUMPDEST PUSH1 0x1 ADD SWAP1 POP PUSH0 DUP2 PUSH8 0xFFFFFFFFFFFFFFFF DUP2 GT ISZERO PUSH2 0x2820 JUMPI PUSH2 0x2820 PUSH2 0x2BE2 JUMP JUMPDEST PUSH1 0x40 MLOAD SWAP1 DUP1 DUP3 MSTORE DUP1 PUSH1 0x1F ADD PUSH1 0x1F NOT AND PUSH1 0x20 ADD DUP3 ADD PUSH1 0x40 MSTORE DUP1 ISZERO PUSH2 0x284A JUMPI PUSH1 0x20 DUP3 ADD DUP2 DUP1 CALLDATASIZE DUP4 CALLDATACOPY ADD SWAP1 POP JUMPDEST POP SWAP1 POP DUP2 DUP2 ADD PUSH1 0x20 ADD JUMPDEST PUSH0 NOT ADD PUSH16 0x181899199A1A9B1B9C1CB0B131B232B3 PUSH1 0x81 SHL PUSH1 0xA DUP7 MOD BYTE DUP2 MSTORE8 PUSH1 0xA DUP6 DIV SWAP5 POP DUP5 PUSH2 0x2854 JUMPI POP SWAP4 SWAP3 POP POP POP JUMP JUMPDEST PUSH1 0x1 PUSH1 0x1 PUSH1 0xA0 SHL SUB DUP3 AND PUSH2 0x28AE JUMPI PUSH1 0x40 MLOAD PUSH4 0x32505749 PUSH1 0xE1 SHL DUP2 MSTORE PUSH0 PUSH1 0x4 DUP3 ADD MSTORE PUSH1 0x24 ADD PUSH2 0x8B0 JUMP JUMPDEST PUSH0 PUSH2 0x28BA DUP4 DUP4 PUSH0 PUSH2 0x1B3B JUMP JUMPDEST SWAP1 POP PUSH1 0x1 PUSH1 0x1 PUSH1 0xA0 SHL SUB DUP2 AND ISZERO PUSH2 0xAB3 JUMPI PUSH1 0x40 MLOAD PUSH4 0x39E35637 PUSH1 0xE1 SHL DUP2 MSTORE PUSH0 PUSH1 0x4 DUP3 ADD MSTORE PUSH1 0x24 ADD PUSH2 0x8B0 JUMP JUMPDEST PUSH1 0x60 DUP3 PUSH2 0x28FB JUMPI PUSH2 0x28F6 DUP3 PUSH2 0x2A19 JUMP JUMPDEST PUSH2 0x193D JUMP JUMPDEST DUP2 MLOAD ISZERO DUP1 ISZERO PUSH2 0x2912 JUMPI POP PUSH1 0x1 PUSH1 0x1 PUSH1 0xA0 SHL SUB DUP5 AND EXTCODESIZE ISZERO JUMPDEST ISZERO PUSH2 0x293B JUMPI PUSH1 0x40 MLOAD PUSH4 0x9996B315 PUSH1 0xE0 SHL DUP2 MSTORE PUSH1 0x1 PUSH1 0x1 PUSH1 0xA0 SHL SUB DUP6 AND PUSH1 0x4 DUP3 ADD MSTORE PUSH1 0x24 ADD PUSH2 0x8B0 JUMP JUMPDEST POP DUP1 PUSH2 0x193D JUMP JUMPDEST PUSH0 DUP1 PUSH19 0x184F03E93FF9F4DAA797ED6E38ED64BF6A1F01 PUSH1 0x40 SHL DUP4 LT PUSH2 0x2980 JUMPI PUSH19 0x184F03E93FF9F4DAA797ED6E38ED64BF6A1F01 PUSH1 0x40 SHL DUP4 DIV SWAP3 POP PUSH1 0x40 ADD JUMPDEST PUSH14 0x4EE2D6D415B85ACEF8100000000 DUP4 LT PUSH2 0x29AC JUMPI PUSH14 0x4EE2D6D415B85ACEF8100000000 DUP4 DIV SWAP3 POP PUSH1 0x20 ADD JUMPDEST PUSH7 0x2386F26FC10000 DUP4 LT PUSH2 0x29CA JUMPI PUSH7 0x2386F26FC10000 DUP4 DIV SWAP3 POP PUSH1 0x10 ADD JUMPDEST PUSH4 0x5F5E100 DUP4 LT PUSH2 0x29E2 JUMPI PUSH4 0x5F5E100 DUP4 DIV SWAP3 POP PUSH1 0x8 ADD JUMPDEST PUSH2 0x2710 DUP4 LT PUSH2 0x29F6 JUMPI PUSH2 0x2710 DUP4 DIV SWAP3 POP PUSH1 0x4 ADD JUMPDEST PUSH1 0x64 DUP4 LT PUSH2 0x2A08 JUMPI PUSH1 0x64 DUP4 DIV SWAP3 POP PUSH1 0x2 ADD JUMPDEST PUSH1 0xA DUP4 LT PUSH2 0x7C1 JUMPI PUSH1 0x1 ADD SWAP3 SWAP2 POP POP JUMP JUMPDEST DUP1 MLOAD ISZERO PUSH2 0x2A28 JUMPI DUP1 MLOAD PUSH1 0x20 DUP3 ADD REVERT JUMPDEST PUSH1 0x40 MLOAD PUSH4 0xD6BDA275 PUSH1 0xE0 SHL DUP2 MSTORE PUSH1 0x4 ADD PUSH1 0x40 MLOAD DUP1 SWAP2 SUB SWAP1 REVERT JUMPDEST PUSH1 0x1 PUSH1 0x1 PUSH1 0xE0 SHL SUB NOT DUP2 AND DUP2 EQ PUSH2 0x1A97 JUMPI PUSH0 DUP1 REVERT JUMPDEST PUSH0 PUSH1 0x20 DUP3 DUP5 SUB SLT ISZERO PUSH2 0x2A66 JUMPI PUSH0 DUP1 REVERT JUMPDEST DUP2 CALLDATALOAD PUSH2 0x193D DUP2 PUSH2 0x2A41 JUMP JUMPDEST PUSH0 JUMPDEST DUP4 DUP2 LT ISZERO PUSH2 0x2A8B JUMPI DUP2 DUP2 ADD MLOAD DUP4 DUP3 ADD MSTORE PUSH1 0x20 ADD PUSH2 0x2A73 JUMP JUMPDEST POP POP PUSH0 SWAP2 ADD MSTORE JUMP JUMPDEST PUSH0 DUP2 MLOAD DUP1 DUP5 MSTORE PUSH2 0x2AAA DUP2 PUSH1 0x20 DUP7 ADD PUSH1 0x20 DUP7 ADD PUSH2 0x2A71 JUMP JUMPDEST PUSH1 0x1F ADD PUSH1 0x1F NOT AND SWAP3 SWAP1 SWAP3 ADD PUSH1 0x20 ADD SWAP3 SWAP2 POP POP JUMP JUMPDEST PUSH1 0x20 DUP2 MSTORE PUSH0 PUSH2 0x193D PUSH1 0x20 DUP4 ADD DUP5 PUSH2 0x2A93 JUMP JUMPDEST PUSH0 PUSH1 0x20 DUP3 DUP5 SUB SLT ISZERO PUSH2 0x2AE0 JUMPI PUSH0 DUP1 REVERT JUMPDEST POP CALLDATALOAD SWAP2 SWAP1 POP JUMP JUMPDEST DUP1 CALLDATALOAD PUSH1 0x1 PUSH1 0x1 PUSH1 0xA0 SHL SUB DUP2 AND DUP2 EQ PUSH2 0x2AFD JUMPI PUSH0 DUP1 REVERT JUMPDEST SWAP2 SWAP1 POP JUMP JUMPDEST PUSH0 DUP1 PUSH1 0x40 DUP4 DUP6 SUB SLT ISZERO PUSH2 0x2B13 JUMPI PUSH0 DUP1 REVERT JUMPDEST PUSH2 0x2B1C DUP4 PUSH2 0x2AE7 JUMP JUMPDEST SWAP5 PUSH1 0x20 SWAP4 SWAP1 SWAP4 ADD CALLDATALOAD SWAP4 POP POP POP JUMP JUMPDEST PUSH0 DUP1 PUSH0 PUSH1 0x60 DUP5 DUP7 SUB SLT ISZERO PUSH2 0x2B3C JUMPI PUSH0 DUP1 REVERT JUMPDEST PUSH2 0x2B45 DUP5 PUSH2 0x2AE7 JUMP JUMPDEST SWAP3 POP PUSH2 0x2B53 PUSH1 0x20 DUP6 ADD PUSH2 0x2AE7 JUMP JUMPDEST SWAP2 POP PUSH1 0x40 DUP5 ADD CALLDATALOAD SWAP1 POP SWAP3 POP SWAP3 POP SWAP3 JUMP JUMPDEST PUSH1 0xFF DUP9 AND DUP2 MSTORE PUSH2 0xFFFF DUP8 AND PUSH1 0x20 DUP3 ADD MSTORE PUSH1 0x1 PUSH1 0x1 PUSH1 0xC0 SHL SUB DUP7 AND PUSH1 0x40 DUP3 ADD MSTORE PUSH5 0xFFFFFFFFFF DUP6 AND PUSH1 0x60 DUP3 ADD MSTORE PUSH1 0x80 DUP2 ADD DUP5 SWAP1 MSTORE PUSH1 0x1 PUSH1 0x1 PUSH1 0xA0 SHL SUB DUP4 AND PUSH1 0xA0 DUP3 ADD MSTORE PUSH1 0xE0 PUSH1 0xC0 DUP3 ADD DUP2 SWAP1 MSTORE PUSH0 SWAP1 PUSH2 0x2BBC SWAP1 DUP4 ADD DUP5 PUSH2 0x2A93 JUMP JUMPDEST SWAP10 SWAP9 POP POP POP POP POP POP POP POP POP JUMP JUMPDEST PUSH0 PUSH1 0x20 DUP3 DUP5 SUB SLT ISZERO PUSH2 0x2BD9 JUMPI PUSH0 DUP1 REVERT JUMPDEST PUSH2 0x193D DUP3 PUSH2 0x2AE7 JUMP JUMPDEST PUSH4 0x4E487B71 PUSH1 0xE0 SHL PUSH0 MSTORE PUSH1 0x41 PUSH1 0x4 MSTORE PUSH1 0x24 PUSH0 REVERT JUMPDEST PUSH0 DUP3 PUSH1 0x1F DUP4 ADD SLT PUSH2 0x2C05 JUMPI PUSH0 DUP1 REVERT JUMPDEST DUP2 CALLDATALOAD PUSH8 0xFFFFFFFFFFFFFFFF DUP1 DUP3 GT ISZERO PUSH2 0x2C20 JUMPI PUSH2 0x2C20 PUSH2 0x2BE2 JUMP JUMPDEST PUSH1 0x40 MLOAD PUSH1 0x1F DUP4 ADD PUSH1 0x1F NOT SWAP1 DUP2 AND PUSH1 0x3F ADD AND DUP2 ADD SWAP1 DUP3 DUP3 GT DUP2 DUP4 LT OR ISZERO PUSH2 0x2C48 JUMPI PUSH2 0x2C48 PUSH2 0x2BE2 JUMP JUMPDEST DUP2 PUSH1 0x40 MSTORE DUP4 DUP2 MSTORE DUP7 PUSH1 0x20 DUP6 DUP9 ADD ADD GT ISZERO PUSH2 0x2C60 JUMPI PUSH0 DUP1 REVERT JUMPDEST DUP4 PUSH1 0x20 DUP8 ADD PUSH1 0x20 DUP4 ADD CALLDATACOPY PUSH0 PUSH1 0x20 DUP6 DUP4 ADD ADD MSTORE DUP1 SWAP5 POP POP POP POP POP SWAP3 SWAP2 POP POP JUMP JUMPDEST PUSH0 DUP1 PUSH1 0x40 DUP4 DUP6 SUB SLT ISZERO PUSH2 0x2C90 JUMPI PUSH0 DUP1 REVERT JUMPDEST PUSH2 0x2C99 DUP4 PUSH2 0x2AE7 JUMP JUMPDEST SWAP2 POP PUSH1 0x20 DUP4 ADD CALLDATALOAD PUSH8 0xFFFFFFFFFFFFFFFF DUP2 GT ISZERO PUSH2 0x2CB4 JUMPI PUSH0 DUP1 REVERT JUMPDEST PUSH2 0x2CC0 DUP6 DUP3 DUP7 ADD PUSH2 0x2BF6 JUMP JUMPDEST SWAP2 POP POP SWAP3 POP SWAP3 SWAP1 POP JUMP JUMPDEST PUSH0 DUP1 PUSH0 DUP1 PUSH1 0x80 DUP6 DUP8 SUB SLT ISZERO PUSH2 0x2CDD JUMPI PUSH0 DUP1 REVERT JUMPDEST DUP5 CALLDATALOAD SWAP4 POP PUSH1 0x20 DUP6 ADD CALLDATALOAD SWAP3 POP PUSH1 0x40 DUP6 ADD CALLDATALOAD SWAP2 POP PUSH1 0x60 DUP6 ADD CALLDATALOAD PUSH8 0xFFFFFFFFFFFFFFFF DUP2 GT ISZERO PUSH2 0x2D08 JUMPI PUSH0 DUP1 REVERT JUMPDEST PUSH2 0x2D14 DUP8 DUP3 DUP9 ADD PUSH2 0x2BF6 JUMP JUMPDEST SWAP2 POP POP SWAP3 SWAP6 SWAP2 SWAP5 POP SWAP3 POP JUMP JUMPDEST PUSH0 DUP1 PUSH1 0x40 DUP4 DUP6 SUB SLT ISZERO PUSH2 0x2D31 JUMPI PUSH0 DUP1 REVERT JUMPDEST PUSH2 0x2D3A DUP4 PUSH2 0x2AE7 JUMP JUMPDEST SWAP2 POP PUSH1 0x20 DUP4 ADD CALLDATALOAD DUP1 ISZERO ISZERO DUP2 EQ PUSH2 0x2D4E JUMPI PUSH0 DUP1 REVERT JUMPDEST DUP1 SWAP2 POP POP SWAP3 POP SWAP3 SWAP1 POP JUMP JUMPDEST PUSH0 DUP1 PUSH0 DUP1 PUSH1 0x80 DUP6 DUP8 SUB SLT ISZERO PUSH2 0x2D6C JUMPI PUSH0 DUP1 REVERT JUMPDEST PUSH2 0x2D75 DUP6 PUSH2 0x2AE7 JUMP JUMPDEST SWAP4 POP PUSH2 0x2D83 PUSH1 0x20 DUP7 ADD PUSH2 0x2AE7 JUMP JUMPDEST SWAP3 POP PUSH1 0x40 DUP6 ADD CALLDATALOAD SWAP2 POP PUSH1 0x60 DUP6 ADD CALLDATALOAD PUSH8 0xFFFFFFFFFFFFFFFF DUP2 GT ISZERO PUSH2 0x2D08 JUMPI PUSH0 DUP1 REVERT JUMPDEST PUSH1 0x20 DUP2 MSTORE PUSH1 0xFF DUP3 MLOAD AND PUSH1 0x20 DUP3 ADD MSTORE PUSH2 0xFFFF PUSH1 0x20 DUP4 ADD MLOAD AND PUSH1 0x40 DUP3 ADD MSTORE PUSH1 0x1 DUP1 PUSH1 0xC0 SHL SUB PUSH1 0x40 DUP4 ADD MLOAD AND PUSH1 0x60 DUP3 ADD MSTORE PUSH5 0xFFFFFFFFFF PUSH1 0x60 DUP4 ADD MLOAD AND PUSH1 0x80 DUP3 ADD MSTORE PUSH1 0x80 DUP3 ADD MLOAD PUSH1 0xA0 DUP3 ADD MSTORE PUSH0 PUSH1 0xA0 DUP4 ADD MLOAD PUSH2 0x2E09 PUSH1 0xC0 DUP5 ADD DUP3 PUSH1 0x1 PUSH1 0x1 PUSH1 0xA0 SHL SUB AND SWAP1 MSTORE JUMP JUMPDEST POP PUSH1 0xC0 DUP4 ADD MLOAD PUSH1 0xE0 DUP1 DUP5 ADD MSTORE PUSH2 0x26E9 PUSH2 0x100 DUP5 ADD DUP3 PUSH2 0x2A93 JUMP JUMPDEST PUSH0 DUP1 PUSH1 0x40 DUP4 DUP6 SUB SLT ISZERO PUSH2 0x2E34 JUMPI PUSH0 DUP1 REVERT JUMPDEST PUSH2 0x2E3D DUP4 PUSH2 0x2AE7 JUMP JUMPDEST SWAP2 POP PUSH2 0x2E4B PUSH1 0x20 DUP5 ADD PUSH2 0x2AE7 JUMP JUMPDEST SWAP1 POP SWAP3 POP SWAP3 SWAP1 POP JUMP JUMPDEST PUSH1 0x1 DUP2 DUP2 SHR SWAP1 DUP3 AND DUP1 PUSH2 0x2E68 JUMPI PUSH1 0x7F DUP3 AND SWAP2 POP JUMPDEST PUSH1 0x20 DUP3 LT DUP2 SUB PUSH2 0x1FBE JUMPI PUSH4 0x4E487B71 PUSH1 0xE0 SHL PUSH0 MSTORE PUSH1 0x22 PUSH1 0x4 MSTORE PUSH1 0x24 PUSH0 REVERT JUMPDEST PUSH4 0x4E487B71 PUSH1 0xE0 SHL PUSH0 MSTORE PUSH1 0x11 PUSH1 0x4 MSTORE PUSH1 0x24 PUSH0 REVERT JUMPDEST DUP2 DUP2 SUB DUP2 DUP2 GT ISZERO PUSH2 0x7C1 JUMPI PUSH2 0x7C1 PUSH2 0x2E86 JUMP JUMPDEST DUP1 DUP3 MUL DUP2 ISZERO DUP3 DUP3 DIV DUP5 EQ OR PUSH2 0x7C1 JUMPI PUSH2 0x7C1 PUSH2 0x2E86 JUMP JUMPDEST PUSH0 DUP3 PUSH2 0x2EDE JUMPI PUSH4 0x4E487B71 PUSH1 0xE0 SHL PUSH0 MSTORE PUSH1 0x12 PUSH1 0x4 MSTORE PUSH1 0x24 PUSH0 REVERT JUMPDEST POP DIV SWAP1 JUMP JUMPDEST PUSH1 0x1F DUP3 GT ISZERO PUSH2 0xAB3 JUMPI DUP1 PUSH0 MSTORE PUSH1 0x20 PUSH0 KECCAK256 PUSH1 0x1F DUP5 ADD PUSH1 0x5 SHR DUP2 ADD PUSH1 0x20 DUP6 LT ISZERO PUSH2 0x2F08 JUMPI POP DUP1 JUMPDEST PUSH1 0x1F DUP5 ADD PUSH1 0x5 SHR DUP3 ADD SWAP2 POP JUMPDEST DUP2 DUP2 LT ISZERO PUSH2 0xE55 JUMPI PUSH0 DUP2 SSTORE PUSH1 0x1 ADD PUSH2 0x2F14 JUMP JUMPDEST DUP2 MLOAD PUSH8 0xFFFFFFFFFFFFFFFF DUP2 GT ISZERO PUSH2 0x2F41 JUMPI PUSH2 0x2F41 PUSH2 0x2BE2 JUMP JUMPDEST PUSH2 0x2F55 DUP2 PUSH2 0x2F4F DUP5 SLOAD PUSH2 0x2E54 JUMP JUMPDEST DUP5 PUSH2 0x2EE3 JUMP JUMPDEST PUSH1 0x20 DUP1 PUSH1 0x1F DUP4 GT PUSH1 0x1 DUP2 EQ PUSH2 0x2F88 JUMPI PUSH0 DUP5 ISZERO PUSH2 0x2F71 JUMPI POP DUP6 DUP4 ADD MLOAD JUMPDEST PUSH0 NOT PUSH1 0x3 DUP7 SWAP1 SHL SHR NOT AND PUSH1 0x1 DUP6 SWAP1 SHL OR DUP6 SSTORE PUSH2 0x2192 JUMP JUMPDEST PUSH0 DUP6 DUP2 MSTORE PUSH1 0x20 DUP2 KECCAK256 PUSH1 0x1F NOT DUP7 AND SWAP2 JUMPDEST DUP3 DUP2 LT ISZERO PUSH2 0x2FB6 JUMPI DUP9 DUP7 ADD MLOAD DUP3 SSTORE SWAP5 DUP5 ADD SWAP5 PUSH1 0x1 SWAP1 SWAP2 ADD SWAP1 DUP5 ADD PUSH2 0x2F97 JUMP JUMPDEST POP DUP6 DUP3 LT ISZERO PUSH2 0x2FD3 JUMPI DUP8 DUP6 ADD MLOAD PUSH0 NOT PUSH1 0x3 DUP9 SWAP1 SHL PUSH1 0xF8 AND SHR NOT AND DUP2 SSTORE JUMPDEST POP POP POP POP POP PUSH1 0x1 SWAP1 DUP2 SHL ADD SWAP1 SSTORE POP JUMP JUMPDEST DUP4 DUP2 MSTORE DUP3 PUSH1 0x20 DUP3 ADD MSTORE PUSH1 0x60 PUSH1 0x40 DUP3 ADD MSTORE PUSH0 PUSH2 0x22C0 PUSH1 0x60 DUP4 ADD DUP5 PUSH2 0x2A93 JUMP JUMPDEST PUSH0 PUSH1 0x1 DUP3 ADD PUSH2 0x3012 JUMPI PUSH2 0x3012 PUSH2 0x2E86 JUMP JUMPDEST POP PUSH1 0x1 ADD SWAP1 JUMP JUMPDEST PUSH0 PUSH1 0x20 DUP3 DUP5 SUB SLT ISZERO PUSH2 0x3029 JUMPI PUSH0 DUP1 REVERT JUMPDEST POP MLOAD SWAP2 SWAP1 POP JUMP JUMPDEST PUSH1 0x1 PUSH1 0x1 PUSH1 0xA0 SHL SUB DUP6 DUP2 AND DUP3 MSTORE DUP5 AND PUSH1 0x20 DUP3 ADD MSTORE PUSH1 0x40 DUP2 ADD DUP4 SWAP1 MSTORE PUSH1 0x80 PUSH1 0x60 DUP3 ADD DUP2 SWAP1 MSTORE PUSH0 SWAP1 PUSH2 0x3062 SWAP1 DUP4 ADD DUP5 PUSH2 0x2A93 JUMP JUMPDEST SWAP7 SWAP6 POP POP POP POP POP POP JUMP JUMPDEST PUSH0 PUSH1 0x20 DUP3 DUP5 SUB SLT ISZERO PUSH2 0x307C JUMPI PUSH0 DUP1 REVERT JUMPDEST DUP2 MLOAD PUSH2 0x193D DUP2 PUSH2 0x2A41 JUMP JUMPDEST PUSH0 DUP4 MLOAD PUSH2 0x3098 DUP2 DUP5 PUSH1 0x20 DUP9 ADD PUSH2 0x2A71 JUMP JUMPDEST DUP4 MLOAD SWAP1 DUP4 ADD SWAP1 PUSH2 0x30AC DUP2 DUP4 PUSH1 0x20 DUP9 ADD PUSH2 0x2A71 JUMP JUMPDEST ADD SWAP5 SWAP4 POP POP POP POP JUMP JUMPDEST PUSH0 DUP3 MLOAD PUSH2 0x30C6 DUP2 DUP5 PUSH1 0x20 DUP8 ADD PUSH2 0x2A71 JUMP JUMPDEST SWAP2 SWAP1 SWAP2 ADD SWAP3 SWAP2 POP POP JUMP INVALID DUP1 0xBB 0x2B PUSH4 0x8CC20BC4 0xD0 0xA6 0xD PUSH7 0x940F3AB4A00C1D PUSH28 0x313497CA82FB0B4AB0079300360894A13BA1A3210667C828492DB98D 0xCA RETURNDATACOPY KECCAK256 PUSH23 0xCC3735A920A3CA505D382BBCA2646970667358221220E2 SLOAD 0xB4 ADDRESS 0xDD 0xCA GASPRICE 0x25 SWAP7 PUSH15 0x60776D79CCCEFE87351DE979506480 PUSH18 0x6EEC8BFADE9864736F6C6343000818003300 "},"methodIdentifiers":{"ABS_MAX_INIT_PRICE()":"88f4b49e","DEFAULT_RATE()":"a3e860fe","DIVISOR()":"3410fe6e","EPOCH_PERIOD()":"9c511ad4","FEE()":"c57981b5","HALVING_PERIOD()":"3adde9c1","INITIAL_DPS()":"a2e66a0f","MIN_INIT_PRICE()":"ef2e0d25","NEW_PRICE_MULTIPLIER()":"87995660","PRECISION()":"aaf5eb68","PRICE_MULTIPLIER()":"113990b8","TAIL_DPS()":"0169916a","UPGRADE_INTERFACE_VERSION()":"ad3cb1cc","approve(address,uint256)":"095ea7b3","balanceOf(address)":"70a08231","calculatePendingTokens(uint256)":"e5eb39ec","claimTokens(uint256)":"46e04a2f","getApproved(uint256)":"081812fc","getDps()":"b0a13a5c","getPrice()":"98d5fdca","getSlot0()":"c9ae5e0c","initialize()":"8129fc1c","initializeOfficeV2(address)":"e69be3f3","isApprovedForAll(address,address)":"e985e9c5","keepToken()":"467c5adf","lastClaimTime(uint256)":"877dab7e","mintingRate(uint256)":"5fea89f1","name()":"06fdde03","owner()":"8da5cb5b","ownerOf(uint256)":"6352211e","proxiableUUID()":"52d1902d","renounceOwnership()":"715018a6","safeMint(address,string)":"d204c45e","safeTransferFrom(address,address,uint256)":"42842e0e","safeTransferFrom(address,address,uint256,bytes)":"b88d4fde","setApprovalForAll(address,bool)":"a22cb465","setKeepTokenContract(address)":"3dbc71fa","slot0()":"3850c7bd","supportsInterface(bytes4)":"01ffc9a7","symbol()":"95d89b41","takeOffice(uint256,uint256,uint256,string)":"9e421726","tokenURI(uint256)":"c87b56dd","transferFrom(address,address,uint256)":"23b872dd","transferOwnership(address)":"f2fde38b","treasury()":"61d027b3","upgradeToAndCall(address,bytes)":"4f1ef286","v2StartTime()":"07d2e1e2"}},"storageLayout":{"storage":[{"astId":8953,"contract":"contracts/TavernKeeper.sol:TavernKeeper","label":"_nextTokenId","offset":0,"slot":"0","type":"t_uint256"},{"astId":8985,"contract":"contracts/TavernKeeper.sol:TavernKeeper","label":"keepToken","offset":0,"slot":"1","type":"t_address"},{"astId":8989,"contract":"contracts/TavernKeeper.sol:TavernKeeper","label":"lastClaimTime","offset":0,"slot":"2","type":"t_mapping(t_uint256,t_uint256)"},{"astId":8993,"contract":"contracts/TavernKeeper.sol:TavernKeeper","label":"mintingRate","offset":0,"slot":"3","type":"t_mapping(t_uint256,t_uint256)"},{"astId":9211,"contract":"contracts/TavernKeeper.sol:TavernKeeper","label":"currentKing","offset":0,"slot":"4","type":"t_address"},{"astId":9213,"contract":"contracts/TavernKeeper.sol:TavernKeeper","label":"currentPrice","offset":0,"slot":"5","type":"t_uint256"},{"astId":9215,"contract":"contracts/TavernKeeper.sol:TavernKeeper","label":"kingSince","offset":0,"slot":"6","type":"t_uint256"},{"astId":9217,"contract":"contracts/TavernKeeper.sol:TavernKeeper","label":"officeRate","offset":0,"slot":"7","type":"t_uint256"},{"astId":9235,"contract":"contracts/TavernKeeper.sol:TavernKeeper","label":"slot0","offset":0,"slot":"8","type":"t_struct(Slot0)9232_storage"},{"astId":9237,"contract":"contracts/TavernKeeper.sol:TavernKeeper","label":"treasury","offset":0,"slot":"12","type":"t_address"},{"astId":9350,"contract":"contracts/TavernKeeper.sol:TavernKeeper","label":"v2StartTime","offset":0,"slot":"13","type":"t_uint256"}],"types":{"t_address":{"encoding":"inplace","label":"address","numberOfBytes":"20"},"t_mapping(t_uint256,t_uint256)":{"encoding":"mapping","key":"t_uint256","label":"mapping(uint256 => uint256)","numberOfBytes":"32","value":"t_uint256"},"t_string_storage":{"encoding":"bytes","label":"string","numberOfBytes":"32"},"t_struct(Slot0)9232_storage":{"encoding":"inplace","label":"struct TavernKeeper.Slot0","members":[{"astId":9219,"contract":"contracts/TavernKeeper.sol:TavernKeeper","label":"locked","offset":0,"slot":"0","type":"t_uint8"},{"astId":9221,"contract":"contracts/TavernKeeper.sol:TavernKeeper","label":"epochId","offset":1,"slot":"0","type":"t_uint16"},{"astId":9223,"contract":"contracts/TavernKeeper.sol:TavernKeeper","label":"initPrice","offset":3,"slot":"0","type":"t_uint192"},{"astId":9225,"contract":"contracts/TavernKeeper.sol:TavernKeeper","label":"startTime","offset":27,"slot":"0","type":"t_uint40"},{"astId":9227,"contract":"contracts/TavernKeeper.sol:TavernKeeper","label":"dps","offset":0,"slot":"1","type":"t_uint256"},{"astId":9229,"contract":"contracts/TavernKeeper.sol:TavernKeeper","label":"miner","offset":0,"slot":"2","type":"t_address"},{"astId":9231,"contract":"contracts/TavernKeeper.sol:TavernKeeper","label":"uri","offset":0,"slot":"3","type":"t_string_storage"}],"numberOfBytes":"128"},"t_uint16":{"encoding":"inplace","label":"uint16","numberOfBytes":"2"},"t_uint192":{"encoding":"inplace","label":"uint192","numberOfBytes":"24"},"t_uint256":{"encoding":"inplace","label":"uint256","numberOfBytes":"32"},"t_uint40":{"encoding":"inplace","label":"uint40","numberOfBytes":"5"},"t_uint8":{"encoding":"inplace","label":"uint8","numberOfBytes":"1"}}}}}}