{"contracts/TavernKeeper.sol":{"TavernKeeper":{"abi":[{"inputs":[],"stateMutability":"nonpayable","type":"constructor"},{"inputs":[{"internalType":"address","name":"target","type":"address"}],"name":"AddressEmptyCode","type":"error"},{"inputs":[{"internalType":"address","name":"implementation","type":"address"}],"name":"ERC1967InvalidImplementation","type":"error"},{"inputs":[],"name":"ERC1967NonPayable","type":"error"},{"inputs":[{"internalType":"address","name":"sender","type":"address"},{"internalType":"uint256","name":"tokenId","type":"uint256"},{"internalType":"address","name":"owner","type":"address"}],"name":"ERC721IncorrectOwner","type":"error"},{"inputs":[{"internalType":"address","name":"operator","type":"address"},{"internalType":"uint256","name":"tokenId","type":"uint256"}],"name":"ERC721InsufficientApproval","type":"error"},{"inputs":[{"internalType":"address","name":"approver","type":"address"}],"name":"ERC721InvalidApprover","type":"error"},{"inputs":[{"internalType":"address","name":"operator","type":"address"}],"name":"ERC721InvalidOperator","type":"error"},{"inputs":[{"internalType":"address","name":"owner","type":"address"}],"name":"ERC721InvalidOwner","type":"error"},{"inputs":[{"internalType":"address","name":"receiver","type":"address"}],"name":"ERC721InvalidReceiver","type":"error"},{"inputs":[{"internalType":"address","name":"sender","type":"address"}],"name":"ERC721InvalidSender","type":"error"},{"inputs":[{"internalType":"uint256","name":"tokenId","type":"uint256"}],"name":"ERC721NonexistentToken","type":"error"},{"inputs":[],"name":"EpochIdMismatch","type":"error"},{"inputs":[],"name":"Expired","type":"error"},{"inputs":[],"name":"FailedCall","type":"error"},{"inputs":[],"name":"InvalidInitialization","type":"error"},{"inputs":[],"name":"InvalidTreasury","type":"error"},{"inputs":[],"name":"MaxPriceExceeded","type":"error"},{"inputs":[],"name":"NotInitializing","type":"error"},{"inputs":[{"internalType":"address","name":"owner","type":"address"}],"name":"OwnableInvalidOwner","type":"error"},{"inputs":[{"internalType":"address","name":"account","type":"address"}],"name":"OwnableUnauthorizedAccount","type":"error"},{"inputs":[],"name":"Reentrancy","type":"error"},{"inputs":[],"name":"UUPSUnauthorizedCallContext","type":"error"},{"inputs":[{"internalType":"bytes32","name":"slot","type":"bytes32"}],"name":"UUPSUnsupportedProxiableUUID","type":"error"},{"anonymous":false,"inputs":[{"indexed":true,"internalType":"address","name":"owner","type":"address"},{"indexed":true,"internalType":"address","name":"approved","type":"address"},{"indexed":true,"internalType":"uint256","name":"tokenId","type":"uint256"}],"name":"Approval","type":"event"},{"anonymous":false,"inputs":[{"indexed":true,"internalType":"address","name":"owner","type":"address"},{"indexed":true,"internalType":"address","name":"operator","type":"address"},{"indexed":false,"internalType":"bool","name":"approved","type":"bool"}],"name":"ApprovalForAll","type":"event"},{"anonymous":false,"inputs":[{"indexed":false,"internalType":"uint256","name":"_fromTokenId","type":"uint256"},{"indexed":false,"internalType":"uint256","name":"_toTokenId","type":"uint256"}],"name":"BatchMetadataUpdate","type":"event"},{"anonymous":false,"inputs":[{"indexed":false,"internalType":"uint64","name":"version","type":"uint64"}],"name":"Initialized","type":"event"},{"anonymous":false,"inputs":[{"indexed":true,"internalType":"address","name":"oldToken","type":"address"},{"indexed":true,"internalType":"address","name":"newToken","type":"address"}],"name":"KeepTokenUpdated","type":"event"},{"anonymous":false,"inputs":[{"indexed":false,"internalType":"uint256","name":"_tokenId","type":"uint256"}],"name":"MetadataUpdate","type":"event"},{"anonymous":false,"inputs":[{"indexed":true,"internalType":"address","name":"king","type":"address"},{"indexed":false,"internalType":"uint256","name":"amount","type":"uint256"}],"name":"OfficeEarningsClaimed","type":"event"},{"anonymous":false,"inputs":[{"indexed":true,"internalType":"address","name":"newKing","type":"address"},{"indexed":false,"internalType":"uint256","name":"newPrice","type":"uint256"},{"indexed":false,"internalType":"uint256","name":"paidAmount","type":"uint256"},{"indexed":false,"internalType":"string","name":"uri","type":"string"}],"name":"OfficeTaken","type":"event"},{"anonymous":false,"inputs":[{"indexed":true,"internalType":"address","name":"previousOwner","type":"address"},{"indexed":true,"internalType":"address","name":"newOwner","type":"address"}],"name":"OwnershipTransferred","type":"event"},{"anonymous":false,"inputs":[{"indexed":true,"internalType":"address","name":"prevKing","type":"address"},{"indexed":false,"internalType":"uint256","name":"amount","type":"uint256"}],"name":"PreviousKingPaid","type":"event"},{"anonymous":false,"inputs":[{"indexed":true,"internalType":"uint256","name":"tokenId","type":"uint256"},{"indexed":false,"internalType":"uint256","name":"amount","type":"uint256"}],"name":"TokensClaimed","type":"event"},{"anonymous":false,"inputs":[{"indexed":true,"internalType":"address","name":"from","type":"address"},{"indexed":true,"internalType":"address","name":"to","type":"address"},{"indexed":true,"internalType":"uint256","name":"tokenId","type":"uint256"}],"name":"Transfer","type":"event"},{"anonymous":false,"inputs":[{"indexed":true,"internalType":"address","name":"treasury","type":"address"},{"indexed":false,"internalType":"uint256","name":"amount","type":"uint256"}],"name":"TreasuryFee","type":"event"},{"anonymous":false,"inputs":[{"indexed":true,"internalType":"address","name":"implementation","type":"address"}],"name":"Upgraded","type":"event"},{"inputs":[],"name":"ABS_MAX_INIT_PRICE","outputs":[{"internalType":"uint256","name":"","type":"uint256"}],"stateMutability":"view","type":"function"},{"inputs":[],"name":"DEFAULT_RATE","outputs":[{"internalType":"uint256","name":"","type":"uint256"}],"stateMutability":"view","type":"function"},{"inputs":[],"name":"DIVISOR","outputs":[{"internalType":"uint256","name":"","type":"uint256"}],"stateMutability":"view","type":"function"},{"inputs":[],"name":"EPOCH_PERIOD","outputs":[{"internalType":"uint256","name":"","type":"uint256"}],"stateMutability":"view","type":"function"},{"inputs":[],"name":"FEE","outputs":[{"internalType":"uint256","name":"","type":"uint256"}],"stateMutability":"view","type":"function"},{"inputs":[],"name":"HALVING_PERIOD","outputs":[{"internalType":"uint256","name":"","type":"uint256"}],"stateMutability":"view","type":"function"},{"inputs":[],"name":"INITIAL_DPS","outputs":[{"internalType":"uint256","name":"","type":"uint256"}],"stateMutability":"view","type":"function"},{"inputs":[],"name":"MIN_INIT_PRICE","outputs":[{"internalType":"uint256","name":"","type":"uint256"}],"stateMutability":"view","type":"function"},{"inputs":[],"name":"NEW_PRICE_MULTIPLIER","outputs":[{"internalType":"uint256","name":"","type":"uint256"}],"stateMutability":"view","type":"function"},{"inputs":[],"name":"PRECISION","outputs":[{"internalType":"uint256","name":"","type":"uint256"}],"stateMutability":"view","type":"function"},{"inputs":[],"name":"PRICE_MULTIPLIER","outputs":[{"internalType":"uint256","name":"","type":"uint256"}],"stateMutability":"view","type":"function"},{"inputs":[],"name":"TAIL_DPS","outputs":[{"internalType":"uint256","name":"","type":"uint256"}],"stateMutability":"view","type":"function"},{"inputs":[],"name":"UPGRADE_INTERFACE_VERSION","outputs":[{"internalType":"string","name":"","type":"string"}],"stateMutability":"view","type":"function"},{"inputs":[{"internalType":"address","name":"to","type":"address"},{"internalType":"uint256","name":"tokenId","type":"uint256"}],"name":"approve","outputs":[],"stateMutability":"nonpayable","type":"function"},{"inputs":[{"internalType":"address","name":"owner","type":"address"}],"name":"balanceOf","outputs":[{"internalType":"uint256","name":"","type":"uint256"}],"stateMutability":"view","type":"function"},{"inputs":[{"internalType":"uint256","name":"tokenId","type":"uint256"}],"name":"calculatePendingTokens","outputs":[{"internalType":"uint256","name":"","type":"uint256"}],"stateMutability":"view","type":"function"},{"inputs":[{"internalType":"uint256","name":"tokenId","type":"uint256"}],"name":"claimTokens","outputs":[],"stateMutability":"nonpayable","type":"function"},{"inputs":[{"internalType":"uint256","name":"tokenId","type":"uint256"}],"name":"getApproved","outputs":[{"internalType":"address","name":"","type":"address"}],"stateMutability":"view","type":"function"},{"inputs":[],"name":"getDps","outputs":[{"internalType":"uint256","name":"","type":"uint256"}],"stateMutability":"view","type":"function"},{"inputs":[],"name":"getPrice","outputs":[{"internalType":"uint256","name":"","type":"uint256"}],"stateMutability":"view","type":"function"},{"inputs":[],"name":"getSlot0","outputs":[{"components":[{"internalType":"uint8","name":"locked","type":"uint8"},{"internalType":"uint16","name":"epochId","type":"uint16"},{"internalType":"uint192","name":"initPrice","type":"uint192"},{"internalType":"uint40","name":"startTime","type":"uint40"},{"internalType":"uint256","name":"dps","type":"uint256"},{"internalType":"address","name":"miner","type":"address"},{"internalType":"string","name":"uri","type":"string"}],"internalType":"struct TavernKeeper.Slot0","name":"","type":"tuple"}],"stateMutability":"view","type":"function"},{"inputs":[],"name":"initialize","outputs":[],"stateMutability":"nonpayable","type":"function"},{"inputs":[{"internalType":"address","name":"_treasury","type":"address"}],"name":"initializeOfficeV2","outputs":[],"stateMutability":"nonpayable","type":"function"},{"inputs":[{"internalType":"address","name":"owner","type":"address"},{"internalType":"address","name":"operator","type":"address"}],"name":"isApprovedForAll","outputs":[{"internalType":"bool","name":"","type":"bool"}],"stateMutability":"view","type":"function"},{"inputs":[],"name":"keepToken","outputs":[{"internalType":"address","name":"","type":"address"}],"stateMutability":"view","type":"function"},{"inputs":[{"internalType":"uint256","name":"","type":"uint256"}],"name":"lastClaimTime","outputs":[{"internalType":"uint256","name":"","type":"uint256"}],"stateMutability":"view","type":"function"},{"inputs":[{"internalType":"uint256","name":"","type":"uint256"}],"name":"mintingRate","outputs":[{"internalType":"uint256","name":"","type":"uint256"}],"stateMutability":"view","type":"function"},{"inputs":[],"name":"name","outputs":[{"internalType":"string","name":"","type":"string"}],"stateMutability":"view","type":"function"},{"inputs":[],"name":"owner","outputs":[{"internalType":"address","name":"","type":"address"}],"stateMutability":"view","type":"function"},{"inputs":[{"internalType":"uint256","name":"tokenId","type":"uint256"}],"name":"ownerOf","outputs":[{"internalType":"address","name":"","type":"address"}],"stateMutability":"view","type":"function"},{"inputs":[],"name":"proxiableUUID","outputs":[{"internalType":"bytes32","name":"","type":"bytes32"}],"stateMutability":"view","type":"function"},{"inputs":[],"name":"renounceOwnership","outputs":[],"stateMutability":"nonpayable","type":"function"},{"inputs":[{"internalType":"address","name":"to","type":"address"},{"internalType":"string","name":"uri","type":"string"}],"name":"safeMint","outputs":[{"internalType":"uint256","name":"","type":"uint256"}],"stateMutability":"nonpayable","type":"function"},{"inputs":[{"internalType":"address","name":"from","type":"address"},{"internalType":"address","name":"to","type":"address"},{"internalType":"uint256","name":"tokenId","type":"uint256"}],"name":"safeTransferFrom","outputs":[],"stateMutability":"nonpayable","type":"function"},{"inputs":[{"internalType":"address","name":"from","type":"address"},{"internalType":"address","name":"to","type":"address"},{"internalType":"uint256","name":"tokenId","type":"uint256"},{"internalType":"bytes","name":"data","type":"bytes"}],"name":"safeTransferFrom","outputs":[],"stateMutability":"nonpayable","type":"function"},{"inputs":[{"internalType":"address","name":"operator","type":"address"},{"internalType":"bool","name":"approved","type":"bool"}],"name":"setApprovalForAll","outputs":[],"stateMutability":"nonpayable","type":"function"},{"inputs":[{"internalType":"address","name":"_keepToken","type":"address"}],"name":"setKeepTokenContract","outputs":[],"stateMutability":"nonpayable","type":"function"},{"inputs":[{"internalType":"address","name":"_treasury","type":"address"}],"name":"setTreasury","outputs":[],"stateMutability":"nonpayable","type":"function"},{"inputs":[],"name":"slot0","outputs":[{"internalType":"uint8","name":"locked","type":"uint8"},{"internalType":"uint16","name":"epochId","type":"uint16"},{"internalType":"uint192","name":"initPrice","type":"uint192"},{"internalType":"uint40","name":"startTime","type":"uint40"},{"internalType":"uint256","name":"dps","type":"uint256"},{"internalType":"address","name":"miner","type":"address"},{"internalType":"string","name":"uri","type":"string"}],"stateMutability":"view","type":"function"},{"inputs":[{"internalType":"bytes4","name":"interfaceId","type":"bytes4"}],"name":"supportsInterface","outputs":[{"internalType":"bool","name":"","type":"bool"}],"stateMutability":"view","type":"function"},{"inputs":[],"name":"symbol","outputs":[{"internalType":"string","name":"","type":"string"}],"stateMutability":"view","type":"function"},{"inputs":[{"internalType":"uint256","name":"epochId","type":"uint256"},{"internalType":"uint256","name":"deadline","type":"uint256"},{"internalType":"uint256","name":"maxPrice","type":"uint256"},{"internalType":"string","name":"uri","type":"string"}],"name":"takeOffice","outputs":[{"internalType":"uint256","name":"price","type":"uint256"}],"stateMutability":"payable","type":"function"},{"inputs":[{"internalType":"uint256","name":"tokenId","type":"uint256"}],"name":"tokenURI","outputs":[{"internalType":"string","name":"","type":"string"}],"stateMutability":"view","type":"function"},{"inputs":[{"internalType":"address","name":"from","type":"address"},{"internalType":"address","name":"to","type":"address"},{"internalType":"uint256","name":"tokenId","type":"uint256"}],"name":"transferFrom","outputs":[],"stateMutability":"nonpayable","type":"function"},{"inputs":[{"internalType":"address","name":"newOwner","type":"address"}],"name":"transferOwnership","outputs":[],"stateMutability":"nonpayable","type":"function"},{"inputs":[],"name":"treasury","outputs":[{"internalType":"address","name":"","type":"address"}],"stateMutability":"view","type":"function"},{"inputs":[{"internalType":"address","name":"newImplementation","type":"address"},{"internalType":"bytes","name":"data","type":"bytes"}],"name":"upgradeToAndCall","outputs":[],"stateMutability":"payable","type":"function"},{"inputs":[],"name":"v2StartTime","outputs":[{"internalType":"uint256","name":"","type":"uint256"}],"stateMutability":"view","type":"function"}],"evm":{"bytecode":{"linkReferences":{},"object":"60a06040523060805234801562000014575f80fd5b506200001f62000025565b620000d9565b7ff0c57e16840df040f15088dc2f81fe391c3923bec73e23a9662efc9c229c6a00805468010000000000000000900460ff1615620000765760405163f92ee8a960e01b815260040160405180910390fd5b80546001600160401b0390811614620000d65780546001600160401b0319166001600160401b0390811782556040519081527fc7f505b2f371ae2175ee4913f4499e1f2633a7b5936321eed1cdaeb6115181d29060200160405180910390a15b50565b608051613215620001005f395f8181611d4901528181611d720152611eb101526132155ff3fe60806040526004361061028b575f3560e01c80638799566011610155578063b0a13a5c116100be578063e5eb39ec11610078578063e5eb39ec1461072d578063e69be3f31461074c578063e985e9c51461076b578063ef2e0d251461078a578063f0f44260146107a3578063f2fde38b146107c2575f80fd5b8063b0a13a5c14610686578063b88d4fde1461069a578063c57981b5146106b9578063c87b56dd146106ce578063c9ae5e0c146106ed578063d204c45e1461070e575f80fd5b80639e4217261161010f5780639e421726146105ee578063a22cb46514610601578063a2e66a0f14610620578063a3e860fe1461028f578063aaf5eb681461063b578063ad3cb1cc14610656575f80fd5b8063879956601461037957806388f4b49e146105835780638da5cb5b1461059d57806395d89b41146105b157806398d5fdca146105c55780639c511ad4146105d9575f80fd5b806342842e0e116101f757806361d027b3116101b157806361d027b3146104d35780636352211e146104f257806370a0823114610511578063715018a6146105305780638129fc1c14610544578063877dab7e14610558575f80fd5b806342842e0e14610424578063467c5adf1461044357806346e04a2f146104625780634f1ef2861461048157806352d1902d146104945780635fea89f1146104a8575f80fd5b8063113990b811610248578063113990b81461037957806323b872dd146103945780633410fe6e146103b35780633850c7bd146103c85780633adde9c1146103ef5780633dbc71fa14610405575f80fd5b80630169916a1461028f57806301ffc9a7146102bc57806306fdde03146102eb57806307d2e1e21461030c578063081812fc14610321578063095ea7b314610358575b5f80fd5b34801561029a575f80fd5b506102a9662386f26fc1000081565b6040519081526020015b60405180910390f35b3480156102c7575f80fd5b506102db6102d6366004612b25565b6107e1565b60405190151581526020016102b3565b3480156102f6575f80fd5b506102ff6107f1565b6040516102b39190612b8d565b348015610317575f80fd5b506102a9600d5481565b34801561032c575f80fd5b5061034061033b366004612b9f565b610892565b6040516001600160a01b0390911681526020016102b3565b348015610363575f80fd5b50610377610372366004612bd1565b6108a6565b005b348015610384575f80fd5b506102a9671bc16d674ec8000081565b34801561039f575f80fd5b506103776103ae366004612bf9565b6108b5565b3480156103be575f80fd5b506102a961271081565b3480156103d3575f80fd5b506103dc610943565b6040516102b39796959493929190612c32565b3480156103fa575f80fd5b506102a962278d0081565b348015610410575f80fd5b5061037761041f366004612c98565b610a19565b34801561042f575f80fd5b5061037761043e366004612bf9565b610ac3565b34801561044e575f80fd5b50600154610340906001600160a01b031681565b34801561046d575f80fd5b5061037761047c366004612b9f565b610ae2565b61037761048f366004612d4e565b610c7d565b34801561049f575f80fd5b506102a9610c98565b3480156104b3575f80fd5b506102a96104c2366004612b9f565b60036020525f908152604090205481565b3480156104de575f80fd5b50600c54610340906001600160a01b031681565b3480156104fd575f80fd5b5061034061050c366004612b9f565b610cb3565b34801561051c575f80fd5b506102a961052b366004612c98565b610cbd565b34801561053b575f80fd5b50610377610d15565b34801561054f575f80fd5b50610377610d28565b348015610563575f80fd5b506102a9610572366004612b9f565b60026020525f908152604090205481565b34801561058e575f80fd5b506102a96001600160c01b0381565b3480156105a8575f80fd5b50610340610e86565b3480156105bc575f80fd5b506102ff610eb4565b3480156105d0575f80fd5b506102a9610ef2565b3480156105e4575f80fd5b506102a9610e1081565b6102a96105fc366004612d99565b611021565b34801561060c575f80fd5b5061037761061b366004612def565b6116ff565b34801561062b575f80fd5b506102a9673782dace9d90000081565b348015610646575f80fd5b506102a9670de0b6b3a764000081565b348015610661575f80fd5b506102ff604051806040016040528060058152602001640352e302e360dc1b81525081565b348015610691575f80fd5b506102a961170a565b3480156106a5575f80fd5b506103776106b4366004612e28565b611739565b3480156106c4575f80fd5b506102a96107d081565b3480156106d9575f80fd5b506102ff6106e8366004612b9f565b611751565b3480156106f8575f80fd5b5061070161175c565b6040516102b39190612e74565b348015610719575f80fd5b506102a9610728366004612d4e565b6118bd565b348015610738575f80fd5b506102a9610747366004612b9f565b611919565b348015610757575f80fd5b50610377610766366004612c98565b61196e565b348015610776575f80fd5b506102db610785366004612ef2565b611a3b565b348015610795575f80fd5b506102a9655af3107a400081565b3480156107ae575f80fd5b506103776107bd366004612c98565b611a87565b3480156107cd575f80fd5b506103776107dc366004612c98565b611b2c565b5f6107eb82611b69565b92915050565b5f805160206131a0833981519152805460609190819061081090612f23565b80601f016020809104026020016040519081016040528092919081815260200182805461083c90612f23565b80156108875780601f1061085e57610100808354040283529160200191610887565b820191905f5260205f20905b81548152906001019060200180831161086a57829003601f168201915b505050505091505090565b5f61089c82611b8d565b506107eb82611bc4565b6108b1828233611bfd565b5050565b6001600160a01b0382166108e357604051633250574960e11b81525f60048201526024015b60405180910390fd5b5f6108ef838333611c0a565b9050836001600160a01b0316816001600160a01b03161461093d576040516364283d7b60e01b81526001600160a01b03808616600483015260248201849052821660448201526064016108da565b50505050565b60088054600954600a54600b805460ff851695610100860461ffff1695630100000081046001600160c01b031695600160d81b90910464ffffffffff169490936001600160a01b039091169261099890612f23565b80601f01602080910402602001604051908101604052809291908181526020018280546109c490612f23565b8015610a0f5780601f106109e657610100808354040283529160200191610a0f565b820191905f5260205f20905b8154815290600101906020018083116109f257829003601f168201915b5050505050905087565b610a21611d0c565b6001600160a01b038116610a695760405162461bcd60e51b815260206004820152600f60248201526e496e76616c6964206164647265737360881b60448201526064016108da565b6001546040516001600160a01b038084169216907e66a248680b348de6844119bb393b395f8a5ed03b28a64049b28a4538ab3121905f90a3600180546001600160a01b0319166001600160a01b0392909216919091179055565b610add83838360405180602001604052805f815250611739565b505050565b33610aec82610cb3565b6001600160a01b031614610b345760405162461bcd60e51b815260206004820152600f60248201526e2737ba103a37b5b2b71037bbb732b960891b60448201526064016108da565b6001546001600160a01b0316610b805760405162461bcd60e51b815260206004820152601160248201527012d9595c151bdad95b881b9bdd081cd95d607a1b60448201526064016108da565b5f610b8a82611919565b90505f8111610bcf5760405162461bcd60e51b81526020600482015260116024820152704e6f20746f6b656e732070656e64696e6760781b60448201526064016108da565b5f828152600260205260409081902042905560015490516340c10f1960e01b8152336004820152602481018390526001600160a01b03909116906340c10f19906044015f604051808303815f87803b158015610c29575f80fd5b505af1158015610c3b573d5f803e3d5ffd5b50505050817fbde2d72390af9d0444bb1c4f938971ecb673ed26f5f57f8fa44c553fe01d0d3a82604051610c7191815260200190565b60405180910390a25050565b610c85611d3e565b610c8e82611de2565b6108b18282611dea565b5f610ca1611ea6565b505f805160206131c083398151915290565b5f6107eb82611b8d565b5f5f805160206131a08339815191526001600160a01b038316610cf5576040516322718ad960e21b81525f60048201526024016108da565b6001600160a01b039092165f908152600390920160205250604090205490565b610d1d611d0c565b610d265f611eef565b565b5f610d31611f5f565b805490915060ff600160401b820416159067ffffffffffffffff165f81158015610d585750825b90505f8267ffffffffffffffff166001148015610d745750303b155b905081158015610d82575080155b15610da05760405163f92ee8a960e01b815260040160405180910390fd5b845467ffffffffffffffff191660011785558315610dca57845460ff60401b1916600160401b1785555b610e206040518060400160405280601681526020017524b73725b2b2b832b9102a30bb32b93725b2b2b832b960511b8152506040518060400160405280600681526020016525a2a2a822a960d11b815250611f87565b610e28611f99565b610e3133611fa1565b610e39611f99565b8315610e7f57845460ff60401b19168555604051600181527fc7f505b2f371ae2175ee4913f4499e1f2633a7b5936321eed1cdaeb6115181d29060200160405180910390a15b5050505050565b7f9016d09d72d40fdae2fd8ceac6b6234c7706214fd39c1cd1e609a0528c199300546001600160a01b031690565b7f80bb2b638cc20bc4d0a60d66940f3ab4a00c1d7b313497ca82fb0b4ab007930180546060915f805160206131a08339815191529161081090612f23565b6008545f9060ff16600203610f1a5760405163558a1e0360e11b815260040160405180910390fd5b6040805160e0810182526008805460ff81168352610100810461ffff166020840152630100000081046001600160c01b031693830193909352600160d81b90920464ffffffffff1660608201526009546080820152600a546001600160a01b031660a0820152600b805461101c939160c0840191610f9790612f23565b80601f0160208091040260200160405190810160405280929190818152602001828054610fc390612f23565b801561100e5780601f10610fe55761010080835404028352916020019161100e565b820191905f5260205f20905b815481529060010190602001808311610ff157829003601f168201915b505050505081525050611fb2565b905090565b6008545f9060ff166002036110495760405163558a1e0360e11b815260040160405180910390fd5b6008805460ff191660021790554284101561107757604051630407b05b60e31b815260040160405180910390fd5b6040805160e0810182526008805460ff81168352610100810461ffff166020840152630100000081046001600160c01b031693830193909352600160d81b90920464ffffffffff1660608201526009546080820152600a546001600160a01b031660a0820152600b80545f939160c08401916110f290612f23565b80601f016020809104026020016040519081016040528092919081815260200182805461111e90612f23565b80156111695780601f1061114057610100808354040283529160200191611169565b820191905f5260205f20905b81548152906001019060200180831161114c57829003601f168201915b5050505050815250509050855f141580156111905750806020015161ffff168661ffff1614155b156111ae5760405163608fb7bf60e01b815260040160405180910390fd5b6111b781611fb2565b9150838211156111da57604051631d5ece5360e01b815260040160405180910390fd5b813410156112215760405162461bcd60e51b8152602060048201526014602482015273125b9cdd59999a58da595b9d081c185e5b595b9d60621b60448201526064016108da565b5f61122c8334612f69565b9050801561126057604051339082156108fc029083905f818181858888f1935050505015801561125e573d5f803e3d5ffd5b505b8215611452575f6127106112766107d086612f7c565b6112809190612f93565b90505f61128d8286612f69565b90505f61129b600284612f93565b90505f6112a88285612f69565b90506112b2610e86565b6001600160a01b03166108fc8390811502906040515f60405180830381858888f193505050501580156112e7573d5f803e3d5ffd5b50600c546001600160a01b03161561137857600c546040516001600160a01b039091169082156108fc029083905f818181858888f19350505050158015611330573d5f803e3d5ffd5b50600c546040518281526001600160a01b03909116907f44c4b50ac44926f55eefc40ddaf8d1a7848627c9fd4b811e4a36f9985d78aba29060200160405180910390a26113b7565b611380610e86565b6001600160a01b03166108fc8290811502906040515f60405180830381858888f193505050501580156113b5573d5f803e3d5ffd5b505b60a08601516001600160a01b03161561144d578560a001516001600160a01b03166108fc8490811502906040515f60405180830381858888f19350505050158015611404573d5f803e3d5ffd5b508560a001516001600160a01b03167f58616205e0a5e583fa41138b0b6ba26d640390a34951e96a8b313dc315da6acb8460405161144491815260200190565b60405180910390a25b505050505b5f670de0b6b3a764000061146e671bc16d674ec8000086612f7c565b6114789190612f93565b90506001600160c01b0381111561149757506001600160c01b036114ae565b655af3107a40008110156114ae5750655af3107a40005b5f836060015164ffffffffff16426114c69190612f69565b90505f8460800151826114d99190612f7c565b6001549091506001600160a01b031615801590611502575060a08501516001600160a01b031615155b156115b45760015460a08601516040516340c10f1960e01b81526001600160a01b039182166004820152602481018490529116906340c10f19906044015f604051808303815f87803b158015611556575f80fd5b505af1158015611568573d5f803e3d5ffd5b505050508460a001516001600160a01b03167fab89eac8a47ec964c442bedde0fe9093248f72a543e70ff346e31b652827c663826040516115ab91815260200190565b60405180910390a25b60208501805160010161ffff1690526001600160c01b03831660408601524264ffffffffff811660608701523360a08701526115ef9061201d565b6080860181905260c08601889052855160088054602089015160408a015160608b015164ffffffffff16600160d81b026001600160d81b036001600160c01b039092166301000000029190911662ffffff61ffff9093166101000262ffffff1990941660ff9096169590951792909217169290921791909117815560099190915560a0860151600a80546001600160a01b039092166001600160a01b03199092169190911790558590600b6116a48a82612ff6565b50506040513391507f6bd27feda26da893d76f461d47d2c4f4c71df28c61d91a79c073d511716f7ab7906116dd90899081908c906130b2565b60405180910390a250505050506008805460ff19166001179055949350505050565b6108b1338383612093565b6008545f9060ff166002036117325760405163558a1e0360e11b815260040160405180910390fd5b5060095490565b6117448484846108b5565b61093d3385858585612142565b60606107eb82612269565b6040805160e0810182525f8082526020820181905291810182905260608082018390526080820183905260a082019290925260c081019190915260085460ff166002036117bc5760405163558a1e0360e11b815260040160405180910390fd5b6040805160e0810182526008805460ff81168352610100810461ffff166020840152630100000081046001600160c01b031693830193909352600160d81b90920464ffffffffff1660608201526009546080820152600a546001600160a01b031660a0820152600b805491929160c08401919061183890612f23565b80601f016020809104026020016040519081016040528092919081815260200182805461186490612f23565b80156118af5780601f10611886576101008083540402835291602001916118af565b820191905f5260205f20905b81548152906001019060200180831161189257829003601f168201915b505050505081525050905090565b5f6118c6611d0c565b5f805481806118d4836130d0565b9190505590506118e48482612398565b6118ee81846123b1565b5f81815260026020908152604080832042905560039091529020662386f26fc1000090559392505050565b5f81815260026020526040812054810361193457505f919050565b5f8281526002602052604081205461194c9042612f69565b5f848152600360205260409020549091506119679082612f7c565b9392505050565b611976611d0c565b600c546001600160a01b0316156119c85760405162461bcd60e51b815260206004820152601660248201527520b63932b0b23c9034b734ba34b0b634bd32b2102b1960511b60448201526064016108da565b600c80546001600160a01b039092166001600160a01b031992831617905542600d81905560088054600a80549094163317909355673782dace9d90000060095562ffff001964ffffffffff909216600160d81b0262ffffff90931692909217685af3107a40000000001716610100179055565b6001600160a01b039182165f9081527f80bb2b638cc20bc4d0a60d66940f3ab4a00c1d7b313497ca82fb0b4ab00793056020908152604080832093909416825291909152205460ff1690565b611a8f611d0c565b6001600160a01b038116611ad85760405162461bcd60e51b815260206004820152601060248201526f496e76616c696420747265617375727960801b60448201526064016108da565b600c80546001600160a01b0319166001600160a01b0383169081179091556040515f81527f44c4b50ac44926f55eefc40ddaf8d1a7848627c9fd4b811e4a36f9985d78aba29060200160405180910390a250565b611b34611d0c565b6001600160a01b038116611b5d57604051631e4fbdf760e01b81525f60048201526024016108da565b611b6681611eef565b50565b5f6001600160e01b03198216632483248360e11b14806107eb57506107eb82612423565b5f80611b9883612472565b90506001600160a01b0381166107eb57604051637e27328960e01b8152600481018490526024016108da565b5f9081527f80bb2b638cc20bc4d0a60d66940f3ab4a00c1d7b313497ca82fb0b4ab007930460205260409020546001600160a01b031690565b610add83838360016124ab565b5f5f805160206131a083398151915281611c2385612472565b90506001600160a01b03841615611c3f57611c3f8185876125be565b6001600160a01b03811615611c7b57611c5a5f865f806124ab565b6001600160a01b0381165f908152600383016020526040902080545f190190555b6001600160a01b03861615611cab576001600160a01b0386165f9081526003830160205260409020805460010190555b5f85815260028301602052604080822080546001600160a01b0319166001600160a01b038a811691821790925591518893918516917fddf252ad1be2c89b69c2b068fc378daa952ba7f163c4a11628f55a4df523b3ef91a495945050505050565b33611d15610e86565b6001600160a01b031614610d265760405163118cdaa760e01b81523360048201526024016108da565b306001600160a01b037f0000000000000000000000000000000000000000000000000000000000000000161480611dc457507f00000000000000000000000000000000000000000000000000000000000000006001600160a01b0316611db85f805160206131c0833981519152546001600160a01b031690565b6001600160a01b031614155b15610d265760405163703e46dd60e11b815260040160405180910390fd5b611b66611d0c565b816001600160a01b03166352d1902d6040518163ffffffff1660e01b8152600401602060405180830381865afa925050508015611e44575060408051601f3d908101601f19168201909252611e41918101906130e8565b60015b611e6c57604051634c9c8ce360e01b81526001600160a01b03831660048201526024016108da565b5f805160206131c08339815191528114611e9c57604051632a87526960e21b8152600481018290526024016108da565b610add8383612622565b306001600160a01b037f00000000000000000000000000000000000000000000000000000000000000001614610d265760405163703e46dd60e11b815260040160405180910390fd5b7f9016d09d72d40fdae2fd8ceac6b6234c7706214fd39c1cd1e609a0528c19930080546001600160a01b031981166001600160a01b03848116918217845560405192169182907f8be0079c531659141344cd1fd0a4f28419497f9722a3daafe3b4186f6b6457e0905f90a3505050565b5f807ff0c57e16840df040f15088dc2f81fe391c3923bec73e23a9662efc9c229c6a006107eb565b611f8f612677565b6108b1828261269c565b610d26612677565b611fa9612677565b611b66816126cc565b5f80826060015164ffffffffff1642611fcb9190612f69565b9050610e10811115611fdf57505f92915050565b610e108184604001516001600160c01b0316611ffb9190612f7c565b6120059190612f93565b83604001516001600160c01b03166119679190612f69565b5f600d545f036120365750673782dace9d900000919050565b5f600d548311156120625762278d00600d54846120539190612f69565b61205d9190612f93565b612064565b5f5b673782dace9d900000811c92509050662386f26fc1000082101561208d57662386f26fc1000091505b50919050565b5f805160206131a08339815191526001600160a01b0383166120d357604051630b61174360e31b81526001600160a01b03841660048201526024016108da565b6001600160a01b038481165f818152600584016020908152604080832094881680845294825291829020805460ff191687151590811790915591519182527f17307eab39ab6107e8899845ad3d59bd9653f200f220920489ca2b5937696c31910160405180910390a350505050565b6001600160a01b0383163b15610e7f57604051630a85bd0160e11b81526001600160a01b0384169063150b7a02906121849088908890879087906004016130ff565b6020604051808303815f875af19250505080156121be575060408051601f3d908101601f191682019092526121bb9181019061313b565b60015b612225573d8080156121eb576040519150601f19603f3d011682016040523d82523d5f602084013e6121f0565b606091505b5080515f0361221d57604051633250574960e11b81526001600160a01b03851660048201526024016108da565b805160208201fd5b6001600160e01b03198116630a85bd0160e11b1461226157604051633250574960e11b81526001600160a01b03851660048201526024016108da565b505050505050565b60607f0542a41881ee128a365a727b282c86fa859579490b9bb45aab8503648c8e790061229583611b8d565b505f83815260208290526040812080546122ae90612f23565b80601f01602080910402602001604051908101604052809291908181526020018280546122da90612f23565b80156123255780601f106122fc57610100808354040283529160200191612325565b820191905f5260205f20905b81548152906001019060200180831161230857829003601f168201915b505050505090505f61234160408051602081019091525f815290565b905080515f0361235357509392505050565b81511561238657808260405160200161236d929190613156565b6040516020818303038152906040529350505050919050565b61238f856126d4565b95945050505050565b6108b1828260405180602001604052805f815250612744565b5f8281527f0542a41881ee128a365a727b282c86fa859579490b9bb45aab8503648c8e7900602081905260409091206123ea8382612ff6565b506040518381527ff8e1a15aba9398e019f0b49df1a4fde98ee17ae345cb5f6b5e2c27f5033e8ce79060200160405180910390a1505050565b5f6001600160e01b031982166380ac58cd60e01b148061245357506001600160e01b03198216635b5e139f60e01b145b806107eb57506301ffc9a760e01b6001600160e01b03198316146107eb565b5f9081527f80bb2b638cc20bc4d0a60d66940f3ab4a00c1d7b313497ca82fb0b4ab007930260205260409020546001600160a01b031690565b5f805160206131a083398151915281806124cd57506001600160a01b03831615155b1561258e575f6124dc85611b8d565b90506001600160a01b038416158015906125085750836001600160a01b0316816001600160a01b031614155b801561251b57506125198185611a3b565b155b156125445760405163a9fbf51f60e01b81526001600160a01b03851660048201526024016108da565b821561258c5784866001600160a01b0316826001600160a01b03167f8c5be1e5ebec7d5bd14f71427d1e84f3dd0314c0f7b2291e5b200ac8c7c3b92560405160405180910390a45b505b5f93845260040160205250506040902080546001600160a01b0319166001600160a01b0392909216919091179055565b6125c983838361275b565b610add576001600160a01b0383166125f757604051637e27328960e01b8152600481018290526024016108da565b60405163177e802f60e01b81526001600160a01b0383166004820152602481018290526044016108da565b61262b826127c0565b6040516001600160a01b038316907fbc7cd75a20ee27fd9adebab32041f755214dbc6bffa90cc0225b39da2e5c2d3b905f90a280511561266f57610add8282612823565b6108b161288c565b61267f6128ab565b610d2657604051631afcd79f60e31b815260040160405180910390fd5b6126a4612677565b5f805160206131a0833981519152806126bd8482612ff6565b506001810161093d8382612ff6565b611b34612677565b60606126df82611b8d565b505f6126f560408051602081019091525f815290565b90505f8151116127135760405180602001604052805f815250611967565b8061271d846128c4565b60405160200161272e929190613156565b6040516020818303038152906040529392505050565b61274e8383612954565b610add335f858585612142565b5f6001600160a01b038316158015906127b85750826001600160a01b0316846001600160a01b0316148061279457506127948484611a3b565b806127b85750826001600160a01b03166127ad83611bc4565b6001600160a01b0316145b949350505050565b806001600160a01b03163b5f036127f557604051634c9c8ce360e01b81526001600160a01b03821660048201526024016108da565b5f805160206131c083398151915280546001600160a01b0319166001600160a01b0392909216919091179055565b60605f80846001600160a01b03168460405161283f9190613184565b5f60405180830381855af49150503d805f8114612877576040519150601f19603f3d011682016040523d82523d5f602084013e61287c565b606091505b509150915061238f8583836129b5565b3415610d265760405163b398979f60e01b815260040160405180910390fd5b5f6128b4611f5f565b54600160401b900460ff16919050565b60605f6128d083612a11565b60010190505f8167ffffffffffffffff8111156128ef576128ef612cb1565b6040519080825280601f01601f191660200182016040528015612919576020820181803683370190505b5090508181016020015b5f19016f181899199a1a9b1b9c1cb0b131b232b360811b600a86061a8153600a850494508461292357509392505050565b6001600160a01b03821661297d57604051633250574960e11b81525f60048201526024016108da565b5f61298983835f611c0a565b90506001600160a01b03811615610add576040516339e3563760e11b81525f60048201526024016108da565b6060826129ca576129c582612ae8565b611967565b81511580156129e157506001600160a01b0384163b155b15612a0a57604051639996b31560e01b81526001600160a01b03851660048201526024016108da565b5080611967565b5f8072184f03e93ff9f4daa797ed6e38ed64bf6a1f0160401b8310612a4f5772184f03e93ff9f4daa797ed6e38ed64bf6a1f0160401b830492506040015b6d04ee2d6d415b85acef81000000008310612a7b576d04ee2d6d415b85acef8100000000830492506020015b662386f26fc100008310612a9957662386f26fc10000830492506010015b6305f5e1008310612ab1576305f5e100830492506008015b6127108310612ac557612710830492506004015b60648310612ad7576064830492506002015b600a83106107eb5760010192915050565b805115612af757805160208201fd5b60405163d6bda27560e01b815260040160405180910390fd5b6001600160e01b031981168114611b66575f80fd5b5f60208284031215612b35575f80fd5b813561196781612b10565b5f5b83811015612b5a578181015183820152602001612b42565b50505f910152565b5f8151808452612b79816020860160208601612b40565b601f01601f19169290920160200192915050565b602081525f6119676020830184612b62565b5f60208284031215612baf575f80fd5b5035919050565b80356001600160a01b0381168114612bcc575f80fd5b919050565b5f8060408385031215612be2575f80fd5b612beb83612bb6565b946020939093013593505050565b5f805f60608486031215612c0b575f80fd5b612c1484612bb6565b9250612c2260208501612bb6565b9150604084013590509250925092565b60ff8816815261ffff871660208201526001600160c01b038616604082015264ffffffffff85166060820152608081018490526001600160a01b03831660a082015260e060c082018190525f90612c8b90830184612b62565b9998505050505050505050565b5f60208284031215612ca8575f80fd5b61196782612bb6565b634e487b7160e01b5f52604160045260245ffd5b5f82601f830112612cd4575f80fd5b813567ffffffffffffffff80821115612cef57612cef612cb1565b604051601f8301601f19908116603f01168101908282118183101715612d1757612d17612cb1565b81604052838152866020858801011115612d2f575f80fd5b836020870160208301375f602085830101528094505050505092915050565b5f8060408385031215612d5f575f80fd5b612d6883612bb6565b9150602083013567ffffffffffffffff811115612d83575f80fd5b612d8f85828601612cc5565b9150509250929050565b5f805f8060808587031215612dac575f80fd5b843593506020850135925060408501359150606085013567ffffffffffffffff811115612dd7575f80fd5b612de387828801612cc5565b91505092959194509250565b5f8060408385031215612e00575f80fd5b612e0983612bb6565b915060208301358015158114612e1d575f80fd5b809150509250929050565b5f805f8060808587031215612e3b575f80fd5b612e4485612bb6565b9350612e5260208601612bb6565b925060408501359150606085013567ffffffffffffffff811115612dd7575f80fd5b6020815260ff825116602082015261ffff602083015116604082015260018060c01b03604083015116606082015264ffffffffff6060830151166080820152608082015160a08201525f60a0830151612ed860c08401826001600160a01b03169052565b5060c083015160e0808401526127b8610100840182612b62565b5f8060408385031215612f03575f80fd5b612f0c83612bb6565b9150612f1a60208401612bb6565b90509250929050565b600181811c90821680612f3757607f821691505b60208210810361208d57634e487b7160e01b5f52602260045260245ffd5b634e487b7160e01b5f52601160045260245ffd5b818103818111156107eb576107eb612f55565b80820281158282048414176107eb576107eb612f55565b5f82612fad57634e487b7160e01b5f52601260045260245ffd5b500490565b601f821115610add57805f5260205f20601f840160051c81016020851015612fd75750805b601f840160051c820191505b81811015610e7f575f8155600101612fe3565b815167ffffffffffffffff81111561301057613010612cb1565b6130248161301e8454612f23565b84612fb2565b602080601f831160018114613057575f84156130405750858301515b5f19600386901b1c1916600185901b178555612261565b5f85815260208120601f198616915b8281101561308557888601518255948401946001909101908401613066565b50858210156130a257878501515f19600388901b60f8161c191681555b5050505050600190811b01905550565b838152826020820152606060408201525f61238f6060830184612b62565b5f600182016130e1576130e1612f55565b5060010190565b5f602082840312156130f8575f80fd5b5051919050565b6001600160a01b03858116825284166020820152604081018390526080606082018190525f9061313190830184612b62565b9695505050505050565b5f6020828403121561314b575f80fd5b815161196781612b10565b5f8351613167818460208801612b40565b83519083019061317b818360208801612b40565b01949350505050565b5f8251613195818460208701612b40565b919091019291505056fe80bb2b638cc20bc4d0a60d66940f3ab4a00c1d7b313497ca82fb0b4ab0079300360894a13ba1a3210667c828492db98dca3e2076cc3735a920a3ca505d382bbca2646970667358221220f6a7f791243643b651e36d2745999598d2a732a353a407e0bb24a728c57a189864736f6c63430008180033","opcodes":"PUSH1 0xA0 PUSH1 0x40 MSTORE ADDRESS PUSH1 0x80 MSTORE CALLVALUE DUP1 ISZERO PUSH3 0x14 JUMPI PUSH0 DUP1 REVERT JUMPDEST POP PUSH3 0x1F PUSH3 0x25 JUMP JUMPDEST PUSH3 0xD9 JUMP JUMPDEST PUSH32 0xF0C57E16840DF040F15088DC2F81FE391C3923BEC73E23A9662EFC9C229C6A00 DUP1 SLOAD PUSH9 0x10000000000000000 SWAP1 DIV PUSH1 0xFF AND ISZERO PUSH3 0x76 JUMPI PUSH1 0x40 MLOAD PUSH4 0xF92EE8A9 PUSH1 0xE0 SHL DUP2 MSTORE PUSH1 0x4 ADD PUSH1 0x40 MLOAD DUP1 SWAP2 SUB SWAP1 REVERT JUMPDEST DUP1 SLOAD PUSH1 0x1 PUSH1 0x1 PUSH1 0x40 SHL SUB SWAP1 DUP2 AND EQ PUSH3 0xD6 JUMPI DUP1 SLOAD PUSH1 0x1 PUSH1 0x1 PUSH1 0x40 SHL SUB NOT AND PUSH1 0x1 PUSH1 0x1 PUSH1 0x40 SHL SUB SWAP1 DUP2 OR DUP3 SSTORE PUSH1 0x40 MLOAD SWAP1 DUP2 MSTORE PUSH32 0xC7F505B2F371AE2175EE4913F4499E1F2633A7B5936321EED1CDAEB6115181D2 SWAP1 PUSH1 0x20 ADD PUSH1 0x40 MLOAD DUP1 SWAP2 SUB SWAP1 LOG1 JUMPDEST POP JUMP JUMPDEST PUSH1 0x80 MLOAD PUSH2 0x3215 PUSH3 0x100 PUSH0 CODECOPY PUSH0 DUP2 DUP2 PUSH2 0x1D49 ADD MSTORE DUP2 DUP2 PUSH2 0x1D72 ADD MSTORE PUSH2 0x1EB1 ADD MSTORE PUSH2 0x3215 PUSH0 RETURN INVALID PUSH1 0x80 PUSH1 0x40 MSTORE PUSH1 0x4 CALLDATASIZE LT PUSH2 0x28B JUMPI PUSH0 CALLDATALOAD PUSH1 0xE0 SHR DUP1 PUSH4 0x87995660 GT PUSH2 0x155 JUMPI DUP1 PUSH4 0xB0A13A5C GT PUSH2 0xBE JUMPI DUP1 PUSH4 0xE5EB39EC GT PUSH2 0x78 JUMPI DUP1 PUSH4 0xE5EB39EC EQ PUSH2 0x72D JUMPI DUP1 PUSH4 0xE69BE3F3 EQ PUSH2 0x74C JUMPI DUP1 PUSH4 0xE985E9C5 EQ PUSH2 0x76B JUMPI DUP1 PUSH4 0xEF2E0D25 EQ PUSH2 0x78A JUMPI DUP1 PUSH4 0xF0F44260 EQ PUSH2 0x7A3 JUMPI DUP1 PUSH4 0xF2FDE38B EQ PUSH2 0x7C2 JUMPI PUSH0 DUP1 REVERT JUMPDEST DUP1 PUSH4 0xB0A13A5C EQ PUSH2 0x686 JUMPI DUP1 PUSH4 0xB88D4FDE EQ PUSH2 0x69A JUMPI DUP1 PUSH4 0xC57981B5 EQ PUSH2 0x6B9 JUMPI DUP1 PUSH4 0xC87B56DD EQ PUSH2 0x6CE JUMPI DUP1 PUSH4 0xC9AE5E0C EQ PUSH2 0x6ED JUMPI DUP1 PUSH4 0xD204C45E EQ PUSH2 0x70E JUMPI PUSH0 DUP1 REVERT JUMPDEST DUP1 PUSH4 0x9E421726 GT PUSH2 0x10F JUMPI DUP1 PUSH4 0x9E421726 EQ PUSH2 0x5EE JUMPI DUP1 PUSH4 0xA22CB465 EQ PUSH2 0x601 JUMPI DUP1 PUSH4 0xA2E66A0F EQ PUSH2 0x620 JUMPI DUP1 PUSH4 0xA3E860FE EQ PUSH2 0x28F JUMPI DUP1 PUSH4 0xAAF5EB68 EQ PUSH2 0x63B JUMPI DUP1 PUSH4 0xAD3CB1CC EQ PUSH2 0x656 JUMPI PUSH0 DUP1 REVERT JUMPDEST DUP1 PUSH4 0x87995660 EQ PUSH2 0x379 JUMPI DUP1 PUSH4 0x88F4B49E EQ PUSH2 0x583 JUMPI DUP1 PUSH4 0x8DA5CB5B EQ PUSH2 0x59D JUMPI DUP1 PUSH4 0x95D89B41 EQ PUSH2 0x5B1 JUMPI DUP1 PUSH4 0x98D5FDCA EQ PUSH2 0x5C5 JUMPI DUP1 PUSH4 0x9C511AD4 EQ PUSH2 0x5D9 JUMPI PUSH0 DUP1 REVERT JUMPDEST DUP1 PUSH4 0x42842E0E GT PUSH2 0x1F7 JUMPI DUP1 PUSH4 0x61D027B3 GT PUSH2 0x1B1 JUMPI DUP1 PUSH4 0x61D027B3 EQ PUSH2 0x4D3 JUMPI DUP1 PUSH4 0x6352211E EQ PUSH2 0x4F2 JUMPI DUP1 PUSH4 0x70A08231 EQ PUSH2 0x511 JUMPI DUP1 PUSH4 0x715018A6 EQ PUSH2 0x530 JUMPI DUP1 PUSH4 0x8129FC1C EQ PUSH2 0x544 JUMPI DUP1 PUSH4 0x877DAB7E EQ PUSH2 0x558 JUMPI PUSH0 DUP1 REVERT JUMPDEST DUP1 PUSH4 0x42842E0E EQ PUSH2 0x424 JUMPI DUP1 PUSH4 0x467C5ADF EQ PUSH2 0x443 JUMPI DUP1 PUSH4 0x46E04A2F EQ PUSH2 0x462 JUMPI DUP1 PUSH4 0x4F1EF286 EQ PUSH2 0x481 JUMPI DUP1 PUSH4 0x52D1902D EQ PUSH2 0x494 JUMPI DUP1 PUSH4 0x5FEA89F1 EQ PUSH2 0x4A8 JUMPI PUSH0 DUP1 REVERT JUMPDEST DUP1 PUSH4 0x113990B8 GT PUSH2 0x248 JUMPI DUP1 PUSH4 0x113990B8 EQ PUSH2 0x379 JUMPI DUP1 PUSH4 0x23B872DD EQ PUSH2 0x394 JUMPI DUP1 PUSH4 0x3410FE6E EQ PUSH2 0x3B3 JUMPI DUP1 PUSH4 0x3850C7BD EQ PUSH2 0x3C8 JUMPI DUP1 PUSH4 0x3ADDE9C1 EQ PUSH2 0x3EF JUMPI DUP1 PUSH4 0x3DBC71FA EQ PUSH2 0x405 JUMPI PUSH0 DUP1 REVERT JUMPDEST DUP1 PUSH4 0x169916A EQ PUSH2 0x28F JUMPI DUP1 PUSH4 0x1FFC9A7 EQ PUSH2 0x2BC JUMPI DUP1 PUSH4 0x6FDDE03 EQ PUSH2 0x2EB JUMPI DUP1 PUSH4 0x7D2E1E2 EQ PUSH2 0x30C JUMPI DUP1 PUSH4 0x81812FC EQ PUSH2 0x321 JUMPI DUP1 PUSH4 0x95EA7B3 EQ PUSH2 0x358 JUMPI JUMPDEST PUSH0 DUP1 REVERT JUMPDEST CALLVALUE DUP1 ISZERO PUSH2 0x29A JUMPI PUSH0 DUP1 REVERT JUMPDEST POP PUSH2 0x2A9 PUSH7 0x2386F26FC10000 DUP2 JUMP JUMPDEST PUSH1 0x40 MLOAD SWAP1 DUP2 MSTORE PUSH1 0x20 ADD JUMPDEST PUSH1 0x40 MLOAD DUP1 SWAP2 SUB SWAP1 RETURN JUMPDEST CALLVALUE DUP1 ISZERO PUSH2 0x2C7 JUMPI PUSH0 DUP1 REVERT JUMPDEST POP PUSH2 0x2DB PUSH2 0x2D6 CALLDATASIZE PUSH1 0x4 PUSH2 0x2B25 JUMP JUMPDEST PUSH2 0x7E1 JUMP JUMPDEST PUSH1 0x40 MLOAD SWAP1 ISZERO ISZERO DUP2 MSTORE PUSH1 0x20 ADD PUSH2 0x2B3 JUMP JUMPDEST CALLVALUE DUP1 ISZERO PUSH2 0x2F6 JUMPI PUSH0 DUP1 REVERT JUMPDEST POP PUSH2 0x2FF PUSH2 0x7F1 JUMP JUMPDEST PUSH1 0x40 MLOAD PUSH2 0x2B3 SWAP2 SWAP1 PUSH2 0x2B8D JUMP JUMPDEST CALLVALUE DUP1 ISZERO PUSH2 0x317 JUMPI PUSH0 DUP1 REVERT JUMPDEST POP PUSH2 0x2A9 PUSH1 0xD SLOAD DUP2 JUMP JUMPDEST CALLVALUE DUP1 ISZERO PUSH2 0x32C JUMPI PUSH0 DUP1 REVERT JUMPDEST POP PUSH2 0x340 PUSH2 0x33B CALLDATASIZE PUSH1 0x4 PUSH2 0x2B9F JUMP JUMPDEST PUSH2 0x892 JUMP JUMPDEST PUSH1 0x40 MLOAD PUSH1 0x1 PUSH1 0x1 PUSH1 0xA0 SHL SUB SWAP1 SWAP2 AND DUP2 MSTORE PUSH1 0x20 ADD PUSH2 0x2B3 JUMP JUMPDEST CALLVALUE DUP1 ISZERO PUSH2 0x363 JUMPI PUSH0 DUP1 REVERT JUMPDEST POP PUSH2 0x377 PUSH2 0x372 CALLDATASIZE PUSH1 0x4 PUSH2 0x2BD1 JUMP JUMPDEST PUSH2 0x8A6 JUMP JUMPDEST STOP JUMPDEST CALLVALUE DUP1 ISZERO PUSH2 0x384 JUMPI PUSH0 DUP1 REVERT JUMPDEST POP PUSH2 0x2A9 PUSH8 0x1BC16D674EC80000 DUP2 JUMP JUMPDEST CALLVALUE DUP1 ISZERO PUSH2 0x39F JUMPI PUSH0 DUP1 REVERT JUMPDEST POP PUSH2 0x377 PUSH2 0x3AE CALLDATASIZE PUSH1 0x4 PUSH2 0x2BF9 JUMP JUMPDEST PUSH2 0x8B5 JUMP JUMPDEST CALLVALUE DUP1 ISZERO PUSH2 0x3BE JUMPI PUSH0 DUP1 REVERT JUMPDEST POP PUSH2 0x2A9 PUSH2 0x2710 DUP2 JUMP JUMPDEST CALLVALUE DUP1 ISZERO PUSH2 0x3D3 JUMPI PUSH0 DUP1 REVERT JUMPDEST POP PUSH2 0x3DC PUSH2 0x943 JUMP JUMPDEST PUSH1 0x40 MLOAD PUSH2 0x2B3 SWAP8 SWAP7 SWAP6 SWAP5 SWAP4 SWAP3 SWAP2 SWAP1 PUSH2 0x2C32 JUMP JUMPDEST CALLVALUE DUP1 ISZERO PUSH2 0x3FA JUMPI PUSH0 DUP1 REVERT JUMPDEST POP PUSH2 0x2A9 PUSH3 0x278D00 DUP2 JUMP JUMPDEST CALLVALUE DUP1 ISZERO PUSH2 0x410 JUMPI PUSH0 DUP1 REVERT JUMPDEST POP PUSH2 0x377 PUSH2 0x41F CALLDATASIZE PUSH1 0x4 PUSH2 0x2C98 JUMP JUMPDEST PUSH2 0xA19 JUMP JUMPDEST CALLVALUE DUP1 ISZERO PUSH2 0x42F JUMPI PUSH0 DUP1 REVERT JUMPDEST POP PUSH2 0x377 PUSH2 0x43E CALLDATASIZE PUSH1 0x4 PUSH2 0x2BF9 JUMP JUMPDEST PUSH2 0xAC3 JUMP JUMPDEST CALLVALUE DUP1 ISZERO PUSH2 0x44E JUMPI PUSH0 DUP1 REVERT JUMPDEST POP PUSH1 0x1 SLOAD PUSH2 0x340 SWAP1 PUSH1 0x1 PUSH1 0x1 PUSH1 0xA0 SHL SUB AND DUP2 JUMP JUMPDEST CALLVALUE DUP1 ISZERO PUSH2 0x46D JUMPI PUSH0 DUP1 REVERT JUMPDEST POP PUSH2 0x377 PUSH2 0x47C CALLDATASIZE PUSH1 0x4 PUSH2 0x2B9F JUMP JUMPDEST PUSH2 0xAE2 JUMP JUMPDEST PUSH2 0x377 PUSH2 0x48F CALLDATASIZE PUSH1 0x4 PUSH2 0x2D4E JUMP JUMPDEST PUSH2 0xC7D JUMP JUMPDEST CALLVALUE DUP1 ISZERO PUSH2 0x49F JUMPI PUSH0 DUP1 REVERT JUMPDEST POP PUSH2 0x2A9 PUSH2 0xC98 JUMP JUMPDEST CALLVALUE DUP1 ISZERO PUSH2 0x4B3 JUMPI PUSH0 DUP1 REVERT JUMPDEST POP PUSH2 0x2A9 PUSH2 0x4C2 CALLDATASIZE PUSH1 0x4 PUSH2 0x2B9F JUMP JUMPDEST PUSH1 0x3 PUSH1 0x20 MSTORE PUSH0 SWAP1 DUP2 MSTORE PUSH1 0x40 SWAP1 KECCAK256 SLOAD DUP2 JUMP JUMPDEST CALLVALUE DUP1 ISZERO PUSH2 0x4DE JUMPI PUSH0 DUP1 REVERT JUMPDEST POP PUSH1 0xC SLOAD PUSH2 0x340 SWAP1 PUSH1 0x1 PUSH1 0x1 PUSH1 0xA0 SHL SUB AND DUP2 JUMP JUMPDEST CALLVALUE DUP1 ISZERO PUSH2 0x4FD JUMPI PUSH0 DUP1 REVERT JUMPDEST POP PUSH2 0x340 PUSH2 0x50C CALLDATASIZE PUSH1 0x4 PUSH2 0x2B9F JUMP JUMPDEST PUSH2 0xCB3 JUMP JUMPDEST CALLVALUE DUP1 ISZERO PUSH2 0x51C JUMPI PUSH0 DUP1 REVERT JUMPDEST POP PUSH2 0x2A9 PUSH2 0x52B CALLDATASIZE PUSH1 0x4 PUSH2 0x2C98 JUMP JUMPDEST PUSH2 0xCBD JUMP JUMPDEST CALLVALUE DUP1 ISZERO PUSH2 0x53B JUMPI PUSH0 DUP1 REVERT JUMPDEST POP PUSH2 0x377 PUSH2 0xD15 JUMP JUMPDEST CALLVALUE DUP1 ISZERO PUSH2 0x54F JUMPI PUSH0 DUP1 REVERT JUMPDEST POP PUSH2 0x377 PUSH2 0xD28 JUMP JUMPDEST CALLVALUE DUP1 ISZERO PUSH2 0x563 JUMPI PUSH0 DUP1 REVERT JUMPDEST POP PUSH2 0x2A9 PUSH2 0x572 CALLDATASIZE PUSH1 0x4 PUSH2 0x2B9F JUMP JUMPDEST PUSH1 0x2 PUSH1 0x20 MSTORE PUSH0 SWAP1 DUP2 MSTORE PUSH1 0x40 SWAP1 KECCAK256 SLOAD DUP2 JUMP JUMPDEST CALLVALUE DUP1 ISZERO PUSH2 0x58E JUMPI PUSH0 DUP1 REVERT JUMPDEST POP PUSH2 0x2A9 PUSH1 0x1 PUSH1 0x1 PUSH1 0xC0 SHL SUB DUP2 JUMP JUMPDEST CALLVALUE DUP1 ISZERO PUSH2 0x5A8 JUMPI PUSH0 DUP1 REVERT JUMPDEST POP PUSH2 0x340 PUSH2 0xE86 JUMP JUMPDEST CALLVALUE DUP1 ISZERO PUSH2 0x5BC JUMPI PUSH0 DUP1 REVERT JUMPDEST POP PUSH2 0x2FF PUSH2 0xEB4 JUMP JUMPDEST CALLVALUE DUP1 ISZERO PUSH2 0x5D0 JUMPI PUSH0 DUP1 REVERT JUMPDEST POP PUSH2 0x2A9 PUSH2 0xEF2 JUMP JUMPDEST CALLVALUE DUP1 ISZERO PUSH2 0x5E4 JUMPI PUSH0 DUP1 REVERT JUMPDEST POP PUSH2 0x2A9 PUSH2 0xE10 DUP2 JUMP JUMPDEST PUSH2 0x2A9 PUSH2 0x5FC CALLDATASIZE PUSH1 0x4 PUSH2 0x2D99 JUMP JUMPDEST PUSH2 0x1021 JUMP JUMPDEST CALLVALUE DUP1 ISZERO PUSH2 0x60C JUMPI PUSH0 DUP1 REVERT JUMPDEST POP PUSH2 0x377 PUSH2 0x61B CALLDATASIZE PUSH1 0x4 PUSH2 0x2DEF JUMP JUMPDEST PUSH2 0x16FF JUMP JUMPDEST CALLVALUE DUP1 ISZERO PUSH2 0x62B JUMPI PUSH0 DUP1 REVERT JUMPDEST POP PUSH2 0x2A9 PUSH8 0x3782DACE9D900000 DUP2 JUMP JUMPDEST CALLVALUE DUP1 ISZERO PUSH2 0x646 JUMPI PUSH0 DUP1 REVERT JUMPDEST POP PUSH2 0x2A9 PUSH8 0xDE0B6B3A7640000 DUP2 JUMP JUMPDEST CALLVALUE DUP1 ISZERO PUSH2 0x661 JUMPI PUSH0 DUP1 REVERT JUMPDEST POP PUSH2 0x2FF PUSH1 0x40 MLOAD DUP1 PUSH1 0x40 ADD PUSH1 0x40 MSTORE DUP1 PUSH1 0x5 DUP2 MSTORE PUSH1 0x20 ADD PUSH5 0x352E302E3 PUSH1 0xDC SHL DUP2 MSTORE POP DUP2 JUMP JUMPDEST CALLVALUE DUP1 ISZERO PUSH2 0x691 JUMPI PUSH0 DUP1 REVERT JUMPDEST POP PUSH2 0x2A9 PUSH2 0x170A JUMP JUMPDEST CALLVALUE DUP1 ISZERO PUSH2 0x6A5 JUMPI PUSH0 DUP1 REVERT JUMPDEST POP PUSH2 0x377 PUSH2 0x6B4 CALLDATASIZE PUSH1 0x4 PUSH2 0x2E28 JUMP JUMPDEST PUSH2 0x1739 JUMP JUMPDEST CALLVALUE DUP1 ISZERO PUSH2 0x6C4 JUMPI PUSH0 DUP1 REVERT JUMPDEST POP PUSH2 0x2A9 PUSH2 0x7D0 DUP2 JUMP JUMPDEST CALLVALUE DUP1 ISZERO PUSH2 0x6D9 JUMPI PUSH0 DUP1 REVERT JUMPDEST POP PUSH2 0x2FF PUSH2 0x6E8 CALLDATASIZE PUSH1 0x4 PUSH2 0x2B9F JUMP JUMPDEST PUSH2 0x1751 JUMP JUMPDEST CALLVALUE DUP1 ISZERO PUSH2 0x6F8 JUMPI PUSH0 DUP1 REVERT JUMPDEST POP PUSH2 0x701 PUSH2 0x175C JUMP JUMPDEST PUSH1 0x40 MLOAD PUSH2 0x2B3 SWAP2 SWAP1 PUSH2 0x2E74 JUMP JUMPDEST CALLVALUE DUP1 ISZERO PUSH2 0x719 JUMPI PUSH0 DUP1 REVERT JUMPDEST POP PUSH2 0x2A9 PUSH2 0x728 CALLDATASIZE PUSH1 0x4 PUSH2 0x2D4E JUMP JUMPDEST PUSH2 0x18BD JUMP JUMPDEST CALLVALUE DUP1 ISZERO PUSH2 0x738 JUMPI PUSH0 DUP1 REVERT JUMPDEST POP PUSH2 0x2A9 PUSH2 0x747 CALLDATASIZE PUSH1 0x4 PUSH2 0x2B9F JUMP JUMPDEST PUSH2 0x1919 JUMP JUMPDEST CALLVALUE DUP1 ISZERO PUSH2 0x757 JUMPI PUSH0 DUP1 REVERT JUMPDEST POP PUSH2 0x377 PUSH2 0x766 CALLDATASIZE PUSH1 0x4 PUSH2 0x2C98 JUMP JUMPDEST PUSH2 0x196E JUMP JUMPDEST CALLVALUE DUP1 ISZERO PUSH2 0x776 JUMPI PUSH0 DUP1 REVERT JUMPDEST POP PUSH2 0x2DB PUSH2 0x785 CALLDATASIZE PUSH1 0x4 PUSH2 0x2EF2 JUMP JUMPDEST PUSH2 0x1A3B JUMP JUMPDEST CALLVALUE DUP1 ISZERO PUSH2 0x795 JUMPI PUSH0 DUP1 REVERT JUMPDEST POP PUSH2 0x2A9 PUSH6 0x5AF3107A4000 DUP2 JUMP JUMPDEST CALLVALUE DUP1 ISZERO PUSH2 0x7AE JUMPI PUSH0 DUP1 REVERT JUMPDEST POP PUSH2 0x377 PUSH2 0x7BD CALLDATASIZE PUSH1 0x4 PUSH2 0x2C98 JUMP JUMPDEST PUSH2 0x1A87 JUMP JUMPDEST CALLVALUE DUP1 ISZERO PUSH2 0x7CD JUMPI PUSH0 DUP1 REVERT JUMPDEST POP PUSH2 0x377 PUSH2 0x7DC CALLDATASIZE PUSH1 0x4 PUSH2 0x2C98 JUMP JUMPDEST PUSH2 0x1B2C JUMP JUMPDEST PUSH0 PUSH2 0x7EB DUP3 PUSH2 0x1B69 JUMP JUMPDEST SWAP3 SWAP2 POP POP JUMP JUMPDEST PUSH0 DUP1 MLOAD PUSH1 0x20 PUSH2 0x31A0 DUP4 CODECOPY DUP2 MLOAD SWAP2 MSTORE DUP1 SLOAD PUSH1 0x60 SWAP2 SWAP1 DUP2 SWAP1 PUSH2 0x810 SWAP1 PUSH2 0x2F23 JUMP JUMPDEST DUP1 PUSH1 0x1F ADD PUSH1 0x20 DUP1 SWAP2 DIV MUL PUSH1 0x20 ADD PUSH1 0x40 MLOAD SWAP1 DUP2 ADD PUSH1 0x40 MSTORE DUP1 SWAP3 SWAP2 SWAP1 DUP2 DUP2 MSTORE PUSH1 0x20 ADD DUP3 DUP1 SLOAD PUSH2 0x83C SWAP1 PUSH2 0x2F23 JUMP JUMPDEST DUP1 ISZERO PUSH2 0x887 JUMPI DUP1 PUSH1 0x1F LT PUSH2 0x85E JUMPI PUSH2 0x100 DUP1 DUP4 SLOAD DIV MUL DUP4 MSTORE SWAP2 PUSH1 0x20 ADD SWAP2 PUSH2 0x887 JUMP JUMPDEST DUP3 ADD SWAP2 SWAP1 PUSH0 MSTORE PUSH1 0x20 PUSH0 KECCAK256 SWAP1 JUMPDEST DUP2 SLOAD DUP2 MSTORE SWAP1 PUSH1 0x1 ADD SWAP1 PUSH1 0x20 ADD DUP1 DUP4 GT PUSH2 0x86A JUMPI DUP3 SWAP1 SUB PUSH1 0x1F AND DUP3 ADD SWAP2 JUMPDEST POP POP POP POP POP SWAP2 POP POP SWAP1 JUMP JUMPDEST PUSH0 PUSH2 0x89C DUP3 PUSH2 0x1B8D JUMP JUMPDEST POP PUSH2 0x7EB DUP3 PUSH2 0x1BC4 JUMP JUMPDEST PUSH2 0x8B1 DUP3 DUP3 CALLER PUSH2 0x1BFD JUMP JUMPDEST POP POP JUMP JUMPDEST PUSH1 0x1 PUSH1 0x1 PUSH1 0xA0 SHL SUB DUP3 AND PUSH2 0x8E3 JUMPI PUSH1 0x40 MLOAD PUSH4 0x32505749 PUSH1 0xE1 SHL DUP2 MSTORE PUSH0 PUSH1 0x4 DUP3 ADD MSTORE PUSH1 0x24 ADD JUMPDEST PUSH1 0x40 MLOAD DUP1 SWAP2 SUB SWAP1 REVERT JUMPDEST PUSH0 PUSH2 0x8EF DUP4 DUP4 CALLER PUSH2 0x1C0A JUMP JUMPDEST SWAP1 POP DUP4 PUSH1 0x1 PUSH1 0x1 PUSH1 0xA0 SHL SUB AND DUP2 PUSH1 0x1 PUSH1 0x1 PUSH1 0xA0 SHL SUB AND EQ PUSH2 0x93D JUMPI PUSH1 0x40 MLOAD PUSH4 0x64283D7B PUSH1 0xE0 SHL DUP2 MSTORE PUSH1 0x1 PUSH1 0x1 PUSH1 0xA0 SHL SUB DUP1 DUP7 AND PUSH1 0x4 DUP4 ADD MSTORE PUSH1 0x24 DUP3 ADD DUP5 SWAP1 MSTORE DUP3 AND PUSH1 0x44 DUP3 ADD MSTORE PUSH1 0x64 ADD PUSH2 0x8DA JUMP JUMPDEST POP POP POP POP JUMP JUMPDEST PUSH1 0x8 DUP1 SLOAD PUSH1 0x9 SLOAD PUSH1 0xA SLOAD PUSH1 0xB DUP1 SLOAD PUSH1 0xFF DUP6 AND SWAP6 PUSH2 0x100 DUP7 DIV PUSH2 0xFFFF AND SWAP6 PUSH4 0x1000000 DUP2 DIV PUSH1 0x1 PUSH1 0x1 PUSH1 0xC0 SHL SUB AND SWAP6 PUSH1 0x1 PUSH1 0xD8 SHL SWAP1 SWAP2 DIV PUSH5 0xFFFFFFFFFF AND SWAP5 SWAP1 SWAP4 PUSH1 0x1 PUSH1 0x1 PUSH1 0xA0 SHL SUB SWAP1 SWAP2 AND SWAP3 PUSH2 0x998 SWAP1 PUSH2 0x2F23 JUMP JUMPDEST DUP1 PUSH1 0x1F ADD PUSH1 0x20 DUP1 SWAP2 DIV MUL PUSH1 0x20 ADD PUSH1 0x40 MLOAD SWAP1 DUP2 ADD PUSH1 0x40 MSTORE DUP1 SWAP3 SWAP2 SWAP1 DUP2 DUP2 MSTORE PUSH1 0x20 ADD DUP3 DUP1 SLOAD PUSH2 0x9C4 SWAP1 PUSH2 0x2F23 JUMP JUMPDEST DUP1 ISZERO PUSH2 0xA0F JUMPI DUP1 PUSH1 0x1F LT PUSH2 0x9E6 JUMPI PUSH2 0x100 DUP1 DUP4 SLOAD DIV MUL DUP4 MSTORE SWAP2 PUSH1 0x20 ADD SWAP2 PUSH2 0xA0F JUMP JUMPDEST DUP3 ADD SWAP2 SWAP1 PUSH0 MSTORE PUSH1 0x20 PUSH0 KECCAK256 SWAP1 JUMPDEST DUP2 SLOAD DUP2 MSTORE SWAP1 PUSH1 0x1 ADD SWAP1 PUSH1 0x20 ADD DUP1 DUP4 GT PUSH2 0x9F2 JUMPI DUP3 SWAP1 SUB PUSH1 0x1F AND DUP3 ADD SWAP2 JUMPDEST POP POP POP POP POP SWAP1 POP DUP8 JUMP JUMPDEST PUSH2 0xA21 PUSH2 0x1D0C JUMP JUMPDEST PUSH1 0x1 PUSH1 0x1 PUSH1 0xA0 SHL SUB DUP2 AND PUSH2 0xA69 JUMPI PUSH1 0x40 MLOAD PUSH3 0x461BCD PUSH1 0xE5 SHL DUP2 MSTORE PUSH1 0x20 PUSH1 0x4 DUP3 ADD MSTORE PUSH1 0xF PUSH1 0x24 DUP3 ADD MSTORE PUSH15 0x496E76616C69642061646472657373 PUSH1 0x88 SHL PUSH1 0x44 DUP3 ADD MSTORE PUSH1 0x64 ADD PUSH2 0x8DA JUMP JUMPDEST PUSH1 0x1 SLOAD PUSH1 0x40 MLOAD PUSH1 0x1 PUSH1 0x1 PUSH1 0xA0 SHL SUB DUP1 DUP5 AND SWAP3 AND SWAP1 PUSH31 0x66A248680B348DE6844119BB393B395F8A5ED03B28A64049B28A4538AB3121 SWAP1 PUSH0 SWAP1 LOG3 PUSH1 0x1 DUP1 SLOAD PUSH1 0x1 PUSH1 0x1 PUSH1 0xA0 SHL SUB NOT AND PUSH1 0x1 PUSH1 0x1 PUSH1 0xA0 SHL SUB SWAP3 SWAP1 SWAP3 AND SWAP2 SWAP1 SWAP2 OR SWAP1 SSTORE JUMP JUMPDEST PUSH2 0xADD DUP4 DUP4 DUP4 PUSH1 0x40 MLOAD DUP1 PUSH1 0x20 ADD PUSH1 0x40 MSTORE DUP1 PUSH0 DUP2 MSTORE POP PUSH2 0x1739 JUMP JUMPDEST POP POP POP JUMP JUMPDEST CALLER PUSH2 0xAEC DUP3 PUSH2 0xCB3 JUMP JUMPDEST PUSH1 0x1 PUSH1 0x1 PUSH1 0xA0 SHL SUB AND EQ PUSH2 0xB34 JUMPI PUSH1 0x40 MLOAD PUSH3 0x461BCD PUSH1 0xE5 SHL DUP2 MSTORE PUSH1 0x20 PUSH1 0x4 DUP3 ADD MSTORE PUSH1 0xF PUSH1 0x24 DUP3 ADD MSTORE PUSH15 0x2737BA103A37B5B2B71037BBB732B9 PUSH1 0x89 SHL PUSH1 0x44 DUP3 ADD MSTORE PUSH1 0x64 ADD PUSH2 0x8DA JUMP JUMPDEST PUSH1 0x1 SLOAD PUSH1 0x1 PUSH1 0x1 PUSH1 0xA0 SHL SUB AND PUSH2 0xB80 JUMPI PUSH1 0x40 MLOAD PUSH3 0x461BCD PUSH1 0xE5 SHL DUP2 MSTORE PUSH1 0x20 PUSH1 0x4 DUP3 ADD MSTORE PUSH1 0x11 PUSH1 0x24 DUP3 ADD MSTORE PUSH17 0x12D9595C151BDAD95B881B9BDD081CD95D PUSH1 0x7A SHL PUSH1 0x44 DUP3 ADD MSTORE PUSH1 0x64 ADD PUSH2 0x8DA JUMP JUMPDEST PUSH0 PUSH2 0xB8A DUP3 PUSH2 0x1919 JUMP JUMPDEST SWAP1 POP PUSH0 DUP2 GT PUSH2 0xBCF JUMPI PUSH1 0x40 MLOAD PUSH3 0x461BCD PUSH1 0xE5 SHL DUP2 MSTORE PUSH1 0x20 PUSH1 0x4 DUP3 ADD MSTORE PUSH1 0x11 PUSH1 0x24 DUP3 ADD MSTORE PUSH17 0x4E6F20746F6B656E732070656E64696E67 PUSH1 0x78 SHL PUSH1 0x44 DUP3 ADD MSTORE PUSH1 0x64 ADD PUSH2 0x8DA JUMP JUMPDEST PUSH0 DUP3 DUP2 MSTORE PUSH1 0x2 PUSH1 0x20 MSTORE PUSH1 0x40 SWAP1 DUP2 SWAP1 KECCAK256 TIMESTAMP SWAP1 SSTORE PUSH1 0x1 SLOAD SWAP1 MLOAD PUSH4 0x40C10F19 PUSH1 0xE0 SHL DUP2 MSTORE CALLER PUSH1 0x4 DUP3 ADD MSTORE PUSH1 0x24 DUP2 ADD DUP4 SWAP1 MSTORE PUSH1 0x1 PUSH1 0x1 PUSH1 0xA0 SHL SUB SWAP1 SWAP2 AND SWAP1 PUSH4 0x40C10F19 SWAP1 PUSH1 0x44 ADD PUSH0 PUSH1 0x40 MLOAD DUP1 DUP4 SUB DUP2 PUSH0 DUP8 DUP1 EXTCODESIZE ISZERO DUP1 ISZERO PUSH2 0xC29 JUMPI PUSH0 DUP1 REVERT JUMPDEST POP GAS CALL ISZERO DUP1 ISZERO PUSH2 0xC3B JUMPI RETURNDATASIZE PUSH0 DUP1 RETURNDATACOPY RETURNDATASIZE PUSH0 REVERT JUMPDEST POP POP POP POP DUP2 PUSH32 0xBDE2D72390AF9D0444BB1C4F938971ECB673ED26F5F57F8FA44C553FE01D0D3A DUP3 PUSH1 0x40 MLOAD PUSH2 0xC71 SWAP2 DUP2 MSTORE PUSH1 0x20 ADD SWAP1 JUMP JUMPDEST PUSH1 0x40 MLOAD DUP1 SWAP2 SUB SWAP1 LOG2 POP POP JUMP JUMPDEST PUSH2 0xC85 PUSH2 0x1D3E JUMP JUMPDEST PUSH2 0xC8E DUP3 PUSH2 0x1DE2 JUMP JUMPDEST PUSH2 0x8B1 DUP3 DUP3 PUSH2 0x1DEA JUMP JUMPDEST PUSH0 PUSH2 0xCA1 PUSH2 0x1EA6 JUMP JUMPDEST POP PUSH0 DUP1 MLOAD PUSH1 0x20 PUSH2 0x31C0 DUP4 CODECOPY DUP2 MLOAD SWAP2 MSTORE SWAP1 JUMP JUMPDEST PUSH0 PUSH2 0x7EB DUP3 PUSH2 0x1B8D JUMP JUMPDEST PUSH0 PUSH0 DUP1 MLOAD PUSH1 0x20 PUSH2 0x31A0 DUP4 CODECOPY DUP2 MLOAD SWAP2 MSTORE PUSH1 0x1 PUSH1 0x1 PUSH1 0xA0 SHL SUB DUP4 AND PUSH2 0xCF5 JUMPI PUSH1 0x40 MLOAD PUSH4 0x22718AD9 PUSH1 0xE2 SHL DUP2 MSTORE PUSH0 PUSH1 0x4 DUP3 ADD MSTORE PUSH1 0x24 ADD PUSH2 0x8DA JUMP JUMPDEST PUSH1 0x1 PUSH1 0x1 PUSH1 0xA0 SHL SUB SWAP1 SWAP3 AND PUSH0 SWAP1 DUP2 MSTORE PUSH1 0x3 SWAP1 SWAP3 ADD PUSH1 0x20 MSTORE POP PUSH1 0x40 SWAP1 KECCAK256 SLOAD SWAP1 JUMP JUMPDEST PUSH2 0xD1D PUSH2 0x1D0C JUMP JUMPDEST PUSH2 0xD26 PUSH0 PUSH2 0x1EEF JUMP JUMPDEST JUMP JUMPDEST PUSH0 PUSH2 0xD31 PUSH2 0x1F5F JUMP JUMPDEST DUP1 SLOAD SWAP1 SWAP2 POP PUSH1 0xFF PUSH1 0x1 PUSH1 0x40 SHL DUP3 DIV AND ISZERO SWAP1 PUSH8 0xFFFFFFFFFFFFFFFF AND PUSH0 DUP2 ISZERO DUP1 ISZERO PUSH2 0xD58 JUMPI POP DUP3 JUMPDEST SWAP1 POP PUSH0 DUP3 PUSH8 0xFFFFFFFFFFFFFFFF AND PUSH1 0x1 EQ DUP1 ISZERO PUSH2 0xD74 JUMPI POP ADDRESS EXTCODESIZE ISZERO JUMPDEST SWAP1 POP DUP2 ISZERO DUP1 ISZERO PUSH2 0xD82 JUMPI POP DUP1 ISZERO JUMPDEST ISZERO PUSH2 0xDA0 JUMPI PUSH1 0x40 MLOAD PUSH4 0xF92EE8A9 PUSH1 0xE0 SHL DUP2 MSTORE PUSH1 0x4 ADD PUSH1 0x40 MLOAD DUP1 SWAP2 SUB SWAP1 REVERT JUMPDEST DUP5 SLOAD PUSH8 0xFFFFFFFFFFFFFFFF NOT AND PUSH1 0x1 OR DUP6 SSTORE DUP4 ISZERO PUSH2 0xDCA JUMPI DUP5 SLOAD PUSH1 0xFF PUSH1 0x40 SHL NOT AND PUSH1 0x1 PUSH1 0x40 SHL OR DUP6 SSTORE JUMPDEST PUSH2 0xE20 PUSH1 0x40 MLOAD DUP1 PUSH1 0x40 ADD PUSH1 0x40 MSTORE DUP1 PUSH1 0x16 DUP2 MSTORE PUSH1 0x20 ADD PUSH22 0x24B73725B2B2B832B9102A30BB32B93725B2B2B832B9 PUSH1 0x51 SHL DUP2 MSTORE POP PUSH1 0x40 MLOAD DUP1 PUSH1 0x40 ADD PUSH1 0x40 MSTORE DUP1 PUSH1 0x6 DUP2 MSTORE PUSH1 0x20 ADD PUSH6 0x25A2A2A822A9 PUSH1 0xD1 SHL DUP2 MSTORE POP PUSH2 0x1F87 JUMP JUMPDEST PUSH2 0xE28 PUSH2 0x1F99 JUMP JUMPDEST PUSH2 0xE31 CALLER PUSH2 0x1FA1 JUMP JUMPDEST PUSH2 0xE39 PUSH2 0x1F99 JUMP JUMPDEST DUP4 ISZERO PUSH2 0xE7F JUMPI DUP5 SLOAD PUSH1 0xFF PUSH1 0x40 SHL NOT AND DUP6 SSTORE PUSH1 0x40 MLOAD PUSH1 0x1 DUP2 MSTORE PUSH32 0xC7F505B2F371AE2175EE4913F4499E1F2633A7B5936321EED1CDAEB6115181D2 SWAP1 PUSH1 0x20 ADD PUSH1 0x40 MLOAD DUP1 SWAP2 SUB SWAP1 LOG1 JUMPDEST POP POP POP POP POP JUMP JUMPDEST PUSH32 0x9016D09D72D40FDAE2FD8CEAC6B6234C7706214FD39C1CD1E609A0528C199300 SLOAD PUSH1 0x1 PUSH1 0x1 PUSH1 0xA0 SHL SUB AND SWAP1 JUMP JUMPDEST PUSH32 0x80BB2B638CC20BC4D0A60D66940F3AB4A00C1D7B313497CA82FB0B4AB0079301 DUP1 SLOAD PUSH1 0x60 SWAP2 PUSH0 DUP1 MLOAD PUSH1 0x20 PUSH2 0x31A0 DUP4 CODECOPY DUP2 MLOAD SWAP2 MSTORE SWAP2 PUSH2 0x810 SWAP1 PUSH2 0x2F23 JUMP JUMPDEST PUSH1 0x8 SLOAD PUSH0 SWAP1 PUSH1 0xFF AND PUSH1 0x2 SUB PUSH2 0xF1A JUMPI PUSH1 0x40 MLOAD PUSH4 0x558A1E03 PUSH1 0xE1 SHL DUP2 MSTORE PUSH1 0x4 ADD PUSH1 0x40 MLOAD DUP1 SWAP2 SUB SWAP1 REVERT JUMPDEST PUSH1 0x40 DUP1 MLOAD PUSH1 0xE0 DUP2 ADD DUP3 MSTORE PUSH1 0x8 DUP1 SLOAD PUSH1 0xFF DUP2 AND DUP4 MSTORE PUSH2 0x100 DUP2 DIV PUSH2 0xFFFF AND PUSH1 0x20 DUP5 ADD MSTORE PUSH4 0x1000000 DUP2 DIV PUSH1 0x1 PUSH1 0x1 PUSH1 0xC0 SHL SUB AND SWAP4 DUP4 ADD SWAP4 SWAP1 SWAP4 MSTORE PUSH1 0x1 PUSH1 0xD8 SHL SWAP1 SWAP3 DIV PUSH5 0xFFFFFFFFFF AND PUSH1 0x60 DUP3 ADD MSTORE PUSH1 0x9 SLOAD PUSH1 0x80 DUP3 ADD MSTORE PUSH1 0xA SLOAD PUSH1 0x1 PUSH1 0x1 PUSH1 0xA0 SHL SUB AND PUSH1 0xA0 DUP3 ADD MSTORE PUSH1 0xB DUP1 SLOAD PUSH2 0x101C SWAP4 SWAP2 PUSH1 0xC0 DUP5 ADD SWAP2 PUSH2 0xF97 SWAP1 PUSH2 0x2F23 JUMP JUMPDEST DUP1 PUSH1 0x1F ADD PUSH1 0x20 DUP1 SWAP2 DIV MUL PUSH1 0x20 ADD PUSH1 0x40 MLOAD SWAP1 DUP2 ADD PUSH1 0x40 MSTORE DUP1 SWAP3 SWAP2 SWAP1 DUP2 DUP2 MSTORE PUSH1 0x20 ADD DUP3 DUP1 SLOAD PUSH2 0xFC3 SWAP1 PUSH2 0x2F23 JUMP JUMPDEST DUP1 ISZERO PUSH2 0x100E JUMPI DUP1 PUSH1 0x1F LT PUSH2 0xFE5 JUMPI PUSH2 0x100 DUP1 DUP4 SLOAD DIV MUL DUP4 MSTORE SWAP2 PUSH1 0x20 ADD SWAP2 PUSH2 0x100E JUMP JUMPDEST DUP3 ADD SWAP2 SWAP1 PUSH0 MSTORE PUSH1 0x20 PUSH0 KECCAK256 SWAP1 JUMPDEST DUP2 SLOAD DUP2 MSTORE SWAP1 PUSH1 0x1 ADD SWAP1 PUSH1 0x20 ADD DUP1 DUP4 GT PUSH2 0xFF1 JUMPI DUP3 SWAP1 SUB PUSH1 0x1F AND DUP3 ADD SWAP2 JUMPDEST POP POP POP POP POP DUP2 MSTORE POP POP PUSH2 0x1FB2 JUMP JUMPDEST SWAP1 POP SWAP1 JUMP JUMPDEST PUSH1 0x8 SLOAD PUSH0 SWAP1 PUSH1 0xFF AND PUSH1 0x2 SUB PUSH2 0x1049 JUMPI PUSH1 0x40 MLOAD PUSH4 0x558A1E03 PUSH1 0xE1 SHL DUP2 MSTORE PUSH1 0x4 ADD PUSH1 0x40 MLOAD DUP1 SWAP2 SUB SWAP1 REVERT JUMPDEST PUSH1 0x8 DUP1 SLOAD PUSH1 0xFF NOT AND PUSH1 0x2 OR SWAP1 SSTORE TIMESTAMP DUP5 LT ISZERO PUSH2 0x1077 JUMPI PUSH1 0x40 MLOAD PUSH4 0x407B05B PUSH1 0xE3 SHL DUP2 MSTORE PUSH1 0x4 ADD PUSH1 0x40 MLOAD DUP1 SWAP2 SUB SWAP1 REVERT JUMPDEST PUSH1 0x40 DUP1 MLOAD PUSH1 0xE0 DUP2 ADD DUP3 MSTORE PUSH1 0x8 DUP1 SLOAD PUSH1 0xFF DUP2 AND DUP4 MSTORE PUSH2 0x100 DUP2 DIV PUSH2 0xFFFF AND PUSH1 0x20 DUP5 ADD MSTORE PUSH4 0x1000000 DUP2 DIV PUSH1 0x1 PUSH1 0x1 PUSH1 0xC0 SHL SUB AND SWAP4 DUP4 ADD SWAP4 SWAP1 SWAP4 MSTORE PUSH1 0x1 PUSH1 0xD8 SHL SWAP1 SWAP3 DIV PUSH5 0xFFFFFFFFFF AND PUSH1 0x60 DUP3 ADD MSTORE PUSH1 0x9 SLOAD PUSH1 0x80 DUP3 ADD MSTORE PUSH1 0xA SLOAD PUSH1 0x1 PUSH1 0x1 PUSH1 0xA0 SHL SUB AND PUSH1 0xA0 DUP3 ADD MSTORE PUSH1 0xB DUP1 SLOAD PUSH0 SWAP4 SWAP2 PUSH1 0xC0 DUP5 ADD SWAP2 PUSH2 0x10F2 SWAP1 PUSH2 0x2F23 JUMP JUMPDEST DUP1 PUSH1 0x1F ADD PUSH1 0x20 DUP1 SWAP2 DIV MUL PUSH1 0x20 ADD PUSH1 0x40 MLOAD SWAP1 DUP2 ADD PUSH1 0x40 MSTORE DUP1 SWAP3 SWAP2 SWAP1 DUP2 DUP2 MSTORE PUSH1 0x20 ADD DUP3 DUP1 SLOAD PUSH2 0x111E SWAP1 PUSH2 0x2F23 JUMP JUMPDEST DUP1 ISZERO PUSH2 0x1169 JUMPI DUP1 PUSH1 0x1F LT PUSH2 0x1140 JUMPI PUSH2 0x100 DUP1 DUP4 SLOAD DIV MUL DUP4 MSTORE SWAP2 PUSH1 0x20 ADD SWAP2 PUSH2 0x1169 JUMP JUMPDEST DUP3 ADD SWAP2 SWAP1 PUSH0 MSTORE PUSH1 0x20 PUSH0 KECCAK256 SWAP1 JUMPDEST DUP2 SLOAD DUP2 MSTORE SWAP1 PUSH1 0x1 ADD SWAP1 PUSH1 0x20 ADD DUP1 DUP4 GT PUSH2 0x114C JUMPI DUP3 SWAP1 SUB PUSH1 0x1F AND DUP3 ADD SWAP2 JUMPDEST POP POP POP POP POP DUP2 MSTORE POP POP SWAP1 POP DUP6 PUSH0 EQ ISZERO DUP1 ISZERO PUSH2 0x1190 JUMPI POP DUP1 PUSH1 0x20 ADD MLOAD PUSH2 0xFFFF AND DUP7 PUSH2 0xFFFF AND EQ ISZERO JUMPDEST ISZERO PUSH2 0x11AE JUMPI PUSH1 0x40 MLOAD PUSH4 0x608FB7BF PUSH1 0xE0 SHL DUP2 MSTORE PUSH1 0x4 ADD PUSH1 0x40 MLOAD DUP1 SWAP2 SUB SWAP1 REVERT JUMPDEST PUSH2 0x11B7 DUP2 PUSH2 0x1FB2 JUMP JUMPDEST SWAP2 POP DUP4 DUP3 GT ISZERO PUSH2 0x11DA JUMPI PUSH1 0x40 MLOAD PUSH4 0x1D5ECE53 PUSH1 0xE0 SHL DUP2 MSTORE PUSH1 0x4 ADD PUSH1 0x40 MLOAD DUP1 SWAP2 SUB SWAP1 REVERT JUMPDEST DUP2 CALLVALUE LT ISZERO PUSH2 0x1221 JUMPI PUSH1 0x40 MLOAD PUSH3 0x461BCD PUSH1 0xE5 SHL DUP2 MSTORE PUSH1 0x20 PUSH1 0x4 DUP3 ADD MSTORE PUSH1 0x14 PUSH1 0x24 DUP3 ADD MSTORE PUSH20 0x125B9CDD59999A58DA595B9D081C185E5B595B9D PUSH1 0x62 SHL PUSH1 0x44 DUP3 ADD MSTORE PUSH1 0x64 ADD PUSH2 0x8DA JUMP JUMPDEST PUSH0 PUSH2 0x122C DUP4 CALLVALUE PUSH2 0x2F69 JUMP JUMPDEST SWAP1 POP DUP1 ISZERO PUSH2 0x1260 JUMPI PUSH1 0x40 MLOAD CALLER SWAP1 DUP3 ISZERO PUSH2 0x8FC MUL SWAP1 DUP4 SWAP1 PUSH0 DUP2 DUP2 DUP2 DUP6 DUP9 DUP9 CALL SWAP4 POP POP POP POP ISZERO DUP1 ISZERO PUSH2 0x125E JUMPI RETURNDATASIZE PUSH0 DUP1 RETURNDATACOPY RETURNDATASIZE PUSH0 REVERT JUMPDEST POP JUMPDEST DUP3 ISZERO PUSH2 0x1452 JUMPI PUSH0 PUSH2 0x2710 PUSH2 0x1276 PUSH2 0x7D0 DUP7 PUSH2 0x2F7C JUMP JUMPDEST PUSH2 0x1280 SWAP2 SWAP1 PUSH2 0x2F93 JUMP JUMPDEST SWAP1 POP PUSH0 PUSH2 0x128D DUP3 DUP7 PUSH2 0x2F69 JUMP JUMPDEST SWAP1 POP PUSH0 PUSH2 0x129B PUSH1 0x2 DUP5 PUSH2 0x2F93 JUMP JUMPDEST SWAP1 POP PUSH0 PUSH2 0x12A8 DUP3 DUP6 PUSH2 0x2F69 JUMP JUMPDEST SWAP1 POP PUSH2 0x12B2 PUSH2 0xE86 JUMP JUMPDEST PUSH1 0x1 PUSH1 0x1 PUSH1 0xA0 SHL SUB AND PUSH2 0x8FC DUP4 SWAP1 DUP2 ISZERO MUL SWAP1 PUSH1 0x40 MLOAD PUSH0 PUSH1 0x40 MLOAD DUP1 DUP4 SUB DUP2 DUP6 DUP9 DUP9 CALL SWAP4 POP POP POP POP ISZERO DUP1 ISZERO PUSH2 0x12E7 JUMPI RETURNDATASIZE PUSH0 DUP1 RETURNDATACOPY RETURNDATASIZE PUSH0 REVERT JUMPDEST POP PUSH1 0xC SLOAD PUSH1 0x1 PUSH1 0x1 PUSH1 0xA0 SHL SUB AND ISZERO PUSH2 0x1378 JUMPI PUSH1 0xC SLOAD PUSH1 0x40 MLOAD PUSH1 0x1 PUSH1 0x1 PUSH1 0xA0 SHL SUB SWAP1 SWAP2 AND SWAP1 DUP3 ISZERO PUSH2 0x8FC MUL SWAP1 DUP4 SWAP1 PUSH0 DUP2 DUP2 DUP2 DUP6 DUP9 DUP9 CALL SWAP4 POP POP POP POP ISZERO DUP1 ISZERO PUSH2 0x1330 JUMPI RETURNDATASIZE PUSH0 DUP1 RETURNDATACOPY RETURNDATASIZE PUSH0 REVERT JUMPDEST POP PUSH1 0xC SLOAD PUSH1 0x40 MLOAD DUP3 DUP2 MSTORE PUSH1 0x1 PUSH1 0x1 PUSH1 0xA0 SHL SUB SWAP1 SWAP2 AND SWAP1 PUSH32 0x44C4B50AC44926F55EEFC40DDAF8D1A7848627C9FD4B811E4A36F9985D78ABA2 SWAP1 PUSH1 0x20 ADD PUSH1 0x40 MLOAD DUP1 SWAP2 SUB SWAP1 LOG2 PUSH2 0x13B7 JUMP JUMPDEST PUSH2 0x1380 PUSH2 0xE86 JUMP JUMPDEST PUSH1 0x1 PUSH1 0x1 PUSH1 0xA0 SHL SUB AND PUSH2 0x8FC DUP3 SWAP1 DUP2 ISZERO MUL SWAP1 PUSH1 0x40 MLOAD PUSH0 PUSH1 0x40 MLOAD DUP1 DUP4 SUB DUP2 DUP6 DUP9 DUP9 CALL SWAP4 POP POP POP POP ISZERO DUP1 ISZERO PUSH2 0x13B5 JUMPI RETURNDATASIZE PUSH0 DUP1 RETURNDATACOPY RETURNDATASIZE PUSH0 REVERT JUMPDEST POP JUMPDEST PUSH1 0xA0 DUP7 ADD MLOAD PUSH1 0x1 PUSH1 0x1 PUSH1 0xA0 SHL SUB AND ISZERO PUSH2 0x144D JUMPI DUP6 PUSH1 0xA0 ADD MLOAD PUSH1 0x1 PUSH1 0x1 PUSH1 0xA0 SHL SUB AND PUSH2 0x8FC DUP5 SWAP1 DUP2 ISZERO MUL SWAP1 PUSH1 0x40 MLOAD PUSH0 PUSH1 0x40 MLOAD DUP1 DUP4 SUB DUP2 DUP6 DUP9 DUP9 CALL SWAP4 POP POP POP POP ISZERO DUP1 ISZERO PUSH2 0x1404 JUMPI RETURNDATASIZE PUSH0 DUP1 RETURNDATACOPY RETURNDATASIZE PUSH0 REVERT JUMPDEST POP DUP6 PUSH1 0xA0 ADD MLOAD PUSH1 0x1 PUSH1 0x1 PUSH1 0xA0 SHL SUB AND PUSH32 0x58616205E0A5E583FA41138B0B6BA26D640390A34951E96A8B313DC315DA6ACB DUP5 PUSH1 0x40 MLOAD PUSH2 0x1444 SWAP2 DUP2 MSTORE PUSH1 0x20 ADD SWAP1 JUMP JUMPDEST PUSH1 0x40 MLOAD DUP1 SWAP2 SUB SWAP1 LOG2 JUMPDEST POP POP POP POP JUMPDEST PUSH0 PUSH8 0xDE0B6B3A7640000 PUSH2 0x146E PUSH8 0x1BC16D674EC80000 DUP7 PUSH2 0x2F7C JUMP JUMPDEST PUSH2 0x1478 SWAP2 SWAP1 PUSH2 0x2F93 JUMP JUMPDEST SWAP1 POP PUSH1 0x1 PUSH1 0x1 PUSH1 0xC0 SHL SUB DUP2 GT ISZERO PUSH2 0x1497 JUMPI POP PUSH1 0x1 PUSH1 0x1 PUSH1 0xC0 SHL SUB PUSH2 0x14AE JUMP JUMPDEST PUSH6 0x5AF3107A4000 DUP2 LT ISZERO PUSH2 0x14AE JUMPI POP PUSH6 0x5AF3107A4000 JUMPDEST PUSH0 DUP4 PUSH1 0x60 ADD MLOAD PUSH5 0xFFFFFFFFFF AND TIMESTAMP PUSH2 0x14C6 SWAP2 SWAP1 PUSH2 0x2F69 JUMP JUMPDEST SWAP1 POP PUSH0 DUP5 PUSH1 0x80 ADD MLOAD DUP3 PUSH2 0x14D9 SWAP2 SWAP1 PUSH2 0x2F7C JUMP JUMPDEST PUSH1 0x1 SLOAD SWAP1 SWAP2 POP PUSH1 0x1 PUSH1 0x1 PUSH1 0xA0 SHL SUB AND ISZERO DUP1 ISZERO SWAP1 PUSH2 0x1502 JUMPI POP PUSH1 0xA0 DUP6 ADD MLOAD PUSH1 0x1 PUSH1 0x1 PUSH1 0xA0 SHL SUB AND ISZERO ISZERO JUMPDEST ISZERO PUSH2 0x15B4 JUMPI PUSH1 0x1 SLOAD PUSH1 0xA0 DUP7 ADD MLOAD PUSH1 0x40 MLOAD PUSH4 0x40C10F19 PUSH1 0xE0 SHL DUP2 MSTORE PUSH1 0x1 PUSH1 0x1 PUSH1 0xA0 SHL SUB SWAP2 DUP3 AND PUSH1 0x4 DUP3 ADD MSTORE PUSH1 0x24 DUP2 ADD DUP5 SWAP1 MSTORE SWAP2 AND SWAP1 PUSH4 0x40C10F19 SWAP1 PUSH1 0x44 ADD PUSH0 PUSH1 0x40 MLOAD DUP1 DUP4 SUB DUP2 PUSH0 DUP8 DUP1 EXTCODESIZE ISZERO DUP1 ISZERO PUSH2 0x1556 JUMPI PUSH0 DUP1 REVERT JUMPDEST POP GAS CALL ISZERO DUP1 ISZERO PUSH2 0x1568 JUMPI RETURNDATASIZE PUSH0 DUP1 RETURNDATACOPY RETURNDATASIZE PUSH0 REVERT JUMPDEST POP POP POP POP DUP5 PUSH1 0xA0 ADD MLOAD PUSH1 0x1 PUSH1 0x1 PUSH1 0xA0 SHL SUB AND PUSH32 0xAB89EAC8A47EC964C442BEDDE0FE9093248F72A543E70FF346E31B652827C663 DUP3 PUSH1 0x40 MLOAD PUSH2 0x15AB SWAP2 DUP2 MSTORE PUSH1 0x20 ADD SWAP1 JUMP JUMPDEST PUSH1 0x40 MLOAD DUP1 SWAP2 SUB SWAP1 LOG2 JUMPDEST PUSH1 0x20 DUP6 ADD DUP1 MLOAD PUSH1 0x1 ADD PUSH2 0xFFFF AND SWAP1 MSTORE PUSH1 0x1 PUSH1 0x1 PUSH1 0xC0 SHL SUB DUP4 AND PUSH1 0x40 DUP7 ADD MSTORE TIMESTAMP PUSH5 0xFFFFFFFFFF DUP2 AND PUSH1 0x60 DUP8 ADD MSTORE CALLER PUSH1 0xA0 DUP8 ADD MSTORE PUSH2 0x15EF SWAP1 PUSH2 0x201D JUMP JUMPDEST PUSH1 0x80 DUP7 ADD DUP2 SWAP1 MSTORE PUSH1 0xC0 DUP7 ADD DUP9 SWAP1 MSTORE DUP6 MLOAD PUSH1 0x8 DUP1 SLOAD PUSH1 0x20 DUP10 ADD MLOAD PUSH1 0x40 DUP11 ADD MLOAD PUSH1 0x60 DUP12 ADD MLOAD PUSH5 0xFFFFFFFFFF AND PUSH1 0x1 PUSH1 0xD8 SHL MUL PUSH1 0x1 PUSH1 0x1 PUSH1 0xD8 SHL SUB PUSH1 0x1 PUSH1 0x1 PUSH1 0xC0 SHL SUB SWAP1 SWAP3 AND PUSH4 0x1000000 MUL SWAP2 SWAP1 SWAP2 AND PUSH3 0xFFFFFF PUSH2 0xFFFF SWAP1 SWAP4 AND PUSH2 0x100 MUL PUSH3 0xFFFFFF NOT SWAP1 SWAP5 AND PUSH1 0xFF SWAP1 SWAP7 AND SWAP6 SWAP1 SWAP6 OR SWAP3 SWAP1 SWAP3 OR AND SWAP3 SWAP1 SWAP3 OR SWAP2 SWAP1 SWAP2 OR DUP2 SSTORE PUSH1 0x9 SWAP2 SWAP1 SWAP2 SSTORE PUSH1 0xA0 DUP7 ADD MLOAD PUSH1 0xA DUP1 SLOAD PUSH1 0x1 PUSH1 0x1 PUSH1 0xA0 SHL SUB SWAP1 SWAP3 AND PUSH1 0x1 PUSH1 0x1 PUSH1 0xA0 SHL SUB NOT SWAP1 SWAP3 AND SWAP2 SWAP1 SWAP2 OR SWAP1 SSTORE DUP6 SWAP1 PUSH1 0xB PUSH2 0x16A4 DUP11 DUP3 PUSH2 0x2FF6 JUMP JUMPDEST POP POP PUSH1 0x40 MLOAD CALLER SWAP2 POP PUSH32 0x6BD27FEDA26DA893D76F461D47D2C4F4C71DF28C61D91A79C073D511716F7AB7 SWAP1 PUSH2 0x16DD SWAP1 DUP10 SWAP1 DUP2 SWAP1 DUP13 SWAP1 PUSH2 0x30B2 JUMP JUMPDEST PUSH1 0x40 MLOAD DUP1 SWAP2 SUB SWAP1 LOG2 POP POP POP POP POP PUSH1 0x8 DUP1 SLOAD PUSH1 0xFF NOT AND PUSH1 0x1 OR SWAP1 SSTORE SWAP5 SWAP4 POP POP POP POP JUMP JUMPDEST PUSH2 0x8B1 CALLER DUP4 DUP4 PUSH2 0x2093 JUMP JUMPDEST PUSH1 0x8 SLOAD PUSH0 SWAP1 PUSH1 0xFF AND PUSH1 0x2 SUB PUSH2 0x1732 JUMPI PUSH1 0x40 MLOAD PUSH4 0x558A1E03 PUSH1 0xE1 SHL DUP2 MSTORE PUSH1 0x4 ADD PUSH1 0x40 MLOAD DUP1 SWAP2 SUB SWAP1 REVERT JUMPDEST POP PUSH1 0x9 SLOAD SWAP1 JUMP JUMPDEST PUSH2 0x1744 DUP5 DUP5 DUP5 PUSH2 0x8B5 JUMP JUMPDEST PUSH2 0x93D CALLER DUP6 DUP6 DUP6 DUP6 PUSH2 0x2142 JUMP JUMPDEST PUSH1 0x60 PUSH2 0x7EB DUP3 PUSH2 0x2269 JUMP JUMPDEST PUSH1 0x40 DUP1 MLOAD PUSH1 0xE0 DUP2 ADD DUP3 MSTORE PUSH0 DUP1 DUP3 MSTORE PUSH1 0x20 DUP3 ADD DUP2 SWAP1 MSTORE SWAP2 DUP2 ADD DUP3 SWAP1 MSTORE PUSH1 0x60 DUP1 DUP3 ADD DUP4 SWAP1 MSTORE PUSH1 0x80 DUP3 ADD DUP4 SWAP1 MSTORE PUSH1 0xA0 DUP3 ADD SWAP3 SWAP1 SWAP3 MSTORE PUSH1 0xC0 DUP2 ADD SWAP2 SWAP1 SWAP2 MSTORE PUSH1 0x8 SLOAD PUSH1 0xFF AND PUSH1 0x2 SUB PUSH2 0x17BC JUMPI PUSH1 0x40 MLOAD PUSH4 0x558A1E03 PUSH1 0xE1 SHL DUP2 MSTORE PUSH1 0x4 ADD PUSH1 0x40 MLOAD DUP1 SWAP2 SUB SWAP1 REVERT JUMPDEST PUSH1 0x40 DUP1 MLOAD PUSH1 0xE0 DUP2 ADD DUP3 MSTORE PUSH1 0x8 DUP1 SLOAD PUSH1 0xFF DUP2 AND DUP4 MSTORE PUSH2 0x100 DUP2 DIV PUSH2 0xFFFF AND PUSH1 0x20 DUP5 ADD MSTORE PUSH4 0x1000000 DUP2 DIV PUSH1 0x1 PUSH1 0x1 PUSH1 0xC0 SHL SUB AND SWAP4 DUP4 ADD SWAP4 SWAP1 SWAP4 MSTORE PUSH1 0x1 PUSH1 0xD8 SHL SWAP1 SWAP3 DIV PUSH5 0xFFFFFFFFFF AND PUSH1 0x60 DUP3 ADD MSTORE PUSH1 0x9 SLOAD PUSH1 0x80 DUP3 ADD MSTORE PUSH1 0xA SLOAD PUSH1 0x1 PUSH1 0x1 PUSH1 0xA0 SHL SUB AND PUSH1 0xA0 DUP3 ADD MSTORE PUSH1 0xB DUP1 SLOAD SWAP2 SWAP3 SWAP2 PUSH1 0xC0 DUP5 ADD SWAP2 SWAP1 PUSH2 0x1838 SWAP1 PUSH2 0x2F23 JUMP JUMPDEST DUP1 PUSH1 0x1F ADD PUSH1 0x20 DUP1 SWAP2 DIV MUL PUSH1 0x20 ADD PUSH1 0x40 MLOAD SWAP1 DUP2 ADD PUSH1 0x40 MSTORE DUP1 SWAP3 SWAP2 SWAP1 DUP2 DUP2 MSTORE PUSH1 0x20 ADD DUP3 DUP1 SLOAD PUSH2 0x1864 SWAP1 PUSH2 0x2F23 JUMP JUMPDEST DUP1 ISZERO PUSH2 0x18AF JUMPI DUP1 PUSH1 0x1F LT PUSH2 0x1886 JUMPI PUSH2 0x100 DUP1 DUP4 SLOAD DIV MUL DUP4 MSTORE SWAP2 PUSH1 0x20 ADD SWAP2 PUSH2 0x18AF JUMP JUMPDEST DUP3 ADD SWAP2 SWAP1 PUSH0 MSTORE PUSH1 0x20 PUSH0 KECCAK256 SWAP1 JUMPDEST DUP2 SLOAD DUP2 MSTORE SWAP1 PUSH1 0x1 ADD SWAP1 PUSH1 0x20 ADD DUP1 DUP4 GT PUSH2 0x1892 JUMPI DUP3 SWAP1 SUB PUSH1 0x1F AND DUP3 ADD SWAP2 JUMPDEST POP POP POP POP POP DUP2 MSTORE POP POP SWAP1 POP SWAP1 JUMP JUMPDEST PUSH0 PUSH2 0x18C6 PUSH2 0x1D0C JUMP JUMPDEST PUSH0 DUP1 SLOAD DUP2 DUP1 PUSH2 0x18D4 DUP4 PUSH2 0x30D0 JUMP JUMPDEST SWAP2 SWAP1 POP SSTORE SWAP1 POP PUSH2 0x18E4 DUP5 DUP3 PUSH2 0x2398 JUMP JUMPDEST PUSH2 0x18EE DUP2 DUP5 PUSH2 0x23B1 JUMP JUMPDEST PUSH0 DUP2 DUP2 MSTORE PUSH1 0x2 PUSH1 0x20 SWAP1 DUP2 MSTORE PUSH1 0x40 DUP1 DUP4 KECCAK256 TIMESTAMP SWAP1 SSTORE PUSH1 0x3 SWAP1 SWAP2 MSTORE SWAP1 KECCAK256 PUSH7 0x2386F26FC10000 SWAP1 SSTORE SWAP4 SWAP3 POP POP POP JUMP JUMPDEST PUSH0 DUP2 DUP2 MSTORE PUSH1 0x2 PUSH1 0x20 MSTORE PUSH1 0x40 DUP2 KECCAK256 SLOAD DUP2 SUB PUSH2 0x1934 JUMPI POP PUSH0 SWAP2 SWAP1 POP JUMP JUMPDEST PUSH0 DUP3 DUP2 MSTORE PUSH1 0x2 PUSH1 0x20 MSTORE PUSH1 0x40 DUP2 KECCAK256 SLOAD PUSH2 0x194C SWAP1 TIMESTAMP PUSH2 0x2F69 JUMP JUMPDEST PUSH0 DUP5 DUP2 MSTORE PUSH1 0x3 PUSH1 0x20 MSTORE PUSH1 0x40 SWAP1 KECCAK256 SLOAD SWAP1 SWAP2 POP PUSH2 0x1967 SWAP1 DUP3 PUSH2 0x2F7C JUMP JUMPDEST SWAP4 SWAP3 POP POP POP JUMP JUMPDEST PUSH2 0x1976 PUSH2 0x1D0C JUMP JUMPDEST PUSH1 0xC SLOAD PUSH1 0x1 PUSH1 0x1 PUSH1 0xA0 SHL SUB AND ISZERO PUSH2 0x19C8 JUMPI PUSH1 0x40 MLOAD PUSH3 0x461BCD PUSH1 0xE5 SHL DUP2 MSTORE PUSH1 0x20 PUSH1 0x4 DUP3 ADD MSTORE PUSH1 0x16 PUSH1 0x24 DUP3 ADD MSTORE PUSH22 0x20B63932B0B23C9034B734BA34B0B634BD32B2102B19 PUSH1 0x51 SHL PUSH1 0x44 DUP3 ADD MSTORE PUSH1 0x64 ADD PUSH2 0x8DA JUMP JUMPDEST PUSH1 0xC DUP1 SLOAD PUSH1 0x1 PUSH1 0x1 PUSH1 0xA0 SHL SUB SWAP1 SWAP3 AND PUSH1 0x1 PUSH1 0x1 PUSH1 0xA0 SHL SUB NOT SWAP3 DUP4 AND OR SWAP1 SSTORE TIMESTAMP PUSH1 0xD DUP2 SWAP1 SSTORE PUSH1 0x8 DUP1 SLOAD PUSH1 0xA DUP1 SLOAD SWAP1 SWAP5 AND CALLER OR SWAP1 SWAP4 SSTORE PUSH8 0x3782DACE9D900000 PUSH1 0x9 SSTORE PUSH3 0xFFFF00 NOT PUSH5 0xFFFFFFFFFF SWAP1 SWAP3 AND PUSH1 0x1 PUSH1 0xD8 SHL MUL PUSH3 0xFFFFFF SWAP1 SWAP4 AND SWAP3 SWAP1 SWAP3 OR PUSH9 0x5AF3107A4000000000 OR AND PUSH2 0x100 OR SWAP1 SSTORE JUMP JUMPDEST PUSH1 0x1 PUSH1 0x1 PUSH1 0xA0 SHL SUB SWAP2 DUP3 AND PUSH0 SWAP1 DUP2 MSTORE PUSH32 0x80BB2B638CC20BC4D0A60D66940F3AB4A00C1D7B313497CA82FB0B4AB0079305 PUSH1 0x20 SWAP1 DUP2 MSTORE PUSH1 0x40 DUP1 DUP4 KECCAK256 SWAP4 SWAP1 SWAP5 AND DUP3 MSTORE SWAP2 SWAP1 SWAP2 MSTORE KECCAK256 SLOAD PUSH1 0xFF AND SWAP1 JUMP JUMPDEST PUSH2 0x1A8F PUSH2 0x1D0C JUMP JUMPDEST PUSH1 0x1 PUSH1 0x1 PUSH1 0xA0 SHL SUB DUP2 AND PUSH2 0x1AD8 JUMPI PUSH1 0x40 MLOAD PUSH3 0x461BCD PUSH1 0xE5 SHL DUP2 MSTORE PUSH1 0x20 PUSH1 0x4 DUP3 ADD MSTORE PUSH1 0x10 PUSH1 0x24 DUP3 ADD MSTORE PUSH16 0x496E76616C6964207472656173757279 PUSH1 0x80 SHL PUSH1 0x44 DUP3 ADD MSTORE PUSH1 0x64 ADD PUSH2 0x8DA JUMP JUMPDEST PUSH1 0xC DUP1 SLOAD PUSH1 0x1 PUSH1 0x1 PUSH1 0xA0 SHL SUB NOT AND PUSH1 0x1 PUSH1 0x1 PUSH1 0xA0 SHL SUB DUP4 AND SWAP1 DUP2 OR SWAP1 SWAP2 SSTORE PUSH1 0x40 MLOAD PUSH0 DUP2 MSTORE PUSH32 0x44C4B50AC44926F55EEFC40DDAF8D1A7848627C9FD4B811E4A36F9985D78ABA2 SWAP1 PUSH1 0x20 ADD PUSH1 0x40 MLOAD DUP1 SWAP2 SUB SWAP1 LOG2 POP JUMP JUMPDEST PUSH2 0x1B34 PUSH2 0x1D0C JUMP JUMPDEST PUSH1 0x1 PUSH1 0x1 PUSH1 0xA0 SHL SUB DUP2 AND PUSH2 0x1B5D JUMPI PUSH1 0x40 MLOAD PUSH4 0x1E4FBDF7 PUSH1 0xE0 SHL DUP2 MSTORE PUSH0 PUSH1 0x4 DUP3 ADD MSTORE PUSH1 0x24 ADD PUSH2 0x8DA JUMP JUMPDEST PUSH2 0x1B66 DUP2 PUSH2 0x1EEF JUMP JUMPDEST POP JUMP JUMPDEST PUSH0 PUSH1 0x1 PUSH1 0x1 PUSH1 0xE0 SHL SUB NOT DUP3 AND PUSH4 0x24832483 PUSH1 0xE1 SHL EQ DUP1 PUSH2 0x7EB JUMPI POP PUSH2 0x7EB DUP3 PUSH2 0x2423 JUMP JUMPDEST PUSH0 DUP1 PUSH2 0x1B98 DUP4 PUSH2 0x2472 JUMP JUMPDEST SWAP1 POP PUSH1 0x1 PUSH1 0x1 PUSH1 0xA0 SHL SUB DUP2 AND PUSH2 0x7EB JUMPI PUSH1 0x40 MLOAD PUSH4 0x7E273289 PUSH1 0xE0 SHL DUP2 MSTORE PUSH1 0x4 DUP2 ADD DUP5 SWAP1 MSTORE PUSH1 0x24 ADD PUSH2 0x8DA JUMP JUMPDEST PUSH0 SWAP1 DUP2 MSTORE PUSH32 0x80BB2B638CC20BC4D0A60D66940F3AB4A00C1D7B313497CA82FB0B4AB0079304 PUSH1 0x20 MSTORE PUSH1 0x40 SWAP1 KECCAK256 SLOAD PUSH1 0x1 PUSH1 0x1 PUSH1 0xA0 SHL SUB AND SWAP1 JUMP JUMPDEST PUSH2 0xADD DUP4 DUP4 DUP4 PUSH1 0x1 PUSH2 0x24AB JUMP JUMPDEST PUSH0 PUSH0 DUP1 MLOAD PUSH1 0x20 PUSH2 0x31A0 DUP4 CODECOPY DUP2 MLOAD SWAP2 MSTORE DUP2 PUSH2 0x1C23 DUP6 PUSH2 0x2472 JUMP JUMPDEST SWAP1 POP PUSH1 0x1 PUSH1 0x1 PUSH1 0xA0 SHL SUB DUP5 AND ISZERO PUSH2 0x1C3F JUMPI PUSH2 0x1C3F DUP2 DUP6 DUP8 PUSH2 0x25BE JUMP JUMPDEST PUSH1 0x1 PUSH1 0x1 PUSH1 0xA0 SHL SUB DUP2 AND ISZERO PUSH2 0x1C7B JUMPI PUSH2 0x1C5A PUSH0 DUP7 PUSH0 DUP1 PUSH2 0x24AB JUMP JUMPDEST PUSH1 0x1 PUSH1 0x1 PUSH1 0xA0 SHL SUB DUP2 AND PUSH0 SWAP1 DUP2 MSTORE PUSH1 0x3 DUP4 ADD PUSH1 0x20 MSTORE PUSH1 0x40 SWAP1 KECCAK256 DUP1 SLOAD PUSH0 NOT ADD SWAP1 SSTORE JUMPDEST PUSH1 0x1 PUSH1 0x1 PUSH1 0xA0 SHL SUB DUP7 AND ISZERO PUSH2 0x1CAB JUMPI PUSH1 0x1 PUSH1 0x1 PUSH1 0xA0 SHL SUB DUP7 AND PUSH0 SWAP1 DUP2 MSTORE PUSH1 0x3 DUP4 ADD PUSH1 0x20 MSTORE PUSH1 0x40 SWAP1 KECCAK256 DUP1 SLOAD PUSH1 0x1 ADD SWAP1 SSTORE JUMPDEST PUSH0 DUP6 DUP2 MSTORE PUSH1 0x2 DUP4 ADD PUSH1 0x20 MSTORE PUSH1 0x40 DUP1 DUP3 KECCAK256 DUP1 SLOAD PUSH1 0x1 PUSH1 0x1 PUSH1 0xA0 SHL SUB NOT AND PUSH1 0x1 PUSH1 0x1 PUSH1 0xA0 SHL SUB DUP11 DUP2 AND SWAP2 DUP3 OR SWAP1 SWAP3 SSTORE SWAP2 MLOAD DUP9 SWAP4 SWAP2 DUP6 AND SWAP2 PUSH32 0xDDF252AD1BE2C89B69C2B068FC378DAA952BA7F163C4A11628F55A4DF523B3EF SWAP2 LOG4 SWAP6 SWAP5 POP POP POP POP POP JUMP JUMPDEST CALLER PUSH2 0x1D15 PUSH2 0xE86 JUMP JUMPDEST PUSH1 0x1 PUSH1 0x1 PUSH1 0xA0 SHL SUB AND EQ PUSH2 0xD26 JUMPI PUSH1 0x40 MLOAD PUSH4 0x118CDAA7 PUSH1 0xE0 SHL DUP2 MSTORE CALLER PUSH1 0x4 DUP3 ADD MSTORE PUSH1 0x24 ADD PUSH2 0x8DA JUMP JUMPDEST ADDRESS PUSH1 0x1 PUSH1 0x1 PUSH1 0xA0 SHL SUB PUSH32 0x0 AND EQ DUP1 PUSH2 0x1DC4 JUMPI POP PUSH32 0x0 PUSH1 0x1 PUSH1 0x1 PUSH1 0xA0 SHL SUB AND PUSH2 0x1DB8 PUSH0 DUP1 MLOAD PUSH1 0x20 PUSH2 0x31C0 DUP4 CODECOPY DUP2 MLOAD SWAP2 MSTORE SLOAD PUSH1 0x1 PUSH1 0x1 PUSH1 0xA0 SHL SUB AND SWAP1 JUMP JUMPDEST PUSH1 0x1 PUSH1 0x1 PUSH1 0xA0 SHL SUB AND EQ ISZERO JUMPDEST ISZERO PUSH2 0xD26 JUMPI PUSH1 0x40 MLOAD PUSH4 0x703E46DD PUSH1 0xE1 SHL DUP2 MSTORE PUSH1 0x4 ADD PUSH1 0x40 MLOAD DUP1 SWAP2 SUB SWAP1 REVERT JUMPDEST PUSH2 0x1B66 PUSH2 0x1D0C JUMP JUMPDEST DUP2 PUSH1 0x1 PUSH1 0x1 PUSH1 0xA0 SHL SUB AND PUSH4 0x52D1902D PUSH1 0x40 MLOAD DUP2 PUSH4 0xFFFFFFFF AND PUSH1 0xE0 SHL DUP2 MSTORE PUSH1 0x4 ADD PUSH1 0x20 PUSH1 0x40 MLOAD DUP1 DUP4 SUB DUP2 DUP7 GAS STATICCALL SWAP3 POP POP POP DUP1 ISZERO PUSH2 0x1E44 JUMPI POP PUSH1 0x40 DUP1 MLOAD PUSH1 0x1F RETURNDATASIZE SWAP1 DUP2 ADD PUSH1 0x1F NOT AND DUP3 ADD SWAP1 SWAP3 MSTORE PUSH2 0x1E41 SWAP2 DUP2 ADD SWAP1 PUSH2 0x30E8 JUMP JUMPDEST PUSH1 0x1 JUMPDEST PUSH2 0x1E6C JUMPI PUSH1 0x40 MLOAD PUSH4 0x4C9C8CE3 PUSH1 0xE0 SHL DUP2 MSTORE PUSH1 0x1 PUSH1 0x1 PUSH1 0xA0 SHL SUB DUP4 AND PUSH1 0x4 DUP3 ADD MSTORE PUSH1 0x24 ADD PUSH2 0x8DA JUMP JUMPDEST PUSH0 DUP1 MLOAD PUSH1 0x20 PUSH2 0x31C0 DUP4 CODECOPY DUP2 MLOAD SWAP2 MSTORE DUP2 EQ PUSH2 0x1E9C JUMPI PUSH1 0x40 MLOAD PUSH4 0x2A875269 PUSH1 0xE2 SHL DUP2 MSTORE PUSH1 0x4 DUP2 ADD DUP3 SWAP1 MSTORE PUSH1 0x24 ADD PUSH2 0x8DA JUMP JUMPDEST PUSH2 0xADD DUP4 DUP4 PUSH2 0x2622 JUMP JUMPDEST ADDRESS PUSH1 0x1 PUSH1 0x1 PUSH1 0xA0 SHL SUB PUSH32 0x0 AND EQ PUSH2 0xD26 JUMPI PUSH1 0x40 MLOAD PUSH4 0x703E46DD PUSH1 0xE1 SHL DUP2 MSTORE PUSH1 0x4 ADD PUSH1 0x40 MLOAD DUP1 SWAP2 SUB SWAP1 REVERT JUMPDEST PUSH32 0x9016D09D72D40FDAE2FD8CEAC6B6234C7706214FD39C1CD1E609A0528C199300 DUP1 SLOAD PUSH1 0x1 PUSH1 0x1 PUSH1 0xA0 SHL SUB NOT DUP2 AND PUSH1 0x1 PUSH1 0x1 PUSH1 0xA0 SHL SUB DUP5 DUP2 AND SWAP2 DUP3 OR DUP5 SSTORE PUSH1 0x40 MLOAD SWAP3 AND SWAP2 DUP3 SWAP1 PUSH32 0x8BE0079C531659141344CD1FD0A4F28419497F9722A3DAAFE3B4186F6B6457E0 SWAP1 PUSH0 SWAP1 LOG3 POP POP POP JUMP JUMPDEST PUSH0 DUP1 PUSH32 0xF0C57E16840DF040F15088DC2F81FE391C3923BEC73E23A9662EFC9C229C6A00 PUSH2 0x7EB JUMP JUMPDEST PUSH2 0x1F8F PUSH2 0x2677 JUMP JUMPDEST PUSH2 0x8B1 DUP3 DUP3 PUSH2 0x269C JUMP JUMPDEST PUSH2 0xD26 PUSH2 0x2677 JUMP JUMPDEST PUSH2 0x1FA9 PUSH2 0x2677 JUMP JUMPDEST PUSH2 0x1B66 DUP2 PUSH2 0x26CC JUMP JUMPDEST PUSH0 DUP1 DUP3 PUSH1 0x60 ADD MLOAD PUSH5 0xFFFFFFFFFF AND TIMESTAMP PUSH2 0x1FCB SWAP2 SWAP1 PUSH2 0x2F69 JUMP JUMPDEST SWAP1 POP PUSH2 0xE10 DUP2 GT ISZERO PUSH2 0x1FDF JUMPI POP PUSH0 SWAP3 SWAP2 POP POP JUMP JUMPDEST PUSH2 0xE10 DUP2 DUP5 PUSH1 0x40 ADD MLOAD PUSH1 0x1 PUSH1 0x1 PUSH1 0xC0 SHL SUB AND PUSH2 0x1FFB SWAP2 SWAP1 PUSH2 0x2F7C JUMP JUMPDEST PUSH2 0x2005 SWAP2 SWAP1 PUSH2 0x2F93 JUMP JUMPDEST DUP4 PUSH1 0x40 ADD MLOAD PUSH1 0x1 PUSH1 0x1 PUSH1 0xC0 SHL SUB AND PUSH2 0x1967 SWAP2 SWAP1 PUSH2 0x2F69 JUMP JUMPDEST PUSH0 PUSH1 0xD SLOAD PUSH0 SUB PUSH2 0x2036 JUMPI POP PUSH8 0x3782DACE9D900000 SWAP2 SWAP1 POP JUMP JUMPDEST PUSH0 PUSH1 0xD SLOAD DUP4 GT ISZERO PUSH2 0x2062 JUMPI PUSH3 0x278D00 PUSH1 0xD SLOAD DUP5 PUSH2 0x2053 SWAP2 SWAP1 PUSH2 0x2F69 JUMP JUMPDEST PUSH2 0x205D SWAP2 SWAP1 PUSH2 0x2F93 JUMP JUMPDEST PUSH2 0x2064 JUMP JUMPDEST PUSH0 JUMPDEST PUSH8 0x3782DACE9D900000 DUP2 SHR SWAP3 POP SWAP1 POP PUSH7 0x2386F26FC10000 DUP3 LT ISZERO PUSH2 0x208D JUMPI PUSH7 0x2386F26FC10000 SWAP2 POP JUMPDEST POP SWAP2 SWAP1 POP JUMP JUMPDEST PUSH0 DUP1 MLOAD PUSH1 0x20 PUSH2 0x31A0 DUP4 CODECOPY DUP2 MLOAD SWAP2 MSTORE PUSH1 0x1 PUSH1 0x1 PUSH1 0xA0 SHL SUB DUP4 AND PUSH2 0x20D3 JUMPI PUSH1 0x40 MLOAD PUSH4 0xB611743 PUSH1 0xE3 SHL DUP2 MSTORE PUSH1 0x1 PUSH1 0x1 PUSH1 0xA0 SHL SUB DUP5 AND PUSH1 0x4 DUP3 ADD MSTORE PUSH1 0x24 ADD PUSH2 0x8DA JUMP JUMPDEST PUSH1 0x1 PUSH1 0x1 PUSH1 0xA0 SHL SUB DUP5 DUP2 AND PUSH0 DUP2 DUP2 MSTORE PUSH1 0x5 DUP5 ADD PUSH1 0x20 SWAP1 DUP2 MSTORE PUSH1 0x40 DUP1 DUP4 KECCAK256 SWAP5 DUP9 AND DUP1 DUP5 MSTORE SWAP5 DUP3 MSTORE SWAP2 DUP3 SWAP1 KECCAK256 DUP1 SLOAD PUSH1 0xFF NOT AND DUP8 ISZERO ISZERO SWAP1 DUP2 OR SWAP1 SWAP2 SSTORE SWAP2 MLOAD SWAP2 DUP3 MSTORE PUSH32 0x17307EAB39AB6107E8899845AD3D59BD9653F200F220920489CA2B5937696C31 SWAP2 ADD PUSH1 0x40 MLOAD DUP1 SWAP2 SUB SWAP1 LOG3 POP POP POP POP JUMP JUMPDEST PUSH1 0x1 PUSH1 0x1 PUSH1 0xA0 SHL SUB DUP4 AND EXTCODESIZE ISZERO PUSH2 0xE7F JUMPI PUSH1 0x40 MLOAD PUSH4 0xA85BD01 PUSH1 0xE1 SHL DUP2 MSTORE PUSH1 0x1 PUSH1 0x1 PUSH1 0xA0 SHL SUB DUP5 AND SWAP1 PUSH4 0x150B7A02 SWAP1 PUSH2 0x2184 SWAP1 DUP9 SWAP1 DUP9 SWAP1 DUP8 SWAP1 DUP8 SWAP1 PUSH1 0x4 ADD PUSH2 0x30FF JUMP JUMPDEST PUSH1 0x20 PUSH1 0x40 MLOAD DUP1 DUP4 SUB DUP2 PUSH0 DUP8 GAS CALL SWAP3 POP POP POP DUP1 ISZERO PUSH2 0x21BE JUMPI POP PUSH1 0x40 DUP1 MLOAD PUSH1 0x1F RETURNDATASIZE SWAP1 DUP2 ADD PUSH1 0x1F NOT AND DUP3 ADD SWAP1 SWAP3 MSTORE PUSH2 0x21BB SWAP2 DUP2 ADD SWAP1 PUSH2 0x313B JUMP JUMPDEST PUSH1 0x1 JUMPDEST PUSH2 0x2225 JUMPI RETURNDATASIZE DUP1 DUP1 ISZERO PUSH2 0x21EB JUMPI PUSH1 0x40 MLOAD SWAP2 POP PUSH1 0x1F NOT PUSH1 0x3F RETURNDATASIZE ADD AND DUP3 ADD PUSH1 0x40 MSTORE RETURNDATASIZE DUP3 MSTORE RETURNDATASIZE PUSH0 PUSH1 0x20 DUP5 ADD RETURNDATACOPY PUSH2 0x21F0 JUMP JUMPDEST PUSH1 0x60 SWAP2 POP JUMPDEST POP DUP1 MLOAD PUSH0 SUB PUSH2 0x221D JUMPI PUSH1 0x40 MLOAD PUSH4 0x32505749 PUSH1 0xE1 SHL DUP2 MSTORE PUSH1 0x1 PUSH1 0x1 PUSH1 0xA0 SHL SUB DUP6 AND PUSH1 0x4 DUP3 ADD MSTORE PUSH1 0x24 ADD PUSH2 0x8DA JUMP JUMPDEST DUP1 MLOAD PUSH1 0x20 DUP3 ADD REVERT JUMPDEST PUSH1 0x1 PUSH1 0x1 PUSH1 0xE0 SHL SUB NOT DUP2 AND PUSH4 0xA85BD01 PUSH1 0xE1 SHL EQ PUSH2 0x2261 JUMPI PUSH1 0x40 MLOAD PUSH4 0x32505749 PUSH1 0xE1 SHL DUP2 MSTORE PUSH1 0x1 PUSH1 0x1 PUSH1 0xA0 SHL SUB DUP6 AND PUSH1 0x4 DUP3 ADD MSTORE PUSH1 0x24 ADD PUSH2 0x8DA JUMP JUMPDEST POP POP POP POP POP POP JUMP JUMPDEST PUSH1 0x60 PUSH32 0x542A41881EE128A365A727B282C86FA859579490B9BB45AAB8503648C8E7900 PUSH2 0x2295 DUP4 PUSH2 0x1B8D JUMP JUMPDEST POP PUSH0 DUP4 DUP2 MSTORE PUSH1 0x20 DUP3 SWAP1 MSTORE PUSH1 0x40 DUP2 KECCAK256 DUP1 SLOAD PUSH2 0x22AE SWAP1 PUSH2 0x2F23 JUMP JUMPDEST DUP1 PUSH1 0x1F ADD PUSH1 0x20 DUP1 SWAP2 DIV MUL PUSH1 0x20 ADD PUSH1 0x40 MLOAD SWAP1 DUP2 ADD PUSH1 0x40 MSTORE DUP1 SWAP3 SWAP2 SWAP1 DUP2 DUP2 MSTORE PUSH1 0x20 ADD DUP3 DUP1 SLOAD PUSH2 0x22DA SWAP1 PUSH2 0x2F23 JUMP JUMPDEST DUP1 ISZERO PUSH2 0x2325 JUMPI DUP1 PUSH1 0x1F LT PUSH2 0x22FC JUMPI PUSH2 0x100 DUP1 DUP4 SLOAD DIV MUL DUP4 MSTORE SWAP2 PUSH1 0x20 ADD SWAP2 PUSH2 0x2325 JUMP JUMPDEST DUP3 ADD SWAP2 SWAP1 PUSH0 MSTORE PUSH1 0x20 PUSH0 KECCAK256 SWAP1 JUMPDEST DUP2 SLOAD DUP2 MSTORE SWAP1 PUSH1 0x1 ADD SWAP1 PUSH1 0x20 ADD DUP1 DUP4 GT PUSH2 0x2308 JUMPI DUP3 SWAP1 SUB PUSH1 0x1F AND DUP3 ADD SWAP2 JUMPDEST POP POP POP POP POP SWAP1 POP PUSH0 PUSH2 0x2341 PUSH1 0x40 DUP1 MLOAD PUSH1 0x20 DUP2 ADD SWAP1 SWAP2 MSTORE PUSH0 DUP2 MSTORE SWAP1 JUMP JUMPDEST SWAP1 POP DUP1 MLOAD PUSH0 SUB PUSH2 0x2353 JUMPI POP SWAP4 SWAP3 POP POP POP JUMP JUMPDEST DUP2 MLOAD ISZERO PUSH2 0x2386 JUMPI DUP1 DUP3 PUSH1 0x40 MLOAD PUSH1 0x20 ADD PUSH2 0x236D SWAP3 SWAP2 SWAP1 PUSH2 0x3156 JUMP JUMPDEST PUSH1 0x40 MLOAD PUSH1 0x20 DUP2 DUP4 SUB SUB DUP2 MSTORE SWAP1 PUSH1 0x40 MSTORE SWAP4 POP POP POP POP SWAP2 SWAP1 POP JUMP JUMPDEST PUSH2 0x238F DUP6 PUSH2 0x26D4 JUMP JUMPDEST SWAP6 SWAP5 POP POP POP POP POP JUMP JUMPDEST PUSH2 0x8B1 DUP3 DUP3 PUSH1 0x40 MLOAD DUP1 PUSH1 0x20 ADD PUSH1 0x40 MSTORE DUP1 PUSH0 DUP2 MSTORE POP PUSH2 0x2744 JUMP JUMPDEST PUSH0 DUP3 DUP2 MSTORE PUSH32 0x542A41881EE128A365A727B282C86FA859579490B9BB45AAB8503648C8E7900 PUSH1 0x20 DUP2 SWAP1 MSTORE PUSH1 0x40 SWAP1 SWAP2 KECCAK256 PUSH2 0x23EA DUP4 DUP3 PUSH2 0x2FF6 JUMP JUMPDEST POP PUSH1 0x40 MLOAD DUP4 DUP2 MSTORE PUSH32 0xF8E1A15ABA9398E019F0B49DF1A4FDE98EE17AE345CB5F6B5E2C27F5033E8CE7 SWAP1 PUSH1 0x20 ADD PUSH1 0x40 MLOAD DUP1 SWAP2 SUB SWAP1 LOG1 POP POP POP JUMP JUMPDEST PUSH0 PUSH1 0x1 PUSH1 0x1 PUSH1 0xE0 SHL SUB NOT DUP3 AND PUSH4 0x80AC58CD PUSH1 0xE0 SHL EQ DUP1 PUSH2 0x2453 JUMPI POP PUSH1 0x1 PUSH1 0x1 PUSH1 0xE0 SHL SUB NOT DUP3 AND PUSH4 0x5B5E139F PUSH1 0xE0 SHL EQ JUMPDEST DUP1 PUSH2 0x7EB JUMPI POP PUSH4 0x1FFC9A7 PUSH1 0xE0 SHL PUSH1 0x1 PUSH1 0x1 PUSH1 0xE0 SHL SUB NOT DUP4 AND EQ PUSH2 0x7EB JUMP JUMPDEST PUSH0 SWAP1 DUP2 MSTORE PUSH32 0x80BB2B638CC20BC4D0A60D66940F3AB4A00C1D7B313497CA82FB0B4AB0079302 PUSH1 0x20 MSTORE PUSH1 0x40 SWAP1 KECCAK256 SLOAD PUSH1 0x1 PUSH1 0x1 PUSH1 0xA0 SHL SUB AND SWAP1 JUMP JUMPDEST PUSH0 DUP1 MLOAD PUSH1 0x20 PUSH2 0x31A0 DUP4 CODECOPY DUP2 MLOAD SWAP2 MSTORE DUP2 DUP1 PUSH2 0x24CD JUMPI POP PUSH1 0x1 PUSH1 0x1 PUSH1 0xA0 SHL SUB DUP4 AND ISZERO ISZERO JUMPDEST ISZERO PUSH2 0x258E JUMPI PUSH0 PUSH2 0x24DC DUP6 PUSH2 0x1B8D JUMP JUMPDEST SWAP1 POP PUSH1 0x1 PUSH1 0x1 PUSH1 0xA0 SHL SUB DUP5 AND ISZERO DUP1 ISZERO SWAP1 PUSH2 0x2508 JUMPI POP DUP4 PUSH1 0x1 PUSH1 0x1 PUSH1 0xA0 SHL SUB AND DUP2 PUSH1 0x1 PUSH1 0x1 PUSH1 0xA0 SHL SUB AND EQ ISZERO JUMPDEST DUP1 ISZERO PUSH2 0x251B JUMPI POP PUSH2 0x2519 DUP2 DUP6 PUSH2 0x1A3B JUMP JUMPDEST ISZERO JUMPDEST ISZERO PUSH2 0x2544 JUMPI PUSH1 0x40 MLOAD PUSH4 0xA9FBF51F PUSH1 0xE0 SHL DUP2 MSTORE PUSH1 0x1 PUSH1 0x1 PUSH1 0xA0 SHL SUB DUP6 AND PUSH1 0x4 DUP3 ADD MSTORE PUSH1 0x24 ADD PUSH2 0x8DA JUMP JUMPDEST DUP3 ISZERO PUSH2 0x258C JUMPI DUP5 DUP7 PUSH1 0x1 PUSH1 0x1 PUSH1 0xA0 SHL SUB AND DUP3 PUSH1 0x1 PUSH1 0x1 PUSH1 0xA0 SHL SUB AND PUSH32 0x8C5BE1E5EBEC7D5BD14F71427D1E84F3DD0314C0F7B2291E5B200AC8C7C3B925 PUSH1 0x40 MLOAD PUSH1 0x40 MLOAD DUP1 SWAP2 SUB SWAP1 LOG4 JUMPDEST POP JUMPDEST PUSH0 SWAP4 DUP5 MSTORE PUSH1 0x4 ADD PUSH1 0x20 MSTORE POP POP PUSH1 0x40 SWAP1 KECCAK256 DUP1 SLOAD PUSH1 0x1 PUSH1 0x1 PUSH1 0xA0 SHL SUB NOT AND PUSH1 0x1 PUSH1 0x1 PUSH1 0xA0 SHL SUB SWAP3 SWAP1 SWAP3 AND SWAP2 SWAP1 SWAP2 OR SWAP1 SSTORE JUMP JUMPDEST PUSH2 0x25C9 DUP4 DUP4 DUP4 PUSH2 0x275B JUMP JUMPDEST PUSH2 0xADD JUMPI PUSH1 0x1 PUSH1 0x1 PUSH1 0xA0 SHL SUB DUP4 AND PUSH2 0x25F7 JUMPI PUSH1 0x40 MLOAD PUSH4 0x7E273289 PUSH1 0xE0 SHL DUP2 MSTORE PUSH1 0x4 DUP2 ADD DUP3 SWAP1 MSTORE PUSH1 0x24 ADD PUSH2 0x8DA JUMP JUMPDEST PUSH1 0x40 MLOAD PUSH4 0x177E802F PUSH1 0xE0 SHL DUP2 MSTORE PUSH1 0x1 PUSH1 0x1 PUSH1 0xA0 SHL SUB DUP4 AND PUSH1 0x4 DUP3 ADD MSTORE PUSH1 0x24 DUP2 ADD DUP3 SWAP1 MSTORE PUSH1 0x44 ADD PUSH2 0x8DA JUMP JUMPDEST PUSH2 0x262B DUP3 PUSH2 0x27C0 JUMP JUMPDEST PUSH1 0x40 MLOAD PUSH1 0x1 PUSH1 0x1 PUSH1 0xA0 SHL SUB DUP4 AND SWAP1 PUSH32 0xBC7CD75A20EE27FD9ADEBAB32041F755214DBC6BFFA90CC0225B39DA2E5C2D3B SWAP1 PUSH0 SWAP1 LOG2 DUP1 MLOAD ISZERO PUSH2 0x266F JUMPI PUSH2 0xADD DUP3 DUP3 PUSH2 0x2823 JUMP JUMPDEST PUSH2 0x8B1 PUSH2 0x288C JUMP JUMPDEST PUSH2 0x267F PUSH2 0x28AB JUMP JUMPDEST PUSH2 0xD26 JUMPI PUSH1 0x40 MLOAD PUSH4 0x1AFCD79F PUSH1 0xE3 SHL DUP2 MSTORE PUSH1 0x4 ADD PUSH1 0x40 MLOAD DUP1 SWAP2 SUB SWAP1 REVERT JUMPDEST PUSH2 0x26A4 PUSH2 0x2677 JUMP JUMPDEST PUSH0 DUP1 MLOAD PUSH1 0x20 PUSH2 0x31A0 DUP4 CODECOPY DUP2 MLOAD SWAP2 MSTORE DUP1 PUSH2 0x26BD DUP5 DUP3 PUSH2 0x2FF6 JUMP JUMPDEST POP PUSH1 0x1 DUP2 ADD PUSH2 0x93D DUP4 DUP3 PUSH2 0x2FF6 JUMP JUMPDEST PUSH2 0x1B34 PUSH2 0x2677 JUMP JUMPDEST PUSH1 0x60 PUSH2 0x26DF DUP3 PUSH2 0x1B8D JUMP JUMPDEST POP PUSH0 PUSH2 0x26F5 PUSH1 0x40 DUP1 MLOAD PUSH1 0x20 DUP2 ADD SWAP1 SWAP2 MSTORE PUSH0 DUP2 MSTORE SWAP1 JUMP JUMPDEST SWAP1 POP PUSH0 DUP2 MLOAD GT PUSH2 0x2713 JUMPI PUSH1 0x40 MLOAD DUP1 PUSH1 0x20 ADD PUSH1 0x40 MSTORE DUP1 PUSH0 DUP2 MSTORE POP PUSH2 0x1967 JUMP JUMPDEST DUP1 PUSH2 0x271D DUP5 PUSH2 0x28C4 JUMP JUMPDEST PUSH1 0x40 MLOAD PUSH1 0x20 ADD PUSH2 0x272E SWAP3 SWAP2 SWAP1 PUSH2 0x3156 JUMP JUMPDEST PUSH1 0x40 MLOAD PUSH1 0x20 DUP2 DUP4 SUB SUB DUP2 MSTORE SWAP1 PUSH1 0x40 MSTORE SWAP4 SWAP3 POP POP POP JUMP JUMPDEST PUSH2 0x274E DUP4 DUP4 PUSH2 0x2954 JUMP JUMPDEST PUSH2 0xADD CALLER PUSH0 DUP6 DUP6 DUP6 PUSH2 0x2142 JUMP JUMPDEST PUSH0 PUSH1 0x1 PUSH1 0x1 PUSH1 0xA0 SHL SUB DUP4 AND ISZERO DUP1 ISZERO SWAP1 PUSH2 0x27B8 JUMPI POP DUP3 PUSH1 0x1 PUSH1 0x1 PUSH1 0xA0 SHL SUB AND DUP5 PUSH1 0x1 PUSH1 0x1 PUSH1 0xA0 SHL SUB AND EQ DUP1 PUSH2 0x2794 JUMPI POP PUSH2 0x2794 DUP5 DUP5 PUSH2 0x1A3B JUMP JUMPDEST DUP1 PUSH2 0x27B8 JUMPI POP DUP3 PUSH1 0x1 PUSH1 0x1 PUSH1 0xA0 SHL SUB AND PUSH2 0x27AD DUP4 PUSH2 0x1BC4 JUMP JUMPDEST PUSH1 0x1 PUSH1 0x1 PUSH1 0xA0 SHL SUB AND EQ JUMPDEST SWAP5 SWAP4 POP POP POP POP JUMP JUMPDEST DUP1 PUSH1 0x1 PUSH1 0x1 PUSH1 0xA0 SHL SUB AND EXTCODESIZE PUSH0 SUB PUSH2 0x27F5 JUMPI PUSH1 0x40 MLOAD PUSH4 0x4C9C8CE3 PUSH1 0xE0 SHL DUP2 MSTORE PUSH1 0x1 PUSH1 0x1 PUSH1 0xA0 SHL SUB DUP3 AND PUSH1 0x4 DUP3 ADD MSTORE PUSH1 0x24 ADD PUSH2 0x8DA JUMP JUMPDEST PUSH0 DUP1 MLOAD PUSH1 0x20 PUSH2 0x31C0 DUP4 CODECOPY DUP2 MLOAD SWAP2 MSTORE DUP1 SLOAD PUSH1 0x1 PUSH1 0x1 PUSH1 0xA0 SHL SUB NOT AND PUSH1 0x1 PUSH1 0x1 PUSH1 0xA0 SHL SUB SWAP3 SWAP1 SWAP3 AND SWAP2 SWAP1 SWAP2 OR SWAP1 SSTORE JUMP JUMPDEST PUSH1 0x60 PUSH0 DUP1 DUP5 PUSH1 0x1 PUSH1 0x1 PUSH1 0xA0 SHL SUB AND DUP5 PUSH1 0x40 MLOAD PUSH2 0x283F SWAP2 SWAP1 PUSH2 0x3184 JUMP JUMPDEST PUSH0 PUSH1 0x40 MLOAD DUP1 DUP4 SUB DUP2 DUP6 GAS DELEGATECALL SWAP2 POP POP RETURNDATASIZE DUP1 PUSH0 DUP2 EQ PUSH2 0x2877 JUMPI PUSH1 0x40 MLOAD SWAP2 POP PUSH1 0x1F NOT PUSH1 0x3F RETURNDATASIZE ADD AND DUP3 ADD PUSH1 0x40 MSTORE RETURNDATASIZE DUP3 MSTORE RETURNDATASIZE PUSH0 PUSH1 0x20 DUP5 ADD RETURNDATACOPY PUSH2 0x287C JUMP JUMPDEST PUSH1 0x60 SWAP2 POP JUMPDEST POP SWAP2 POP SWAP2 POP PUSH2 0x238F DUP6 DUP4 DUP4 PUSH2 0x29B5 JUMP JUMPDEST CALLVALUE ISZERO PUSH2 0xD26 JUMPI PUSH1 0x40 MLOAD PUSH4 0xB398979F PUSH1 0xE0 SHL DUP2 MSTORE PUSH1 0x4 ADD PUSH1 0x40 MLOAD DUP1 SWAP2 SUB SWAP1 REVERT JUMPDEST PUSH0 PUSH2 0x28B4 PUSH2 0x1F5F JUMP JUMPDEST SLOAD PUSH1 0x1 PUSH1 0x40 SHL SWAP1 DIV PUSH1 0xFF AND SWAP2 SWAP1 POP JUMP JUMPDEST PUSH1 0x60 PUSH0 PUSH2 0x28D0 DUP4 PUSH2 0x2A11 JUMP JUMPDEST PUSH1 0x1 ADD SWAP1 POP PUSH0 DUP2 PUSH8 0xFFFFFFFFFFFFFFFF DUP2 GT ISZERO PUSH2 0x28EF JUMPI PUSH2 0x28EF PUSH2 0x2CB1 JUMP JUMPDEST PUSH1 0x40 MLOAD SWAP1 DUP1 DUP3 MSTORE DUP1 PUSH1 0x1F ADD PUSH1 0x1F NOT AND PUSH1 0x20 ADD DUP3 ADD PUSH1 0x40 MSTORE DUP1 ISZERO PUSH2 0x2919 JUMPI PUSH1 0x20 DUP3 ADD DUP2 DUP1 CALLDATASIZE DUP4 CALLDATACOPY ADD SWAP1 POP JUMPDEST POP SWAP1 POP DUP2 DUP2 ADD PUSH1 0x20 ADD JUMPDEST PUSH0 NOT ADD PUSH16 0x181899199A1A9B1B9C1CB0B131B232B3 PUSH1 0x81 SHL PUSH1 0xA DUP7 MOD BYTE DUP2 MSTORE8 PUSH1 0xA DUP6 DIV SWAP5 POP DUP5 PUSH2 0x2923 JUMPI POP SWAP4 SWAP3 POP POP POP JUMP JUMPDEST PUSH1 0x1 PUSH1 0x1 PUSH1 0xA0 SHL SUB DUP3 AND PUSH2 0x297D JUMPI PUSH1 0x40 MLOAD PUSH4 0x32505749 PUSH1 0xE1 SHL DUP2 MSTORE PUSH0 PUSH1 0x4 DUP3 ADD MSTORE PUSH1 0x24 ADD PUSH2 0x8DA JUMP JUMPDEST PUSH0 PUSH2 0x2989 DUP4 DUP4 PUSH0 PUSH2 0x1C0A JUMP JUMPDEST SWAP1 POP PUSH1 0x1 PUSH1 0x1 PUSH1 0xA0 SHL SUB DUP2 AND ISZERO PUSH2 0xADD JUMPI PUSH1 0x40 MLOAD PUSH4 0x39E35637 PUSH1 0xE1 SHL DUP2 MSTORE PUSH0 PUSH1 0x4 DUP3 ADD MSTORE PUSH1 0x24 ADD PUSH2 0x8DA JUMP JUMPDEST PUSH1 0x60 DUP3 PUSH2 0x29CA JUMPI PUSH2 0x29C5 DUP3 PUSH2 0x2AE8 JUMP JUMPDEST PUSH2 0x1967 JUMP JUMPDEST DUP2 MLOAD ISZERO DUP1 ISZERO PUSH2 0x29E1 JUMPI POP PUSH1 0x1 PUSH1 0x1 PUSH1 0xA0 SHL SUB DUP5 AND EXTCODESIZE ISZERO JUMPDEST ISZERO PUSH2 0x2A0A JUMPI PUSH1 0x40 MLOAD PUSH4 0x9996B315 PUSH1 0xE0 SHL DUP2 MSTORE PUSH1 0x1 PUSH1 0x1 PUSH1 0xA0 SHL SUB DUP6 AND PUSH1 0x4 DUP3 ADD MSTORE PUSH1 0x24 ADD PUSH2 0x8DA JUMP JUMPDEST POP DUP1 PUSH2 0x1967 JUMP JUMPDEST PUSH0 DUP1 PUSH19 0x184F03E93FF9F4DAA797ED6E38ED64BF6A1F01 PUSH1 0x40 SHL DUP4 LT PUSH2 0x2A4F JUMPI PUSH19 0x184F03E93FF9F4DAA797ED6E38ED64BF6A1F01 PUSH1 0x40 SHL DUP4 DIV SWAP3 POP PUSH1 0x40 ADD JUMPDEST PUSH14 0x4EE2D6D415B85ACEF8100000000 DUP4 LT PUSH2 0x2A7B JUMPI PUSH14 0x4EE2D6D415B85ACEF8100000000 DUP4 DIV SWAP3 POP PUSH1 0x20 ADD JUMPDEST PUSH7 0x2386F26FC10000 DUP4 LT PUSH2 0x2A99 JUMPI PUSH7 0x2386F26FC10000 DUP4 DIV SWAP3 POP PUSH1 0x10 ADD JUMPDEST PUSH4 0x5F5E100 DUP4 LT PUSH2 0x2AB1 JUMPI PUSH4 0x5F5E100 DUP4 DIV SWAP3 POP PUSH1 0x8 ADD JUMPDEST PUSH2 0x2710 DUP4 LT PUSH2 0x2AC5 JUMPI PUSH2 0x2710 DUP4 DIV SWAP3 POP PUSH1 0x4 ADD JUMPDEST PUSH1 0x64 DUP4 LT PUSH2 0x2AD7 JUMPI PUSH1 0x64 DUP4 DIV SWAP3 POP PUSH1 0x2 ADD JUMPDEST PUSH1 0xA DUP4 LT PUSH2 0x7EB JUMPI PUSH1 0x1 ADD SWAP3 SWAP2 POP POP JUMP JUMPDEST DUP1 MLOAD ISZERO PUSH2 0x2AF7 JUMPI DUP1 MLOAD PUSH1 0x20 DUP3 ADD REVERT JUMPDEST PUSH1 0x40 MLOAD PUSH4 0xD6BDA275 PUSH1 0xE0 SHL DUP2 MSTORE PUSH1 0x4 ADD PUSH1 0x40 MLOAD DUP1 SWAP2 SUB SWAP1 REVERT JUMPDEST PUSH1 0x1 PUSH1 0x1 PUSH1 0xE0 SHL SUB NOT DUP2 AND DUP2 EQ PUSH2 0x1B66 JUMPI PUSH0 DUP1 REVERT JUMPDEST PUSH0 PUSH1 0x20 DUP3 DUP5 SUB SLT ISZERO PUSH2 0x2B35 JUMPI PUSH0 DUP1 REVERT JUMPDEST DUP2 CALLDATALOAD PUSH2 0x1967 DUP2 PUSH2 0x2B10 JUMP JUMPDEST PUSH0 JUMPDEST DUP4 DUP2 LT ISZERO PUSH2 0x2B5A JUMPI DUP2 DUP2 ADD MLOAD DUP4 DUP3 ADD MSTORE PUSH1 0x20 ADD PUSH2 0x2B42 JUMP JUMPDEST POP POP PUSH0 SWAP2 ADD MSTORE JUMP JUMPDEST PUSH0 DUP2 MLOAD DUP1 DUP5 MSTORE PUSH2 0x2B79 DUP2 PUSH1 0x20 DUP7 ADD PUSH1 0x20 DUP7 ADD PUSH2 0x2B40 JUMP JUMPDEST PUSH1 0x1F ADD PUSH1 0x1F NOT AND SWAP3 SWAP1 SWAP3 ADD PUSH1 0x20 ADD SWAP3 SWAP2 POP POP JUMP JUMPDEST PUSH1 0x20 DUP2 MSTORE PUSH0 PUSH2 0x1967 PUSH1 0x20 DUP4 ADD DUP5 PUSH2 0x2B62 JUMP JUMPDEST PUSH0 PUSH1 0x20 DUP3 DUP5 SUB SLT ISZERO PUSH2 0x2BAF JUMPI PUSH0 DUP1 REVERT JUMPDEST POP CALLDATALOAD SWAP2 SWAP1 POP JUMP JUMPDEST DUP1 CALLDATALOAD PUSH1 0x1 PUSH1 0x1 PUSH1 0xA0 SHL SUB DUP2 AND DUP2 EQ PUSH2 0x2BCC JUMPI PUSH0 DUP1 REVERT JUMPDEST SWAP2 SWAP1 POP JUMP JUMPDEST PUSH0 DUP1 PUSH1 0x40 DUP4 DUP6 SUB SLT ISZERO PUSH2 0x2BE2 JUMPI PUSH0 DUP1 REVERT JUMPDEST PUSH2 0x2BEB DUP4 PUSH2 0x2BB6 JUMP JUMPDEST SWAP5 PUSH1 0x20 SWAP4 SWAP1 SWAP4 ADD CALLDATALOAD SWAP4 POP POP POP JUMP JUMPDEST PUSH0 DUP1 PUSH0 PUSH1 0x60 DUP5 DUP7 SUB SLT ISZERO PUSH2 0x2C0B JUMPI PUSH0 DUP1 REVERT JUMPDEST PUSH2 0x2C14 DUP5 PUSH2 0x2BB6 JUMP JUMPDEST SWAP3 POP PUSH2 0x2C22 PUSH1 0x20 DUP6 ADD PUSH2 0x2BB6 JUMP JUMPDEST SWAP2 POP PUSH1 0x40 DUP5 ADD CALLDATALOAD SWAP1 POP SWAP3 POP SWAP3 POP SWAP3 JUMP JUMPDEST PUSH1 0xFF DUP9 AND DUP2 MSTORE PUSH2 0xFFFF DUP8 AND PUSH1 0x20 DUP3 ADD MSTORE PUSH1 0x1 PUSH1 0x1 PUSH1 0xC0 SHL SUB DUP7 AND PUSH1 0x40 DUP3 ADD MSTORE PUSH5 0xFFFFFFFFFF DUP6 AND PUSH1 0x60 DUP3 ADD MSTORE PUSH1 0x80 DUP2 ADD DUP5 SWAP1 MSTORE PUSH1 0x1 PUSH1 0x1 PUSH1 0xA0 SHL SUB DUP4 AND PUSH1 0xA0 DUP3 ADD MSTORE PUSH1 0xE0 PUSH1 0xC0 DUP3 ADD DUP2 SWAP1 MSTORE PUSH0 SWAP1 PUSH2 0x2C8B SWAP1 DUP4 ADD DUP5 PUSH2 0x2B62 JUMP JUMPDEST SWAP10 SWAP9 POP POP POP POP POP POP POP POP POP JUMP JUMPDEST PUSH0 PUSH1 0x20 DUP3 DUP5 SUB SLT ISZERO PUSH2 0x2CA8 JUMPI PUSH0 DUP1 REVERT JUMPDEST PUSH2 0x1967 DUP3 PUSH2 0x2BB6 JUMP JUMPDEST PUSH4 0x4E487B71 PUSH1 0xE0 SHL PUSH0 MSTORE PUSH1 0x41 PUSH1 0x4 MSTORE PUSH1 0x24 PUSH0 REVERT JUMPDEST PUSH0 DUP3 PUSH1 0x1F DUP4 ADD SLT PUSH2 0x2CD4 JUMPI PUSH0 DUP1 REVERT JUMPDEST DUP2 CALLDATALOAD PUSH8 0xFFFFFFFFFFFFFFFF DUP1 DUP3 GT ISZERO PUSH2 0x2CEF JUMPI PUSH2 0x2CEF PUSH2 0x2CB1 JUMP JUMPDEST PUSH1 0x40 MLOAD PUSH1 0x1F DUP4 ADD PUSH1 0x1F NOT SWAP1 DUP2 AND PUSH1 0x3F ADD AND DUP2 ADD SWAP1 DUP3 DUP3 GT DUP2 DUP4 LT OR ISZERO PUSH2 0x2D17 JUMPI PUSH2 0x2D17 PUSH2 0x2CB1 JUMP JUMPDEST DUP2 PUSH1 0x40 MSTORE DUP4 DUP2 MSTORE DUP7 PUSH1 0x20 DUP6 DUP9 ADD ADD GT ISZERO PUSH2 0x2D2F JUMPI PUSH0 DUP1 REVERT JUMPDEST DUP4 PUSH1 0x20 DUP8 ADD PUSH1 0x20 DUP4 ADD CALLDATACOPY PUSH0 PUSH1 0x20 DUP6 DUP4 ADD ADD MSTORE DUP1 SWAP5 POP POP POP POP POP SWAP3 SWAP2 POP POP JUMP JUMPDEST PUSH0 DUP1 PUSH1 0x40 DUP4 DUP6 SUB SLT ISZERO PUSH2 0x2D5F JUMPI PUSH0 DUP1 REVERT JUMPDEST PUSH2 0x2D68 DUP4 PUSH2 0x2BB6 JUMP JUMPDEST SWAP2 POP PUSH1 0x20 DUP4 ADD CALLDATALOAD PUSH8 0xFFFFFFFFFFFFFFFF DUP2 GT ISZERO PUSH2 0x2D83 JUMPI PUSH0 DUP1 REVERT JUMPDEST PUSH2 0x2D8F DUP6 DUP3 DUP7 ADD PUSH2 0x2CC5 JUMP JUMPDEST SWAP2 POP POP SWAP3 POP SWAP3 SWAP1 POP JUMP JUMPDEST PUSH0 DUP1 PUSH0 DUP1 PUSH1 0x80 DUP6 DUP8 SUB SLT ISZERO PUSH2 0x2DAC JUMPI PUSH0 DUP1 REVERT JUMPDEST DUP5 CALLDATALOAD SWAP4 POP PUSH1 0x20 DUP6 ADD CALLDATALOAD SWAP3 POP PUSH1 0x40 DUP6 ADD CALLDATALOAD SWAP2 POP PUSH1 0x60 DUP6 ADD CALLDATALOAD PUSH8 0xFFFFFFFFFFFFFFFF DUP2 GT ISZERO PUSH2 0x2DD7 JUMPI PUSH0 DUP1 REVERT JUMPDEST PUSH2 0x2DE3 DUP8 DUP3 DUP9 ADD PUSH2 0x2CC5 JUMP JUMPDEST SWAP2 POP POP SWAP3 SWAP6 SWAP2 SWAP5 POP SWAP3 POP JUMP JUMPDEST PUSH0 DUP1 PUSH1 0x40 DUP4 DUP6 SUB SLT ISZERO PUSH2 0x2E00 JUMPI PUSH0 DUP1 REVERT JUMPDEST PUSH2 0x2E09 DUP4 PUSH2 0x2BB6 JUMP JUMPDEST SWAP2 POP PUSH1 0x20 DUP4 ADD CALLDATALOAD DUP1 ISZERO ISZERO DUP2 EQ PUSH2 0x2E1D JUMPI PUSH0 DUP1 REVERT JUMPDEST DUP1 SWAP2 POP POP SWAP3 POP SWAP3 SWAP1 POP JUMP JUMPDEST PUSH0 DUP1 PUSH0 DUP1 PUSH1 0x80 DUP6 DUP8 SUB SLT ISZERO PUSH2 0x2E3B JUMPI PUSH0 DUP1 REVERT JUMPDEST PUSH2 0x2E44 DUP6 PUSH2 0x2BB6 JUMP JUMPDEST SWAP4 POP PUSH2 0x2E52 PUSH1 0x20 DUP7 ADD PUSH2 0x2BB6 JUMP JUMPDEST SWAP3 POP PUSH1 0x40 DUP6 ADD CALLDATALOAD SWAP2 POP PUSH1 0x60 DUP6 ADD CALLDATALOAD PUSH8 0xFFFFFFFFFFFFFFFF DUP2 GT ISZERO PUSH2 0x2DD7 JUMPI PUSH0 DUP1 REVERT JUMPDEST PUSH1 0x20 DUP2 MSTORE PUSH1 0xFF DUP3 MLOAD AND PUSH1 0x20 DUP3 ADD MSTORE PUSH2 0xFFFF PUSH1 0x20 DUP4 ADD MLOAD AND PUSH1 0x40 DUP3 ADD MSTORE PUSH1 0x1 DUP1 PUSH1 0xC0 SHL SUB PUSH1 0x40 DUP4 ADD MLOAD AND PUSH1 0x60 DUP3 ADD MSTORE PUSH5 0xFFFFFFFFFF PUSH1 0x60 DUP4 ADD MLOAD AND PUSH1 0x80 DUP3 ADD MSTORE PUSH1 0x80 DUP3 ADD MLOAD PUSH1 0xA0 DUP3 ADD MSTORE PUSH0 PUSH1 0xA0 DUP4 ADD MLOAD PUSH2 0x2ED8 PUSH1 0xC0 DUP5 ADD DUP3 PUSH1 0x1 PUSH1 0x1 PUSH1 0xA0 SHL SUB AND SWAP1 MSTORE JUMP JUMPDEST POP PUSH1 0xC0 DUP4 ADD MLOAD PUSH1 0xE0 DUP1 DUP5 ADD MSTORE PUSH2 0x27B8 PUSH2 0x100 DUP5 ADD DUP3 PUSH2 0x2B62 JUMP JUMPDEST PUSH0 DUP1 PUSH1 0x40 DUP4 DUP6 SUB SLT ISZERO PUSH2 0x2F03 JUMPI PUSH0 DUP1 REVERT JUMPDEST PUSH2 0x2F0C DUP4 PUSH2 0x2BB6 JUMP JUMPDEST SWAP2 POP PUSH2 0x2F1A PUSH1 0x20 DUP5 ADD PUSH2 0x2BB6 JUMP JUMPDEST SWAP1 POP SWAP3 POP SWAP3 SWAP1 POP JUMP JUMPDEST PUSH1 0x1 DUP2 DUP2 SHR SWAP1 DUP3 AND DUP1 PUSH2 0x2F37 JUMPI PUSH1 0x7F DUP3 AND SWAP2 POP JUMPDEST PUSH1 0x20 DUP3 LT DUP2 SUB PUSH2 0x208D JUMPI PUSH4 0x4E487B71 PUSH1 0xE0 SHL PUSH0 MSTORE PUSH1 0x22 PUSH1 0x4 MSTORE PUSH1 0x24 PUSH0 REVERT JUMPDEST PUSH4 0x4E487B71 PUSH1 0xE0 SHL PUSH0 MSTORE PUSH1 0x11 PUSH1 0x4 MSTORE PUSH1 0x24 PUSH0 REVERT JUMPDEST DUP2 DUP2 SUB DUP2 DUP2 GT ISZERO PUSH2 0x7EB JUMPI PUSH2 0x7EB PUSH2 0x2F55 JUMP JUMPDEST DUP1 DUP3 MUL DUP2 ISZERO DUP3 DUP3 DIV DUP5 EQ OR PUSH2 0x7EB JUMPI PUSH2 0x7EB PUSH2 0x2F55 JUMP JUMPDEST PUSH0 DUP3 PUSH2 0x2FAD JUMPI PUSH4 0x4E487B71 PUSH1 0xE0 SHL PUSH0 MSTORE PUSH1 0x12 PUSH1 0x4 MSTORE PUSH1 0x24 PUSH0 REVERT JUMPDEST POP DIV SWAP1 JUMP JUMPDEST PUSH1 0x1F DUP3 GT ISZERO PUSH2 0xADD JUMPI DUP1 PUSH0 MSTORE PUSH1 0x20 PUSH0 KECCAK256 PUSH1 0x1F DUP5 ADD PUSH1 0x5 SHR DUP2 ADD PUSH1 0x20 DUP6 LT ISZERO PUSH2 0x2FD7 JUMPI POP DUP1 JUMPDEST PUSH1 0x1F DUP5 ADD PUSH1 0x5 SHR DUP3 ADD SWAP2 POP JUMPDEST DUP2 DUP2 LT ISZERO PUSH2 0xE7F JUMPI PUSH0 DUP2 SSTORE PUSH1 0x1 ADD PUSH2 0x2FE3 JUMP JUMPDEST DUP2 MLOAD PUSH8 0xFFFFFFFFFFFFFFFF DUP2 GT ISZERO PUSH2 0x3010 JUMPI PUSH2 0x3010 PUSH2 0x2CB1 JUMP JUMPDEST PUSH2 0x3024 DUP2 PUSH2 0x301E DUP5 SLOAD PUSH2 0x2F23 JUMP JUMPDEST DUP5 PUSH2 0x2FB2 JUMP JUMPDEST PUSH1 0x20 DUP1 PUSH1 0x1F DUP4 GT PUSH1 0x1 DUP2 EQ PUSH2 0x3057 JUMPI PUSH0 DUP5 ISZERO PUSH2 0x3040 JUMPI POP DUP6 DUP4 ADD MLOAD JUMPDEST PUSH0 NOT PUSH1 0x3 DUP7 SWAP1 SHL SHR NOT AND PUSH1 0x1 DUP6 SWAP1 SHL OR DUP6 SSTORE PUSH2 0x2261 JUMP JUMPDEST PUSH0 DUP6 DUP2 MSTORE PUSH1 0x20 DUP2 KECCAK256 PUSH1 0x1F NOT DUP7 AND SWAP2 JUMPDEST DUP3 DUP2 LT ISZERO PUSH2 0x3085 JUMPI DUP9 DUP7 ADD MLOAD DUP3 SSTORE SWAP5 DUP5 ADD SWAP5 PUSH1 0x1 SWAP1 SWAP2 ADD SWAP1 DUP5 ADD PUSH2 0x3066 JUMP JUMPDEST POP DUP6 DUP3 LT ISZERO PUSH2 0x30A2 JUMPI DUP8 DUP6 ADD MLOAD PUSH0 NOT PUSH1 0x3 DUP9 SWAP1 SHL PUSH1 0xF8 AND SHR NOT AND DUP2 SSTORE JUMPDEST POP POP POP POP POP PUSH1 0x1 SWAP1 DUP2 SHL ADD SWAP1 SSTORE POP JUMP JUMPDEST DUP4 DUP2 MSTORE DUP3 PUSH1 0x20 DUP3 ADD MSTORE PUSH1 0x60 PUSH1 0x40 DUP3 ADD MSTORE PUSH0 PUSH2 0x238F PUSH1 0x60 DUP4 ADD DUP5 PUSH2 0x2B62 JUMP JUMPDEST PUSH0 PUSH1 0x1 DUP3 ADD PUSH2 0x30E1 JUMPI PUSH2 0x30E1 PUSH2 0x2F55 JUMP JUMPDEST POP PUSH1 0x1 ADD SWAP1 JUMP JUMPDEST PUSH0 PUSH1 0x20 DUP3 DUP5 SUB SLT ISZERO PUSH2 0x30F8 JUMPI PUSH0 DUP1 REVERT JUMPDEST POP MLOAD SWAP2 SWAP1 POP JUMP JUMPDEST PUSH1 0x1 PUSH1 0x1 PUSH1 0xA0 SHL SUB DUP6 DUP2 AND DUP3 MSTORE DUP5 AND PUSH1 0x20 DUP3 ADD MSTORE PUSH1 0x40 DUP2 ADD DUP4 SWAP1 MSTORE PUSH1 0x80 PUSH1 0x60 DUP3 ADD DUP2 SWAP1 MSTORE PUSH0 SWAP1 PUSH2 0x3131 SWAP1 DUP4 ADD DUP5 PUSH2 0x2B62 JUMP JUMPDEST SWAP7 SWAP6 POP POP POP POP POP POP JUMP JUMPDEST PUSH0 PUSH1 0x20 DUP3 DUP5 SUB SLT ISZERO PUSH2 0x314B JUMPI PUSH0 DUP1 REVERT JUMPDEST DUP2 MLOAD PUSH2 0x1967 DUP2 PUSH2 0x2B10 JUMP JUMPDEST PUSH0 DUP4 MLOAD PUSH2 0x3167 DUP2 DUP5 PUSH1 0x20 DUP9 ADD PUSH2 0x2B40 JUMP JUMPDEST DUP4 MLOAD SWAP1 DUP4 ADD SWAP1 PUSH2 0x317B DUP2 DUP4 PUSH1 0x20 DUP9 ADD PUSH2 0x2B40 JUMP JUMPDEST ADD SWAP5 SWAP4 POP POP POP POP JUMP JUMPDEST PUSH0 DUP3 MLOAD PUSH2 0x3195 DUP2 DUP5 PUSH1 0x20 DUP8 ADD PUSH2 0x2B40 JUMP JUMPDEST SWAP2 SWAP1 SWAP2 ADD SWAP3 SWAP2 POP POP JUMP INVALID DUP1 0xBB 0x2B PUSH4 0x8CC20BC4 0xD0 0xA6 0xD PUSH7 0x940F3AB4A00C1D PUSH28 0x313497CA82FB0B4AB0079300360894A13BA1A3210667C828492DB98D 0xCA RETURNDATACOPY KECCAK256 PUSH23 0xCC3735A920A3CA505D382BBCA2646970667358221220F6 0xA7 0xF7 SWAP2 0x24 CALLDATASIZE NUMBER 0xB6 MLOAD 0xE3 PUSH14 0x2745999598D2A732A353A407E0BB 0x24 0xA7 0x28 0xC5 PUSH27 0x189864736F6C634300081800330000000000000000000000000000 "},"methodIdentifiers":{"ABS_MAX_INIT_PRICE()":"88f4b49e","DEFAULT_RATE()":"a3e860fe","DIVISOR()":"3410fe6e","EPOCH_PERIOD()":"9c511ad4","FEE()":"c57981b5","HALVING_PERIOD()":"3adde9c1","INITIAL_DPS()":"a2e66a0f","MIN_INIT_PRICE()":"ef2e0d25","NEW_PRICE_MULTIPLIER()":"87995660","PRECISION()":"aaf5eb68","PRICE_MULTIPLIER()":"113990b8","TAIL_DPS()":"0169916a","UPGRADE_INTERFACE_VERSION()":"ad3cb1cc","approve(address,uint256)":"095ea7b3","balanceOf(address)":"70a08231","calculatePendingTokens(uint256)":"e5eb39ec","claimTokens(uint256)":"46e04a2f","getApproved(uint256)":"081812fc","getDps()":"b0a13a5c","getPrice()":"98d5fdca","getSlot0()":"c9ae5e0c","initialize()":"8129fc1c","initializeOfficeV2(address)":"e69be3f3","isApprovedForAll(address,address)":"e985e9c5","keepToken()":"467c5adf","lastClaimTime(uint256)":"877dab7e","mintingRate(uint256)":"5fea89f1","name()":"06fdde03","owner()":"8da5cb5b","ownerOf(uint256)":"6352211e","proxiableUUID()":"52d1902d","renounceOwnership()":"715018a6","safeMint(address,string)":"d204c45e","safeTransferFrom(address,address,uint256)":"42842e0e","safeTransferFrom(address,address,uint256,bytes)":"b88d4fde","setApprovalForAll(address,bool)":"a22cb465","setKeepTokenContract(address)":"3dbc71fa","setTreasury(address)":"f0f44260","slot0()":"3850c7bd","supportsInterface(bytes4)":"01ffc9a7","symbol()":"95d89b41","takeOffice(uint256,uint256,uint256,string)":"9e421726","tokenURI(uint256)":"c87b56dd","transferFrom(address,address,uint256)":"23b872dd","transferOwnership(address)":"f2fde38b","treasury()":"61d027b3","upgradeToAndCall(address,bytes)":"4f1ef286","v2StartTime()":"07d2e1e2"}},"storageLayout":{"storage":[{"astId":8147,"contract":"contracts/TavernKeeper.sol:TavernKeeper","label":"_nextTokenId","offset":0,"slot":"0","type":"t_uint256"},{"astId":8179,"contract":"contracts/TavernKeeper.sol:TavernKeeper","label":"keepToken","offset":0,"slot":"1","type":"t_address"},{"astId":8183,"contract":"contracts/TavernKeeper.sol:TavernKeeper","label":"lastClaimTime","offset":0,"slot":"2","type":"t_mapping(t_uint256,t_uint256)"},{"astId":8187,"contract":"contracts/TavernKeeper.sol:TavernKeeper","label":"mintingRate","offset":0,"slot":"3","type":"t_mapping(t_uint256,t_uint256)"},{"astId":8405,"contract":"contracts/TavernKeeper.sol:TavernKeeper","label":"currentKing","offset":0,"slot":"4","type":"t_address"},{"astId":8407,"contract":"contracts/TavernKeeper.sol:TavernKeeper","label":"currentPrice","offset":0,"slot":"5","type":"t_uint256"},{"astId":8409,"contract":"contracts/TavernKeeper.sol:TavernKeeper","label":"kingSince","offset":0,"slot":"6","type":"t_uint256"},{"astId":8411,"contract":"contracts/TavernKeeper.sol:TavernKeeper","label":"officeRate","offset":0,"slot":"7","type":"t_uint256"},{"astId":8429,"contract":"contracts/TavernKeeper.sol:TavernKeeper","label":"slot0","offset":0,"slot":"8","type":"t_struct(Slot0)8426_storage"},{"astId":8431,"contract":"contracts/TavernKeeper.sol:TavernKeeper","label":"treasury","offset":0,"slot":"12","type":"t_address"},{"astId":8544,"contract":"contracts/TavernKeeper.sol:TavernKeeper","label":"v2StartTime","offset":0,"slot":"13","type":"t_uint256"}],"types":{"t_address":{"encoding":"inplace","label":"address","numberOfBytes":"20"},"t_mapping(t_uint256,t_uint256)":{"encoding":"mapping","key":"t_uint256","label":"mapping(uint256 => uint256)","numberOfBytes":"32","value":"t_uint256"},"t_string_storage":{"encoding":"bytes","label":"string","numberOfBytes":"32"},"t_struct(Slot0)8426_storage":{"encoding":"inplace","label":"struct TavernKeeper.Slot0","members":[{"astId":8413,"contract":"contracts/TavernKeeper.sol:TavernKeeper","label":"locked","offset":0,"slot":"0","type":"t_uint8"},{"astId":8415,"contract":"contracts/TavernKeeper.sol:TavernKeeper","label":"epochId","offset":1,"slot":"0","type":"t_uint16"},{"astId":8417,"contract":"contracts/TavernKeeper.sol:TavernKeeper","label":"initPrice","offset":3,"slot":"0","type":"t_uint192"},{"astId":8419,"contract":"contracts/TavernKeeper.sol:TavernKeeper","label":"startTime","offset":27,"slot":"0","type":"t_uint40"},{"astId":8421,"contract":"contracts/TavernKeeper.sol:TavernKeeper","label":"dps","offset":0,"slot":"1","type":"t_uint256"},{"astId":8423,"contract":"contracts/TavernKeeper.sol:TavernKeeper","label":"miner","offset":0,"slot":"2","type":"t_address"},{"astId":8425,"contract":"contracts/TavernKeeper.sol:TavernKeeper","label":"uri","offset":0,"slot":"3","type":"t_string_storage"}],"numberOfBytes":"128"},"t_uint16":{"encoding":"inplace","label":"uint16","numberOfBytes":"2"},"t_uint192":{"encoding":"inplace","label":"uint192","numberOfBytes":"24"},"t_uint256":{"encoding":"inplace","label":"uint256","numberOfBytes":"32"},"t_uint40":{"encoding":"inplace","label":"uint40","numberOfBytes":"5"},"t_uint8":{"encoding":"inplace","label":"uint8","numberOfBytes":"1"}}}}}}