{
  "_format": "hh-sol-artifact-1",
  "contractName": "Inventory",
  "sourceName": "contracts/Inventory.sol",
  "abi": [
    {
      "inputs": [],
      "stateMutability": "nonpayable",
      "type": "constructor"
    },
    {
      "inputs": [
        {
          "internalType": "address",
          "name": "target",
          "type": "address"
        }
      ],
      "name": "AddressEmptyCode",
      "type": "error"
    },
    {
      "inputs": [
        {
          "internalType": "address",
          "name": "sender",
          "type": "address"
        },
        {
          "internalType": "uint256",
          "name": "balance",
          "type": "uint256"
        },
        {
          "internalType": "uint256",
          "name": "needed",
          "type": "uint256"
        },
        {
          "internalType": "uint256",
          "name": "tokenId",
          "type": "uint256"
        }
      ],
      "name": "ERC1155InsufficientBalance",
      "type": "error"
    },
    {
      "inputs": [
        {
          "internalType": "address",
          "name": "approver",
          "type": "address"
        }
      ],
      "name": "ERC1155InvalidApprover",
      "type": "error"
    },
    {
      "inputs": [
        {
          "internalType": "uint256",
          "name": "idsLength",
          "type": "uint256"
        },
        {
          "internalType": "uint256",
          "name": "valuesLength",
          "type": "uint256"
        }
      ],
      "name": "ERC1155InvalidArrayLength",
      "type": "error"
    },
    {
      "inputs": [
        {
          "internalType": "address",
          "name": "operator",
          "type": "address"
        }
      ],
      "name": "ERC1155InvalidOperator",
      "type": "error"
    },
    {
      "inputs": [
        {
          "internalType": "address",
          "name": "receiver",
          "type": "address"
        }
      ],
      "name": "ERC1155InvalidReceiver",
      "type": "error"
    },
    {
      "inputs": [
        {
          "internalType": "address",
          "name": "sender",
          "type": "address"
        }
      ],
      "name": "ERC1155InvalidSender",
      "type": "error"
    },
    {
      "inputs": [
        {
          "internalType": "address",
          "name": "operator",
          "type": "address"
        },
        {
          "internalType": "address",
          "name": "owner",
          "type": "address"
        }
      ],
      "name": "ERC1155MissingApprovalForAll",
      "type": "error"
    },
    {
      "inputs": [
        {
          "internalType": "address",
          "name": "implementation",
          "type": "address"
        }
      ],
      "name": "ERC1967InvalidImplementation",
      "type": "error"
    },
    {
      "inputs": [],
      "name": "ERC1967NonPayable",
      "type": "error"
    },
    {
      "inputs": [],
      "name": "FailedCall",
      "type": "error"
    },
    {
      "inputs": [],
      "name": "InvalidInitialization",
      "type": "error"
    },
    {
      "inputs": [],
      "name": "NotInitializing",
      "type": "error"
    },
    {
      "inputs": [
        {
          "internalType": "address",
          "name": "owner",
          "type": "address"
        }
      ],
      "name": "OwnableInvalidOwner",
      "type": "error"
    },
    {
      "inputs": [
        {
          "internalType": "address",
          "name": "account",
          "type": "address"
        }
      ],
      "name": "OwnableUnauthorizedAccount",
      "type": "error"
    },
    {
      "inputs": [],
      "name": "UUPSUnauthorizedCallContext",
      "type": "error"
    },
    {
      "inputs": [
        {
          "internalType": "bytes32",
          "name": "slot",
          "type": "bytes32"
        }
      ],
      "name": "UUPSUnsupportedProxiableUUID",
      "type": "error"
    },
    {
      "anonymous": false,
      "inputs": [
        {
          "indexed": true,
          "internalType": "address",
          "name": "account",
          "type": "address"
        },
        {
          "indexed": true,
          "internalType": "address",
          "name": "operator",
          "type": "address"
        },
        {
          "indexed": false,
          "internalType": "bool",
          "name": "approved",
          "type": "bool"
        }
      ],
      "name": "ApprovalForAll",
      "type": "event"
    },
    {
      "anonymous": false,
      "inputs": [
        {
          "indexed": true,
          "internalType": "address",
          "name": "payer",
          "type": "address"
        },
        {
          "indexed": false,
          "internalType": "uint256",
          "name": "amount",
          "type": "uint256"
        }
      ],
      "name": "FeeCollected",
      "type": "event"
    },
    {
      "anonymous": false,
      "inputs": [
        {
          "indexed": false,
          "internalType": "uint64",
          "name": "version",
          "type": "uint64"
        }
      ],
      "name": "Initialized",
      "type": "event"
    },
    {
      "anonymous": false,
      "inputs": [
        {
          "indexed": true,
          "internalType": "address",
          "name": "previousOwner",
          "type": "address"
        },
        {
          "indexed": true,
          "internalType": "address",
          "name": "newOwner",
          "type": "address"
        }
      ],
      "name": "OwnershipTransferred",
      "type": "event"
    },
    {
      "anonymous": false,
      "inputs": [
        {
          "indexed": true,
          "internalType": "address",
          "name": "operator",
          "type": "address"
        },
        {
          "indexed": true,
          "internalType": "address",
          "name": "from",
          "type": "address"
        },
        {
          "indexed": true,
          "internalType": "address",
          "name": "to",
          "type": "address"
        },
        {
          "indexed": false,
          "internalType": "uint256[]",
          "name": "ids",
          "type": "uint256[]"
        },
        {
          "indexed": false,
          "internalType": "uint256[]",
          "name": "values",
          "type": "uint256[]"
        }
      ],
      "name": "TransferBatch",
      "type": "event"
    },
    {
      "anonymous": false,
      "inputs": [
        {
          "indexed": true,
          "internalType": "address",
          "name": "operator",
          "type": "address"
        },
        {
          "indexed": true,
          "internalType": "address",
          "name": "from",
          "type": "address"
        },
        {
          "indexed": true,
          "internalType": "address",
          "name": "to",
          "type": "address"
        },
        {
          "indexed": false,
          "internalType": "uint256",
          "name": "id",
          "type": "uint256"
        },
        {
          "indexed": false,
          "internalType": "uint256",
          "name": "value",
          "type": "uint256"
        }
      ],
      "name": "TransferSingle",
      "type": "event"
    },
    {
      "anonymous": false,
      "inputs": [
        {
          "indexed": false,
          "internalType": "string",
          "name": "value",
          "type": "string"
        },
        {
          "indexed": true,
          "internalType": "uint256",
          "name": "id",
          "type": "uint256"
        }
      ],
      "name": "URI",
      "type": "event"
    },
    {
      "anonymous": false,
      "inputs": [
        {
          "indexed": true,
          "internalType": "address",
          "name": "implementation",
          "type": "address"
        }
      ],
      "name": "Upgraded",
      "type": "event"
    },
    {
      "inputs": [],
      "name": "UPGRADE_INTERFACE_VERSION",
      "outputs": [
        {
          "internalType": "string",
          "name": "",
          "type": "string"
        }
      ],
      "stateMutability": "view",
      "type": "function"
    },
    {
      "inputs": [
        {
          "internalType": "address",
          "name": "account",
          "type": "address"
        },
        {
          "internalType": "uint256",
          "name": "id",
          "type": "uint256"
        }
      ],
      "name": "balanceOf",
      "outputs": [
        {
          "internalType": "uint256",
          "name": "",
          "type": "uint256"
        }
      ],
      "stateMutability": "view",
      "type": "function"
    },
    {
      "inputs": [
        {
          "internalType": "address[]",
          "name": "accounts",
          "type": "address[]"
        },
        {
          "internalType": "uint256[]",
          "name": "ids",
          "type": "uint256[]"
        }
      ],
      "name": "balanceOfBatch",
      "outputs": [
        {
          "internalType": "uint256[]",
          "name": "",
          "type": "uint256[]"
        }
      ],
      "stateMutability": "view",
      "type": "function"
    },
    {
      "inputs": [
        {
          "internalType": "address",
          "name": "from",
          "type": "address"
        },
        {
          "internalType": "address",
          "name": "to",
          "type": "address"
        },
        {
          "internalType": "uint256[]",
          "name": "ids",
          "type": "uint256[]"
        },
        {
          "internalType": "uint256[]",
          "name": "amounts",
          "type": "uint256[]"
        },
        {
          "internalType": "bytes",
          "name": "data",
          "type": "bytes"
        }
      ],
      "name": "claimLootWithFee",
      "outputs": [],
      "stateMutability": "payable",
      "type": "function"
    },
    {
      "inputs": [],
      "name": "feeRecipient",
      "outputs": [
        {
          "internalType": "address",
          "name": "",
          "type": "address"
        }
      ],
      "stateMutability": "view",
      "type": "function"
    },
    {
      "inputs": [
        {
          "internalType": "address",
          "name": "_feeRecipient",
          "type": "address"
        }
      ],
      "name": "initialize",
      "outputs": [],
      "stateMutability": "nonpayable",
      "type": "function"
    },
    {
      "inputs": [
        {
          "internalType": "address",
          "name": "account",
          "type": "address"
        },
        {
          "internalType": "address",
          "name": "operator",
          "type": "address"
        }
      ],
      "name": "isApprovedForAll",
      "outputs": [
        {
          "internalType": "bool",
          "name": "",
          "type": "bool"
        }
      ],
      "stateMutability": "view",
      "type": "function"
    },
    {
      "inputs": [
        {
          "internalType": "address",
          "name": "account",
          "type": "address"
        },
        {
          "internalType": "uint256",
          "name": "id",
          "type": "uint256"
        },
        {
          "internalType": "uint256",
          "name": "amount",
          "type": "uint256"
        },
        {
          "internalType": "bytes",
          "name": "data",
          "type": "bytes"
        }
      ],
      "name": "mint",
      "outputs": [],
      "stateMutability": "payable",
      "type": "function"
    },
    {
      "inputs": [
        {
          "internalType": "address",
          "name": "to",
          "type": "address"
        },
        {
          "internalType": "uint256[]",
          "name": "ids",
          "type": "uint256[]"
        },
        {
          "internalType": "uint256[]",
          "name": "amounts",
          "type": "uint256[]"
        },
        {
          "internalType": "bytes",
          "name": "data",
          "type": "bytes"
        }
      ],
      "name": "mintBatch",
      "outputs": [],
      "stateMutability": "payable",
      "type": "function"
    },
    {
      "inputs": [],
      "name": "owner",
      "outputs": [
        {
          "internalType": "address",
          "name": "",
          "type": "address"
        }
      ],
      "stateMutability": "view",
      "type": "function"
    },
    {
      "inputs": [],
      "name": "proxiableUUID",
      "outputs": [
        {
          "internalType": "bytes32",
          "name": "",
          "type": "bytes32"
        }
      ],
      "stateMutability": "view",
      "type": "function"
    },
    {
      "inputs": [],
      "name": "renounceOwnership",
      "outputs": [],
      "stateMutability": "nonpayable",
      "type": "function"
    },
    {
      "inputs": [
        {
          "internalType": "address",
          "name": "from",
          "type": "address"
        },
        {
          "internalType": "address",
          "name": "to",
          "type": "address"
        },
        {
          "internalType": "uint256[]",
          "name": "ids",
          "type": "uint256[]"
        },
        {
          "internalType": "uint256[]",
          "name": "values",
          "type": "uint256[]"
        },
        {
          "internalType": "bytes",
          "name": "data",
          "type": "bytes"
        }
      ],
      "name": "safeBatchTransferFrom",
      "outputs": [],
      "stateMutability": "nonpayable",
      "type": "function"
    },
    {
      "inputs": [
        {
          "internalType": "address",
          "name": "from",
          "type": "address"
        },
        {
          "internalType": "address",
          "name": "to",
          "type": "address"
        },
        {
          "internalType": "uint256",
          "name": "id",
          "type": "uint256"
        },
        {
          "internalType": "uint256",
          "name": "value",
          "type": "uint256"
        },
        {
          "internalType": "bytes",
          "name": "data",
          "type": "bytes"
        }
      ],
      "name": "safeTransferFrom",
      "outputs": [],
      "stateMutability": "nonpayable",
      "type": "function"
    },
    {
      "inputs": [
        {
          "internalType": "address",
          "name": "operator",
          "type": "address"
        },
        {
          "internalType": "bool",
          "name": "approved",
          "type": "bool"
        }
      ],
      "name": "setApprovalForAll",
      "outputs": [],
      "stateMutability": "nonpayable",
      "type": "function"
    },
    {
      "inputs": [
        {
          "internalType": "address",
          "name": "_feeRecipient",
          "type": "address"
        }
      ],
      "name": "setFeeRecipient",
      "outputs": [],
      "stateMutability": "nonpayable",
      "type": "function"
    },
    {
      "inputs": [
        {
          "internalType": "string",
          "name": "newuri",
          "type": "string"
        }
      ],
      "name": "setURI",
      "outputs": [],
      "stateMutability": "nonpayable",
      "type": "function"
    },
    {
      "inputs": [
        {
          "internalType": "bytes4",
          "name": "interfaceId",
          "type": "bytes4"
        }
      ],
      "name": "supportsInterface",
      "outputs": [
        {
          "internalType": "bool",
          "name": "",
          "type": "bool"
        }
      ],
      "stateMutability": "view",
      "type": "function"
    },
    {
      "inputs": [
        {
          "internalType": "address",
          "name": "newOwner",
          "type": "address"
        }
      ],
      "name": "transferOwnership",
      "outputs": [],
      "stateMutability": "nonpayable",
      "type": "function"
    },
    {
      "inputs": [
        {
          "internalType": "address",
          "name": "newImplementation",
          "type": "address"
        },
        {
          "internalType": "bytes",
          "name": "data",
          "type": "bytes"
        }
      ],
      "name": "upgradeToAndCall",
      "outputs": [],
      "stateMutability": "payable",
      "type": "function"
    },
    {
      "inputs": [
        {
          "internalType": "uint256",
          "name": "tokenId",
          "type": "uint256"
        }
      ],
      "name": "uri",
      "outputs": [
        {
          "internalType": "string",
          "name": "",
          "type": "string"
        }
      ],
      "stateMutability": "view",
      "type": "function"
    }
  ],
  "bytecode": "0x60a060405230608052348015610013575f80fd5b5061001c610021565b6100d3565b7ff0c57e16840df040f15088dc2f81fe391c3923bec73e23a9662efc9c229c6a00805468010000000000000000900460ff16156100715760405163f92ee8a960e01b815260040160405180910390fd5b80546001600160401b03908116146100d05780546001600160401b0319166001600160401b0390811782556040519081527fc7f505b2f371ae2175ee4913f4499e1f2633a7b5936321eed1cdaeb6115181d29060200160405180910390a15b50565b6080516121c86100f95f395f8181610cb801528181610ce10152610e2001526121c85ff3fe608060405260043610610125575f3560e01c806352d1902d116100a8578063ad3cb1cc1161006d578063ad3cb1cc14610327578063c4d66de814610357578063e74b981b14610376578063e985e9c514610395578063f242432a146103b4578063f2fde38b146103d3575f80fd5b806352d1902d14610291578063715018a6146102a5578063731133e9146102b95780638da5cb5b146102cc578063a22cb46514610308575f80fd5b80632eb2c2d6116100ee5780632eb2c2d6146101ea5780633e8c86d714610209578063469048401461021c5780634e1273f4146102525780634f1ef2861461027e575f80fd5b8062fdd58e1461012957806301ffc9a71461015b57806302fe53051461018a5780630e89341c146101ab5780631f7fdffa146101d7575b5f80fd5b348015610134575f80fd5b50610148610143366004611875565b6103f2565b6040519081526020015b60405180910390f35b348015610166575f80fd5b5061017a6101753660046118b2565b610427565b6040519015158152602001610152565b348015610195575f80fd5b506101a96101a4366004611969565b610476565b005b3480156101b6575f80fd5b506101ca6101c53660046119ad565b61048a565b60405161015291906119f2565b6101a96101e5366004611aae565b610495565b3480156101f5575f80fd5b506101a9610204366004611b4a565b6104b7565b6101a9610217366004611b4a565b610523565b348015610227575f80fd5b505f5461023a906001600160a01b031681565b6040516001600160a01b039091168152602001610152565b34801561025d575f80fd5b5061027161026c366004611bf6565b61053f565b6040516101529190611cf1565b6101a961028c366004611d03565b610609565b34801561029c575f80fd5b50610148610628565b3480156102b0575f80fd5b506101a9610643565b6101a96102c7366004611d43565b610656565b3480156102d7575f80fd5b507f9016d09d72d40fdae2fd8ceac6b6234c7706214fd39c1cd1e609a0528c199300546001600160a01b031661023a565b348015610313575f80fd5b506101a9610322366004611d87565b610672565b348015610332575f80fd5b506101ca604051806040016040528060058152602001640352e302e360dc1b81525081565b348015610362575f80fd5b506101a9610371366004611dc0565b61067d565b348015610381575f80fd5b506101a9610390366004611dc0565b61080a565b3480156103a0575f80fd5b5061017a6103af366004611dd9565b610889565b3480156103bf575f80fd5b506101a96103ce366004611e0a565b6108d5565b3480156103de575f80fd5b506101a96103ed366004611dc0565b610934565b5f8181525f80516020612173833981519152602090815260408083206001600160a01b03861684529091529020545b92915050565b5f6001600160e01b03198216636cdb3d1360e11b148061045757506001600160e01b031982166303a24d0760e21b145b8061042157506301ffc9a760e01b6001600160e01b0319831614610421565b61047e61096e565b610487816109c9565b50565b606061042182610a07565b61049d61096e565b6104a5610b24565b6104b184848484610c19565b50505050565b336001600160a01b03861681148015906104d857506104d68682610889565b155b1561050e5760405163711bec9160e11b81526001600160a01b038083166004830152871660248201526044015b60405180910390fd5b61051b8686868686610c4f565b505050505050565b61052b610b24565b6105388585858585610c4f565b5050505050565b606081518351146105705781518351604051635b05999160e01b815260048101929092526024820152604401610505565b5f83516001600160401b0381111561058a5761058a6118cd565b6040519080825280602002602001820160405280156105b3578160200160208202803683370190505b5090505f5b8451811015610601576020808202860101516105dc906020808402870101516103f2565b8282815181106105ee576105ee611e5d565b60209081029190910101526001016105b8565b509392505050565b610611610cad565b61061a82610d51565b6106248282610d59565b5050565b5f610631610e15565b505f8051602061215383398151915290565b61064b61096e565b6106545f610e5e565b565b61065e61096e565b610666610b24565b6104b184848484610ece565b610624338383610f29565b5f610686610fce565b805490915060ff600160401b82041615906001600160401b03165f811580156106ac5750825b90505f826001600160401b031660011480156106c75750303b155b9050811580156106d5575080155b156106f35760405163f92ee8a960e01b815260040160405180910390fd5b845467ffffffffffffffff19166001178555831561071d57845460ff60401b1916600160401b1785555b61073460405180602001604052805f815250610ff6565b61073c611007565b61074533611017565b61074d611028565b6001600160a01b0386166107a35760405162461bcd60e51b815260206004820181905260248201527f496e76656e746f72793a20696e76616c69642066656520726563697069656e746044820152606401610505565b5f80546001600160a01b0319166001600160a01b038816179055831561051b57845460ff60401b19168555604051600181527fc7f505b2f371ae2175ee4913f4499e1f2633a7b5936321eed1cdaeb6115181d29060200160405180910390a1505050505050565b61081261096e565b6001600160a01b0381166108685760405162461bcd60e51b815260206004820181905260248201527f496e76656e746f72793a20696e76616c69642066656520726563697069656e746044820152606401610505565b5f80546001600160a01b0319166001600160a01b0392909216919091179055565b6001600160a01b039182165f9081527f88be536d5240c274a3b1d3a1be54482fd9caa294f08c62a7cde569f49a3c45016020908152604080832093909416825291909152205460ff1690565b336001600160a01b03861681148015906108f657506108f48682610889565b155b156109275760405163711bec9160e11b81526001600160a01b03808316600483015287166024820152604401610505565b61051b8686868686611030565b61093c61096e565b6001600160a01b03811661096557604051631e4fbdf760e01b81525f6004820152602401610505565b61048781610e5e565b336109a07f9016d09d72d40fdae2fd8ceac6b6234c7706214fd39c1cd1e609a0528c199300546001600160a01b031690565b6001600160a01b0316146106545760405163118cdaa760e01b8152336004820152602401610505565b5f805160206121738339815191527f88be536d5240c274a3b1d3a1be54482fd9caa294f08c62a7cde569f49a3c4502610a028382611eed565b505050565b5f8181527f89fc852226e759c7c636cf34d732f0198fc56a54876b2374a52beb7b0c5586016020526040812080546060927f89fc852226e759c7c636cf34d732f0198fc56a54876b2374a52beb7b0c558600929091610a6590611e71565b80601f0160208091040260200160405190810160405280929190818152602001828054610a9190611e71565b8015610adc5780601f10610ab357610100808354040283529160200191610adc565b820191905f5260205f20905b815481529060010190602001808311610abf57829003601f168201915b505050505090505f815111610af957610af4846110bc565b610b1c565b604051610b0c9083908390602001611fbe565b6040516020818303038152906040525b949350505050565b5f34118015610b3c57505f546001600160a01b031615155b15610654575f80546040516001600160a01b039091169034908381818185875af1925050503d805f8114610b8b576040519150601f19603f3d011682016040523d82523d5f602084013e610b90565b606091505b5050905080610be15760405162461bcd60e51b815260206004820152601e60248201527f496e76656e746f72793a20666565207472616e73666572206661696c656400006044820152606401610505565b60405134815233907f06c5efeff5c320943d265dc4e5f1af95ad523555ce0c1957e367dda5514572df9060200160405180910390a250565b6001600160a01b038416610c4257604051632bfa23e760e11b81525f6004820152602401610505565b6104b15f8585858561117e565b6001600160a01b038416610c7857604051632bfa23e760e11b81525f6004820152602401610505565b6001600160a01b038516610ca057604051626a0d4560e21b81525f6004820152602401610505565b610538858585858561117e565b306001600160a01b037f0000000000000000000000000000000000000000000000000000000000000000161480610d3357507f00000000000000000000000000000000000000000000000000000000000000006001600160a01b0316610d275f80516020612153833981519152546001600160a01b031690565b6001600160a01b031614155b156106545760405163703e46dd60e11b815260040160405180910390fd5b61048761096e565b816001600160a01b03166352d1902d6040518163ffffffff1660e01b8152600401602060405180830381865afa925050508015610db3575060408051601f3d908101601f19168201909252610db091810190612031565b60015b610ddb57604051634c9c8ce360e01b81526001600160a01b0383166004820152602401610505565b5f805160206121538339815191528114610e0b57604051632a87526960e21b815260048101829052602401610505565b610a0283836111d1565b306001600160a01b037f000000000000000000000000000000000000000000000000000000000000000016146106545760405163703e46dd60e11b815260040160405180910390fd5b7f9016d09d72d40fdae2fd8ceac6b6234c7706214fd39c1cd1e609a0528c19930080546001600160a01b031981166001600160a01b03848116918217845560405192169182907f8be0079c531659141344cd1fd0a4f28419497f9722a3daafe3b4186f6b6457e0905f90a3505050565b6001600160a01b038416610ef757604051632bfa23e760e11b81525f6004820152602401610505565b6040805160018082526020820186905281830190815260608201859052608082019092529061051b5f8784848761117e565b5f805160206121738339815191526001600160a01b038316610f5f5760405162ced3e160e81b81525f6004820152602401610505565b6001600160a01b038481165f818152600184016020908152604080832094881680845294825291829020805460ff191687151590811790915591519182527f17307eab39ab6107e8899845ad3d59bd9653f200f220920489ca2b5937696c31910160405180910390a350505050565b5f807ff0c57e16840df040f15088dc2f81fe391c3923bec73e23a9662efc9c229c6a00610421565b610ffe611226565b6104878161124b565b61100f611226565b610654611253565b61101f611226565b61048781611297565b610654611226565b6001600160a01b03841661105957604051632bfa23e760e11b81525f6004820152602401610505565b6001600160a01b03851661108157604051626a0d4560e21b81525f6004820152602401610505565b604080516001808252602082018690528183019081526060820185905260808201909252906110b3878784848761117e565b50505050505050565b7f88be536d5240c274a3b1d3a1be54482fd9caa294f08c62a7cde569f49a3c450280546060915f80516020612173833981519152916110fa90611e71565b80601f016020809104026020016040519081016040528092919081815260200182805461112690611e71565b80156111715780601f1061114857610100808354040283529160200191611171565b820191905f5260205f20905b81548152906001019060200180831161115457829003601f168201915b5050505050915050919050565b61118a8585858561129f565b6001600160a01b0384161561053857825133906001036111c357602084810151908401516111bc8389898585896114be565b505061051b565b61051b8187878787876115df565b6111da826116c6565b6040516001600160a01b038316907fbc7cd75a20ee27fd9adebab32041f755214dbc6bffa90cc0225b39da2e5c2d3b905f90a280511561121e57610a028282611729565b61062461179b565b61122e6117ba565b61065457604051631afcd79f60e31b815260040160405180910390fd5b61047e611226565b61125b611226565b60408051602081019091525f81527f89fc852226e759c7c636cf34d732f0198fc56a54876b2374a52beb7b0c5586009081906106249082611eed565b61093c611226565b805182515f8051602061217383398151915291146112dd5782518251604051635b05999160e01b815260048101929092526024820152604401610505565b335f5b84518110156113df576020818102868101820151908601909101516001600160a01b03891615611391575f828152602086815260408083206001600160a01b038d1684529091529020548181101561136b576040516303dee4c560e01b81526001600160a01b038b166004820152602481018290526044810183905260648101849052608401610505565b5f838152602087815260408083206001600160a01b038e16845290915290209082900390555b6001600160a01b038816156113d5575f828152602086815260408083206001600160a01b038c168452909152812080548392906113cf908490612048565b90915550505b50506001016112e0565b50835160010361145f5760208401515f906020850151909150866001600160a01b0316886001600160a01b0316846001600160a01b03167fc3d58168c5ae7397731d063d5bbf3d657854427343f4c083240f7aacaa2d0f628585604051611450929190918252602082015260400190565b60405180910390a4505061051b565b846001600160a01b0316866001600160a01b0316826001600160a01b03167f4a39dc06d4c0dbc64b70af90fd698a233a518aa5d07e595d983b8c0526c8f7fb87876040516114ae929190612067565b60405180910390a4505050505050565b6001600160a01b0384163b1561051b5760405163f23a6e6160e01b81526001600160a01b0385169063f23a6e6190611502908990899088908890889060040161208b565b6020604051808303815f875af192505050801561153c575060408051601f3d908101601f19168201909252611539918101906120cf565b60015b6115a3573d808015611569576040519150601f19603f3d011682016040523d82523d5f602084013e61156e565b606091505b5080515f0361159b57604051632bfa23e760e11b81526001600160a01b0386166004820152602401610505565b805160208201fd5b6001600160e01b0319811663f23a6e6160e01b146110b357604051632bfa23e760e11b81526001600160a01b0386166004820152602401610505565b6001600160a01b0384163b1561051b5760405163bc197c8160e01b81526001600160a01b0385169063bc197c819061162390899089908890889088906004016120ea565b6020604051808303815f875af192505050801561165d575060408051601f3d908101601f1916820190925261165a918101906120cf565b60015b61168a573d808015611569576040519150601f19603f3d011682016040523d82523d5f602084013e61156e565b6001600160e01b0319811663bc197c8160e01b146110b357604051632bfa23e760e11b81526001600160a01b0386166004820152602401610505565b806001600160a01b03163b5f036116fb57604051634c9c8ce360e01b81526001600160a01b0382166004820152602401610505565b5f8051602061215383398151915280546001600160a01b0319166001600160a01b0392909216919091179055565b60605f80846001600160a01b0316846040516117459190612147565b5f60405180830381855af49150503d805f811461177d576040519150601f19603f3d011682016040523d82523d5f602084013e611782565b606091505b50915091506117928583836117d3565b95945050505050565b34156106545760405163b398979f60e01b815260040160405180910390fd5b5f6117c3610fce565b54600160401b900460ff16919050565b6060826117e8576117e382611832565b61182b565b81511580156117ff57506001600160a01b0384163b155b1561182857604051639996b31560e01b81526001600160a01b0385166004820152602401610505565b50805b9392505050565b80511561184157805160208201fd5b60405163d6bda27560e01b815260040160405180910390fd5b80356001600160a01b0381168114611870575f80fd5b919050565b5f8060408385031215611886575f80fd5b61188f8361185a565b946020939093013593505050565b6001600160e01b031981168114610487575f80fd5b5f602082840312156118c2575f80fd5b813561182b8161189d565b634e487b7160e01b5f52604160045260245ffd5b604051601f8201601f191681016001600160401b0381118282101715611909576119096118cd565b604052919050565b5f806001600160401b0384111561192a5761192a6118cd565b50601f8301601f191660200161193f816118e1565b915050828152838383011115611953575f80fd5b828260208301375f602084830101529392505050565b5f60208284031215611979575f80fd5b81356001600160401b0381111561198e575f80fd5b8201601f8101841361199e575f80fd5b610b1c84823560208401611911565b5f602082840312156119bd575f80fd5b5035919050565b5f81518084528060208401602086015e5f602082860101526020601f19601f83011685010191505092915050565b602081525f61182b60208301846119c4565b5f6001600160401b03821115611a1c57611a1c6118cd565b5060051b60200190565b5f82601f830112611a35575f80fd5b8135611a48611a4382611a04565b6118e1565b8082825260208201915060208360051b860101925085831115611a69575f80fd5b602085015b83811015611a86578035835260209283019201611a6e565b5095945050505050565b5f82601f830112611a9f575f80fd5b61182b83833560208501611911565b5f805f8060808587031215611ac1575f80fd5b611aca8561185a565b935060208501356001600160401b03811115611ae4575f80fd5b611af087828801611a26565b93505060408501356001600160401b03811115611b0b575f80fd5b611b1787828801611a26565b92505060608501356001600160401b03811115611b32575f80fd5b611b3e87828801611a90565b91505092959194509250565b5f805f805f60a08688031215611b5e575f80fd5b611b678661185a565b9450611b756020870161185a565b935060408601356001600160401b03811115611b8f575f80fd5b611b9b88828901611a26565b93505060608601356001600160401b03811115611bb6575f80fd5b611bc288828901611a26565b92505060808601356001600160401b03811115611bdd575f80fd5b611be988828901611a90565b9150509295509295909350565b5f8060408385031215611c07575f80fd5b82356001600160401b03811115611c1c575f80fd5b8301601f81018513611c2c575f80fd5b8035611c3a611a4382611a04565b8082825260208201915060208360051b850101925087831115611c5b575f80fd5b6020840193505b82841015611c8457611c738461185a565b825260209384019390910190611c62565b945050505060208301356001600160401b03811115611ca1575f80fd5b611cad85828601611a26565b9150509250929050565b5f8151808452602084019350602083015f5b82811015611ce7578151865260209586019590910190600101611cc9565b5093949350505050565b602081525f61182b6020830184611cb7565b5f8060408385031215611d14575f80fd5b611d1d8361185a565b915060208301356001600160401b03811115611d37575f80fd5b611cad85828601611a90565b5f805f8060808587031215611d56575f80fd5b611d5f8561185a565b9350602085013592506040850135915060608501356001600160401b03811115611b32575f80fd5b5f8060408385031215611d98575f80fd5b611da18361185a565b915060208301358015158114611db5575f80fd5b809150509250929050565b5f60208284031215611dd0575f80fd5b61182b8261185a565b5f8060408385031215611dea575f80fd5b611df38361185a565b9150611e016020840161185a565b90509250929050565b5f805f805f60a08688031215611e1e575f80fd5b611e278661185a565b9450611e356020870161185a565b9350604086013592506060860135915060808601356001600160401b03811115611bdd575f80fd5b634e487b7160e01b5f52603260045260245ffd5b600181811c90821680611e8557607f821691505b602082108103611ea357634e487b7160e01b5f52602260045260245ffd5b50919050565b601f821115610a0257805f5260205f20601f840160051c81016020851015611ece5750805b601f840160051c820191505b81811015610538575f8155600101611eda565b81516001600160401b03811115611f0657611f066118cd565b611f1a81611f148454611e71565b84611ea9565b6020601f821160018114611f4c575f8315611f355750848201515b5f19600385901b1c1916600184901b178455610538565b5f84815260208120601f198516915b82811015611f7b5787850151825560209485019460019092019101611f5b565b5084821015611f9857868401515f19600387901b60f8161c191681555b50505050600190811b01905550565b5f81518060208401855e5f93019283525090919050565b5f808454611fcb81611e71565b600182168015611fe25760018114611ff757612024565b60ff1983168652811515820286019350612024565b875f5260205f205f5b8381101561201c57815488820152600190910190602001612000565b505081860193505b5050506117928185611fa7565b5f60208284031215612041575f80fd5b5051919050565b8082018082111561042157634e487b7160e01b5f52601160045260245ffd5b604081525f6120796040830185611cb7565b82810360208401526117928185611cb7565b6001600160a01b03868116825285166020820152604081018490526060810183905260a0608082018190525f906120c4908301846119c4565b979650505050505050565b5f602082840312156120df575f80fd5b815161182b8161189d565b6001600160a01b0386811682528516602082015260a0604082018190525f9061211590830186611cb7565b82810360608401526121278186611cb7565b9050828103608084015261213b81856119c4565b98975050505050505050565b5f61182b8284611fa756fe360894a13ba1a3210667c828492db98dca3e2076cc3735a920a3ca505d382bbc88be536d5240c274a3b1d3a1be54482fd9caa294f08c62a7cde569f49a3c4500a2646970667358221220b51fd1b76ec6001478777979a3c0f1ac5f004c7ba218bea29df67bc54fbdc75064736f6c634300081a0033",
  "linkReferences": {},
  "deployedLinkReferences": {}
}