{
  "_format": "hh-sol-artifact-1",
  "contractName": "ERC6551Account",
  "sourceName": "contracts/ERC6551Account.sol",
  "abi": [
    {
      "inputs": [
        {
          "internalType": "address",
          "name": "to",
          "type": "address"
        },
        {
          "internalType": "uint256",
          "name": "value",
          "type": "uint256"
        },
        {
          "internalType": "bytes",
          "name": "data",
          "type": "bytes"
        },
        {
          "internalType": "uint8",
          "name": "operation",
          "type": "uint8"
        }
      ],
      "name": "execute",
      "outputs": [
        {
          "internalType": "bytes",
          "name": "result",
          "type": "bytes"
        }
      ],
      "stateMutability": "payable",
      "type": "function"
    },
    {
      "inputs": [
        {
          "internalType": "bytes32",
          "name": "hash",
          "type": "bytes32"
        },
        {
          "internalType": "bytes",
          "name": "signature",
          "type": "bytes"
        }
      ],
      "name": "isValidSignature",
      "outputs": [
        {
          "internalType": "bytes4",
          "name": "magicValue",
          "type": "bytes4"
        }
      ],
      "stateMutability": "view",
      "type": "function"
    },
    {
      "inputs": [],
      "name": "owner",
      "outputs": [
        {
          "internalType": "address",
          "name": "",
          "type": "address"
        }
      ],
      "stateMutability": "view",
      "type": "function"
    },
    {
      "inputs": [],
      "name": "state",
      "outputs": [
        {
          "internalType": "uint256",
          "name": "",
          "type": "uint256"
        }
      ],
      "stateMutability": "view",
      "type": "function"
    },
    {
      "inputs": [
        {
          "internalType": "bytes4",
          "name": "interfaceId",
          "type": "bytes4"
        }
      ],
      "name": "supportsInterface",
      "outputs": [
        {
          "internalType": "bool",
          "name": "",
          "type": "bool"
        }
      ],
      "stateMutability": "pure",
      "type": "function"
    },
    {
      "inputs": [],
      "name": "token",
      "outputs": [
        {
          "internalType": "uint256",
          "name": "",
          "type": "uint256"
        },
        {
          "internalType": "address",
          "name": "",
          "type": "address"
        },
        {
          "internalType": "uint256",
          "name": "",
          "type": "uint256"
        }
      ],
      "stateMutability": "view",
      "type": "function"
    },
    {
      "stateMutability": "payable",
      "type": "receive"
    }
  ],
  "bytecode": "0x6080604052348015600e575f80fd5b506109a08061001c5f395ff3fe608060405260043610610057575f3560e01c806301ffc9a7146100625780631626ba7e1461009657806351945447146100ce5780638da5cb5b146100ee578063c19d93fb1461011a578063fc0c546a1461013c575f80fd5b3661005e57005b5f80fd5b34801561006d575f80fd5b5061008161007c36600461068c565b610173565b60405190151581526020015b60405180910390f35b3480156100a1575f80fd5b506100b56100b03660046106c7565b6101c4565b6040516001600160e01b0319909116815260200161008d565b6100e16100dc36600461079b565b6101f9565b60405161008d919061086c565b3480156100f9575f80fd5b50610102610322565b6040516001600160a01b03909116815260200161008d565b348015610125575f80fd5b5061012e5f5481565b60405190815260200161008d565b348015610147575f80fd5b506101506103b3565b604080519384526001600160a01b0390921660208401529082015260600161008d565b5f6001600160e01b031982166301ffc9a760e01b14806101a357506001600160e01b0319821663581a066560e11b145b806101be57506001600160e01b03198216630b135d3f60e11b145b92915050565b5f806101d86101d1610322565b858561040d565b905080156101f05750630b135d3f60e11b90506101be565b505f9392505050565b606061020433610480565b6102465760405162461bcd60e51b815260206004820152600e60248201526d24b73b30b634b21039b4b3b732b960911b60448201526064015b60405180910390fd5b60ff8216156102975760405162461bcd60e51b815260206004820152601e60248201527f4f6e6c792063616c6c206f7065726174696f6e7320737570706f727465640000604482015260640161023d565b5f8081546102a49061087e565b919050819055505f866001600160a01b03168686866040516102c79291906108a2565b5f6040518083038185875af1925050503d805f8114610301576040519150601f19603f3d011682016040523d82523d5f602084013e610306565b606091505b50925090508061031857815160208301fd5b5095945050505050565b5f805f8061032e6103b3565b925092509250468314610344575f935050505090565b6040516331a9108f60e11b8152600481018290526001600160a01b03831690636352211e90602401602060405180830381865afa158015610387573d5f803e3d5ffd5b505050506040513d601f19601f820116820180604052508101906103ab91906108b1565b935050505090565b60408051608080825260a082019092525f91829182918291906020820181803683370190505090506080602d60208301303c5f805f838060200190518101906103fc91906108cc565b919a90995090975095505050505050565b5f836001600160a01b03163b5f0361046b575f8061042b85856104a4565b5090925090505f81600381111561044457610444610909565b1480156104625750856001600160a01b0316826001600160a01b0316145b92505050610479565b6104768484846104ed565b90505b9392505050565b5f610489610322565b6001600160a01b0316826001600160a01b0316149050919050565b5f805f83516041036104db576020840151604085015160608601515f1a6104cd888285856105c4565b9550955095505050506104e6565b505081515f91506002905b9250925092565b5f805f856001600160a01b0316858560405160240161050d92919061091d565b60408051601f198184030181529181526020820180516001600160e01b0316630b135d3f60e11b17905251610542919061093d565b5f60405180830381855afa9150503d805f811461057a576040519150601f19603f3d011682016040523d82523d5f602084013e61057f565b606091505b509150915081801561059357506020815110155b80156105ba57508051630b135d3f60e11b906105b89083016020908101908401610953565b145b9695505050505050565b5f80807f7fffffffffffffffffffffffffffffff5d576e7357a4501ddfe92f46681b20a08411156105fd57505f91506003905082610682565b604080515f808252602082018084528a905260ff891692820192909252606081018790526080810186905260019060a0016020604051602081039080840390855afa15801561064e573d5f803e3d5ffd5b5050604051601f1901519150506001600160a01b03811661067957505f925060019150829050610682565b92505f91508190505b9450945094915050565b5f6020828403121561069c575f80fd5b81356001600160e01b031981168114610479575f80fd5b634e487b7160e01b5f52604160045260245ffd5b5f80604083850312156106d8575f80fd5b82359150602083013567ffffffffffffffff8111156106f5575f80fd5b8301601f81018513610705575f80fd5b803567ffffffffffffffff81111561071f5761071f6106b3565b604051601f8201601f19908116603f0116810167ffffffffffffffff8111828210171561074e5761074e6106b3565b604052818152828201602001871015610765575f80fd5b816020840160208301375f602083830101528093505050509250929050565b6001600160a01b0381168114610798575f80fd5b50565b5f805f805f608086880312156107af575f80fd5b85356107ba81610784565b945060208601359350604086013567ffffffffffffffff8111156107dc575f80fd5b8601601f810188136107ec575f80fd5b803567ffffffffffffffff811115610802575f80fd5b886020828401011115610813575f80fd5b60209190910193509150606086013560ff81168114610830575f80fd5b809150509295509295909350565b5f81518084528060208401602086015e5f602082860101526020601f19601f83011685010191505092915050565b602081525f610479602083018461083e565b5f6001820161089b57634e487b7160e01b5f52601160045260245ffd5b5060010190565b818382375f9101908152919050565b5f602082840312156108c1575f80fd5b815161047981610784565b5f805f80608085870312156108df575f80fd5b84516020860151604087015191955093506108f981610784565b6060959095015193969295505050565b634e487b7160e01b5f52602160045260245ffd5b828152604060208201525f610935604083018461083e565b949350505050565b5f82518060208501845e5f920191825250919050565b5f60208284031215610963575f80fd5b505191905056fea2646970667358221220ddc6b7e455edd8c46a64754345aabafdae21b7cd1b7a7cf07474768d6ac6db2e64736f6c634300081a0033",
  "linkReferences": {},
  "deployedLinkReferences": {}
}