{
  "_format": "hh-sol-artifact-1",
  "contractName": "UniswapIntegration",
  "sourceName": "contracts/UniswapIntegration.sol",
  "abi": [
    {
      "inputs": [
        {
          "internalType": "address",
          "name": "_swapRouter",
          "type": "address"
        }
      ],
      "stateMutability": "nonpayable",
      "type": "constructor"
    },
    {
      "inputs": [
        {
          "internalType": "address",
          "name": "token",
          "type": "address"
        }
      ],
      "name": "SafeERC20FailedOperation",
      "type": "error"
    },
    {
      "inputs": [
        {
          "internalType": "address",
          "name": "tokenIn",
          "type": "address"
        },
        {
          "internalType": "address",
          "name": "tokenOut",
          "type": "address"
        },
        {
          "internalType": "uint24",
          "name": "poolFee",
          "type": "uint24"
        },
        {
          "internalType": "uint256",
          "name": "amountIn",
          "type": "uint256"
        }
      ],
      "name": "swapExactInputSingle",
      "outputs": [
        {
          "internalType": "uint256",
          "name": "amountOut",
          "type": "uint256"
        }
      ],
      "stateMutability": "nonpayable",
      "type": "function"
    },
    {
      "inputs": [],
      "name": "swapRouter",
      "outputs": [
        {
          "internalType": "contract IUniswapV3Router",
          "name": "",
          "type": "address"
        }
      ],
      "stateMutability": "view",
      "type": "function"
    }
  ],
  "bytecode": "0x60a0604052348015600e575f80fd5b5060405161052d38038061052d833981016040819052602b91603b565b6001600160a01b03166080526066565b5f60208284031215604a575f80fd5b81516001600160a01b0381168114605f575f80fd5b9392505050565b6080516104a361008a5f395f8181603d0152818160c2015261014101526104a35ff3fe608060405234801561000f575f80fd5b5060043610610034575f3560e01c8063c31c9c0714610038578063dfd000551461007c575b5f80fd5b61005f7f000000000000000000000000000000000000000000000000000000000000000081565b6040516001600160a01b0390911681526020015b60405180910390f35b61008f61008a366004610388565b61009d565b604051908152602001610073565b5f6100b36001600160a01b0386163330856101c0565b6100e76001600160a01b0386167f00000000000000000000000000000000000000000000000000000000000000008461022d565b60408051610100810182526001600160a01b038088168252868116602083015262ffffff86168284015233606083015242608083015260a082018590525f60c0830181905260e0830152915163414bf38960e01b815290917f0000000000000000000000000000000000000000000000000000000000000000169063414bf389906101769084906004016103d9565b6020604051808303815f875af1158015610192573d5f803e3d5ffd5b505050506040513d601f19601f820116820180604052508101906101b69190610456565b9695505050505050565b6040516001600160a01b0384811660248301528381166044830152606482018390526102279186918216906323b872dd906084015b604051602081830303815290604052915060e01b6020820180516001600160e01b0383818316178352505050506102b8565b50505050565b604080516001600160a01b038416602482015260448082018490528251808303909101815260649091019091526020810180516001600160e01b031663095ea7b360e01b17905261027e8482610328565b610227576040516001600160a01b0384811660248301525f60448301526102b291869182169063095ea7b3906064016101f5565b61022784825b5f8060205f8451602086015f885af1806102d7576040513d5f823e3d81fd5b50505f513d915081156102ee5780600114156102fb565b6001600160a01b0384163b155b1561022757604051635274afe760e01b81526001600160a01b038516600482015260240160405180910390fd5b5f805f8060205f8651602088015f8a5af192503d91505f5190508280156101b65750811561035957806001146101b6565b50505050506001600160a01b03163b151590565b80356001600160a01b0381168114610383575f80fd5b919050565b5f805f806080858703121561039b575f80fd5b6103a48561036d565b93506103b26020860161036d565b9250604085013562ffffff811681146103c9575f80fd5b9396929550929360600135925050565b81516001600160a01b03908116825260208084015182169083015260408084015162ffffff169083015260608084015191821690830152610100820190506080830151608083015260a083015160a083015260c083015160c083015260e083015161044f60e08401826001600160a01b03169052565b5092915050565b5f60208284031215610466575f80fd5b505191905056fea2646970667358221220d6fb2b9e3d4ec7a5f3cc890c6e1ddbe5ce4d60eaf93fd95ca7245ae6c200d1f964736f6c634300081a0033",
  "linkReferences": {},
  "deployedLinkReferences": {}
}