{
  "_format": "hh-sol-artifact-1",
  "contractName": "ERC6551Registry",
  "sourceName": "contracts/ERC6551Registry.sol",
  "abi": [
    {
      "inputs": [],
      "name": "InitializationFailed",
      "type": "error"
    },
    {
      "anonymous": false,
      "inputs": [
        {
          "indexed": false,
          "internalType": "address",
          "name": "account",
          "type": "address"
        },
        {
          "indexed": true,
          "internalType": "address",
          "name": "implementation",
          "type": "address"
        },
        {
          "indexed": false,
          "internalType": "bytes32",
          "name": "salt",
          "type": "bytes32"
        },
        {
          "indexed": false,
          "internalType": "uint256",
          "name": "chainId",
          "type": "uint256"
        },
        {
          "indexed": true,
          "internalType": "address",
          "name": "tokenContract",
          "type": "address"
        },
        {
          "indexed": true,
          "internalType": "uint256",
          "name": "tokenId",
          "type": "uint256"
        }
      ],
      "name": "AccountCreated",
      "type": "event"
    },
    {
      "inputs": [
        {
          "internalType": "address",
          "name": "implementation",
          "type": "address"
        },
        {
          "internalType": "bytes32",
          "name": "salt",
          "type": "bytes32"
        },
        {
          "internalType": "uint256",
          "name": "chainId",
          "type": "uint256"
        },
        {
          "internalType": "address",
          "name": "tokenContract",
          "type": "address"
        },
        {
          "internalType": "uint256",
          "name": "tokenId",
          "type": "uint256"
        }
      ],
      "name": "account",
      "outputs": [
        {
          "internalType": "address",
          "name": "",
          "type": "address"
        }
      ],
      "stateMutability": "view",
      "type": "function"
    },
    {
      "inputs": [
        {
          "internalType": "address",
          "name": "implementation",
          "type": "address"
        },
        {
          "internalType": "bytes32",
          "name": "salt",
          "type": "bytes32"
        },
        {
          "internalType": "uint256",
          "name": "chainId",
          "type": "uint256"
        },
        {
          "internalType": "address",
          "name": "tokenContract",
          "type": "address"
        },
        {
          "internalType": "uint256",
          "name": "tokenId",
          "type": "uint256"
        }
      ],
      "name": "createAccount",
      "outputs": [
        {
          "internalType": "address",
          "name": "",
          "type": "address"
        }
      ],
      "stateMutability": "payable",
      "type": "function"
    }
  ],
  "bytecode": "0x6080604052348015600e575f80fd5b506103208061001c5f395ff3fe608060405260043610610028575f3560e01c8063246a00211461002c5780638a54c52f14610067575b5f80fd5b348015610037575f80fd5b5061004b610046366004610237565b61007a565b6040516001600160a01b03909116815260200160405180910390f35b61004b610075366004610237565b6100a9565b5f80610089878686868a61016e565b905061009c8682805190602001206101d7565b9150505b95945050505050565b5f806100b8878686868a61016e565b90505f6100cc8783805190602001206101d7565b90506001600160a01b0381163b156100e75791506100a09050565b604080516001600160a01b038381168252602082018a9052918101889052859180881691908b16907f77a6e51acdcdd8fb360052caa24a303002a4005b1528166bfd71c1b1a2036a8d9060600160405180910390a48682516020840134f590506001600160a01b03811661009c57604051630337323560e31b815260040160405180910390fd5b60408051602081018390529081018590526001600160a01b0384166060828101919091526080820184905290869060a00160408051601f19818403018152908290526101bd9291602001610281565b604051602081830303815290604052905095945050505050565b5f6101e38383306101ea565b9392505050565b5f604051836040820152846020820152828152600b8101905060ff8153605590206001600160a01b0316949350505050565b80356001600160a01b0381168114610232575f80fd5b919050565b5f805f805f60a0868803121561024b575f80fd5b6102548661021c565b945060208601359350604086013592506102706060870161021c565b949793965091946080013592915050565b733d60ad80600a3d3981f3363d3d373d3d3d363d7360601b8152606083901b6bffffffffffffffffffffffff191660148201526e5af43d82803e903d91602b57fd5bf360881b602882015281515f908060208501603785015e5f9201603701918252509291505056fea26469706673582212207877829dc1b83a5e426f4529eea8cc0d2d923e958039d727a80aceb0006f030664736f6c634300081a0033",
  "linkReferences": {},
  "deployedLinkReferences": {}
}