{
  "_format": "hh-sol-artifact-1",
  "contractName": "Adventurer",
  "sourceName": "contracts/Adventurer.sol",
  "abi": [
    {
      "inputs": [],
      "stateMutability": "nonpayable",
      "type": "constructor"
    },
    {
      "inputs": [
        {
          "internalType": "address",
          "name": "target",
          "type": "address"
        }
      ],
      "name": "AddressEmptyCode",
      "type": "error"
    },
    {
      "inputs": [],
      "name": "ECDSAInvalidSignature",
      "type": "error"
    },
    {
      "inputs": [
        {
          "internalType": "uint256",
          "name": "length",
          "type": "uint256"
        }
      ],
      "name": "ECDSAInvalidSignatureLength",
      "type": "error"
    },
    {
      "inputs": [
        {
          "internalType": "bytes32",
          "name": "s",
          "type": "bytes32"
        }
      ],
      "name": "ECDSAInvalidSignatureS",
      "type": "error"
    },
    {
      "inputs": [
        {
          "internalType": "address",
          "name": "implementation",
          "type": "address"
        }
      ],
      "name": "ERC1967InvalidImplementation",
      "type": "error"
    },
    {
      "inputs": [],
      "name": "ERC1967NonPayable",
      "type": "error"
    },
    {
      "inputs": [
        {
          "internalType": "address",
          "name": "sender",
          "type": "address"
        },
        {
          "internalType": "uint256",
          "name": "tokenId",
          "type": "uint256"
        },
        {
          "internalType": "address",
          "name": "owner",
          "type": "address"
        }
      ],
      "name": "ERC721IncorrectOwner",
      "type": "error"
    },
    {
      "inputs": [
        {
          "internalType": "address",
          "name": "operator",
          "type": "address"
        },
        {
          "internalType": "uint256",
          "name": "tokenId",
          "type": "uint256"
        }
      ],
      "name": "ERC721InsufficientApproval",
      "type": "error"
    },
    {
      "inputs": [
        {
          "internalType": "address",
          "name": "approver",
          "type": "address"
        }
      ],
      "name": "ERC721InvalidApprover",
      "type": "error"
    },
    {
      "inputs": [
        {
          "internalType": "address",
          "name": "operator",
          "type": "address"
        }
      ],
      "name": "ERC721InvalidOperator",
      "type": "error"
    },
    {
      "inputs": [
        {
          "internalType": "address",
          "name": "owner",
          "type": "address"
        }
      ],
      "name": "ERC721InvalidOwner",
      "type": "error"
    },
    {
      "inputs": [
        {
          "internalType": "address",
          "name": "receiver",
          "type": "address"
        }
      ],
      "name": "ERC721InvalidReceiver",
      "type": "error"
    },
    {
      "inputs": [
        {
          "internalType": "address",
          "name": "sender",
          "type": "address"
        }
      ],
      "name": "ERC721InvalidSender",
      "type": "error"
    },
    {
      "inputs": [
        {
          "internalType": "uint256",
          "name": "tokenId",
          "type": "uint256"
        }
      ],
      "name": "ERC721NonexistentToken",
      "type": "error"
    },
    {
      "inputs": [],
      "name": "FailedCall",
      "type": "error"
    },
    {
      "inputs": [],
      "name": "InvalidInitialization",
      "type": "error"
    },
    {
      "inputs": [],
      "name": "NotInitializing",
      "type": "error"
    },
    {
      "inputs": [
        {
          "internalType": "address",
          "name": "owner",
          "type": "address"
        }
      ],
      "name": "OwnableInvalidOwner",
      "type": "error"
    },
    {
      "inputs": [
        {
          "internalType": "address",
          "name": "account",
          "type": "address"
        }
      ],
      "name": "OwnableUnauthorizedAccount",
      "type": "error"
    },
    {
      "inputs": [],
      "name": "UUPSUnauthorizedCallContext",
      "type": "error"
    },
    {
      "inputs": [
        {
          "internalType": "bytes32",
          "name": "slot",
          "type": "bytes32"
        }
      ],
      "name": "UUPSUnsupportedProxiableUUID",
      "type": "error"
    },
    {
      "anonymous": false,
      "inputs": [
        {
          "indexed": true,
          "internalType": "address",
          "name": "owner",
          "type": "address"
        },
        {
          "indexed": true,
          "internalType": "address",
          "name": "approved",
          "type": "address"
        },
        {
          "indexed": true,
          "internalType": "uint256",
          "name": "tokenId",
          "type": "uint256"
        }
      ],
      "name": "Approval",
      "type": "event"
    },
    {
      "anonymous": false,
      "inputs": [
        {
          "indexed": true,
          "internalType": "address",
          "name": "owner",
          "type": "address"
        },
        {
          "indexed": true,
          "internalType": "address",
          "name": "operator",
          "type": "address"
        },
        {
          "indexed": false,
          "internalType": "bool",
          "name": "approved",
          "type": "bool"
        }
      ],
      "name": "ApprovalForAll",
      "type": "event"
    },
    {
      "anonymous": false,
      "inputs": [
        {
          "indexed": false,
          "internalType": "uint256",
          "name": "_fromTokenId",
          "type": "uint256"
        },
        {
          "indexed": false,
          "internalType": "uint256",
          "name": "_toTokenId",
          "type": "uint256"
        }
      ],
      "name": "BatchMetadataUpdate",
      "type": "event"
    },
    {
      "anonymous": false,
      "inputs": [
        {
          "indexed": false,
          "internalType": "address",
          "name": "tavernKeeper",
          "type": "address"
        },
        {
          "indexed": false,
          "internalType": "address",
          "name": "registry",
          "type": "address"
        },
        {
          "indexed": false,
          "internalType": "address",
          "name": "accountImpl",
          "type": "address"
        }
      ],
      "name": "ContractsUpdated",
      "type": "event"
    },
    {
      "anonymous": false,
      "inputs": [
        {
          "indexed": true,
          "internalType": "address",
          "name": "to",
          "type": "address"
        },
        {
          "indexed": false,
          "internalType": "uint256",
          "name": "amount",
          "type": "uint256"
        }
      ],
      "name": "FundsWithdrawn",
      "type": "event"
    },
    {
      "anonymous": false,
      "inputs": [
        {
          "indexed": true,
          "internalType": "uint256",
          "name": "tavernKeeperId",
          "type": "uint256"
        },
        {
          "indexed": true,
          "internalType": "uint256",
          "name": "heroTokenId",
          "type": "uint256"
        },
        {
          "indexed": true,
          "internalType": "address",
          "name": "tba",
          "type": "address"
        }
      ],
      "name": "HeroClaimed",
      "type": "event"
    },
    {
      "anonymous": false,
      "inputs": [
        {
          "indexed": true,
          "internalType": "address",
          "name": "to",
          "type": "address"
        },
        {
          "indexed": true,
          "internalType": "uint256",
          "name": "tokenId",
          "type": "uint256"
        },
        {
          "indexed": false,
          "internalType": "string",
          "name": "metadataUri",
          "type": "string"
        }
      ],
      "name": "HeroMinted",
      "type": "event"
    },
    {
      "anonymous": false,
      "inputs": [
        {
          "indexed": true,
          "internalType": "address",
          "name": "to",
          "type": "address"
        },
        {
          "indexed": true,
          "internalType": "uint256",
          "name": "tokenId",
          "type": "uint256"
        }
      ],
      "name": "HeroMintedWhitelist",
      "type": "event"
    },
    {
      "anonymous": false,
      "inputs": [
        {
          "indexed": true,
          "internalType": "address",
          "name": "to",
          "type": "address"
        },
        {
          "indexed": true,
          "internalType": "uint256",
          "name": "tokenId",
          "type": "uint256"
        },
        {
          "indexed": false,
          "internalType": "uint256",
          "name": "price",
          "type": "uint256"
        },
        {
          "indexed": false,
          "internalType": "uint256",
          "name": "nonce",
          "type": "uint256"
        }
      ],
      "name": "HeroMintedWithSignature",
      "type": "event"
    },
    {
      "anonymous": false,
      "inputs": [
        {
          "indexed": false,
          "internalType": "uint64",
          "name": "version",
          "type": "uint64"
        }
      ],
      "name": "Initialized",
      "type": "event"
    },
    {
      "anonymous": false,
      "inputs": [
        {
          "indexed": false,
          "internalType": "uint256",
          "name": "_tokenId",
          "type": "uint256"
        }
      ],
      "name": "MetadataUpdate",
      "type": "event"
    },
    {
      "anonymous": false,
      "inputs": [
        {
          "indexed": true,
          "internalType": "uint256",
          "name": "tokenId",
          "type": "uint256"
        },
        {
          "indexed": false,
          "internalType": "string",
          "name": "newUri",
          "type": "string"
        }
      ],
      "name": "MetadataUpdated",
      "type": "event"
    },
    {
      "anonymous": false,
      "inputs": [
        {
          "indexed": true,
          "internalType": "address",
          "name": "previousOwner",
          "type": "address"
        },
        {
          "indexed": true,
          "internalType": "address",
          "name": "newOwner",
          "type": "address"
        }
      ],
      "name": "OwnershipTransferred",
      "type": "event"
    },
    {
      "anonymous": false,
      "inputs": [
        {
          "indexed": false,
          "internalType": "bool",
          "name": "enabled",
          "type": "bool"
        }
      ],
      "name": "PublicMintingToggled",
      "type": "event"
    },
    {
      "anonymous": false,
      "inputs": [
        {
          "indexed": false,
          "internalType": "address",
          "name": "newSigner",
          "type": "address"
        }
      ],
      "name": "SignerUpdated",
      "type": "event"
    },
    {
      "anonymous": false,
      "inputs": [
        {
          "indexed": false,
          "internalType": "uint256",
          "name": "t1",
          "type": "uint256"
        },
        {
          "indexed": false,
          "internalType": "uint256",
          "name": "t2",
          "type": "uint256"
        },
        {
          "indexed": false,
          "internalType": "uint256",
          "name": "t3",
          "type": "uint256"
        }
      ],
      "name": "TierPricesUpdated",
      "type": "event"
    },
    {
      "anonymous": false,
      "inputs": [
        {
          "indexed": true,
          "internalType": "address",
          "name": "from",
          "type": "address"
        },
        {
          "indexed": true,
          "internalType": "address",
          "name": "to",
          "type": "address"
        },
        {
          "indexed": true,
          "internalType": "uint256",
          "name": "tokenId",
          "type": "uint256"
        }
      ],
      "name": "Transfer",
      "type": "event"
    },
    {
      "anonymous": false,
      "inputs": [
        {
          "indexed": true,
          "internalType": "address",
          "name": "oldTreasury",
          "type": "address"
        },
        {
          "indexed": true,
          "internalType": "address",
          "name": "newTreasury",
          "type": "address"
        }
      ],
      "name": "TreasuryUpdated",
      "type": "event"
    },
    {
      "anonymous": false,
      "inputs": [
        {
          "indexed": true,
          "internalType": "address",
          "name": "implementation",
          "type": "address"
        }
      ],
      "name": "Upgraded",
      "type": "event"
    },
    {
      "anonymous": false,
      "inputs": [
        {
          "indexed": true,
          "internalType": "address",
          "name": "account",
          "type": "address"
        },
        {
          "indexed": false,
          "internalType": "bool",
          "name": "isWhitelisted",
          "type": "bool"
        }
      ],
      "name": "WhitelistUpdated",
      "type": "event"
    },
    {
      "inputs": [],
      "name": "TIER1_MAX_ID",
      "outputs": [
        {
          "internalType": "uint256",
          "name": "",
          "type": "uint256"
        }
      ],
      "stateMutability": "view",
      "type": "function"
    },
    {
      "inputs": [],
      "name": "TIER2_MAX_ID",
      "outputs": [
        {
          "internalType": "uint256",
          "name": "",
          "type": "uint256"
        }
      ],
      "stateMutability": "view",
      "type": "function"
    },
    {
      "inputs": [],
      "name": "UPGRADE_INTERFACE_VERSION",
      "outputs": [
        {
          "internalType": "string",
          "name": "",
          "type": "string"
        }
      ],
      "stateMutability": "view",
      "type": "function"
    },
    {
      "inputs": [
        {
          "internalType": "address",
          "name": "account",
          "type": "address"
        }
      ],
      "name": "addToWhitelist",
      "outputs": [],
      "stateMutability": "nonpayable",
      "type": "function"
    },
    {
      "inputs": [
        {
          "internalType": "address[]",
          "name": "accounts",
          "type": "address[]"
        }
      ],
      "name": "addToWhitelistBatch",
      "outputs": [],
      "stateMutability": "nonpayable",
      "type": "function"
    },
    {
      "inputs": [
        {
          "internalType": "address",
          "name": "to",
          "type": "address"
        },
        {
          "internalType": "uint256",
          "name": "tokenId",
          "type": "uint256"
        }
      ],
      "name": "approve",
      "outputs": [],
      "stateMutability": "nonpayable",
      "type": "function"
    },
    {
      "inputs": [
        {
          "internalType": "address",
          "name": "owner",
          "type": "address"
        }
      ],
      "name": "balanceOf",
      "outputs": [
        {
          "internalType": "uint256",
          "name": "",
          "type": "uint256"
        }
      ],
      "stateMutability": "view",
      "type": "function"
    },
    {
      "inputs": [
        {
          "internalType": "uint256",
          "name": "tavernKeeperTokenId",
          "type": "uint256"
        },
        {
          "internalType": "string",
          "name": "metadataUri",
          "type": "string"
        }
      ],
      "name": "claimFreeHero",
      "outputs": [
        {
          "internalType": "uint256",
          "name": "",
          "type": "uint256"
        }
      ],
      "stateMutability": "nonpayable",
      "type": "function"
    },
    {
      "inputs": [],
      "name": "erc6551AccountImpl",
      "outputs": [
        {
          "internalType": "address",
          "name": "",
          "type": "address"
        }
      ],
      "stateMutability": "view",
      "type": "function"
    },
    {
      "inputs": [],
      "name": "erc6551Registry",
      "outputs": [
        {
          "internalType": "address",
          "name": "",
          "type": "address"
        }
      ],
      "stateMutability": "view",
      "type": "function"
    },
    {
      "inputs": [
        {
          "internalType": "uint256",
          "name": "",
          "type": "uint256"
        }
      ],
      "name": "freeHeroClaimed",
      "outputs": [
        {
          "internalType": "bool",
          "name": "",
          "type": "bool"
        }
      ],
      "stateMutability": "view",
      "type": "function"
    },
    {
      "inputs": [
        {
          "internalType": "uint256",
          "name": "tokenId",
          "type": "uint256"
        }
      ],
      "name": "getApproved",
      "outputs": [
        {
          "internalType": "address",
          "name": "",
          "type": "address"
        }
      ],
      "stateMutability": "view",
      "type": "function"
    },
    {
      "inputs": [
        {
          "internalType": "uint256",
          "name": "tokenId",
          "type": "uint256"
        }
      ],
      "name": "getMintPrice",
      "outputs": [
        {
          "internalType": "uint256",
          "name": "",
          "type": "uint256"
        }
      ],
      "stateMutability": "view",
      "type": "function"
    },
    {
      "inputs": [
        {
          "internalType": "address",
          "name": "owner",
          "type": "address"
        }
      ],
      "name": "getTokensOfOwner",
      "outputs": [
        {
          "internalType": "uint256[]",
          "name": "",
          "type": "uint256[]"
        }
      ],
      "stateMutability": "view",
      "type": "function"
    },
    {
      "inputs": [],
      "name": "initialize",
      "outputs": [],
      "stateMutability": "nonpayable",
      "type": "function"
    },
    {
      "inputs": [],
      "name": "initializeRPG",
      "outputs": [],
      "stateMutability": "nonpayable",
      "type": "function"
    },
    {
      "inputs": [
        {
          "internalType": "address",
          "name": "owner",
          "type": "address"
        },
        {
          "internalType": "address",
          "name": "operator",
          "type": "address"
        }
      ],
      "name": "isApprovedForAll",
      "outputs": [
        {
          "internalType": "bool",
          "name": "",
          "type": "bool"
        }
      ],
      "stateMutability": "view",
      "type": "function"
    },
    {
      "inputs": [
        {
          "internalType": "address",
          "name": "to",
          "type": "address"
        },
        {
          "internalType": "string",
          "name": "metadataUri",
          "type": "string"
        },
        {
          "internalType": "uint256",
          "name": "amount",
          "type": "uint256"
        },
        {
          "internalType": "uint256",
          "name": "deadline",
          "type": "uint256"
        },
        {
          "internalType": "bytes",
          "name": "signature",
          "type": "bytes"
        }
      ],
      "name": "mintHero",
      "outputs": [
        {
          "internalType": "uint256",
          "name": "",
          "type": "uint256"
        }
      ],
      "stateMutability": "payable",
      "type": "function"
    },
    {
      "inputs": [
        {
          "internalType": "address",
          "name": "to",
          "type": "address"
        },
        {
          "internalType": "string",
          "name": "metadataUri",
          "type": "string"
        }
      ],
      "name": "mintHeroWhitelist",
      "outputs": [
        {
          "internalType": "uint256",
          "name": "",
          "type": "uint256"
        }
      ],
      "stateMutability": "nonpayable",
      "type": "function"
    },
    {
      "inputs": [],
      "name": "name",
      "outputs": [
        {
          "internalType": "string",
          "name": "",
          "type": "string"
        }
      ],
      "stateMutability": "view",
      "type": "function"
    },
    {
      "inputs": [
        {
          "internalType": "address",
          "name": "",
          "type": "address"
        }
      ],
      "name": "nonces",
      "outputs": [
        {
          "internalType": "uint256",
          "name": "",
          "type": "uint256"
        }
      ],
      "stateMutability": "view",
      "type": "function"
    },
    {
      "inputs": [],
      "name": "owner",
      "outputs": [
        {
          "internalType": "address",
          "name": "",
          "type": "address"
        }
      ],
      "stateMutability": "view",
      "type": "function"
    },
    {
      "inputs": [
        {
          "internalType": "uint256",
          "name": "tokenId",
          "type": "uint256"
        }
      ],
      "name": "ownerOf",
      "outputs": [
        {
          "internalType": "address",
          "name": "",
          "type": "address"
        }
      ],
      "stateMutability": "view",
      "type": "function"
    },
    {
      "inputs": [],
      "name": "proxiableUUID",
      "outputs": [
        {
          "internalType": "bytes32",
          "name": "",
          "type": "bytes32"
        }
      ],
      "stateMutability": "view",
      "type": "function"
    },
    {
      "inputs": [],
      "name": "publicMintingEnabled",
      "outputs": [
        {
          "internalType": "bool",
          "name": "",
          "type": "bool"
        }
      ],
      "stateMutability": "view",
      "type": "function"
    },
    {
      "inputs": [
        {
          "internalType": "address",
          "name": "account",
          "type": "address"
        }
      ],
      "name": "removeFromWhitelist",
      "outputs": [],
      "stateMutability": "nonpayable",
      "type": "function"
    },
    {
      "inputs": [],
      "name": "renounceOwnership",
      "outputs": [],
      "stateMutability": "nonpayable",
      "type": "function"
    },
    {
      "inputs": [
        {
          "internalType": "address",
          "name": "account",
          "type": "address"
        }
      ],
      "name": "resetWhitelistMinted",
      "outputs": [],
      "stateMutability": "nonpayable",
      "type": "function"
    },
    {
      "inputs": [
        {
          "internalType": "address",
          "name": "to",
          "type": "address"
        },
        {
          "internalType": "string",
          "name": "uri",
          "type": "string"
        }
      ],
      "name": "safeMint",
      "outputs": [
        {
          "internalType": "uint256",
          "name": "",
          "type": "uint256"
        }
      ],
      "stateMutability": "nonpayable",
      "type": "function"
    },
    {
      "inputs": [
        {
          "internalType": "address",
          "name": "from",
          "type": "address"
        },
        {
          "internalType": "address",
          "name": "to",
          "type": "address"
        },
        {
          "internalType": "uint256",
          "name": "tokenId",
          "type": "uint256"
        }
      ],
      "name": "safeTransferFrom",
      "outputs": [],
      "stateMutability": "nonpayable",
      "type": "function"
    },
    {
      "inputs": [
        {
          "internalType": "address",
          "name": "from",
          "type": "address"
        },
        {
          "internalType": "address",
          "name": "to",
          "type": "address"
        },
        {
          "internalType": "uint256",
          "name": "tokenId",
          "type": "uint256"
        },
        {
          "internalType": "bytes",
          "name": "data",
          "type": "bytes"
        }
      ],
      "name": "safeTransferFrom",
      "outputs": [],
      "stateMutability": "nonpayable",
      "type": "function"
    },
    {
      "inputs": [
        {
          "internalType": "address",
          "name": "operator",
          "type": "address"
        },
        {
          "internalType": "bool",
          "name": "approved",
          "type": "bool"
        }
      ],
      "name": "setApprovalForAll",
      "outputs": [],
      "stateMutability": "nonpayable",
      "type": "function"
    },
    {
      "inputs": [
        {
          "internalType": "address",
          "name": "_tavernKeeper",
          "type": "address"
        },
        {
          "internalType": "address",
          "name": "_registry",
          "type": "address"
        },
        {
          "internalType": "address",
          "name": "_accountImpl",
          "type": "address"
        }
      ],
      "name": "setContracts",
      "outputs": [],
      "stateMutability": "nonpayable",
      "type": "function"
    },
    {
      "inputs": [
        {
          "internalType": "bool",
          "name": "enabled",
          "type": "bool"
        }
      ],
      "name": "setPublicMintingEnabled",
      "outputs": [],
      "stateMutability": "nonpayable",
      "type": "function"
    },
    {
      "inputs": [
        {
          "internalType": "address",
          "name": "_signer",
          "type": "address"
        }
      ],
      "name": "setSigner",
      "outputs": [],
      "stateMutability": "nonpayable",
      "type": "function"
    },
    {
      "inputs": [
        {
          "internalType": "uint256",
          "name": "_t1",
          "type": "uint256"
        },
        {
          "internalType": "uint256",
          "name": "_t2",
          "type": "uint256"
        },
        {
          "internalType": "uint256",
          "name": "_t3",
          "type": "uint256"
        }
      ],
      "name": "setTierPrices",
      "outputs": [],
      "stateMutability": "nonpayable",
      "type": "function"
    },
    {
      "inputs": [
        {
          "internalType": "address",
          "name": "_treasury",
          "type": "address"
        }
      ],
      "name": "setTreasury",
      "outputs": [],
      "stateMutability": "nonpayable",
      "type": "function"
    },
    {
      "inputs": [],
      "name": "signer",
      "outputs": [
        {
          "internalType": "address",
          "name": "",
          "type": "address"
        }
      ],
      "stateMutability": "view",
      "type": "function"
    },
    {
      "inputs": [
        {
          "internalType": "bytes4",
          "name": "interfaceId",
          "type": "bytes4"
        }
      ],
      "name": "supportsInterface",
      "outputs": [
        {
          "internalType": "bool",
          "name": "",
          "type": "bool"
        }
      ],
      "stateMutability": "view",
      "type": "function"
    },
    {
      "inputs": [],
      "name": "symbol",
      "outputs": [
        {
          "internalType": "string",
          "name": "",
          "type": "string"
        }
      ],
      "stateMutability": "view",
      "type": "function"
    },
    {
      "inputs": [],
      "name": "tavernKeeperContract",
      "outputs": [
        {
          "internalType": "address",
          "name": "",
          "type": "address"
        }
      ],
      "stateMutability": "view",
      "type": "function"
    },
    {
      "inputs": [],
      "name": "tier1Price",
      "outputs": [
        {
          "internalType": "uint256",
          "name": "",
          "type": "uint256"
        }
      ],
      "stateMutability": "view",
      "type": "function"
    },
    {
      "inputs": [],
      "name": "tier2Price",
      "outputs": [
        {
          "internalType": "uint256",
          "name": "",
          "type": "uint256"
        }
      ],
      "stateMutability": "view",
      "type": "function"
    },
    {
      "inputs": [],
      "name": "tier3Price",
      "outputs": [
        {
          "internalType": "uint256",
          "name": "",
          "type": "uint256"
        }
      ],
      "stateMutability": "view",
      "type": "function"
    },
    {
      "inputs": [
        {
          "internalType": "uint256",
          "name": "tokenId",
          "type": "uint256"
        }
      ],
      "name": "tokenURI",
      "outputs": [
        {
          "internalType": "string",
          "name": "",
          "type": "string"
        }
      ],
      "stateMutability": "view",
      "type": "function"
    },
    {
      "inputs": [
        {
          "internalType": "address",
          "name": "from",
          "type": "address"
        },
        {
          "internalType": "address",
          "name": "to",
          "type": "address"
        },
        {
          "internalType": "uint256",
          "name": "tokenId",
          "type": "uint256"
        }
      ],
      "name": "transferFrom",
      "outputs": [],
      "stateMutability": "nonpayable",
      "type": "function"
    },
    {
      "inputs": [
        {
          "internalType": "address",
          "name": "newOwner",
          "type": "address"
        }
      ],
      "name": "transferOwnership",
      "outputs": [],
      "stateMutability": "nonpayable",
      "type": "function"
    },
    {
      "inputs": [],
      "name": "treasury",
      "outputs": [
        {
          "internalType": "address",
          "name": "",
          "type": "address"
        }
      ],
      "stateMutability": "view",
      "type": "function"
    },
    {
      "inputs": [
        {
          "internalType": "uint256",
          "name": "tokenId",
          "type": "uint256"
        },
        {
          "internalType": "string",
          "name": "newUri",
          "type": "string"
        }
      ],
      "name": "updateTokenURI",
      "outputs": [],
      "stateMutability": "nonpayable",
      "type": "function"
    },
    {
      "inputs": [
        {
          "internalType": "address",
          "name": "newImplementation",
          "type": "address"
        },
        {
          "internalType": "bytes",
          "name": "data",
          "type": "bytes"
        }
      ],
      "name": "upgradeToAndCall",
      "outputs": [],
      "stateMutability": "payable",
      "type": "function"
    },
    {
      "inputs": [
        {
          "internalType": "address",
          "name": "",
          "type": "address"
        }
      ],
      "name": "whitelist",
      "outputs": [
        {
          "internalType": "bool",
          "name": "",
          "type": "bool"
        }
      ],
      "stateMutability": "view",
      "type": "function"
    },
    {
      "inputs": [
        {
          "internalType": "address",
          "name": "",
          "type": "address"
        }
      ],
      "name": "whitelistMinted",
      "outputs": [
        {
          "internalType": "bool",
          "name": "",
          "type": "bool"
        }
      ],
      "stateMutability": "view",
      "type": "function"
    },
    {
      "inputs": [],
      "name": "withdrawFunds",
      "outputs": [],
      "stateMutability": "nonpayable",
      "type": "function"
    }
  ],
  "bytecode": "0x60a080604052346100e857306080527ff0c57e16840df040f15088dc2f81fe391c3923bec73e23a9662efc9c229c6a005460ff8160401c166100d9576002600160401b03196001600160401b03821601610073575b6040516131a790816100ed82396080518181816116a701526117380152f35b6001600160401b0319166001600160401b039081177ff0c57e16840df040f15088dc2f81fe391c3923bec73e23a9662efc9c229c6a005581527fc7f505b2f371ae2175ee4913f4499e1f2633a7b5936321eed1cdaeb6115181d290602090a15f80610054565b63f92ee8a960e01b5f5260045ffd5b5f80fdfe6080806040526004361015610012575f80fd5b5f3560e01c90816301ffc9a71461224f57508063056d5afe1461222757806306fdde031461217d578063081812fc14612134578063095ea7b3146120485780631835dbe614611fe657806318e97fd114611f205780631fa2a6ae14611ebc578063238ac93314611e9457806323b872dd14611e7d57806324600fc314611d5f5780632d72c99f14611d445780632dfe52501461193157806342842e0e14611902578063439d8f4e146118e55780634a079215146118c85780634f1ef286146116fb57806352d1902d14611695578063559e775b1461167a5780635de6dc551461155857806361d027b3146115305780636352211e146115005780636c19e783146114515780636e0e0f811461142257806370a08231146113f7578063715018a6146113905780637ecebe00146113585780638129fc1c14610eb2578063889bb00f14610e095780638ab1d68114610db15780638da5cb5b14610d7d5780638dec9f7a14610d5b57806395d89b4114610c7957806398a8cffe14610c3c5780639b19251a14610bff578063a22cb46514610b67578063a617713914610a7a578063ad3cb1cc14610a33578063b3066d491461096e578063b5d3b8ae14610952578063b88d4fde146108f8578063be99b88f146106a4578063c87b56dd1461066d578063c940f4c814610615578063ce0ebab1146105ed578063d204c45e14610563578063e43252d7146104fd578063e985e9c5146104b1578063ec0213311461038f578063f0f44260146102d7578063f2c2454a146102af578063f2fde38b146102845763fb8b51a014610263575f80fd5b34610280575f366003190112610280576020600254604051908152f35b5f80fd5b34610280576020366003190112610280576102ad6102a06122f8565b6102a86128df565b61283f565b005b34610280575f366003190112610280576007546040516001600160a01b039091168152602090f35b34610280576020366003190112610280576102f06122f8565b6102f86128df565b6001600160a01b0316801561034a57600b80546001600160a01b0319811683179091556001600160a01b03167f4ab5be82436d353e61ca18726e984e561f5c1cc7c6d38b29d2553c790434705a5f80a3005b60405162461bcd60e51b815260206004820152601860248201527f496e76616c6964207472656173757279206164647265737300000000000000006044820152606490fd5b346102805761039d3661248d565b90335f52600c60205260ff60405f2054161561047a57335f52600d60205260ff60405f20541661044457816103d6602093511515612504565b335f52600d835260405f20600160ff1982541617905561040d5f54916103fb8361276a565b5f556104078385612ad0565b8261294b565b6040519181906001600160a01b03167f34f1204130ca9728a5aad54715eaedc6ec877b51292c28022cd5db35c8dc136d5f80a38152f35b60405162461bcd60e51b815260206004820152600e60248201526d105b1c9958591e481b5a5b9d195960921b6044820152606490fd5b60405162461bcd60e51b815260206004820152600f60248201526e139bdd081dda1a5d195b1a5cdd1959608a1b6044820152606490fd5b34610280576040366003190112610280576104ca6122f8565b6104db6104d561230e565b9161241d565b9060018060a01b03165f52602052602060ff60405f2054166040519015158152f35b34610280576020366003190112610280576105166122f8565b61051e6128df565b6001600160a01b03166105328115156127e2565b805f52600c60205260405f20600160ff198254161790555f80516020613152833981519152602060405160018152a2005b346102805760206105e26105763661248d565b61057e6128df565b7f3106bdf16888d22e9467849f0285221a7a088f57cca491fb82ddfa8e7f207d515f549384936105ad8561276a565b5f556105b98582612ad0565b6105c3848661294b565b6040518781526001600160a01b039091169390918291888301906122d4565b0390a3604051908152f35b34610280575f366003190112610280576005546040516001600160a01b039091168152602090f35b346102805760203660031901126102805761062e6122f8565b6106366128df565b6001600160a01b03165f818152600d60209081526040808320805460ff19169055519182525f8051602061315283398151915291a2005b34610280576020366003190112610280576106a061068c600435612dd4565b6040519182916020835260208301906122d4565b0390f35b34610280576106b2366123b4565b6005546001600160a01b0316919082156108bf576040516331a9108f60e11b815260048101839052602081602481875afa908115610812575f916108a0575b50336001600160a01b039091160361086257815f52600860205260ff60405f20541661081d5760065460075460405163246a002160e01b81526001600160a01b0391821660048201525f6024820152466044820152606481019590955260848501849052602091859160a4918391165afa918215610812576020935f936107e3575b506107955f54926107838461276a565b5f5561078f8486612ad0565b8361294b565b5f818152600885526040808220805460ff1916600117905551936001600160a01b03169183917f7dd4240d60d08758a19cd2da08682fdacb50a969eaeb523bef0775056837b6739080a48152f35b610804919350843d861161080b575b6107fc8183612324565b810190612820565b9184610773565b503d6107f2565b6040513d5f823e3d90fd5b60405162461bcd60e51b815260206004820152601960248201527f46726565206865726f20616c726561647920636c61696d6564000000000000006044820152606490fd5b60405162461bcd60e51b81526020600482015260166024820152752737ba102a30bb32b93725b2b2b832b91037bbb732b960511b6044820152606490fd5b6108b9915060203d60201161080b576107fc8183612324565b846106f1565b60405162461bcd60e51b815260206004820152601160248201527010dbdb9d1c9858dd1cc81b9bdd081cd95d607a1b6044820152606490fd5b34610280576080366003190112610280576109116122f8565b61091961230e565b90604435606435926001600160401b038411610280576109406102ad943690600401612396565b9261094c838383612561565b33612cd7565b34610280575f3660031901126102805760206040516103e88152f35b34610280576060366003190112610280576109876122f8565b61098f61230e565b6044356001600160a01b038116929190839003610280577fe008bc55cceb8bb7dc36a3bbaa95481f36a3537e2b4cdc39770a19cf94e754a5926060926109d36128df565b60018060a01b031691826001600160601b0360a01b600554161760055560018060a01b0316806001600160601b0360a01b6006541617600655816001600160601b0360a01b600754161760075560405192835260208301526040820152a1005b34610280575f366003190112610280576106a0604051610a54604082612324565b60058152640352e302e360dc1b60208201526040519182916020835260208301906122d4565b34610280576020366003190112610280576004356001600160401b0381116102805736602382011215610280578060040135906001600160401b038211610280576024810190602436918460051b01011161028057610ad76128df565b5f5b828110610ae257005b600190610b0b6001600160a01b03610b03610afe8488886127be565b6127ce565b1615156127e2565b818060a01b03610b1f610afe8387876127be565b165f52600c60205260405f208260ff19825416179055818060a01b03610b49610afe8387876127be565b165f805160206131528339815191526020604051858152a201610ad9565b3461028057604036600319011261028057610b806122f8565b60243590811515809203610280576001600160a01b0316908115610bec57610ba73361241d565b825f5260205260405f2060ff1981541660ff83161790556040519081527f17307eab39ab6107e8899845ad3d59bd9653f200f220920489ca2b5937696c3160203392a3005b50630b61174360e31b5f5260045260245ffd5b34610280576020366003190112610280576001600160a01b03610c206122f8565b165f52600c602052602060ff60405f2054166040519015158152f35b34610280576020366003190112610280576001600160a01b03610c5d6122f8565b165f52600d602052602060ff60405f2054166040519015158152f35b34610280575f366003190112610280576040515f5f8051602061311283398151915254610ca5816124cc565b8084529060018116908115610d375750600114610ccd575b6106a08361068c81850382612324565b5f805160206131128339815191525f9081527ff4bad0a69248f59680a4f2b3000328cec71a413447c96781cfe5996daa8c456e939250905b808210610d1d5750909150810160200161068c610cbd565b919260018160209254838588010152019101909291610d05565b60ff191660208086019190915291151560051b8401909101915061068c9050610cbd565b34610280575f36600319011261028057602060ff600154166040519015158152f35b34610280575f366003190112610280575f80516020613092833981519152546040516001600160a01b039091168152602090f35b3461028057602036600319011261028057610dca6122f8565b610dd26128df565b6001600160a01b03165f818152600c60209081526040808320805460ff19169055519182525f8051602061315283398151915291a2005b34610280575f366003190112610280575f805160206130f28339815191525460ff8160401c16908115610e9d575b50610e8e575f805160206130f2833981519152805468ffffffffffffffffff191660029081179091556040519081527fc7f505b2f371ae2175ee4913f4499e1f2633a7b5936321eed1cdaeb6115181d290602090a1005b63f92ee8a960e01b5f5260045ffd5b600291506001600160401b0316101581610e37565b34610280575f366003190112610280575f805160206130f2833981519152546001600160401b0360ff8260401c1615911680159081611350575b6001149081611346575b15908161133d575b50610e8e578060016001600160401b03195f805160206130f28339815191525416175f805160206130f283398151915255611308575b604090815191610f448184612324565b601483527324b73725b2b2b832b91020b23b32b73a3ab932b960611b6020840152805191610f728284612324565b600a83526920a22b22a72a2aa922a960b11b6020840152610f91612f66565b610f99612f66565b83516001600160401b0381116111ef57610fc05f80516020613072833981519152546124cc565b601f8111611294575b50602094601f821160011461120e579481929394955f92611203575b50508160011b915f199060031b1c1916175f80516020613072833981519152555b82516001600160401b0381116111ef5761102d5f80516020613112833981519152546124cc565b601f8111611180575b506020601f821160011461110557819293945f926110fa575b50508160011b915f199060031b1c1916175f80516020613112833981519152555b611078612f66565b611080612f66565b611088612f66565b6110913361283f565b611099612f66565b60ff19600154166001556110a957005b60207fc7f505b2f371ae2175ee4913f4499e1f2633a7b5936321eed1cdaeb6115181d29160ff60401b195f805160206130f283398151915254165f805160206130f2833981519152555160018152a1005b01519050848061104f565b601f198216905f805160206131128339815191525f52805f20915f5b81811061116857509583600195969710611150575b505050811b015f8051602061311283398151915255611070565b01515f1960f88460031b161c19169055848080611136565b9192602060018192868b015181550194019201611121565b5f805160206131128339815191525f527ff4bad0a69248f59680a4f2b3000328cec71a413447c96781cfe5996daa8c456e601f830160051c810191602084106111e5575b601f0160051c01905b8181106111da5750611036565b5f81556001016111cd565b90915081906111c4565b634e487b7160e01b5f52604160045260245ffd5b015190508580610fe5565b601f198216955f805160206130728339815191525f525f80516020613132833981519152915f5b88811061127c57508360019596979810611264575b505050811b015f8051602061307283398151915255611006565b01515f1960f88460031b161c1916905585808061124a565b91926020600181928685015181550194019201611235565b5f805160206130728339815191525f52601f820160051c5f805160206131328339815191520190602083106112f3575b601f0160051c5f8051602061313283398151915201905b8181106112e85750610fc9565b5f81556001016112db565b5f8051602061313283398151915291506112c4565b6801000000000000000060ff60401b195f805160206130f28339815191525416175f805160206130f283398151915255610f34565b90501582610efe565b303b159150610ef6565b829150610eec565b34610280576020366003190112610280576001600160a01b036113796122f8565b165f52600a602052602060405f2054604051908152f35b34610280575f366003190112610280576113a86128df565b5f8051602061309283398151915280546001600160a01b031981169091555f906001600160a01b03167f8be0079c531659141344cd1fd0a4f28419497f9722a3daafe3b4186f6b6457e08280a3005b3461028057602036600319011261028057602061141a6114156122f8565b61278f565b604051908152f35b34610280576020366003190112610280576004355f526008602052602060ff60405f2054166040519015158152f35b346102805760203660031901126102805761146a6122f8565b6114726128df565b6001600160a01b031680156114c2576020817f5553331329228fbd4123164423717a4a7539f6dfa1c3279a923b98fd681a6c73926001600160601b0360a01b6009541617600955604051908152a1005b60405162461bcd60e51b8152602060048201526016602482015275496e76616c6964207369676e6572206164647265737360501b6044820152606490fd5b3461028057602036600319011261028057602061151e6004356128b0565b6040516001600160a01b039091168152f35b34610280575f36600319011261028057600b546040516001600160a01b039091168152602090f35b34610280576020366003190112610280576115716122f8565b61157a8161278f565b61158381612778565b6115906040519182612324565b81815261159c82612778565b602082019390601f19013685375f936001600160a01b039091169060015b84861080611670575b1561162c57826001600160a01b036115da83612912565b16146115ef575b6115ea9061276a565b6115ba565b94835181101561161857611610818760206115ea9460051b8801015261276a565b9590506115e1565b634e487b7160e01b5f52603260045260245ffd5b8184604051918291602083019060208452518091526040830191905f5b818110611657575050500390f35b8251845285945060209384019390920191600101611649565b505f5481106115c3565b346102805760203660031901126102805760206040515f8152f35b34610280575f366003190112610280577f00000000000000000000000000000000000000000000000000000000000000006001600160a01b031630036116ec5760206040515f805160206130b28339815191528152f35b63703e46dd60e11b5f5260045ffd5b60403660031901126102805761170f6122f8565b6024356001600160401b0381116102805761172e903690600401612396565b6001600160a01b037f0000000000000000000000000000000000000000000000000000000000000000163081149081156118a6575b506116ec576117706128df565b6040516352d1902d60e01b81526001600160a01b0383169290602081600481875afa5f9181611872575b506117b25783634c9c8ce360e01b5f5260045260245ffd5b805f805160206130b28339815191528592036118605750813b1561184e575f805160206130b283398151915280546001600160a01b031916821790557fbc7cd75a20ee27fd9adebab32041f755214dbc6bffa90cc0225b39da2e5c2d3b5f80a2815115611836575f808360206102ad95519101845af461183061273b565b91613013565b50503461183f57005b63b398979f60e01b5f5260045ffd5b634c9c8ce360e01b5f5260045260245ffd5b632a87526960e21b5f5260045260245ffd5b9091506020813d60201161189e575b8161188e60209383612324565b810103126102805751908561179a565b3d9150611881565b5f805160206130b2833981519152546001600160a01b03161415905083611763565b34610280575f366003190112610280576020600354604051908152f35b34610280575f366003190112610280576020600454604051908152f35b34610280576102ad611913366123e3565b9060405192611923602085612324565b5f845261094c838383612561565b60a0366003190112610280576119456122f8565b6024356001600160401b03811161028057611964903690600401612396565b6044356084356064356001600160401b0382116102805736602383011215610280578160040135916001600160401b0383116102805736602484830101116102805760ff6001541615611cf0576119bd85511515612504565b6009546001600160a01b0316928315611cba57824211611c8157611a65611a6b92611a7494335f52600a60205260405f2054906040519060208201923360601b84528a6034840152605483015260748201524660948201523060601b60b482015260a88152611a2d60c882612324565b5190207f19457468657265756d205369676e6564204d6573736167653a0a3332000000005f52601c52603c5f20926024369201612360565b90612eb8565b90929192612ef2565b6001600160a01b031603611c4857335f52600a60205260405f20611a98815461276a565b9055803403611c035780611b26575b611ab65f54926107838461276a565b335f52600a60205260405f2054905f198201918211611b12577f52b49b88b3889aa90c8985a5db5aee54314c9e5ee4a980b2a83af2a16d0c19f86040602095859482519485528785015260018060a01b031692a3604051908152f35b634e487b7160e01b5f52601160045260245ffd5b600b546001600160a01b031615611b9b575f8080808460018060a01b03600b54165af1611b5161273b565b50611aa75760405162461bcd60e51b815260206004820152601860248201527f5472656173757279207472616e73666572206661696c656400000000000000006044820152606490fd5b5f8080808460018060a01b035f8051602061309283398151915254165af1611bc161273b565b50611aa75760405162461bcd60e51b815260206004820152601560248201527413dddb995c881d1c985b9cd9995c8819985a5b1959605a1b6044820152606490fd5b60405162461bcd60e51b815260206004820152601860248201527f496e636f7272656374207061796d656e7420616d6f756e7400000000000000006044820152606490fd5b60405162461bcd60e51b8152602060048201526011602482015270496e76616c6964207369676e617475726560781b6044820152606490fd5b60405162461bcd60e51b815260206004820152601160248201527014da59db985d1d5c9948195e1c1a5c9959607a1b6044820152606490fd5b60405162461bcd60e51b815260206004820152600e60248201526d14da59db995c881b9bdd081cd95d60921b6044820152606490fd5b60405162461bcd60e51b815260206004820152602660248201527f416476656e74757265723a205075626c6963206d696e74696e672069732064696044820152651cd8589b195960d21b6064820152608490fd5b34610280575f36600319011261028057602060405160648152f35b34610280575f36600319011261028057611d776128df565b478015611e4157600b546001600160a01b03168015611e23575b6001600160a01b0316905f80808084865af1611dab61273b565b5015611dde5760207feaff4b37086828766ad3268786972c0cd24259d4c87a80f9d3963a3c3d999b0d91604051908152a2005b60405162461bcd60e51b815260206004820152601a60248201527f5769746864726177616c207472616e73666572206661696c65640000000000006044820152606490fd5b505f80516020613092833981519152546001600160a01b0316611d91565b60405162461bcd60e51b81526020600482015260146024820152734e6f2066756e647320746f20776974686472617760601b6044820152606490fd5b34610280576102ad611e8e366123e3565b91612561565b34610280575f366003190112610280576009546040516001600160a01b039091168152602090f35b34610280576060366003190112610280577fd378a4164f7b51ea70e857344abe0c937069a658b6847bf045b6351d29bb6b3b6060600435604435602435611f016128df565b82600255806003558160045560405192835260208301526040820152a1005b3461028057611f2e366123b4565b611f3782612912565b336001600160a01b0390911603611f8857611f8381611f797f459157ba24c7ab9878b165ef465fa6ae2ab42bcd8445f576be378768b0c4730993511515612504565b61068c818561294b565b0390a2005b60405162461bcd60e51b815260206004820152603060248201527f416476656e74757265723a204f6e6c7920746f6b656e206f776e65722063616e60448201526f20757064617465206d6574616461746160801b6064820152608490fd5b34610280576020366003190112610280576004358015158091036102805760207fc977af333cf8813c2d0975c679d4face4e304c8f859030b4379c4b21c84963a2916120306128df565b60ff196001541660ff821617600155604051908152a1005b34610280576040366003190112610280576120616122f8565b60243561206d816128b0565b33151580612121575b806120fe575b6120eb5781906001600160a01b0384811691167f8c5be1e5ebec7d5bd14f71427d1e84f3dd0314c0f7b2291e5b200ac8c7c3b9255f80a45f9081525f805160206130d28339815191526020526040902080546001600160a01b0319166001600160a01b03909216919091179055005b63a9fbf51f60e01b5f523360045260245ffd5b506121088161241d565b335f908152602091909152604090205460ff161561207c565b506001600160a01b038116331415612076565b3461028057602036600319011261028057602061151e600435612156816128b0565b505f9081525f805160206130d283398151915260205260409020546001600160a01b031690565b34610280575f366003190112610280576040515f5f80516020613072833981519152546121a9816124cc565b8084529060018116908115610d3757506001146121d0576106a08361068c81850382612324565b5f805160206130728339815191525f9081525f80516020613132833981519152939250905b80821061220d5750909150810160200161068c610cbd565b9192600181602092548385880101520191019092916121f5565b34610280575f366003190112610280576006546040516001600160a01b039091168152602090f35b34610280576020366003190112610280576004359063ffffffff60e01b821680920361028057602091632483248360e11b8114908115612291575b5015158152f35b6380ac58cd60e01b8114915081156122c3575b81156122b2575b508361228a565b6301ffc9a760e01b149050836122ab565b635b5e139f60e01b811491506122a4565b805180835260209291819084018484015e5f828201840152601f01601f1916010190565b600435906001600160a01b038216820361028057565b602435906001600160a01b038216820361028057565b90601f801991011681019081106001600160401b038211176111ef57604052565b6001600160401b0381116111ef57601f01601f191660200190565b92919261236c82612345565b9161237a6040519384612324565b829481845281830111610280578281602093845f960137010152565b9080601f83011215610280578160206123b193359101612360565b90565b9060406003198301126102805760043591602435906001600160401b038211610280576123b191600401612396565b6060906003190112610280576004356001600160a01b038116810361028057906024356001600160a01b0381168103610280579060443590565b6001600160a01b03165f9081527f80bb2b638cc20bc4d0a60d66940f3ab4a00c1d7b313497ca82fb0b4ab00793056020526040902090565b6001600160a01b03165f9081527f80bb2b638cc20bc4d0a60d66940f3ab4a00c1d7b313497ca82fb0b4ab00793036020526040902090565b906040600319830112610280576004356001600160a01b03811681036102805791602435906001600160401b038211610280576123b191600401612396565b90600182811c921680156124fa575b60208310146124e657565b634e487b7160e01b5f52602260045260245ffd5b91607f16916124db565b1561250b57565b60405162461bcd60e51b815260206004820152602860248201527f416476656e74757265723a204d65746164617461205552492063616e6e6f7420604482015267626520656d70747960c01b6064820152608490fd5b9091906001600160a01b0383168015612728578261257e81612912565b9133151580612675575b506001600160a01b038316956125a2908761263957612455565b60018154019055815f527f80bb2b638cc20bc4d0a60d66940f3ab4a00c1d7b313497ca82fb0b4ab007930260205260405f20816001600160601b0360a01b825416179055857fddf252ad1be2c89b69c2b068fc378daa952ba7f163c4a11628f55a4df523b3ef5f80a4506001600160a01b031680830361262157505050565b6364283d7b60e01b5f5260045260245260445260645ffd5b5f8481525f805160206130d28339815191526020526040902080546001600160a01b031916905561266985612455565b80545f19019055612455565b909150806126c2575b1561268b5783905f612588565b836001600160a01b0383166126ac57637e27328960e01b5f5260045260245ffd5b63177e802f60e01b5f523360045260245260445ffd5b506001600160a01b03821633148015612706575b8061267e57505f8481525f805160206130d283398151915260205260409020546001600160a01b0316331461267e565b506127108261241d565b335f908152602091909152604090205460ff166126d6565b633250574960e11b5f525f60045260245ffd5b3d15612765573d9061274c82612345565b9161275a6040519384612324565b82523d5f602084013e565b606090565b5f198114611b125760010190565b6001600160401b0381116111ef5760051b60200190565b6001600160a01b038116156127ab576127a790612455565b5490565b6322718ad960e21b5f525f60045260245ffd5b91908110156116185760051b0190565b356001600160a01b03811681036102805790565b156127e957565b60405162461bcd60e51b815260206004820152600f60248201526e496e76616c6964206164647265737360881b6044820152606490fd5b9081602091031261028057516001600160a01b03811681036102805790565b6001600160a01b0316801561289d575f8051602061309283398151915280546001600160a01b0319811683179091556001600160a01b03167f8be0079c531659141344cd1fd0a4f28419497f9722a3daafe3b4186f6b6457e05f80a3565b631e4fbdf760e01b5f525f60045260245ffd5b6128b981612912565b906001600160a01b038216156128cd575090565b637e27328960e01b5f5260045260245ffd5b5f80516020613092833981519152546001600160a01b031633036128ff57565b63118cdaa760e01b5f523360045260245ffd5b5f9081527f80bb2b638cc20bc4d0a60d66940f3ab4a00c1d7b313497ca82fb0b4ab007930260205260409020546001600160a01b031690565b919091805f527f0542a41881ee128a365a727b282c86fa859579490b9bb45aab8503648c8e790060205260405f2083516001600160401b0381116111ef5761299382546124cc565b601f8111612a8b575b506020601f8211600114612a0357908060209493927ff8e1a15aba9398e019f0b49df1a4fde98ee17ae345cb5f6b5e2c27f5033e8ce796975f926129f8575b50508160011b915f199060031b1c19161790555b604051908152a1565b015190505f806129db565b601f19821695835f52815f20965f5b818110612a73575096600192849260209796957ff8e1a15aba9398e019f0b49df1a4fde98ee17ae345cb5f6b5e2c27f5033e8ce7999a10612a5b575b505050811b0190556129ef565b01515f1960f88460031b161c191690555f8080612a4e565b83830151895560019098019760209384019301612a12565b825f5260205f20601f830160051c81019160208410612ac6575b601f0160051c01905b818110612abb575061299c565b5f8155600101612aae565b9091508190612aa5565b9060209060405190612ae28383612324565b5f82526001600160a01b03841693841561272857612aff82612912565b6001600160a01b03811680151591908490889084612c9b575b612b2186612455565b805460010190555f8381527f80bb2b638cc20bc4d0a60d66940f3ab4a00c1d7b313497ca82fb0b4ab00793028a526040812080546001600160a01b031916841790557fddf252ad1be2c89b69c2b068fc378daa952ba7f163c4a11628f55a4df523b3ef9080a450612c88573b612b98575b50505050565b91612bd591819495936040519384928392630a85bd0160e11b84523360048501525f602485015260448401526080606484015260848301906122d4565b03815f885af15f9181612c48575b50612c11575050612bf261273b565b8051919082612c0e5783633250574960e11b5f5260045260245ffd5b01fd5b909291506001600160e01b03191663757a42ff60e11b01612c3657505f808080612b92565b633250574960e11b5f5260045260245ffd5b9091508381813d8311612c81575b612c608183612324565b8101031261028057516001600160e01b03198116810361028057905f612be3565b503d612c56565b6339e3563760e11b5f525f60045260245ffd5b5f8381525f805160206130d28339815191526020526040902080546001600160a01b0319169055612ccb84612455565b80545f19019055612b18565b823b612ce5575b5050505050565b604051630a85bd0160e11b81526001600160a01b039182166004820152918116602483015260448201939093526080606482015291169160209082908190612d319060848301906122d4565b03815f865af15f9181612d8f575b50612d6d5750612d4d61273b565b80519081612d685782633250574960e11b5f5260045260245ffd5b602001fd5b6001600160e01b03191663757a42ff60e11b01612c3657505f80808080612cde565b9091506020813d602011612dcc575b81612dab60209383612324565b8101031261028057516001600160e01b03198116810361028057905f612d3f565b3d9150612d9e565b612ddd816128b0565b505f527f0542a41881ee128a365a727b282c86fa859579490b9bb45aab8503648c8e790060205260405f2060405190815f825492612e1a846124cc565b8084529360018116908115612e965750600114612e52575b50612e3f92500382612324565b5f604051612e4e602082612324565b5290565b90505f9291925260205f20905f915b818310612e7a575050906020612e3f928201015f612e32565b6020919350806001915483858801015201910190918392612e61565b905060209250612e3f94915060ff191682840152151560051b8201015f612e32565b8151919060418303612ee857612ee19250602082015190606060408401519301515f1a90612f91565b9192909190565b50505f9160029190565b6004811015612f525780612f04575050565b60018103612f1b5763f645eedf60e01b5f5260045ffd5b60028103612f36575063fce698f760e01b5f5260045260245ffd5b600314612f405750565b6335e2f38360e21b5f5260045260245ffd5b634e487b7160e01b5f52602160045260245ffd5b60ff5f805160206130f28339815191525460401c1615612f8257565b631afcd79f60e31b5f5260045ffd5b91907f7fffffffffffffffffffffffffffffff5d576e7357a4501ddfe92f46681b20a08411613008579160209360809260ff5f9560405194855216868401526040830152606082015282805260015afa15610812575f516001600160a01b03811615612ffe57905f905f90565b505f906001905f90565b5050505f9160039190565b90613037575080511561302857602081519101fd5b63d6bda27560e01b5f5260045ffd5b81511580613068575b613048575090565b639996b31560e01b5f9081526001600160a01b0391909116600452602490fd5b50803b1561304056fe80bb2b638cc20bc4d0a60d66940f3ab4a00c1d7b313497ca82fb0b4ab00793009016d09d72d40fdae2fd8ceac6b6234c7706214fd39c1cd1e609a0528c199300360894a13ba1a3210667c828492db98dca3e2076cc3735a920a3ca505d382bbc80bb2b638cc20bc4d0a60d66940f3ab4a00c1d7b313497ca82fb0b4ab0079304f0c57e16840df040f15088dc2f81fe391c3923bec73e23a9662efc9c229c6a0080bb2b638cc20bc4d0a60d66940f3ab4a00c1d7b313497ca82fb0b4ab007930137c58c799b6609234b945e882912ee9ad34948a1dfaa20a97485e1a7752bbf81f93f9a76c1bf3444d22400a00cb9fe990e6abe9dbb333fda48859cfee864543da26469706673582212205ed8fb4a4bc7e7101e686d586cc058faddce40da45619fece637b8e597945c8b64736f6c634300081a0033",
  "linkReferences": {},
  "deployedLinkReferences": {}
}