{
  "_format": "hh-sol-artifact-1",
  "contractName": "Adventurer",
  "sourceName": "contracts/Adventurer.sol",
  "abi": [
    {
      "inputs": [],
      "stateMutability": "nonpayable",
      "type": "constructor"
    },
    {
      "inputs": [
        {
          "internalType": "address",
          "name": "target",
          "type": "address"
        }
      ],
      "name": "AddressEmptyCode",
      "type": "error"
    },
    {
      "inputs": [
        {
          "internalType": "address",
          "name": "implementation",
          "type": "address"
        }
      ],
      "name": "ERC1967InvalidImplementation",
      "type": "error"
    },
    {
      "inputs": [],
      "name": "ERC1967NonPayable",
      "type": "error"
    },
    {
      "inputs": [
        {
          "internalType": "address",
          "name": "sender",
          "type": "address"
        },
        {
          "internalType": "uint256",
          "name": "tokenId",
          "type": "uint256"
        },
        {
          "internalType": "address",
          "name": "owner",
          "type": "address"
        }
      ],
      "name": "ERC721IncorrectOwner",
      "type": "error"
    },
    {
      "inputs": [
        {
          "internalType": "address",
          "name": "operator",
          "type": "address"
        },
        {
          "internalType": "uint256",
          "name": "tokenId",
          "type": "uint256"
        }
      ],
      "name": "ERC721InsufficientApproval",
      "type": "error"
    },
    {
      "inputs": [
        {
          "internalType": "address",
          "name": "approver",
          "type": "address"
        }
      ],
      "name": "ERC721InvalidApprover",
      "type": "error"
    },
    {
      "inputs": [
        {
          "internalType": "address",
          "name": "operator",
          "type": "address"
        }
      ],
      "name": "ERC721InvalidOperator",
      "type": "error"
    },
    {
      "inputs": [
        {
          "internalType": "address",
          "name": "owner",
          "type": "address"
        }
      ],
      "name": "ERC721InvalidOwner",
      "type": "error"
    },
    {
      "inputs": [
        {
          "internalType": "address",
          "name": "receiver",
          "type": "address"
        }
      ],
      "name": "ERC721InvalidReceiver",
      "type": "error"
    },
    {
      "inputs": [
        {
          "internalType": "address",
          "name": "sender",
          "type": "address"
        }
      ],
      "name": "ERC721InvalidSender",
      "type": "error"
    },
    {
      "inputs": [
        {
          "internalType": "uint256",
          "name": "tokenId",
          "type": "uint256"
        }
      ],
      "name": "ERC721NonexistentToken",
      "type": "error"
    },
    {
      "inputs": [],
      "name": "FailedCall",
      "type": "error"
    },
    {
      "inputs": [],
      "name": "InvalidInitialization",
      "type": "error"
    },
    {
      "inputs": [],
      "name": "NotInitializing",
      "type": "error"
    },
    {
      "inputs": [
        {
          "internalType": "address",
          "name": "owner",
          "type": "address"
        }
      ],
      "name": "OwnableInvalidOwner",
      "type": "error"
    },
    {
      "inputs": [
        {
          "internalType": "address",
          "name": "account",
          "type": "address"
        }
      ],
      "name": "OwnableUnauthorizedAccount",
      "type": "error"
    },
    {
      "inputs": [],
      "name": "UUPSUnauthorizedCallContext",
      "type": "error"
    },
    {
      "inputs": [
        {
          "internalType": "bytes32",
          "name": "slot",
          "type": "bytes32"
        }
      ],
      "name": "UUPSUnsupportedProxiableUUID",
      "type": "error"
    },
    {
      "anonymous": false,
      "inputs": [
        {
          "indexed": true,
          "internalType": "address",
          "name": "owner",
          "type": "address"
        },
        {
          "indexed": true,
          "internalType": "address",
          "name": "approved",
          "type": "address"
        },
        {
          "indexed": true,
          "internalType": "uint256",
          "name": "tokenId",
          "type": "uint256"
        }
      ],
      "name": "Approval",
      "type": "event"
    },
    {
      "anonymous": false,
      "inputs": [
        {
          "indexed": true,
          "internalType": "address",
          "name": "owner",
          "type": "address"
        },
        {
          "indexed": true,
          "internalType": "address",
          "name": "operator",
          "type": "address"
        },
        {
          "indexed": false,
          "internalType": "bool",
          "name": "approved",
          "type": "bool"
        }
      ],
      "name": "ApprovalForAll",
      "type": "event"
    },
    {
      "anonymous": false,
      "inputs": [
        {
          "indexed": false,
          "internalType": "uint256",
          "name": "_fromTokenId",
          "type": "uint256"
        },
        {
          "indexed": false,
          "internalType": "uint256",
          "name": "_toTokenId",
          "type": "uint256"
        }
      ],
      "name": "BatchMetadataUpdate",
      "type": "event"
    },
    {
      "anonymous": false,
      "inputs": [
        {
          "indexed": true,
          "internalType": "address",
          "name": "to",
          "type": "address"
        },
        {
          "indexed": true,
          "internalType": "uint256",
          "name": "tokenId",
          "type": "uint256"
        },
        {
          "indexed": false,
          "internalType": "string",
          "name": "metadataUri",
          "type": "string"
        }
      ],
      "name": "HeroMinted",
      "type": "event"
    },
    {
      "anonymous": false,
      "inputs": [
        {
          "indexed": false,
          "internalType": "uint64",
          "name": "version",
          "type": "uint64"
        }
      ],
      "name": "Initialized",
      "type": "event"
    },
    {
      "anonymous": false,
      "inputs": [
        {
          "indexed": false,
          "internalType": "uint256",
          "name": "_tokenId",
          "type": "uint256"
        }
      ],
      "name": "MetadataUpdate",
      "type": "event"
    },
    {
      "anonymous": false,
      "inputs": [
        {
          "indexed": true,
          "internalType": "uint256",
          "name": "tokenId",
          "type": "uint256"
        },
        {
          "indexed": false,
          "internalType": "string",
          "name": "newUri",
          "type": "string"
        }
      ],
      "name": "MetadataUpdated",
      "type": "event"
    },
    {
      "anonymous": false,
      "inputs": [
        {
          "indexed": true,
          "internalType": "address",
          "name": "previousOwner",
          "type": "address"
        },
        {
          "indexed": true,
          "internalType": "address",
          "name": "newOwner",
          "type": "address"
        }
      ],
      "name": "OwnershipTransferred",
      "type": "event"
    },
    {
      "anonymous": false,
      "inputs": [
        {
          "indexed": false,
          "internalType": "bool",
          "name": "enabled",
          "type": "bool"
        }
      ],
      "name": "PublicMintingToggled",
      "type": "event"
    },
    {
      "anonymous": false,
      "inputs": [
        {
          "indexed": true,
          "internalType": "address",
          "name": "from",
          "type": "address"
        },
        {
          "indexed": true,
          "internalType": "address",
          "name": "to",
          "type": "address"
        },
        {
          "indexed": true,
          "internalType": "uint256",
          "name": "tokenId",
          "type": "uint256"
        }
      ],
      "name": "Transfer",
      "type": "event"
    },
    {
      "anonymous": false,
      "inputs": [
        {
          "indexed": true,
          "internalType": "address",
          "name": "implementation",
          "type": "address"
        }
      ],
      "name": "Upgraded",
      "type": "event"
    },
    {
      "inputs": [],
      "name": "UPGRADE_INTERFACE_VERSION",
      "outputs": [
        {
          "internalType": "string",
          "name": "",
          "type": "string"
        }
      ],
      "stateMutability": "view",
      "type": "function"
    },
    {
      "inputs": [
        {
          "internalType": "address",
          "name": "to",
          "type": "address"
        },
        {
          "internalType": "uint256",
          "name": "tokenId",
          "type": "uint256"
        }
      ],
      "name": "approve",
      "outputs": [],
      "stateMutability": "nonpayable",
      "type": "function"
    },
    {
      "inputs": [
        {
          "internalType": "address",
          "name": "owner",
          "type": "address"
        }
      ],
      "name": "balanceOf",
      "outputs": [
        {
          "internalType": "uint256",
          "name": "",
          "type": "uint256"
        }
      ],
      "stateMutability": "view",
      "type": "function"
    },
    {
      "inputs": [
        {
          "internalType": "uint256",
          "name": "tokenId",
          "type": "uint256"
        }
      ],
      "name": "getApproved",
      "outputs": [
        {
          "internalType": "address",
          "name": "",
          "type": "address"
        }
      ],
      "stateMutability": "view",
      "type": "function"
    },
    {
      "inputs": [],
      "name": "initialize",
      "outputs": [],
      "stateMutability": "nonpayable",
      "type": "function"
    },
    {
      "inputs": [
        {
          "internalType": "address",
          "name": "owner",
          "type": "address"
        },
        {
          "internalType": "address",
          "name": "operator",
          "type": "address"
        }
      ],
      "name": "isApprovedForAll",
      "outputs": [
        {
          "internalType": "bool",
          "name": "",
          "type": "bool"
        }
      ],
      "stateMutability": "view",
      "type": "function"
    },
    {
      "inputs": [
        {
          "internalType": "address",
          "name": "to",
          "type": "address"
        },
        {
          "internalType": "string",
          "name": "metadataUri",
          "type": "string"
        }
      ],
      "name": "mintHero",
      "outputs": [
        {
          "internalType": "uint256",
          "name": "",
          "type": "uint256"
        }
      ],
      "stateMutability": "nonpayable",
      "type": "function"
    },
    {
      "inputs": [],
      "name": "name",
      "outputs": [
        {
          "internalType": "string",
          "name": "",
          "type": "string"
        }
      ],
      "stateMutability": "view",
      "type": "function"
    },
    {
      "inputs": [],
      "name": "owner",
      "outputs": [
        {
          "internalType": "address",
          "name": "",
          "type": "address"
        }
      ],
      "stateMutability": "view",
      "type": "function"
    },
    {
      "inputs": [
        {
          "internalType": "uint256",
          "name": "tokenId",
          "type": "uint256"
        }
      ],
      "name": "ownerOf",
      "outputs": [
        {
          "internalType": "address",
          "name": "",
          "type": "address"
        }
      ],
      "stateMutability": "view",
      "type": "function"
    },
    {
      "inputs": [],
      "name": "proxiableUUID",
      "outputs": [
        {
          "internalType": "bytes32",
          "name": "",
          "type": "bytes32"
        }
      ],
      "stateMutability": "view",
      "type": "function"
    },
    {
      "inputs": [],
      "name": "publicMintingEnabled",
      "outputs": [
        {
          "internalType": "bool",
          "name": "",
          "type": "bool"
        }
      ],
      "stateMutability": "view",
      "type": "function"
    },
    {
      "inputs": [],
      "name": "renounceOwnership",
      "outputs": [],
      "stateMutability": "nonpayable",
      "type": "function"
    },
    {
      "inputs": [
        {
          "internalType": "address",
          "name": "to",
          "type": "address"
        },
        {
          "internalType": "string",
          "name": "uri",
          "type": "string"
        }
      ],
      "name": "safeMint",
      "outputs": [
        {
          "internalType": "uint256",
          "name": "",
          "type": "uint256"
        }
      ],
      "stateMutability": "nonpayable",
      "type": "function"
    },
    {
      "inputs": [
        {
          "internalType": "address",
          "name": "from",
          "type": "address"
        },
        {
          "internalType": "address",
          "name": "to",
          "type": "address"
        },
        {
          "internalType": "uint256",
          "name": "tokenId",
          "type": "uint256"
        }
      ],
      "name": "safeTransferFrom",
      "outputs": [],
      "stateMutability": "nonpayable",
      "type": "function"
    },
    {
      "inputs": [
        {
          "internalType": "address",
          "name": "from",
          "type": "address"
        },
        {
          "internalType": "address",
          "name": "to",
          "type": "address"
        },
        {
          "internalType": "uint256",
          "name": "tokenId",
          "type": "uint256"
        },
        {
          "internalType": "bytes",
          "name": "data",
          "type": "bytes"
        }
      ],
      "name": "safeTransferFrom",
      "outputs": [],
      "stateMutability": "nonpayable",
      "type": "function"
    },
    {
      "inputs": [
        {
          "internalType": "address",
          "name": "operator",
          "type": "address"
        },
        {
          "internalType": "bool",
          "name": "approved",
          "type": "bool"
        }
      ],
      "name": "setApprovalForAll",
      "outputs": [],
      "stateMutability": "nonpayable",
      "type": "function"
    },
    {
      "inputs": [
        {
          "internalType": "bool",
          "name": "enabled",
          "type": "bool"
        }
      ],
      "name": "setPublicMintingEnabled",
      "outputs": [],
      "stateMutability": "nonpayable",
      "type": "function"
    },
    {
      "inputs": [
        {
          "internalType": "bytes4",
          "name": "interfaceId",
          "type": "bytes4"
        }
      ],
      "name": "supportsInterface",
      "outputs": [
        {
          "internalType": "bool",
          "name": "",
          "type": "bool"
        }
      ],
      "stateMutability": "view",
      "type": "function"
    },
    {
      "inputs": [],
      "name": "symbol",
      "outputs": [
        {
          "internalType": "string",
          "name": "",
          "type": "string"
        }
      ],
      "stateMutability": "view",
      "type": "function"
    },
    {
      "inputs": [
        {
          "internalType": "uint256",
          "name": "tokenId",
          "type": "uint256"
        }
      ],
      "name": "tokenURI",
      "outputs": [
        {
          "internalType": "string",
          "name": "",
          "type": "string"
        }
      ],
      "stateMutability": "view",
      "type": "function"
    },
    {
      "inputs": [
        {
          "internalType": "address",
          "name": "from",
          "type": "address"
        },
        {
          "internalType": "address",
          "name": "to",
          "type": "address"
        },
        {
          "internalType": "uint256",
          "name": "tokenId",
          "type": "uint256"
        }
      ],
      "name": "transferFrom",
      "outputs": [],
      "stateMutability": "nonpayable",
      "type": "function"
    },
    {
      "inputs": [
        {
          "internalType": "address",
          "name": "newOwner",
          "type": "address"
        }
      ],
      "name": "transferOwnership",
      "outputs": [],
      "stateMutability": "nonpayable",
      "type": "function"
    },
    {
      "inputs": [
        {
          "internalType": "uint256",
          "name": "tokenId",
          "type": "uint256"
        },
        {
          "internalType": "string",
          "name": "newUri",
          "type": "string"
        }
      ],
      "name": "updateTokenURI",
      "outputs": [],
      "stateMutability": "nonpayable",
      "type": "function"
    },
    {
      "inputs": [
        {
          "internalType": "address",
          "name": "newImplementation",
          "type": "address"
        },
        {
          "internalType": "bytes",
          "name": "data",
          "type": "bytes"
        }
      ],
      "name": "upgradeToAndCall",
      "outputs": [],
      "stateMutability": "payable",
      "type": "function"
    }
  ],
  "bytecode": "0x60a060405230608052348015610013575f80fd5b5061001c610021565b6100d3565b7ff0c57e16840df040f15088dc2f81fe391c3923bec73e23a9662efc9c229c6a00805468010000000000000000900460ff16156100715760405163f92ee8a960e01b815260040160405180910390fd5b80546001600160401b03908116146100d05780546001600160401b0319166001600160401b0390811782556040519081527fc7f505b2f371ae2175ee4913f4499e1f2633a7b5936321eed1cdaeb6115181d29060200160405180910390a15b50565b6080516120496100f95f395f8181610e0701528181610e300152610f6f01526120495ff3fe608060405260043610610161575f3560e01c8063715018a6116100cd578063a8cc5ee411610087578063c87b56dd11610062578063c87b56dd1461041f578063d204c45e1461043e578063e985e9c51461045d578063f2fde38b1461047c575f80fd5b8063a8cc5ee4146103b1578063ad3cb1cc146103d0578063b88d4fde14610400575f80fd5b8063715018a6146103015780638129fc1c146103155780638da5cb5b146103295780638dec9f7a1461036557806395d89b411461037e578063a22cb46514610392575f80fd5b806323b872dd1161011e57806323b872dd1461025057806342842e0e1461026f5780634f1ef2861461028e57806352d1902d146102a15780636352211e146102c357806370a08231146102e2575f80fd5b806301ffc9a71461016557806306fdde0314610199578063081812fc146101ba578063095ea7b3146101f15780631835dbe61461021257806318e97fd114610231575b5f80fd5b348015610170575f80fd5b5061018461017f366004611a57565b61049b565b60405190151581526020015b60405180910390f35b3480156101a4575f80fd5b506101ad6104ab565b6040516101909190611abf565b3480156101c5575f80fd5b506101d96101d4366004611ad1565b61054c565b6040516001600160a01b039091168152602001610190565b3480156101fc575f80fd5b5061021061020b366004611b03565b610560565b005b34801561021d575f80fd5b5061021061022c366004611b3a565b61056f565b34801561023c575f80fd5b5061021061024b366004611bf0565b6105be565b34801561025b575f80fd5b5061021061026a366004611c34565b6106a2565b34801561027a575f80fd5b50610210610289366004611c34565b61072b565b61021061029c366004611c6d565b61074a565b3480156102ac575f80fd5b506102b5610765565b604051908152602001610190565b3480156102ce575f80fd5b506101d96102dd366004611ad1565b610780565b3480156102ed575f80fd5b506102b56102fc366004611ca2565b61078a565b34801561030c575f80fd5b506102106107e2565b348015610320575f80fd5b506102106107f5565b348015610334575f80fd5b507f9016d09d72d40fdae2fd8ceac6b6234c7706214fd39c1cd1e609a0528c199300546001600160a01b03166101d9565b348015610370575f80fd5b506001546101849060ff1681565b348015610389575f80fd5b506101ad61095f565b34801561039d575f80fd5b506102106103ac366004611cbb565b61099d565b3480156103bc575f80fd5b506102b56103cb366004611c6d565b6109a8565b3480156103db575f80fd5b506101ad604051806040016040528060058152602001640352e302e360dc1b81525081565b34801561040b575f80fd5b5061021061041a366004611cec565b610a9c565b34801561042a575f80fd5b506101ad610439366004611ad1565b610ab4565b348015610449575f80fd5b506102b5610458366004611c6d565b610abf565b348015610468575f80fd5b50610184610477366004611d50565b610ac8565b348015610487575f80fd5b50610210610496366004611ca2565b610b14565b5f6104a582610b51565b92915050565b5f80516020611fd483398151915280546060919081906104ca90611d78565b80601f01602080910402602001604051908101604052809291908181526020018280546104f690611d78565b80156105415780601f1061051857610100808354040283529160200191610541565b820191905f5260205f20905b81548152906001019060200180831161052457829003601f168201915b505050505091505090565b5f61055682610b75565b506104a582610bac565b61056b828233610be5565b5050565b610577610bf2565b6001805460ff19168215159081179091556040519081527fc977af333cf8813c2d0975c679d4face4e304c8f859030b4379c4b21c84963a29060200160405180910390a150565b336105c883610c4d565b6001600160a01b03161461063c5760405162461bcd60e51b815260206004820152603060248201527f416476656e74757265723a204f6e6c7920746f6b656e206f776e65722063616e60448201526f20757064617465206d6574616461746160801b60648201526084015b60405180910390fd5b5f81511161065c5760405162461bcd60e51b815260040161063390611db0565b6106668282610c86565b817f459157ba24c7ab9878b165ef465fa6ae2ab42bcd8445f576be378768b0c47309826040516106969190611abf565b60405180910390a25050565b6001600160a01b0382166106cb57604051633250574960e11b81525f6004820152602401610633565b5f6106d7838333610cf8565b9050836001600160a01b0316816001600160a01b031614610725576040516364283d7b60e01b81526001600160a01b0380861660048301526024820184905282166044820152606401610633565b50505050565b61074583838360405180602001604052805f815250610a9c565b505050565b610752610dfc565b61075b82610ea0565b61056b8282610ea8565b5f61076e610f64565b505f80516020611ff483398151915290565b5f6104a582610b75565b5f5f80516020611fd48339815191526001600160a01b0383166107c2576040516322718ad960e21b81525f6004820152602401610633565b6001600160a01b039092165f908152600390920160205250604090205490565b6107ea610bf2565b6107f35f610fad565b565b5f6107fe61101d565b805490915060ff600160401b820416159067ffffffffffffffff165f811580156108255750825b90505f8267ffffffffffffffff1660011480156108415750303b155b90508115801561084f575080155b1561086d5760405163f92ee8a960e01b815260040160405180910390fd5b845467ffffffffffffffff19166001178555831561089757845460ff60401b1916600160401b1785555b6108ef6040518060400160405280601481526020017324b73725b2b2b832b91020b23b32b73a3ab932b960611b8152506040518060400160405280600a81526020016920a22b22a72a2aa922a960b11b815250611045565b6108f7611057565b6109003361105f565b610908611057565b6001805460ff19169055831561095857845460ff60401b19168555604051600181527fc7f505b2f371ae2175ee4913f4499e1f2633a7b5936321eed1cdaeb6115181d29060200160405180910390a15b5050505050565b7f80bb2b638cc20bc4d0a60d66940f3ab4a00c1d7b313497ca82fb0b4ab007930180546060915f80516020611fd4833981519152916104ca90611d78565b61056b338383611070565b6001545f9060ff16610a0b5760405162461bcd60e51b815260206004820152602660248201527f416476656e74757265723a205075626c6963206d696e74696e672069732064696044820152651cd8589b195960d21b6064820152608401610633565b5f825111610a2b5760405162461bcd60e51b815260040161063390611db0565b5f80548180610a3983611df8565b919050559050610a49848261111f565b610a538184610c86565b80846001600160a01b03167f3106bdf16888d22e9467849f0285221a7a088f57cca491fb82ddfa8e7f207d5185604051610a8d9190611abf565b60405180910390a39392505050565b610aa78484846106a2565b6107253385858585611138565b60606104a58261125f565b5f610a2b610bf2565b6001600160a01b039182165f9081527f80bb2b638cc20bc4d0a60d66940f3ab4a00c1d7b313497ca82fb0b4ab00793056020908152604080832093909416825291909152205460ff1690565b610b1c610bf2565b6001600160a01b038116610b4557604051631e4fbdf760e01b81525f6004820152602401610633565b610b4e81610fad565b50565b5f6001600160e01b03198216632483248360e11b14806104a557506104a58261138e565b5f80610b8083610c4d565b90506001600160a01b0381166104a557604051637e27328960e01b815260048101849052602401610633565b5f9081527f80bb2b638cc20bc4d0a60d66940f3ab4a00c1d7b313497ca82fb0b4ab007930460205260409020546001600160a01b031690565b61074583838360016113dd565b33610c247f9016d09d72d40fdae2fd8ceac6b6234c7706214fd39c1cd1e609a0528c199300546001600160a01b031690565b6001600160a01b0316146107f35760405163118cdaa760e01b8152336004820152602401610633565b5f9081527f80bb2b638cc20bc4d0a60d66940f3ab4a00c1d7b313497ca82fb0b4ab007930260205260409020546001600160a01b031690565b5f8281527f0542a41881ee128a365a727b282c86fa859579490b9bb45aab8503648c8e790060208190526040909120610cbf8382611e60565b506040518381527ff8e1a15aba9398e019f0b49df1a4fde98ee17ae345cb5f6b5e2c27f5033e8ce79060200160405180910390a1505050565b5f5f80516020611fd483398151915281610d1185610c4d565b90506001600160a01b03841615610d2d57610d2d8185876114f0565b6001600160a01b03811615610d6957610d485f865f806113dd565b6001600160a01b0381165f908152600383016020526040902080545f190190555b6001600160a01b03861615610d99576001600160a01b0386165f9081526003830160205260409020805460010190555b5f85815260028301602052604080822080546001600160a01b0319166001600160a01b038a811691821790925591518893918516917fddf252ad1be2c89b69c2b068fc378daa952ba7f163c4a11628f55a4df523b3ef91a49150505b9392505050565b306001600160a01b037f0000000000000000000000000000000000000000000000000000000000000000161480610e8257507f00000000000000000000000000000000000000000000000000000000000000006001600160a01b0316610e765f80516020611ff4833981519152546001600160a01b031690565b6001600160a01b031614155b156107f35760405163703e46dd60e11b815260040160405180910390fd5b610b4e610bf2565b816001600160a01b03166352d1902d6040518163ffffffff1660e01b8152600401602060405180830381865afa925050508015610f02575060408051601f3d908101601f19168201909252610eff91810190611f1c565b60015b610f2a57604051634c9c8ce360e01b81526001600160a01b0383166004820152602401610633565b5f80516020611ff48339815191528114610f5a57604051632a87526960e21b815260048101829052602401610633565b6107458383611554565b306001600160a01b037f000000000000000000000000000000000000000000000000000000000000000016146107f35760405163703e46dd60e11b815260040160405180910390fd5b7f9016d09d72d40fdae2fd8ceac6b6234c7706214fd39c1cd1e609a0528c19930080546001600160a01b031981166001600160a01b03848116918217845560405192169182907f8be0079c531659141344cd1fd0a4f28419497f9722a3daafe3b4186f6b6457e0905f90a3505050565b5f807ff0c57e16840df040f15088dc2f81fe391c3923bec73e23a9662efc9c229c6a006104a5565b61104d6115a9565b61056b82826115ce565b6107f36115a9565b6110676115a9565b610b4e816115fe565b5f80516020611fd48339815191526001600160a01b0383166110b057604051630b61174360e31b81526001600160a01b0384166004820152602401610633565b6001600160a01b038481165f818152600584016020908152604080832094881680845294825291829020805460ff191687151590811790915591519182527f17307eab39ab6107e8899845ad3d59bd9653f200f220920489ca2b5937696c31910160405180910390a350505050565b61056b828260405180602001604052805f815250611606565b6001600160a01b0383163b1561095857604051630a85bd0160e11b81526001600160a01b0384169063150b7a029061117a908890889087908790600401611f33565b6020604051808303815f875af19250505080156111b4575060408051601f3d908101601f191682019092526111b191810190611f6f565b60015b61121b573d8080156111e1576040519150601f19603f3d011682016040523d82523d5f602084013e6111e6565b606091505b5080515f0361121357604051633250574960e11b81526001600160a01b0385166004820152602401610633565b805160208201fd5b6001600160e01b03198116630a85bd0160e11b1461125757604051633250574960e11b81526001600160a01b0385166004820152602401610633565b505050505050565b60607f0542a41881ee128a365a727b282c86fa859579490b9bb45aab8503648c8e790061128b83610b75565b505f83815260208290526040812080546112a490611d78565b80601f01602080910402602001604051908101604052809291908181526020018280546112d090611d78565b801561131b5780601f106112f25761010080835404028352916020019161131b565b820191905f5260205f20905b8154815290600101906020018083116112fe57829003601f168201915b505050505090505f61133760408051602081019091525f815290565b905080515f0361134957509392505050565b81511561137c578082604051602001611363929190611f8a565b6040516020818303038152906040529350505050919050565b6113858561161d565b95945050505050565b5f6001600160e01b031982166380ac58cd60e01b14806113be57506001600160e01b03198216635b5e139f60e01b145b806104a557506301ffc9a760e01b6001600160e01b03198316146104a5565b5f80516020611fd483398151915281806113ff57506001600160a01b03831615155b156114c0575f61140e85610b75565b90506001600160a01b0384161580159061143a5750836001600160a01b0316816001600160a01b031614155b801561144d575061144b8185610ac8565b155b156114765760405163a9fbf51f60e01b81526001600160a01b0385166004820152602401610633565b82156114be5784866001600160a01b0316826001600160a01b03167f8c5be1e5ebec7d5bd14f71427d1e84f3dd0314c0f7b2291e5b200ac8c7c3b92560405160405180910390a45b505b5f93845260040160205250506040902080546001600160a01b0319166001600160a01b0392909216919091179055565b6114fb83838361168d565b610745576001600160a01b03831661152957604051637e27328960e01b815260048101829052602401610633565b60405163177e802f60e01b81526001600160a01b038316600482015260248101829052604401610633565b61155d826116f2565b6040516001600160a01b038316907fbc7cd75a20ee27fd9adebab32041f755214dbc6bffa90cc0225b39da2e5c2d3b905f90a28051156115a1576107458282611755565b61056b6117be565b6115b16117dd565b6107f357604051631afcd79f60e31b815260040160405180910390fd5b6115d66115a9565b5f80516020611fd4833981519152806115ef8482611e60565b50600181016107258382611e60565b610b1c6115a9565b61161083836117f6565b610745335f858585611138565b606061162882610b75565b505f61163e60408051602081019091525f815290565b90505f81511161165c5760405180602001604052805f815250610df5565b8061166684611857565b604051602001611677929190611f8a565b6040516020818303038152906040529392505050565b5f6001600160a01b038316158015906116ea5750826001600160a01b0316846001600160a01b031614806116c657506116c68484610ac8565b806116ea5750826001600160a01b03166116df83610bac565b6001600160a01b0316145b949350505050565b806001600160a01b03163b5f0361172757604051634c9c8ce360e01b81526001600160a01b0382166004820152602401610633565b5f80516020611ff483398151915280546001600160a01b0319166001600160a01b0392909216919091179055565b60605f80846001600160a01b0316846040516117719190611fb8565b5f60405180830381855af49150503d805f81146117a9576040519150601f19603f3d011682016040523d82523d5f602084013e6117ae565b606091505b50915091506113858583836118e7565b34156107f35760405163b398979f60e01b815260040160405180910390fd5b5f6117e661101d565b54600160401b900460ff16919050565b6001600160a01b03821661181f57604051633250574960e11b81525f6004820152602401610633565b5f61182b83835f610cf8565b90506001600160a01b03811615610745576040516339e3563760e11b81525f6004820152602401610633565b60605f61186383611943565b60010190505f8167ffffffffffffffff81111561188257611882611b53565b6040519080825280601f01601f1916602001820160405280156118ac576020820181803683370190505b5090508181016020015b5f19016f181899199a1a9b1b9c1cb0b131b232b360811b600a86061a8153600a85049450846118b657509392505050565b6060826118fc576118f782611a1a565b610df5565b815115801561191357506001600160a01b0384163b155b1561193c57604051639996b31560e01b81526001600160a01b0385166004820152602401610633565b5080610df5565b5f8072184f03e93ff9f4daa797ed6e38ed64bf6a1f0160401b83106119815772184f03e93ff9f4daa797ed6e38ed64bf6a1f0160401b830492506040015b6d04ee2d6d415b85acef810000000083106119ad576d04ee2d6d415b85acef8100000000830492506020015b662386f26fc1000083106119cb57662386f26fc10000830492506010015b6305f5e10083106119e3576305f5e100830492506008015b61271083106119f757612710830492506004015b60648310611a09576064830492506002015b600a83106104a55760010192915050565b805115611a2957805160208201fd5b60405163d6bda27560e01b815260040160405180910390fd5b6001600160e01b031981168114610b4e575f80fd5b5f60208284031215611a67575f80fd5b8135610df581611a42565b5f5b83811015611a8c578181015183820152602001611a74565b50505f910152565b5f8151808452611aab816020860160208601611a72565b601f01601f19169290920160200192915050565b602081525f610df56020830184611a94565b5f60208284031215611ae1575f80fd5b5035919050565b80356001600160a01b0381168114611afe575f80fd5b919050565b5f8060408385031215611b14575f80fd5b611b1d83611ae8565b946020939093013593505050565b80358015158114611afe575f80fd5b5f60208284031215611b4a575f80fd5b610df582611b2b565b634e487b7160e01b5f52604160045260245ffd5b5f82601f830112611b76575f80fd5b813567ffffffffffffffff80821115611b9157611b91611b53565b604051601f8301601f19908116603f01168101908282118183101715611bb957611bb9611b53565b81604052838152866020858801011115611bd1575f80fd5b836020870160208301375f602085830101528094505050505092915050565b5f8060408385031215611c01575f80fd5b82359150602083013567ffffffffffffffff811115611c1e575f80fd5b611c2a85828601611b67565b9150509250929050565b5f805f60608486031215611c46575f80fd5b611c4f84611ae8565b9250611c5d60208501611ae8565b9150604084013590509250925092565b5f8060408385031215611c7e575f80fd5b611c8783611ae8565b9150602083013567ffffffffffffffff811115611c1e575f80fd5b5f60208284031215611cb2575f80fd5b610df582611ae8565b5f8060408385031215611ccc575f80fd5b611cd583611ae8565b9150611ce360208401611b2b565b90509250929050565b5f805f8060808587031215611cff575f80fd5b611d0885611ae8565b9350611d1660208601611ae8565b925060408501359150606085013567ffffffffffffffff811115611d38575f80fd5b611d4487828801611b67565b91505092959194509250565b5f8060408385031215611d61575f80fd5b611d6a83611ae8565b9150611ce360208401611ae8565b600181811c90821680611d8c57607f821691505b602082108103611daa57634e487b7160e01b5f52602260045260245ffd5b50919050565b60208082526028908201527f416476656e74757265723a204d65746164617461205552492063616e6e6f7420604082015267626520656d70747960c01b606082015260800190565b5f60018201611e1557634e487b7160e01b5f52601160045260245ffd5b5060010190565b601f82111561074557805f5260205f20601f840160051c81016020851015611e415750805b601f840160051c820191505b81811015610958575f8155600101611e4d565b815167ffffffffffffffff811115611e7a57611e7a611b53565b611e8e81611e888454611d78565b84611e1c565b602080601f831160018114611ec1575f8415611eaa5750858301515b5f19600386901b1c1916600185901b178555611257565b5f85815260208120601f198616915b82811015611eef57888601518255948401946001909101908401611ed0565b5085821015611f0c57878501515f19600388901b60f8161c191681555b5050505050600190811b01905550565b5f60208284031215611f2c575f80fd5b5051919050565b6001600160a01b03858116825284166020820152604081018390526080606082018190525f90611f6590830184611a94565b9695505050505050565b5f60208284031215611f7f575f80fd5b8151610df581611a42565b5f8351611f9b818460208801611a72565b835190830190611faf818360208801611a72565b01949350505050565b5f8251611fc9818460208701611a72565b919091019291505056fe80bb2b638cc20bc4d0a60d66940f3ab4a00c1d7b313497ca82fb0b4ab0079300360894a13ba1a3210667c828492db98dca3e2076cc3735a920a3ca505d382bbca264697066735822122013e4579d1f901d429ce7b7552afbe22f10688d2abb16ac987719b87a19cb5e6764736f6c63430008180033",
  "linkReferences": {},
  "deployedLinkReferences": {}
}